{
  "address": "0x5f3f1dBD7B74C6B46e8c44f98792A1dAf8d69154",
  "abi": [
    {
      "anonymous": false,
      "inputs": [
        {
          "indexed": true,
          "internalType": "address",
          "name": "owner",
          "type": "address"
        },
        {
          "indexed": true,
          "internalType": "address",
          "name": "approved",
          "type": "address"
        },
        {
          "indexed": true,
          "internalType": "uint256",
          "name": "tokenId",
          "type": "uint256"
        }
      ],
      "name": "Approval",
      "type": "event"
    },
    {
      "anonymous": false,
      "inputs": [
        {
          "indexed": true,
          "internalType": "address",
          "name": "owner",
          "type": "address"
        },
        {
          "indexed": true,
          "internalType": "address",
          "name": "operator",
          "type": "address"
        },
        {
          "indexed": false,
          "internalType": "bool",
          "name": "approved",
          "type": "bool"
        }
      ],
      "name": "ApprovalForAll",
      "type": "event"
    },
    {
      "anonymous": false,
      "inputs": [
        {
          "indexed": true,
          "internalType": "address",
          "name": "by",
          "type": "address"
        },
        {
          "indexed": true,
          "internalType": "string",
          "name": "name",
          "type": "string"
        },
        {
          "indexed": true,
          "internalType": "enum D1DCV2.EmojiType",
          "name": "emoji",
          "type": "uint8"
        }
      ],
      "name": "EmojiReactionAdded",
      "type": "event"
    },
    {
      "anonymous": false,
      "inputs": [
        {
          "indexed": false,
          "internalType": "uint8",
          "name": "version",
          "type": "uint8"
        }
      ],
      "name": "Initialized",
      "type": "event"
    },
    {
      "anonymous": false,
      "inputs": [
        {
          "indexed": true,
          "internalType": "string",
          "name": "name",
          "type": "string"
        },
        {
          "indexed": true,
          "internalType": "address",
          "name": "renter",
          "type": "address"
        },
        {
          "indexed": false,
          "internalType": "uint256",
          "name": "price",
          "type": "uint256"
        },
        {
          "indexed": false,
          "internalType": "string",
          "name": "url",
          "type": "string"
        }
      ],
      "name": "NameRented",
      "type": "event"
    },
    {
      "anonymous": false,
      "inputs": [
        {
          "indexed": true,
          "internalType": "address",
          "name": "previousOwner",
          "type": "address"
        },
        {
          "indexed": true,
          "internalType": "address",
          "name": "newOwner",
          "type": "address"
        }
      ],
      "name": "OwnershipTransferred",
      "type": "event"
    },
    {
      "anonymous": false,
      "inputs": [
        {
          "indexed": false,
          "internalType": "address",
          "name": "account",
          "type": "address"
        }
      ],
      "name": "Paused",
      "type": "event"
    },
    {
      "anonymous": false,
      "inputs": [
        {
          "indexed": false,
          "internalType": "address",
          "name": "from",
          "type": "address"
        },
        {
          "indexed": false,
          "internalType": "address",
          "name": "to",
          "type": "address"
        }
      ],
      "name": "RevenueAccountChanged",
      "type": "event"
    },
    {
      "anonymous": false,
      "inputs": [
        {
          "indexed": true,
          "internalType": "address",
          "name": "from",
          "type": "address"
        },
        {
          "indexed": true,
          "internalType": "address",
          "name": "to",
          "type": "address"
        },
        {
          "indexed": true,
          "internalType": "uint256",
          "name": "tokenId",
          "type": "uint256"
        }
      ],
      "name": "Transfer",
      "type": "event"
    },
    {
      "anonymous": false,
      "inputs": [
        {
          "indexed": true,
          "internalType": "string",
          "name": "name",
          "type": "string"
        },
        {
          "indexed": true,
          "internalType": "address",
          "name": "renter",
          "type": "address"
        },
        {
          "indexed": false,
          "internalType": "string",
          "name": "oldUrl",
          "type": "string"
        },
        {
          "indexed": false,
          "internalType": "string",
          "name": "newUrl",
          "type": "string"
        }
      ],
      "name": "URLUpdated",
      "type": "event"
    },
    {
      "anonymous": false,
      "inputs": [
        {
          "indexed": false,
          "internalType": "address",
          "name": "account",
          "type": "address"
        }
      ],
      "name": "Unpaused",
      "type": "event"
    },
    {
      "inputs": [
        {
          "internalType": "string",
          "name": "name",
          "type": "string"
        },
        {
          "internalType": "enum D1DCV2.EmojiType",
          "name": "emojiType",
          "type": "uint8"
        }
      ],
      "name": "addEmojiReaction",
      "outputs": [],
      "stateMutability": "payable",
      "type": "function"
    },
    {
      "inputs": [
        {
          "internalType": "string",
          "name": "telegram",
          "type": "string"
        },
        {
          "internalType": "string",
          "name": "email",
          "type": "string"
        },
        {
          "internalType": "string",
          "name": "phone",
          "type": "string"
        }
      ],
      "name": "addOwnerInfo",
      "outputs": [],
      "stateMutability": "payable",
      "type": "function"
    },
    {
      "inputs": [
        {
          "internalType": "address",
          "name": "to",
          "type": "address"
        },
        {
          "internalType": "uint256",
          "name": "tokenId",
          "type": "uint256"
        }
      ],
      "name": "approve",
      "outputs": [],
      "stateMutability": "nonpayable",
      "type": "function"
    },
    {
      "inputs": [
        {
          "internalType": "address",
          "name": "owner",
          "type": "address"
        }
      ],
      "name": "balanceOf",
      "outputs": [
        {
          "internalType": "uint256",
          "name": "",
          "type": "uint256"
        }
      ],
      "stateMutability": "view",
      "type": "function"
    },
    {
      "inputs": [],
      "name": "baseRentalPrice",
      "outputs": [
        {
          "internalType": "uint256",
          "name": "",
          "type": "uint256"
        }
      ],
      "stateMutability": "view",
      "type": "function"
    },
    {
      "inputs": [],
      "name": "emailRevealPrice",
      "outputs": [
        {
          "internalType": "uint256",
          "name": "",
          "type": "uint256"
        }
      ],
      "stateMutability": "view",
      "type": "function"
    },
    {
      "inputs": [
        {
          "internalType": "bytes32",
          "name": "",
          "type": "bytes32"
        },
        {
          "internalType": "enum D1DCV2.EmojiType",
          "name": "",
          "type": "uint8"
        }
      ],
      "name": "emojiReactionCounters",
      "outputs": [
        {
          "internalType": "uint256",
          "name": "",
          "type": "uint256"
        }
      ],
      "stateMutability": "view",
      "type": "function"
    },
    {
      "inputs": [
        {
          "internalType": "enum D1DCV2.EmojiType",
          "name": "",
          "type": "uint8"
        }
      ],
      "name": "emojiReactionPrices",
      "outputs": [
        {
          "internalType": "uint256",
          "name": "",
          "type": "uint256"
        }
      ],
      "stateMutability": "view",
      "type": "function"
    },
    {
      "inputs": [],
      "name": "finishNameInitialization",
      "outputs": [],
      "stateMutability": "nonpayable",
      "type": "function"
    },
    {
      "inputs": [
        {
          "internalType": "uint256",
          "name": "tokenId",
          "type": "uint256"
        }
      ],
      "name": "getApproved",
      "outputs": [
        {
          "internalType": "address",
          "name": "",
          "type": "address"
        }
      ],
      "stateMutability": "view",
      "type": "function"
    },
    {
      "inputs": [
        {
          "internalType": "string",
          "name": "name",
          "type": "string"
        }
      ],
      "name": "getOwnerEmail",
      "outputs": [
        {
          "internalType": "string",
          "name": "",
          "type": "string"
        }
      ],
      "stateMutability": "nonpayable",
      "type": "function"
    },
    {
      "inputs": [
        {
          "internalType": "string",
          "name": "name",
          "type": "string"
        }
      ],
      "name": "getOwnerPhone",
      "outputs": [
        {
          "internalType": "string",
          "name": "",
          "type": "string"
        }
      ],
      "stateMutability": "nonpayable",
      "type": "function"
    },
    {
      "inputs": [
        {
          "internalType": "string",
          "name": "name",
          "type": "string"
        }
      ],
      "name": "getOwnerTelegram",
      "outputs": [
        {
          "internalType": "string",
          "name": "",
          "type": "string"
        }
      ],
      "stateMutability": "nonpayable",
      "type": "function"
    },
    {
      "inputs": [
        {
          "internalType": "bytes32",
          "name": "encodedName",
          "type": "bytes32"
        }
      ],
      "name": "getPrice",
      "outputs": [
        {
          "internalType": "uint256",
          "name": "",
          "type": "uint256"
        }
      ],
      "stateMutability": "view",
      "type": "function"
    },
    {
      "inputs": [
        {
          "internalType": "uint256",
          "name": "start",
          "type": "uint256"
        },
        {
          "internalType": "uint256",
          "name": "end",
          "type": "uint256"
        }
      ],
      "name": "getRecordKeys",
      "outputs": [
        {
          "internalType": "bytes32[]",
          "name": "",
          "type": "bytes32[]"
        }
      ],
      "stateMutability": "view",
      "type": "function"
    },
    {
      "inputs": [
        {
          "internalType": "string",
          "name": "_name",
          "type": "string"
        },
        {
          "internalType": "string",
          "name": "_symbol",
          "type": "string"
        },
        {
          "internalType": "uint256",
          "name": "_baseRentalPrice",
          "type": "uint256"
        },
        {
          "internalType": "uint32",
          "name": "_rentalPeriod",
          "type": "uint32"
        },
        {
          "internalType": "uint32",
          "name": "_priceMultiplier",
          "type": "uint32"
        },
        {
          "internalType": "address",
          "name": "_revenueAccount",
          "type": "address"
        },
        {
          "internalType": "uint256",
          "name": "_telegramRevealPrice",
          "type": "uint256"
        },
        {
          "internalType": "uint256",
          "name": "_emailRevealPrice",
          "type": "uint256"
        },
        {
          "internalType": "uint256",
          "name": "_phoneRevealPrice",
          "type": "uint256"
        }
      ],
      "name": "initialize",
      "outputs": [],
      "stateMutability": "nonpayable",
      "type": "function"
    },
    {
      "inputs": [
        {
          "internalType": "string[]",
          "name": "_names",
          "type": "string[]"
        },
        {
          "components": [
            {
              "internalType": "address",
              "name": "renter",
              "type": "address"
            },
            {
              "internalType": "uint32",
              "name": "timeUpdated",
              "type": "uint32"
            },
            {
              "internalType": "uint256",
              "name": "lastPrice",
              "type": "uint256"
            },
            {
              "internalType": "string",
              "name": "url",
              "type": "string"
            },
            {
              "internalType": "string",
              "name": "prev",
              "type": "string"
            },
            {
              "internalType": "string",
              "name": "next",
              "type": "string"
            }
          ],
          "internalType": "struct D1DCV2.NameRecord[]",
          "name": "_records",
          "type": "tuple[]"
        }
      ],
      "name": "initializeNames",
      "outputs": [],
      "stateMutability": "nonpayable",
      "type": "function"
    },
    {
      "inputs": [
        {
          "internalType": "address",
          "name": "owner",
          "type": "address"
        },
        {
          "internalType": "address",
          "name": "operator",
          "type": "address"
        }
      ],
      "name": "isApprovedForAll",
      "outputs": [
        {
          "internalType": "bool",
          "name": "",
          "type": "bool"
        }
      ],
      "stateMutability": "view",
      "type": "function"
    },
    {
      "inputs": [
        {
          "internalType": "uint256",
          "name": "",
          "type": "uint256"
        }
      ],
      "name": "keys",
      "outputs": [
        {
          "internalType": "bytes32",
          "name": "",
          "type": "bytes32"
        }
      ],
      "stateMutability": "view",
      "type": "function"
    },
    {
      "inputs": [],
      "name": "lastCreated",
      "outputs": [
        {
          "internalType": "string",
          "name": "",
          "type": "string"
        }
      ],
      "stateMutability": "view",
      "type": "function"
    },
    {
      "inputs": [],
      "name": "lastRented",
      "outputs": [
        {
          "internalType": "string",
          "name": "",
          "type": "string"
        }
      ],
      "stateMutability": "view",
      "type": "function"
    },
    {
      "inputs": [],
      "name": "name",
      "outputs": [
        {
          "internalType": "string",
          "name": "",
          "type": "string"
        }
      ],
      "stateMutability": "view",
      "type": "function"
    },
    {
      "inputs": [],
      "name": "nameInitialized",
      "outputs": [
        {
          "internalType": "bool",
          "name": "",
          "type": "bool"
        }
      ],
      "stateMutability": "view",
      "type": "function"
    },
    {
      "inputs": [
        {
          "internalType": "bytes32",
          "name": "",
          "type": "bytes32"
        }
      ],
      "name": "nameRecords",
      "outputs": [
        {
          "internalType": "address",
          "name": "renter",
          "type": "address"
        },
        {
          "internalType": "uint32",
          "name": "timeUpdated",
          "type": "uint32"
        },
        {
          "internalType": "uint256",
          "name": "lastPrice",
          "type": "uint256"
        },
        {
          "internalType": "string",
          "name": "url",
          "type": "string"
        },
        {
          "internalType": "string",
          "name": "prev",
          "type": "string"
        },
        {
          "internalType": "string",
          "name": "next",
          "type": "string"
        }
      ],
      "stateMutability": "view",
      "type": "function"
    },
    {
      "inputs": [],
      "name": "numRecords",
      "outputs": [
        {
          "internalType": "uint256",
          "name": "",
          "type": "uint256"
        }
      ],
      "stateMutability": "view",
      "type": "function"
    },
    {
      "inputs": [],
      "name": "owner",
      "outputs": [
        {
          "internalType": "address",
          "name": "",
          "type": "address"
        }
      ],
      "stateMutability": "view",
      "type": "function"
    },
    {
      "inputs": [
        {
          "internalType": "uint256",
          "name": "tokenId",
          "type": "uint256"
        }
      ],
      "name": "ownerOf",
      "outputs": [
        {
          "internalType": "address",
          "name": "",
          "type": "address"
        }
      ],
      "stateMutability": "view",
      "type": "function"
    },
    {
      "inputs": [],
      "name": "pause",
      "outputs": [],
      "stateMutability": "nonpayable",
      "type": "function"
    },
    {
      "inputs": [],
      "name": "paused",
      "outputs": [
        {
          "internalType": "bool",
          "name": "",
          "type": "bool"
        }
      ],
      "stateMutability": "view",
      "type": "function"
    },
    {
      "inputs": [],
      "name": "phoneRevealPrice",
      "outputs": [
        {
          "internalType": "uint256",
          "name": "",
          "type": "uint256"
        }
      ],
      "stateMutability": "view",
      "type": "function"
    },
    {
      "inputs": [],
      "name": "priceMultiplier",
      "outputs": [
        {
          "internalType": "uint32",
          "name": "",
          "type": "uint32"
        }
      ],
      "stateMutability": "view",
      "type": "function"
    },
    {
      "inputs": [],
      "name": "renounceOwnership",
      "outputs": [],
      "stateMutability": "nonpayable",
      "type": "function"
    },
    {
      "inputs": [
        {
          "internalType": "string",
          "name": "name",
          "type": "string"
        },
        {
          "internalType": "string",
          "name": "url",
          "type": "string"
        },
        {
          "internalType": "string",
          "name": "telegram",
          "type": "string"
        },
        {
          "internalType": "string",
          "name": "email",
          "type": "string"
        },
        {
          "internalType": "string",
          "name": "phone",
          "type": "string"
        }
      ],
      "name": "rent",
      "outputs": [],
      "stateMutability": "payable",
      "type": "function"
    },
    {
      "inputs": [],
      "name": "rentalPeriod",
      "outputs": [
        {
          "internalType": "uint32",
          "name": "",
          "type": "uint32"
        }
      ],
      "stateMutability": "view",
      "type": "function"
    },
    {
      "inputs": [
        {
          "internalType": "string",
          "name": "name",
          "type": "string"
        }
      ],
      "name": "requestEmailReveal",
      "outputs": [],
      "stateMutability": "payable",
      "type": "function"
    },
    {
      "inputs": [
        {
          "internalType": "string",
          "name": "name",
          "type": "string"
        }
      ],
      "name": "requestPhoneReveal",
      "outputs": [],
      "stateMutability": "payable",
      "type": "function"
    },
    {
      "inputs": [
        {
          "internalType": "string",
          "name": "name",
          "type": "string"
        }
      ],
      "name": "requestTelegramReveal",
      "outputs": [],
      "stateMutability": "payable",
      "type": "function"
    },
    {
      "inputs": [],
      "name": "revenueAccount",
      "outputs": [
        {
          "internalType": "address",
          "name": "",
          "type": "address"
        }
      ],
      "stateMutability": "view",
      "type": "function"
    },
    {
      "inputs": [
        {
          "internalType": "address",
          "name": "from",
          "type": "address"
        },
        {
          "internalType": "address",
          "name": "to",
          "type": "address"
        },
        {
          "internalType": "uint256",
          "name": "tokenId",
          "type": "uint256"
        }
      ],
      "name": "safeTransferFrom",
      "outputs": [],
      "stateMutability": "nonpayable",
      "type": "function"
    },
    {
      "inputs": [
        {
          "internalType": "address",
          "name": "from",
          "type": "address"
        },
        {
          "internalType": "address",
          "name": "to",
          "type": "address"
        },
        {
          "internalType": "uint256",
          "name": "tokenId",
          "type": "uint256"
        },
        {
          "internalType": "bytes",
          "name": "data",
          "type": "bytes"
        }
      ],
      "name": "safeTransferFrom",
      "outputs": [],
      "stateMutability": "nonpayable",
      "type": "function"
    },
    {
      "inputs": [
        {
          "internalType": "address",
          "name": "operator",
          "type": "address"
        },
        {
          "internalType": "bool",
          "name": "approved",
          "type": "bool"
        }
      ],
      "name": "setApprovalForAll",
      "outputs": [],
      "stateMutability": "nonpayable",
      "type": "function"
    },
    {
      "inputs": [
        {
          "internalType": "uint256",
          "name": "_baseRentalPrice",
          "type": "uint256"
        }
      ],
      "name": "setBaseRentalPrice",
      "outputs": [],
      "stateMutability": "nonpayable",
      "type": "function"
    },
    {
      "inputs": [
        {
          "internalType": "uint256",
          "name": "_emailRevealPrice",
          "type": "uint256"
        }
      ],
      "name": "setEmailPrice",
      "outputs": [],
      "stateMutability": "nonpayable",
      "type": "function"
    },
    {
      "inputs": [
        {
          "internalType": "enum D1DCV2.EmojiType",
          "name": "_emojiType",
          "type": "uint8"
        },
        {
          "internalType": "uint256",
          "name": "_emojiPrice",
          "type": "uint256"
        }
      ],
      "name": "setEmojiPrice",
      "outputs": [],
      "stateMutability": "nonpayable",
      "type": "function"
    },
    {
      "inputs": [
        {
          "internalType": "uint256",
          "name": "_phoneRevealPrice",
          "type": "uint256"
        }
      ],
      "name": "setPhonePrice",
      "outputs": [],
      "stateMutability": "nonpayable",
      "type": "function"
    },
    {
      "inputs": [
        {
          "internalType": "uint32",
          "name": "_priceMultiplier",
          "type": "uint32"
        }
      ],
      "name": "setPriceMultiplier",
      "outputs": [],
      "stateMutability": "nonpayable",
      "type": "function"
    },
    {
      "inputs": [
        {
          "internalType": "uint32",
          "name": "_rentalPeriod",
          "type": "uint32"
        }
      ],
      "name": "setRentalPeriod",
      "outputs": [],
      "stateMutability": "nonpayable",
      "type": "function"
    },
    {
      "inputs": [
        {
          "internalType": "address",
          "name": "_revenueAccount",
          "type": "address"
        }
      ],
      "name": "setRevenueAccount",
      "outputs": [],
      "stateMutability": "nonpayable",
      "type": "function"
    },
    {
      "inputs": [
        {
          "internalType": "uint256",
          "name": "_telegramRevealPrice",
          "type": "uint256"
        }
      ],
      "name": "setTelegramPrice",
      "outputs": [],
      "stateMutability": "nonpayable",
      "type": "function"
    },
    {
      "inputs": [
        {
          "internalType": "bytes4",
          "name": "interfaceId",
          "type": "bytes4"
        }
      ],
      "name": "supportsInterface",
      "outputs": [
        {
          "internalType": "bool",
          "name": "",
          "type": "bool"
        }
      ],
      "stateMutability": "view",
      "type": "function"
    },
    {
      "inputs": [],
      "name": "symbol",
      "outputs": [
        {
          "internalType": "string",
          "name": "",
          "type": "string"
        }
      ],
      "stateMutability": "view",
      "type": "function"
    },
    {
      "inputs": [],
      "name": "telegramRevealPrice",
      "outputs": [
        {
          "internalType": "uint256",
          "name": "",
          "type": "uint256"
        }
      ],
      "stateMutability": "view",
      "type": "function"
    },
    {
      "inputs": [
        {
          "internalType": "uint256",
          "name": "tokenId",
          "type": "uint256"
        }
      ],
      "name": "tokenURI",
      "outputs": [
        {
          "internalType": "string",
          "name": "",
          "type": "string"
        }
      ],
      "stateMutability": "view",
      "type": "function"
    },
    {
      "inputs": [
        {
          "internalType": "address",
          "name": "from",
          "type": "address"
        },
        {
          "internalType": "address",
          "name": "to",
          "type": "address"
        },
        {
          "internalType": "uint256",
          "name": "tokenId",
          "type": "uint256"
        }
      ],
      "name": "transferFrom",
      "outputs": [],
      "stateMutability": "nonpayable",
      "type": "function"
    },
    {
      "inputs": [
        {
          "internalType": "address",
          "name": "newOwner",
          "type": "address"
        }
      ],
      "name": "transferOwnership",
      "outputs": [],
      "stateMutability": "nonpayable",
      "type": "function"
    },
    {
      "inputs": [],
      "name": "unpause",
      "outputs": [],
      "stateMutability": "nonpayable",
      "type": "function"
    },
    {
      "inputs": [
        {
          "internalType": "string",
          "name": "name",
          "type": "string"
        },
        {
          "internalType": "string",
          "name": "url",
          "type": "string"
        }
      ],
      "name": "updateURL",
      "outputs": [],
      "stateMutability": "payable",
      "type": "function"
    },
    {
      "inputs": [],
      "name": "urlUpdatePrice",
      "outputs": [
        {
          "internalType": "uint256",
          "name": "",
          "type": "uint256"
        }
      ],
      "stateMutability": "view",
      "type": "function"
    },
    {
      "inputs": [],
      "name": "withdraw",
      "outputs": [],
      "stateMutability": "nonpayable",
      "type": "function"
    }
  ],
  "transactionHash": "0xa5a1c0caec039260ee28397f6453bf1462ae0123cef2062db23e084d302dbacd",
  "args": [],
  "numDeployments": 1,
  "solcInputHash": "fed728c280f9aec79a127ad1b3cfe23e",
  "bytecode": "0x608060405234801561001057600080fd5b5061498a806100206000396000f3fe60806040526004361061038c5760003560e01c806374edae17116101dc578063b7b9d69611610102578063dbafb570116100a0578063f2fde38b1161006f578063f2fde38b14610a59578063f5dc7d5614610a79578063f623b7af14610aa1578063fcb11ff614610ab457600080fd5b8063dbafb5701461099e578063e8bdcc09146109be578063e985e9c5146109de578063eb75204214610a2757600080fd5b8063c22a3101116100dc578063c22a310114610913578063c87b56dd14610941578063d22da07514610961578063d50cb88b1461097857600080fd5b8063b7b9d696146108b3578063b88d4fde146108d3578063c218c591146108f357600080fd5b80638ab011681161017a578063a1a0c1bc11610149578063a1a0c1bc14610855578063a22cb46514610868578063afff5a6414610888578063b5d1990d1461089d57600080fd5b80638ab01168146107cf5780638c4b8475146107ef5780638da5cb5b1461082257806395d89b411461084057600080fd5b8063839e5f78116101b6578063839e5f78146107705780638456cb59146107835780638789fcc1146107985780638a5cab27146107af57600080fd5b806374edae17146107155780637528b89c146107285780637e1afcb51461074357600080fd5b806331d98b3f116102c15780635c975abb1161025f57806368b2210d1161022e57806368b2210d146106a05780636c863bc2146106c057806370a08231146106e0578063715018a61461070057600080fd5b80635c975abb1461061857806361921a2a146106305780636352211e14610647578063649cde291461066757600080fd5b806342842e0e1161029b57806342842e0e146105b057806348ff2e7c146105d05780634e84bd4a146105f05780635b8e99dc1461060557600080fd5b806331d98b3f146105665780633ccfd60b146105865780633f4ba83a1461059b57600080fd5b80630f75e5c01161032e5780631742c0e0116103085780631742c0e0146104fe5780632143f93b1461051157806323b872dd1461052657806330027f3b1461054657600080fd5b80630f75e5c0146104b05780630f77bcfb146104c7578063159171dd146104de57600080fd5b8063081812fc1161036a578063081812fc1461040a578063095ea7b3146104425780630b3a8d95146104625780630cb6aaf11461048257600080fd5b806301ffc9a71461039157806306b0c389146103c657806306fdde03146103e8575b600080fd5b34801561039d57600080fd5b506103b16103ac36600461388b565b610ac7565b60405190151581526020015b60405180910390f35b3480156103d257600080fd5b506103e66103e136600461398a565b610b19565b005b3480156103f457600080fd5b506103fd610cb6565b6040516103bd9190613a9a565b34801561041657600080fd5b5061042a610425366004613aad565b610d48565b6040516001600160a01b0390911681526020016103bd565b34801561044e57600080fd5b506103e661045d366004613ac6565b610d6f565b34801561046e57600080fd5b506103fd61047d366004613b3a565b610e84565b34801561048e57600080fd5b506104a261049d366004613aad565b610fe6565b6040519081526020016103bd565b3480156104bc57600080fd5b506104a261012e5481565b3480156104d357600080fd5b506104a261013d5481565b3480156104ea57600080fd5b506103e66104f9366004613b7b565b611008565b6103e661050c366004613b98565b61102d565b34801561051d57600080fd5b506103fd6111c5565b34801561053257600080fd5b506103e6610541366004613c1f565b611254565b34801561055257600080fd5b506103e6610561366004613c60565b611285565b34801561057257600080fd5b506104a2610581366004613aad565b611309565b34801561059257600080fd5b506103e6611397565b3480156105a757600080fd5b506103e66114cb565b3480156105bc57600080fd5b506103e66105cb366004613c1f565b6114dd565b3480156105dc57600080fd5b506103e66105eb366004613aad565b6114f8565b3480156105fc57600080fd5b506103e6611506565b6103e6610613366004613c8c565b61151e565b34801561062457600080fd5b5060975460ff166103b1565b34801561063c57600080fd5b506104a261013c5481565b34801561065357600080fd5b5061042a610662366004613aad565b611790565b34801561067357600080fd5b506104a2610682366004613cd9565b61013260209081526000928352604080842090915290825290205481565b3480156106ac57600080fd5b506103fd6106bb366004613b3a565b6117f0565b3480156106cc57600080fd5b506103fd6106db366004613b3a565b6118ca565b3480156106ec57600080fd5b506104a26106fb366004613c60565b6119a4565b34801561070c57600080fd5b506103e6611a2a565b6103e6610723366004613b3a565b611a3c565b34801561073457600080fd5b5061012d546103b19060ff1681565b34801561074f57600080fd5b5061076361075e366004613cfc565b611bde565b6040516103bd9190613d1e565b6103e661077e366004613d62565b611cf5565b34801561078f57600080fd5b506103e6611f71565b3480156107a457600080fd5b506104a261013b5481565b3480156107bb57600080fd5b506103e66107ca366004613aad565b611f81565b3480156107db57600080fd5b506103e66107ea366004613b7b565b611f8f565b3480156107fb57600080fd5b5061012f5461080d9063ffffffff1681565b60405163ffffffff90911681526020016103bd565b34801561082e57600080fd5b5060c9546001600160a01b031661042a565b34801561084c57600080fd5b506103fd611fc0565b6103e6610863366004613b3a565b611fcf565b34801561087457600080fd5b506103e6610883366004613dcd565b6120a1565b34801561089457600080fd5b506103fd6120ac565b3480156108a957600080fd5b50610139546104a2565b3480156108bf57600080fd5b506103e66108ce366004613e0b565b6120ba565b3480156108df57600080fd5b506103e66108ee366004613e27565b612100565b3480156108ff57600080fd5b506103e661090e366004613aad565b612132565b34801561091f57600080fd5b506104a261092e366004613ea6565b6101316020526000908152604090205481565b34801561094d57600080fd5b506103fd61095c366004613aad565b612140565b34801561096d57600080fd5b506104a261013a5481565b34801561098457600080fd5b5061012f5461080d90640100000000900463ffffffff1681565b3480156109aa57600080fd5b506103e66109b9366004613aad565b6121b3565b3480156109ca57600080fd5b506103e66109d9366004613f05565b6121c1565b3480156109ea57600080fd5b506103b16109f9366004613f64565b6001600160a01b039182166000908152606a6020908152604080832093909416825291909152205460ff1690565b348015610a3357600080fd5b50610a47610a42366004613aad565b612490565b6040516103bd96959493929190613f92565b348015610a6557600080fd5b506103e6610a74366004613c60565b612670565b348015610a8557600080fd5b5061012f5461042a90600160401b90046001600160a01b031681565b6103e6610aaf366004613ff8565b6126e6565b6103e6610ac2366004613b3a565b612aab565b60006001600160e01b031982166380ac58cd60e01b1480610af857506001600160e01b03198216635b5e139f60e01b145b80610b1357506301ffc9a760e01b6001600160e01b03198316145b92915050565b600054610100900460ff1615808015610b395750600054600160ff909116105b80610b535750303b158015610b53575060005460ff166001145b610bbb5760405162461bcd60e51b815260206004820152602e60248201527f496e697469616c697a61626c653a20636f6e747261637420697320616c72656160448201526d191e481a5b9a5d1a585b1a5e995960921b60648201526084015b60405180910390fd5b6000805460ff191660011790558015610bde576000805461ff0019166101001790555b610be88a8a612b89565b610bf0612bba565b610bf8612be9565b610c00612c18565b61012e88905561012f80546001600160a01b038716600160401b02600160401b600160e01b031963ffffffff8a81166401000000000267ffffffffffffffff19909416908c1617929092179190911617905561013b84905561013c83905561013d8290558015610caa576000805461ff0019169055604051600181527f7f26b83ff96e1f2b6a682f133852f6798a09c465da95921460cefb38474024989060200160405180910390a15b50505050505050505050565b606060658054610cc5906140d4565b80601f0160208091040260200160405190810160405280929190818152602001828054610cf1906140d4565b8015610d3e5780601f10610d1357610100808354040283529160200191610d3e565b820191906000526020600020905b815481529060010190602001808311610d2157829003601f168201915b5050505050905090565b6000610d5382612c47565b506000908152606960205260409020546001600160a01b031690565b6000610d7a82611790565b9050806001600160a01b0316836001600160a01b031603610de75760405162461bcd60e51b815260206004820152602160248201527f4552433732313a20617070726f76616c20746f2063757272656e74206f776e656044820152603960f91b6064820152608401610bb2565b336001600160a01b0382161480610e035750610e0381336109f9565b610e755760405162461bcd60e51b815260206004820152603d60248201527f4552433732313a20617070726f76652063616c6c6572206973206e6f7420746f60448201527f6b656e206f776e6572206f7220617070726f76656420666f7220616c6c0000006064820152608401610bb2565b610e7f8383612ca6565b505050565b6060600061013060008585604051610e9d92919061410e565b6040805191829003909120825260208083019390935290810160009081205433825261013484528282206001600160a01b039091168083529352205490915060ff16610f3b5760405162461bcd60e51b815260206004820152602760248201527f443144433a206e6f207065726d697373696f6e20666f722074656c656772616d604482015266081c995d99585b60ca1b6064820152608401610bb2565b6001600160a01b0381166000908152610133602052604090208054610f5f906140d4565b80601f0160208091040260200160405190810160405280929190818152602001828054610f8b906140d4565b8015610fd85780601f10610fad57610100808354040283529160200191610fd8565b820191906000526020600020905b815481529060010190602001808311610fbb57829003601f168201915b505050505091505092915050565b6101398181548110610ff757600080fd5b600091825260209091200154905081565b611010612d14565b61012f805463ffffffff191663ffffffff92909216919091179055565b611035612d6e565b61103d612dc7565b8251349015611096578061013b5411156110695760405162461bcd60e51b8152600401610bb29061411e565b61013b54611077908261417c565b3360009081526101336020526040902090915061109485826141f2565b505b8251156110f0578061013c5411156110c05760405162461bcd60e51b8152600401610bb29061411e565b61013c546110ce908261417c565b336000908152610133602052604090209091506001016110ee84826141f2565b505b81511561114a578061013d54111561111a5760405162461bcd60e51b8152600401610bb29061411e565b61013c54611128908261417c565b3360009081526101336020526040902090915060010161114884826141f2565b505b80156111ba57604051600090339083908381818185875af1925050503d8060008114611192576040519150601f19603f3d011682016040523d82523d6000602084013e611197565b606091505b50509050806111b85760405162461bcd60e51b8152600401610bb2906142ab565b505b50610e7f600160fb55565b61013780546111d3906140d4565b80601f01602080910402602001604051908101604052809291908181526020018280546111ff906140d4565b801561124c5780601f106112215761010080835404028352916020019161124c565b820191906000526020600020905b81548152906001019060200180831161122f57829003601f168201915b505050505081565b61125e3382612e14565b61127a5760405162461bcd60e51b8152600401610bb2906142d9565b610e7f838383612e93565b61128d612d14565b61012f54604080516001600160a01b03600160401b9093048316815291831660208301527fe03b0e59900b6347a6bdef98fe51689d53064c5235a2ca9fc10a27c497ec7307910160405180910390a161012f80546001600160a01b03909216600160401b02600160401b600160e01b0319909216919091179055565b60008181526101306020526040812061012f54815463ffffffff4281169261133d9290821691600160a01b90910416614326565b63ffffffff161161135357505061012e54919050565b80546001600160a01b0316331461138a5761012f54600182015461138591640100000000900463ffffffff169061434a565b611390565b80600101545b9392505050565b60c9546001600160a01b03163314806113c2575061012f54600160401b90046001600160a01b031633145b61141d5760405162461bcd60e51b815260206004820152602660248201527f443144433a206d757374206265206f776e6572206f7220726576656e7565206160448201526518d8dbdd5b9d60d21b6064820152608401610bb2565b61012f54604051600091600160401b90046001600160a01b03169047908381818185875af1925050503d8060008114611472576040519150601f19603f3d011682016040523d82523d6000602084013e611477565b606091505b50509050806114c85760405162461bcd60e51b815260206004820152601860248201527f443144433a206661696c656420746f20776974686472617700000000000000006044820152606401610bb2565b50565b6114d3612d14565b6114db61300c565b565b610e7f83838360405180602001604052806000815250612100565b611500612d14565b61013c55565b61150e612d14565b61012d805460ff19166001179055565b611526612d6e565b61152e612dc7565b610132600083805190602001208152602001908152602001600020600082600281111561155d5761155d614361565b600281111561156e5761156e614361565b81526020019081526020016000206000815461158990614377565b909155506000610131818360028111156115a5576115a5614361565b60028111156115b6576115b6614361565b8152602001908152602001600020549050348111156116175760405162461bcd60e51b815260206004820181905260248201527f443144433a20696e73756666696369656e7420656d6f6a69207061796d656e746044820152606401610bb2565b8251602080850191909120600090815261013090915260408120546001600160a01b031690606461164984605a61434a565b6116539190614390565b90506000826001600160a01b03168260405160006040518083038185875af1925050503d80600081146116a2576040519150601f19603f3d011682016040523d82523d6000602084013e6116a7565b606091505b50509050600084346116b9919061417c565b9050801561172b57604051600090339083908381818185875af1925050503d8060008114611703576040519150601f19603f3d011682016040523d82523d6000602084013e611708565b606091505b50509050806117295760405162461bcd60e51b8152600401610bb2906142ab565b505b85600281111561173d5761173d614361565b8760405161174b91906143b2565b6040519081900381209033907f852605dcec8d6bf5f3c46c20fe8e730e7096150f02450555fed4aa4298158bae90600090a4505050505061178c600160fb55565b5050565b6000818152606760205260408120546001600160a01b031680610b135760405162461bcd60e51b8152602060048201526018602482015277115490cdcc8c4e881a5b9d985b1a59081d1bdad95b88125160421b6044820152606401610bb2565b606060006101306000858560405161180992919061410e565b6040805191829003909120825260208083019390935290810160009081205433825261013584528282206001600160a01b039091168083529352205490915060ff166118a35760405162461bcd60e51b8152602060048201526024808201527f443144433a206e6f207065726d697373696f6e20666f7220656d61696c2072656044820152631d99585b60e21b6064820152608401610bb2565b6001600160a01b0381166000908152610133602052604090206001018054610f5f906140d4565b60606000610130600085856040516118e392919061410e565b6040805191829003909120825260208083019390935290810160009081205433825261013684528282206001600160a01b039091168083529352205490915060ff1661197d5760405162461bcd60e51b8152602060048201526024808201527f443144433a206e6f207065726d697373696f6e20666f722070686f6e652072656044820152631d99585b60e21b6064820152608401610bb2565b6001600160a01b0381166000908152610133602052604090206002018054610f5f906140d4565b60006001600160a01b038216611a0e5760405162461bcd60e51b815260206004820152602960248201527f4552433732313a2061646472657373207a65726f206973206e6f7420612076616044820152683634b21037bbb732b960b91b6064820152608401610bb2565b506001600160a01b031660009081526068602052604090205490565b611a32612d14565b6114db600061305e565b611a44612d6e565b611a4c612dc7565b61013d5434811115611aa05760405162461bcd60e51b815260206004820181905260248201527f443144433a20696e73756666696369656e742070686f6e65207061796d656e746044820152606401610bb2565b600061013060008585604051611ab792919061410e565b6040805191829003909120825260208083019390935290810160009081205433825261013684528282206001600160a01b039091168083529352818120805460ff19166001179055905191925090829084905b60006040518083038185875af1925050503d8060008114611b47576040519150601f19603f3d011682016040523d82523d6000602084013e611b4c565b606091505b5050905060008334611b5e919061417c565b90508015611bd057604051600090339083908381818185875af1925050503d8060008114611ba8576040519150601f19603f3d011682016040523d82523d6000602084013e611bad565b606091505b5050905080611bce5760405162461bcd60e51b8152600401610bb2906142ab565b505b5050505061178c600160fb55565b6060828211611c3b5760405162461bcd60e51b8152602060048201526024808201527f443144433a20656e64206d7573742062652067726561746572207468616e20736044820152631d185c9d60e21b6064820152608401610bb2565b6000611c47848461417c565b6001600160401b03811115611c5e57611c5e6138a8565b604051908082528060200260200182016040528015611c87578160200160208202803683370190505b509050835b83811015611ced576101398181548110611ca857611ca86143ce565b9060005260206000200154828683611cc0919061417c565b81518110611cd057611cd06143ce565b602090810291909101015280611ce581614377565b915050611c8c565b509392505050565b611cfd612d6e565b611d05612dc7565b336001600160a01b031661013060008686604051611d2492919061410e565b60408051918290039091208252602082019290925201600020546001600160a01b031614611d865760405162461bcd60e51b815260206004820152600f60248201526e2218a2219d103737ba1037bbb732b960891b6044820152606401610bb2565b610400811115611dcd5760405162461bcd60e51b8152602060048201526012602482015271443144433a2075726c20746f6f206c6f6e6760701b6044820152606401610bb2565b6040513390611ddf908690869061410e565b60405180910390207f096f0aee78aea5199be1c1bf75f83f8c98e7002651030cbe56c0ca959cdd24c561013060008888604051611e1d92919061410e565b604051809103902081526020019081526020016000206002018585604051611e479392919061440d565b60405180910390a3818161013060008787604051611e6692919061410e565b604051809103902081526020019081526020016000206002019182611e8c9291906144ae565b5061013a5434811115611ee15760405162461bcd60e51b815260206004820152601e60248201527f443144433a20696e73756666696369656e742075726c207061796d656e7400006044820152606401610bb2565b6000611eed823461417c565b90508015611f5f57604051600090339083908381818185875af1925050503d8060008114611f37576040519150601f19603f3d011682016040523d82523d6000602084013e611f3c565b606091505b5050905080611f5d5760405162461bcd60e51b8152600401610bb2906142ab565b505b5050611f6b600160fb55565b50505050565b611f79612d14565b6114db6130b0565b611f89612d14565b61013d55565b611f97612d14565b61012f805463ffffffff9092166401000000000267ffffffff0000000019909216919091179055565b606060668054610cc5906140d4565b611fd7612d6e565b611fdf612dc7565b61013c54348111156120335760405162461bcd60e51b815260206004820181905260248201527f443144433a20696e73756666696369656e7420656d61696c207061796d656e746044820152606401610bb2565b60006101306000858560405161204a92919061410e565b6040805191829003909120825260208083019390935290810160009081205433825261013584528282206001600160a01b039091168083529352818120805460ff1916600117905590519192509082908490611b0a565b61178c3383836130ed565b61013880546111d3906140d4565b6120c2612d14565b8061013160008460028111156120da576120da614361565b60028111156120eb576120eb614361565b81526020810191909152604001600020555050565b61210a3383612e14565b6121265760405162461bcd60e51b8152600401610bb2906142d9565b611f6b848484846131bb565b61213a612d14565b61013b55565b606061214b82612c47565b600061216260408051602081019091526000815290565b905060008151116121825760405180602001604052806000815250611390565b8061218c846131ee565b60405160200161219d929190614567565b6040516020818303038152906040529392505050565b6121bb612d14565b61012e55565b6121c9612d14565b61012d5460ff161561221d5760405162461bcd60e51b815260206004820152601960248201527f443144433a20616c726561647920696e697469616c697a6564000000000000006044820152606401610bb2565b8281146122635760405162461bcd60e51b81526020600482015260146024820152730886288867440eadccae2eac2d840d8cadccee8d60631b6044820152606401610bb2565b60005b8181101561243b576000858583818110612282576122826143ce565b90506020028101906122949190614596565b6040516122a292919061410e565b604051809103902090508383838181106122be576122be6143ce565b90506020028101906122d091906145dc565b6000828152610130602052604090206122e982826145f2565b50506101398054600181810183556000929092527f22d66071756d4d57920b8322c1a903a27bd75b44065e925d5f9f1c08908d28f601829055821080159061234d57506000818152610130602052604090206003018054612349906140d4565b1590505b156123a057858561235f60018561417c565b81811061236e5761236e6143ce565b90506020028101906123809190614596565b6000838152610130602052604090206003019161239e9190836144ae565b505b6123ab60018461417c565b821080156123d5575060008181526101306020526040902060040180546123d1906140d4565b1590505b156124285785856123e78460016146aa565b8181106123f6576123f66143ce565b90506020028101906124089190614596565b600083815261013060205260409020600401916124269190836144ae565b505b508061243381614377565b915050612266565b50838361244960018261417c565b818110612458576124586143ce565b905060200281019061246a9190614596565b610138916124799190836144ae565b50610137612489610138826146bd565b5050505050565b610130602052600090815260409020805460018201546002830180546001600160a01b03841694600160a01b90940463ffffffff169391906124d1906140d4565b80601f01602080910402602001604051908101604052809291908181526020018280546124fd906140d4565b801561254a5780601f1061251f5761010080835404028352916020019161254a565b820191906000526020600020905b81548152906001019060200180831161252d57829003601f168201915b50505050509080600301805461255f906140d4565b80601f016020809104026020016040519081016040528092919081815260200182805461258b906140d4565b80156125d85780601f106125ad576101008083540402835291602001916125d8565b820191906000526020600020905b8154815290600101906020018083116125bb57829003601f168201915b5050505050908060040180546125ed906140d4565b80601f0160208091040260200160405190810160405280929190818152602001828054612619906140d4565b80156126665780601f1061263b57610100808354040283529160200191612666565b820191906000526020600020905b81548152906001019060200180831161264957829003601f168201915b5050505050905086565b612678612d14565b6001600160a01b0381166126dd5760405162461bcd60e51b815260206004820152602660248201527f4f776e61626c653a206e6577206f776e657220697320746865207a65726f206160448201526564647265737360d01b6064820152608401610bb2565b6114c88161305e565b6126ee612d6e565b6126f6612dc7565b608086111561273d5760405162461bcd60e51b8152602060048201526013602482015272443144433a206e616d6520746f6f206c6f6e6760681b6044820152606401610bb2565b6104008411156127845760405162461bcd60e51b8152602060048201526012602482015271443144433a2075726c20746f6f206c6f6e6760701b6044820152606401610bb2565b6000878760405161279692919061410e565b60408051918290039091206000818152610130602052918220909250906127bc83611309565b90503481111561280e5760405162461bcd60e51b815260206004820152601a60248201527f443144433a20696e73756666696369656e74207061796d656e740000000000006044820152606401610bb2565b81546001830182905563ffffffff4216600160a01b0263ffffffff60a01b1933166001600160c01b03198316171783556001600160a01b0316871561285e576002830161285c898b836144ae565b505b61013761286c8b8d836144ae565b506000848152606760205260409020546001600160a01b03161561291d576128a5813386604051806020016040528060008152506131bb565b600060646128b484605a61434a565b6128be9190614390565b90506000826001600160a01b03168260405160006040518083038185875af1925050503d806000811461290d576040519150601f19603f3d011682016040523d82523d6000602084013e612912565b606091505b505090505050612985565b8a8a61013060006101386040516129349190614789565b60405180910390208152602001908152602001600020600401918261295a9291906144ae565b506003830161296b610138826146bd565b5061013861297a8b8d836144ae565b506129853385613280565b33600090815261013360205260409020806129a089826141f2565b50600181016129af88826141f2565b50600281016129be87826141f2565b5060006129cb843461417c565b90508015612a3d57604051600090339083908381818185875af1925050503d8060008114612a15576040519150601f19603f3d011682016040523d82523d6000602084013e612a1a565b606091505b5050905080612a3b5760405162461bcd60e51b8152600401610bb2906142ab565b505b6040513390612a4f908f908f9061410e565b60405180910390207ff1d86ac814e2a6b7710c558956057aa8ca4d67a2b19ea13b9dc84c92945c9896868e8e604051612a8a939291906147ff565b60405180910390a3505050505050612aa2600160fb55565b50505050505050565b612ab3612d6e565b612abb612dc7565b61013b5434811115612b1b5760405162461bcd60e51b815260206004820152602360248201527f443144433a20696e73756666696369656e742074656c656772616d207061796d604482015262195b9d60ea1b6064820152608401610bb2565b600061013060008585604051612b3292919061410e565b6040805191829003909120825260208083019390935290810160009081205433825261013484528282206001600160a01b039091168083529352818120805460ff1916600117905590519192509082908490611b0a565b600054610100900460ff16612bb05760405162461bcd60e51b8152600401610bb290614822565b61178c828261329a565b600054610100900460ff16612be15760405162461bcd60e51b8152600401610bb290614822565b6114db6132da565b600054610100900460ff16612c105760405162461bcd60e51b8152600401610bb290614822565b6114db61330d565b600054610100900460ff16612c3f5760405162461bcd60e51b8152600401610bb290614822565b6114db61333d565b6000818152606760205260409020546001600160a01b03166114c85760405162461bcd60e51b8152602060048201526018602482015277115490cdcc8c4e881a5b9d985b1a59081d1bdad95b88125160421b6044820152606401610bb2565b600081815260696020526040902080546001600160a01b0319166001600160a01b0384169081179091558190612cdb82611790565b6001600160a01b03167f8c5be1e5ebec7d5bd14f71427d1e84f3dd0314c0f7b2291e5b200ac8c7c3b92560405160405180910390a45050565b60c9546001600160a01b031633146114db5760405162461bcd60e51b815260206004820181905260248201527f4f776e61626c653a2063616c6c6572206973206e6f7420746865206f776e65726044820152606401610bb2565b600260fb5403612dc05760405162461bcd60e51b815260206004820152601f60248201527f5265656e7472616e637947756172643a207265656e7472616e742063616c6c006044820152606401610bb2565b600260fb55565b60975460ff16156114db5760405162461bcd60e51b815260206004820152601060248201526f14185d5cd8589b194e881c185d5cd95960821b6044820152606401610bb2565b600160fb55565b600080612e2083611790565b9050806001600160a01b0316846001600160a01b03161480612e6757506001600160a01b038082166000908152606a602090815260408083209388168352929052205460ff165b80612e8b5750836001600160a01b0316612e8084610d48565b6001600160a01b0316145b949350505050565b826001600160a01b0316612ea682611790565b6001600160a01b031614612ecc5760405162461bcd60e51b8152600401610bb29061486d565b6001600160a01b038216612f2e5760405162461bcd60e51b8152602060048201526024808201527f4552433732313a207472616e7366657220746f20746865207a65726f206164646044820152637265737360e01b6064820152608401610bb2565b612f3b8383836001613364565b826001600160a01b0316612f4e82611790565b6001600160a01b031614612f745760405162461bcd60e51b8152600401610bb29061486d565b600081815260696020908152604080832080546001600160a01b03199081169091556001600160a01b0387811680865260688552838620805460001901905590871680865283862080546001019055868652606790945282852080549092168417909155905184937fddf252ad1be2c89b69c2b068fc378daa952ba7f163c4a11628f55a4df523b3ef91a4610e7f83838360016133ec565b61301461347d565b6097805460ff191690557f5db9ee0a495bf2e6ff9c91a7834c1ba4fdd244a5e8aa4e537bd38aeae4b073aa335b6040516001600160a01b03909116815260200160405180910390a1565b60c980546001600160a01b038381166001600160a01b0319831681179093556040519116919082907f8be0079c531659141344cd1fd0a4f28419497f9722a3daafe3b4186f6b6457e090600090a35050565b6130b8612dc7565b6097805460ff191660011790557f62e78cea01bee320cd4e420270b5ea74000d11b0c9f74754ebdbfc544b05a2586130413390565b816001600160a01b0316836001600160a01b03160361314e5760405162461bcd60e51b815260206004820152601960248201527f4552433732313a20617070726f766520746f2063616c6c6572000000000000006044820152606401610bb2565b6001600160a01b038381166000818152606a6020908152604080832094871680845294825291829020805460ff191686151590811790915591519182527f17307eab39ab6107e8899845ad3d59bd9653f200f220920489ca2b5937696c31910160405180910390a3505050565b6131c6848484612e93565b6131d2848484846134c6565b611f6b5760405162461bcd60e51b8152600401610bb2906148b2565b606060006131fb836135c7565b60010190506000816001600160401b0381111561321a5761321a6138a8565b6040519080825280601f01601f191660200182016040528015613244576020820181803683370190505b5090508181016020015b600019016f181899199a1a9b1b9c1cb0b131b232b360811b600a86061a8153600a850494508461324e57509392505050565b61178c82826040518060200160405280600081525061369f565b600054610100900460ff166132c15760405162461bcd60e51b8152600401610bb290614822565b60656132cd83826141f2565b506066610e7f82826141f2565b600054610100900460ff166133015760405162461bcd60e51b8152600401610bb290614822565b6097805460ff19169055565b600054610100900460ff166133345760405162461bcd60e51b8152600401610bb290614822565b6114db3361305e565b600054610100900460ff16612e0d5760405162461bcd60e51b8152600401610bb290614822565b6001811115611f6b576001600160a01b038416156133aa576001600160a01b038416600090815260686020526040812080548392906133a490849061417c565b90915550505b6001600160a01b03831615611f6b576001600160a01b038316600090815260686020526040812080548392906133e19084906146aa565b909155505050505050565b60008281526101306020908152604080832080546001600160a01b0319166001600160a01b03888116919091178255881684526101338352818420825193840190925292825290819061343f90826141f2565b50604080516020810190915260008152600182019061345e90826141f2565b506040805160208101909152600081526002820190612aa290826141f2565b60975460ff166114db5760405162461bcd60e51b815260206004820152601460248201527314185d5cd8589b194e881b9bdd081c185d5cd95960621b6044820152606401610bb2565b60006001600160a01b0384163b156135bc57604051630a85bd0160e11b81526001600160a01b0385169063150b7a029061350a903390899088908890600401614904565b6020604051808303816000875af1925050508015613545575060408051601f3d908101601f1916820190925261354291810190614937565b60015b6135a2573d808015613573576040519150601f19603f3d011682016040523d82523d6000602084013e613578565b606091505b50805160000361359a5760405162461bcd60e51b8152600401610bb2906148b2565b805181602001fd5b6001600160e01b031916630a85bd0160e11b149050612e8b565b506001949350505050565b60008072184f03e93ff9f4daa797ed6e38ed64bf6a1f0160401b83106136065772184f03e93ff9f4daa797ed6e38ed64bf6a1f0160401b830492506040015b6d04ee2d6d415b85acef81000000008310613632576d04ee2d6d415b85acef8100000000830492506020015b662386f26fc10000831061365057662386f26fc10000830492506010015b6305f5e1008310613668576305f5e100830492506008015b612710831061367c57612710830492506004015b6064831061368e576064830492506002015b600a8310610b135760010192915050565b6136a983836136d2565b6136b660008484846134c6565b610e7f5760405162461bcd60e51b8152600401610bb2906148b2565b6001600160a01b0382166137285760405162461bcd60e51b815260206004820181905260248201527f4552433732313a206d696e7420746f20746865207a65726f20616464726573736044820152606401610bb2565b6000818152606760205260409020546001600160a01b03161561378d5760405162461bcd60e51b815260206004820152601c60248201527f4552433732313a20746f6b656e20616c7265616479206d696e746564000000006044820152606401610bb2565b61379b600083836001613364565b6000818152606760205260409020546001600160a01b0316156138005760405162461bcd60e51b815260206004820152601c60248201527f4552433732313a20746f6b656e20616c7265616479206d696e746564000000006044820152606401610bb2565b6001600160a01b038216600081815260686020908152604080832080546001019055848352606790915280822080546001600160a01b0319168417905551839291907fddf252ad1be2c89b69c2b068fc378daa952ba7f163c4a11628f55a4df523b3ef908290a461178c6000838360016133ec565b6001600160e01b0319811681146114c857600080fd5b60006020828403121561389d57600080fd5b813561139081613875565b634e487b7160e01b600052604160045260246000fd5b60006001600160401b03808411156138d8576138d86138a8565b604051601f8501601f19908116603f01168101908282118183101715613900576139006138a8565b8160405280935085815286868601111561391957600080fd5b858560208301376000602087830101525050509392505050565b600082601f83011261394457600080fd5b611390838335602085016138be565b63ffffffff811681146114c857600080fd5b6001600160a01b03811681146114c857600080fd5b803561398581613965565b919050565b60008060008060008060008060006101208a8c0312156139a957600080fd5b89356001600160401b03808211156139c057600080fd5b6139cc8d838e01613933565b9a5060208c01359150808211156139e257600080fd5b506139ef8c828d01613933565b98505060408a0135965060608a0135613a0781613953565b955060808a0135613a1781613953565b9450613a2560a08b0161397a565b935060c08a0135925060e08a013591506101008a013590509295985092959850929598565b60005b83811015613a65578181015183820152602001613a4d565b50506000910152565b60008151808452613a86816020860160208601613a4a565b601f01601f19169290920160200192915050565b6020815260006113906020830184613a6e565b600060208284031215613abf57600080fd5b5035919050565b60008060408385031215613ad957600080fd5b8235613ae481613965565b946020939093013593505050565b60008083601f840112613b0457600080fd5b5081356001600160401b03811115613b1b57600080fd5b602083019150836020828501011115613b3357600080fd5b9250929050565b60008060208385031215613b4d57600080fd5b82356001600160401b03811115613b6357600080fd5b613b6f85828601613af2565b90969095509350505050565b600060208284031215613b8d57600080fd5b813561139081613953565b600080600060608486031215613bad57600080fd5b83356001600160401b0380821115613bc457600080fd5b613bd087838801613933565b94506020860135915080821115613be657600080fd5b613bf287838801613933565b93506040860135915080821115613c0857600080fd5b50613c1586828701613933565b9150509250925092565b600080600060608486031215613c3457600080fd5b8335613c3f81613965565b92506020840135613c4f81613965565b929592945050506040919091013590565b600060208284031215613c7257600080fd5b813561139081613965565b80356003811061398557600080fd5b60008060408385031215613c9f57600080fd5b82356001600160401b03811115613cb557600080fd5b613cc185828601613933565b925050613cd060208401613c7d565b90509250929050565b60008060408385031215613cec57600080fd5b82359150613cd060208401613c7d565b60008060408385031215613d0f57600080fd5b50508035926020909101359150565b6020808252825182820181905260009190848201906040850190845b81811015613d5657835183529284019291840191600101613d3a565b50909695505050505050565b60008060008060408587031215613d7857600080fd5b84356001600160401b0380821115613d8f57600080fd5b613d9b88838901613af2565b90965094506020870135915080821115613db457600080fd5b50613dc187828801613af2565b95989497509550505050565b60008060408385031215613de057600080fd5b8235613deb81613965565b915060208301358015158114613e0057600080fd5b809150509250929050565b60008060408385031215613e1e57600080fd5b613ae483613c7d565b60008060008060808587031215613e3d57600080fd5b8435613e4881613965565b93506020850135613e5881613965565b92506040850135915060608501356001600160401b03811115613e7a57600080fd5b8501601f81018713613e8b57600080fd5b613e9a878235602084016138be565b91505092959194509250565b600060208284031215613eb857600080fd5b61139082613c7d565b60008083601f840112613ed357600080fd5b5081356001600160401b03811115613eea57600080fd5b6020830191508360208260051b8501011115613b3357600080fd5b60008060008060408587031215613f1b57600080fd5b84356001600160401b0380821115613f3257600080fd5b613f3e88838901613ec1565b90965094506020870135915080821115613f5757600080fd5b50613dc187828801613ec1565b60008060408385031215613f7757600080fd5b8235613f8281613965565b91506020830135613e0081613965565b60018060a01b038716815263ffffffff8616602082015284604082015260c060608201526000613fc560c0830186613a6e565b8281036080840152613fd78186613a6e565b905082810360a0840152613feb8185613a6e565b9998505050505050505050565b600080600080600080600060a0888a03121561401357600080fd5b87356001600160401b038082111561402a57600080fd5b6140368b838c01613af2565b909950975060208a013591508082111561404f57600080fd5b61405b8b838c01613af2565b909750955060408a013591508082111561407457600080fd5b6140808b838c01613933565b945060608a013591508082111561409657600080fd5b6140a28b838c01613933565b935060808a01359150808211156140b857600080fd5b506140c58a828b01613933565b91505092959891949750929550565b600181811c908216806140e857607f821691505b60208210810361410857634e487b7160e01b600052602260045260246000fd5b50919050565b8183823760009101908152919050565b60208082526028908201527f443144433a20696e73756666696369656e7420706572736f6e616c20696e666f604082015267081c185e5b595b9d60c21b606082015260800190565b634e487b7160e01b600052601160045260246000fd5b81810381811115610b1357610b13614166565b601f821115610e7f57600081815260208120601f850160051c810160208610156141b65750805b601f850160051c820191505b818110156141d5578281556001016141c2565b505050505050565b600019600383901b1c191660019190911b1790565b81516001600160401b0381111561420b5761420b6138a8565b61421f8161421984546140d4565b8461418f565b602080601f83116001811461424e576000841561423c5750858301515b61424685826141dd565b8655506141d5565b600085815260208120601f198616915b8281101561427d5788860151825594840194600190910190840161425e565b508582101561429b5787850151600019600388901b60f8161c191681555b5050505050600190811b01905550565b60208082526014908201527363616e6e6f7420726566756e642065786365737360601b604082015260600190565b6020808252602d908201527f4552433732313a2063616c6c6572206973206e6f7420746f6b656e206f776e6560408201526c1c881bdc88185c1c1c9bdd9959609a1b606082015260800190565b63ffffffff81811683821601908082111561434357614343614166565b5092915050565b8082028115828204841417610b1357610b13614166565b634e487b7160e01b600052602160045260246000fd5b60006001820161438957614389614166565b5060010190565b6000826143ad57634e487b7160e01b600052601260045260246000fd5b500490565b600082516143c4818460208701613a4a565b9190910192915050565b634e487b7160e01b600052603260045260246000fd5b81835281816020850137506000828201602090810191909152601f909101601f19169091010190565b60408152600080855461441f816140d4565b8060408601526060600180841660008114614441576001811461445b5761448c565b60ff1985168884015283151560051b88018301955061448c565b8a60005260208060002060005b868110156144835781548b8201870152908401908201614468565b8a018501975050505b505050505082810360208401526144a48185876143e4565b9695505050505050565b6001600160401b038311156144c5576144c56138a8565b6144d9836144d383546140d4565b8361418f565b6000601f84116001811461450757600085156144f55750838201355b6144ff86826141dd565b845550612489565b600083815260209020601f19861690835b828110156145385786850135825560209485019460019092019101614518565b50868210156145555760001960f88860031b161c19848701351681555b505060018560011b0183555050505050565b60008351614579818460208801613a4a565b83519083019061458d818360208801613a4a565b01949350505050565b6000808335601e198436030181126145ad57600080fd5b8301803591506001600160401b038211156145c757600080fd5b602001915036819003821315613b3357600080fd5b6000823560be198336030181126143c457600080fd5b81356145fd81613965565b81546001600160a01b031981166001600160a01b03929092169182178355602084013561462981613953565b6001600160c01b03199190911690911760a09190911b63ffffffff60a01b16178155604082013560018201556146626060830183614596565b6146708183600286016144ae565b505061467f6080830183614596565b61468d8183600386016144ae565b505061469c60a0830183614596565b611f6b8183600486016144ae565b80820180821115610b1357610b13614166565b8181036146c8575050565b6146d282546140d4565b6001600160401b038111156146e9576146e96138a8565b6146f78161421984546140d4565b6000601f82116001811461472557600083156147135750848201545b61471d84826141dd565b855550612489565b600085815260209020601f19841690600086815260209020845b8381101561475f578286015482556001958601959091019060200161473f565b508583101561429b5793015460001960f8600387901b161c19169092555050600190811b01905550565b6000808354614797816140d4565b600182811680156147af57600181146147c4576147f3565b60ff19841687528215158302870194506147f3565b8760005260208060002060005b858110156147ea5781548a8201529084019082016147d1565b50505082870194505b50929695505050505050565b8381526040602082015260006148196040830184866143e4565b95945050505050565b6020808252602b908201527f496e697469616c697a61626c653a20636f6e7472616374206973206e6f74206960408201526a6e697469616c697a696e6760a81b606082015260800190565b60208082526025908201527f4552433732313a207472616e736665722066726f6d20696e636f72726563742060408201526437bbb732b960d91b606082015260800190565b60208082526032908201527f4552433732313a207472616e7366657220746f206e6f6e20455243373231526560408201527131b2b4bb32b91034b6b83632b6b2b73a32b960711b606082015260800190565b6001600160a01b03858116825284166020820152604081018390526080606082018190526000906144a490830184613a6e565b60006020828403121561494957600080fd5b81516113908161387556fea2646970667358221220915add267ed62faaa611216264b4fe521045079b0656a30c3866f65da8daff8764736f6c63430008110033",
  "devdoc": {
    "author": "John Whitton (github.com/johnwhitton), reviewed and revised by Aaron Li (github.com/polymorpher)",
    "kind": "dev",
    "methods": {
      "approve(address,uint256)": {
        "details": "See {IERC721-approve}."
      },
      "balanceOf(address)": {
        "details": "See {IERC721-balanceOf}."
      },
      "getApproved(uint256)": {
        "details": "See {IERC721-getApproved}."
      },
      "isApprovedForAll(address,address)": {
        "details": "See {IERC721-isApprovedForAll}."
      },
      "name()": {
        "details": "See {IERC721Metadata-name}."
      },
      "owner()": {
        "details": "Returns the address of the current owner."
      },
      "ownerOf(uint256)": {
        "details": "See {IERC721-ownerOf}."
      },
      "paused()": {
        "details": "Returns true if the contract is paused, and false otherwise."
      },
      "renounceOwnership()": {
        "details": "Leaves the contract without owner. It will not be possible to call `onlyOwner` functions anymore. Can only be called by the current owner. NOTE: Renouncing ownership will leave the contract without an owner, thereby removing any functionality that is only available to the owner."
      },
      "safeTransferFrom(address,address,uint256)": {
        "details": "See {IERC721-safeTransferFrom}."
      },
      "safeTransferFrom(address,address,uint256,bytes)": {
        "details": "See {IERC721-safeTransferFrom}."
      },
      "setApprovalForAll(address,bool)": {
        "details": "See {IERC721-setApprovalForAll}."
      },
      "supportsInterface(bytes4)": {
        "details": "See {IERC165-supportsInterface}."
      },
      "symbol()": {
        "details": "See {IERC721Metadata-symbol}."
      },
      "tokenURI(uint256)": {
        "details": "See {IERC721Metadata-tokenURI}."
      },
      "transferFrom(address,address,uint256)": {
        "details": "See {IERC721-transferFrom}."
      },
      "transferOwnership(address)": {
        "details": "Transfers ownership of the contract to a new account (`newOwner`). Can only be called by the current owner."
      }
    },
    "stateVariables": {
      "_isEmailReveal": {
        "details": "User -> Name Owner -> Bool"
      },
      "_isPhoneReveal": {
        "details": "User -> Name Owner -> Bool"
      },
      "_isTelegramReveal": {
        "details": "User -> Name Owner -> Bool"
      },
      "_ownerInfos": {
        "details": "Name Owner -> OwnerInfo"
      },
      "emailRevealPrice": {
        "details": "Price for the email reveal"
      },
      "emojiReactionCounters": {
        "details": "TokenId -> Emoji Type -> Counter"
      },
      "emojiReactionPrices": {
        "details": "Emoji Type -> Price"
      },
      "keys": {
        "details": "TokenId list"
      },
      "lastCreated": {
        "details": "Name created lastly"
      },
      "lastRented": {
        "details": "Name rented lastly"
      },
      "nameRecords": {
        "details": "TokenId -> NameRecord"
      },
      "phoneRevealPrice": {
        "details": "Price for the phone reveal"
      },
      "telegramRevealPrice": {
        "details": "Price for the telegram reveal"
      },
      "urlUpdatePrice": {
        "details": "Price for the url update"
      }
    },
    "title": "A subdomain manager contract for .1.country (D1DC - Dot 1 Dot Country)",
    "version": 1
  },
  "userdoc": {
    "kind": "user",
    "methods": {},
    "notice": "This contract allows the rental of domains under .1.country (D1DC) like The Million Dollar Homepage: Anyone can take over a domain name by  browsing to a web2 address like foo.1.country and doubling its last price. Currently, a payer owns the domain only for `rentalPeriod`, and is allowed to embed a tweet for the web page. D1DC creates ERC721 tokens for each domain registration.",
    "version": 1
  },
  "storageLayout": {
    "storage": [
      {
        "astId": 138,
        "contract": "contracts/D1DCV2.sol:D1DCV2",
        "label": "_initialized",
        "offset": 0,
        "slot": "0",
        "type": "t_uint8"
      },
      {
        "astId": 141,
        "contract": "contracts/D1DCV2.sol:D1DCV2",
        "label": "_initializing",
        "offset": 1,
        "slot": "0",
        "type": "t_bool"
      },
      {
        "astId": 1956,
        "contract": "contracts/D1DCV2.sol:D1DCV2",
        "label": "__gap",
        "offset": 0,
        "slot": "1",
        "type": "t_array(t_uint256)50_storage"
      },
      {
        "astId": 2175,
        "contract": "contracts/D1DCV2.sol:D1DCV2",
        "label": "__gap",
        "offset": 0,
        "slot": "51",
        "type": "t_array(t_uint256)50_storage"
      },
      {
        "astId": 529,
        "contract": "contracts/D1DCV2.sol:D1DCV2",
        "label": "_name",
        "offset": 0,
        "slot": "101",
        "type": "t_string_storage"
      },
      {
        "astId": 531,
        "contract": "contracts/D1DCV2.sol:D1DCV2",
        "label": "_symbol",
        "offset": 0,
        "slot": "102",
        "type": "t_string_storage"
      },
      {
        "astId": 535,
        "contract": "contracts/D1DCV2.sol:D1DCV2",
        "label": "_owners",
        "offset": 0,
        "slot": "103",
        "type": "t_mapping(t_uint256,t_address)"
      },
      {
        "astId": 539,
        "contract": "contracts/D1DCV2.sol:D1DCV2",
        "label": "_balances",
        "offset": 0,
        "slot": "104",
        "type": "t_mapping(t_address,t_uint256)"
      },
      {
        "astId": 543,
        "contract": "contracts/D1DCV2.sol:D1DCV2",
        "label": "_tokenApprovals",
        "offset": 0,
        "slot": "105",
        "type": "t_mapping(t_uint256,t_address)"
      },
      {
        "astId": 549,
        "contract": "contracts/D1DCV2.sol:D1DCV2",
        "label": "_operatorApprovals",
        "offset": 0,
        "slot": "106",
        "type": "t_mapping(t_address,t_mapping(t_address,t_bool))"
      },
      {
        "astId": 1469,
        "contract": "contracts/D1DCV2.sol:D1DCV2",
        "label": "__gap",
        "offset": 0,
        "slot": "107",
        "type": "t_array(t_uint256)44_storage"
      },
      {
        "astId": 321,
        "contract": "contracts/D1DCV2.sol:D1DCV2",
        "label": "_paused",
        "offset": 0,
        "slot": "151",
        "type": "t_bool"
      },
      {
        "astId": 426,
        "contract": "contracts/D1DCV2.sol:D1DCV2",
        "label": "__gap",
        "offset": 0,
        "slot": "152",
        "type": "t_array(t_uint256)49_storage"
      },
      {
        "astId": 10,
        "contract": "contracts/D1DCV2.sol:D1DCV2",
        "label": "_owner",
        "offset": 0,
        "slot": "201",
        "type": "t_address"
      },
      {
        "astId": 130,
        "contract": "contracts/D1DCV2.sol:D1DCV2",
        "label": "__gap",
        "offset": 0,
        "slot": "202",
        "type": "t_array(t_uint256)49_storage"
      },
      {
        "astId": 441,
        "contract": "contracts/D1DCV2.sol:D1DCV2",
        "label": "_status",
        "offset": 0,
        "slot": "251",
        "type": "t_uint256"
      },
      {
        "astId": 499,
        "contract": "contracts/D1DCV2.sol:D1DCV2",
        "label": "__gap",
        "offset": 0,
        "slot": "252",
        "type": "t_array(t_uint256)49_storage"
      },
      {
        "astId": 3070,
        "contract": "contracts/D1DCV2.sol:D1DCV2",
        "label": "nameInitialized",
        "offset": 0,
        "slot": "301",
        "type": "t_bool"
      },
      {
        "astId": 3072,
        "contract": "contracts/D1DCV2.sol:D1DCV2",
        "label": "baseRentalPrice",
        "offset": 0,
        "slot": "302",
        "type": "t_uint256"
      },
      {
        "astId": 3074,
        "contract": "contracts/D1DCV2.sol:D1DCV2",
        "label": "rentalPeriod",
        "offset": 0,
        "slot": "303",
        "type": "t_uint32"
      },
      {
        "astId": 3076,
        "contract": "contracts/D1DCV2.sol:D1DCV2",
        "label": "priceMultiplier",
        "offset": 4,
        "slot": "303",
        "type": "t_uint32"
      },
      {
        "astId": 3078,
        "contract": "contracts/D1DCV2.sol:D1DCV2",
        "label": "revenueAccount",
        "offset": 8,
        "slot": "303",
        "type": "t_address"
      },
      {
        "astId": 3108,
        "contract": "contracts/D1DCV2.sol:D1DCV2",
        "label": "nameRecords",
        "offset": 0,
        "slot": "304",
        "type": "t_mapping(t_bytes32,t_struct(NameRecord)3091_storage)"
      },
      {
        "astId": 3114,
        "contract": "contracts/D1DCV2.sol:D1DCV2",
        "label": "emojiReactionPrices",
        "offset": 0,
        "slot": "305",
        "type": "t_mapping(t_enum(EmojiType)3102,t_uint256)"
      },
      {
        "astId": 3122,
        "contract": "contracts/D1DCV2.sol:D1DCV2",
        "label": "emojiReactionCounters",
        "offset": 0,
        "slot": "306",
        "type": "t_mapping(t_bytes32,t_mapping(t_enum(EmojiType)3102,t_uint256))"
      },
      {
        "astId": 3128,
        "contract": "contracts/D1DCV2.sol:D1DCV2",
        "label": "_ownerInfos",
        "offset": 0,
        "slot": "307",
        "type": "t_mapping(t_address,t_struct(OwnerInfo)3098_storage)"
      },
      {
        "astId": 3135,
        "contract": "contracts/D1DCV2.sol:D1DCV2",
        "label": "_isTelegramReveal",
        "offset": 0,
        "slot": "308",
        "type": "t_mapping(t_address,t_mapping(t_address,t_bool))"
      },
      {
        "astId": 3142,
        "contract": "contracts/D1DCV2.sol:D1DCV2",
        "label": "_isEmailReveal",
        "offset": 0,
        "slot": "309",
        "type": "t_mapping(t_address,t_mapping(t_address,t_bool))"
      },
      {
        "astId": 3149,
        "contract": "contracts/D1DCV2.sol:D1DCV2",
        "label": "_isPhoneReveal",
        "offset": 0,
        "slot": "310",
        "type": "t_mapping(t_address,t_mapping(t_address,t_bool))"
      },
      {
        "astId": 3152,
        "contract": "contracts/D1DCV2.sol:D1DCV2",
        "label": "lastRented",
        "offset": 0,
        "slot": "311",
        "type": "t_string_storage"
      },
      {
        "astId": 3155,
        "contract": "contracts/D1DCV2.sol:D1DCV2",
        "label": "lastCreated",
        "offset": 0,
        "slot": "312",
        "type": "t_string_storage"
      },
      {
        "astId": 3159,
        "contract": "contracts/D1DCV2.sol:D1DCV2",
        "label": "keys",
        "offset": 0,
        "slot": "313",
        "type": "t_array(t_bytes32)dyn_storage"
      },
      {
        "astId": 3162,
        "contract": "contracts/D1DCV2.sol:D1DCV2",
        "label": "urlUpdatePrice",
        "offset": 0,
        "slot": "314",
        "type": "t_uint256"
      },
      {
        "astId": 3165,
        "contract": "contracts/D1DCV2.sol:D1DCV2",
        "label": "telegramRevealPrice",
        "offset": 0,
        "slot": "315",
        "type": "t_uint256"
      },
      {
        "astId": 3168,
        "contract": "contracts/D1DCV2.sol:D1DCV2",
        "label": "emailRevealPrice",
        "offset": 0,
        "slot": "316",
        "type": "t_uint256"
      },
      {
        "astId": 3171,
        "contract": "contracts/D1DCV2.sol:D1DCV2",
        "label": "phoneRevealPrice",
        "offset": 0,
        "slot": "317",
        "type": "t_uint256"
      }
    ],
    "types": {
      "t_address": {
        "encoding": "inplace",
        "label": "address",
        "numberOfBytes": "20"
      },
      "t_array(t_bytes32)dyn_storage": {
        "base": "t_bytes32",
        "encoding": "dynamic_array",
        "label": "bytes32[]",
        "numberOfBytes": "32"
      },
      "t_array(t_uint256)44_storage": {
        "base": "t_uint256",
        "encoding": "inplace",
        "label": "uint256[44]",
        "numberOfBytes": "1408"
      },
      "t_array(t_uint256)49_storage": {
        "base": "t_uint256",
        "encoding": "inplace",
        "label": "uint256[49]",
        "numberOfBytes": "1568"
      },
      "t_array(t_uint256)50_storage": {
        "base": "t_uint256",
        "encoding": "inplace",
        "label": "uint256[50]",
        "numberOfBytes": "1600"
      },
      "t_bool": {
        "encoding": "inplace",
        "label": "bool",
        "numberOfBytes": "1"
      },
      "t_bytes32": {
        "encoding": "inplace",
        "label": "bytes32",
        "numberOfBytes": "32"
      },
      "t_enum(EmojiType)3102": {
        "encoding": "inplace",
        "label": "enum D1DCV2.EmojiType",
        "numberOfBytes": "1"
      },
      "t_mapping(t_address,t_bool)": {
        "encoding": "mapping",
        "key": "t_address",
        "label": "mapping(address => bool)",
        "numberOfBytes": "32",
        "value": "t_bool"
      },
      "t_mapping(t_address,t_mapping(t_address,t_bool))": {
        "encoding": "mapping",
        "key": "t_address",
        "label": "mapping(address => mapping(address => bool))",
        "numberOfBytes": "32",
        "value": "t_mapping(t_address,t_bool)"
      },
      "t_mapping(t_address,t_struct(OwnerInfo)3098_storage)": {
        "encoding": "mapping",
        "key": "t_address",
        "label": "mapping(address => struct D1DCV2.OwnerInfo)",
        "numberOfBytes": "32",
        "value": "t_struct(OwnerInfo)3098_storage"
      },
      "t_mapping(t_address,t_uint256)": {
        "encoding": "mapping",
        "key": "t_address",
        "label": "mapping(address => uint256)",
        "numberOfBytes": "32",
        "value": "t_uint256"
      },
      "t_mapping(t_bytes32,t_mapping(t_enum(EmojiType)3102,t_uint256))": {
        "encoding": "mapping",
        "key": "t_bytes32",
        "label": "mapping(bytes32 => mapping(enum D1DCV2.EmojiType => uint256))",
        "numberOfBytes": "32",
        "value": "t_mapping(t_enum(EmojiType)3102,t_uint256)"
      },
      "t_mapping(t_bytes32,t_struct(NameRecord)3091_storage)": {
        "encoding": "mapping",
        "key": "t_bytes32",
        "label": "mapping(bytes32 => struct D1DCV2.NameRecord)",
        "numberOfBytes": "32",
        "value": "t_struct(NameRecord)3091_storage"
      },
      "t_mapping(t_enum(EmojiType)3102,t_uint256)": {
        "encoding": "mapping",
        "key": "t_enum(EmojiType)3102",
        "label": "mapping(enum D1DCV2.EmojiType => uint256)",
        "numberOfBytes": "32",
        "value": "t_uint256"
      },
      "t_mapping(t_uint256,t_address)": {
        "encoding": "mapping",
        "key": "t_uint256",
        "label": "mapping(uint256 => address)",
        "numberOfBytes": "32",
        "value": "t_address"
      },
      "t_string_storage": {
        "encoding": "bytes",
        "label": "string",
        "numberOfBytes": "32"
      },
      "t_struct(NameRecord)3091_storage": {
        "encoding": "inplace",
        "label": "struct D1DCV2.NameRecord",
        "members": [
          {
            "astId": 3080,
            "contract": "contracts/D1DCV2.sol:D1DCV2",
            "label": "renter",
            "offset": 0,
            "slot": "0",
            "type": "t_address"
          },
          {
            "astId": 3082,
            "contract": "contracts/D1DCV2.sol:D1DCV2",
            "label": "timeUpdated",
            "offset": 20,
            "slot": "0",
            "type": "t_uint32"
          },
          {
            "astId": 3084,
            "contract": "contracts/D1DCV2.sol:D1DCV2",
            "label": "lastPrice",
            "offset": 0,
            "slot": "1",
            "type": "t_uint256"
          },
          {
            "astId": 3086,
            "contract": "contracts/D1DCV2.sol:D1DCV2",
            "label": "url",
            "offset": 0,
            "slot": "2",
            "type": "t_string_storage"
          },
          {
            "astId": 3088,
            "contract": "contracts/D1DCV2.sol:D1DCV2",
            "label": "prev",
            "offset": 0,
            "slot": "3",
            "type": "t_string_storage"
          },
          {
            "astId": 3090,
            "contract": "contracts/D1DCV2.sol:D1DCV2",
            "label": "next",
            "offset": 0,
            "slot": "4",
            "type": "t_string_storage"
          }
        ],
        "numberOfBytes": "160"
      },
      "t_struct(OwnerInfo)3098_storage": {
        "encoding": "inplace",
        "label": "struct D1DCV2.OwnerInfo",
        "members": [
          {
            "astId": 3093,
            "contract": "contracts/D1DCV2.sol:D1DCV2",
            "label": "telegram",
            "offset": 0,
            "slot": "0",
            "type": "t_string_storage"
          },
          {
            "astId": 3095,
            "contract": "contracts/D1DCV2.sol:D1DCV2",
            "label": "email",
            "offset": 0,
            "slot": "1",
            "type": "t_string_storage"
          },
          {
            "astId": 3097,
            "contract": "contracts/D1DCV2.sol:D1DCV2",
            "label": "phone",
            "offset": 0,
            "slot": "2",
            "type": "t_string_storage"
          }
        ],
        "numberOfBytes": "96"
      },
      "t_uint256": {
        "encoding": "inplace",
        "label": "uint256",
        "numberOfBytes": "32"
      },
      "t_uint32": {
        "encoding": "inplace",
        "label": "uint32",
        "numberOfBytes": "4"
      },
      "t_uint8": {
        "encoding": "inplace",
        "label": "uint8",
        "numberOfBytes": "1"
      }
    }
  }
}