{
  "address": "0x758A94C5F271422E038a6Ee06f7b675A6b0627A0",
  "abi": [
    {
      "anonymous": false,
      "inputs": [
        {
          "indexed": true,
          "internalType": "address",
          "name": "owner",
          "type": "address"
        },
        {
          "indexed": true,
          "internalType": "address",
          "name": "approved",
          "type": "address"
        },
        {
          "indexed": true,
          "internalType": "uint256",
          "name": "tokenId",
          "type": "uint256"
        }
      ],
      "name": "Approval",
      "type": "event"
    },
    {
      "anonymous": false,
      "inputs": [
        {
          "indexed": true,
          "internalType": "address",
          "name": "owner",
          "type": "address"
        },
        {
          "indexed": true,
          "internalType": "address",
          "name": "operator",
          "type": "address"
        },
        {
          "indexed": false,
          "internalType": "bool",
          "name": "approved",
          "type": "bool"
        }
      ],
      "name": "ApprovalForAll",
      "type": "event"
    },
    {
      "anonymous": false,
      "inputs": [
        {
          "indexed": true,
          "internalType": "address",
          "name": "by",
          "type": "address"
        },
        {
          "indexed": true,
          "internalType": "string",
          "name": "name",
          "type": "string"
        },
        {
          "indexed": true,
          "internalType": "enum D1DCV2.EmojiType",
          "name": "emoji",
          "type": "uint8"
        }
      ],
      "name": "EmojiReactionAdded",
      "type": "event"
    },
    {
      "anonymous": false,
      "inputs": [
        {
          "indexed": false,
          "internalType": "uint8",
          "name": "version",
          "type": "uint8"
        }
      ],
      "name": "Initialized",
      "type": "event"
    },
    {
      "anonymous": false,
      "inputs": [
        {
          "indexed": true,
          "internalType": "string",
          "name": "name",
          "type": "string"
        },
        {
          "indexed": true,
          "internalType": "address",
          "name": "renter",
          "type": "address"
        },
        {
          "indexed": false,
          "internalType": "uint256",
          "name": "price",
          "type": "uint256"
        },
        {
          "indexed": false,
          "internalType": "string",
          "name": "url",
          "type": "string"
        }
      ],
      "name": "NameRented",
      "type": "event"
    },
    {
      "anonymous": false,
      "inputs": [
        {
          "indexed": true,
          "internalType": "address",
          "name": "previousOwner",
          "type": "address"
        },
        {
          "indexed": true,
          "internalType": "address",
          "name": "newOwner",
          "type": "address"
        }
      ],
      "name": "OwnershipTransferred",
      "type": "event"
    },
    {
      "anonymous": false,
      "inputs": [
        {
          "indexed": false,
          "internalType": "address",
          "name": "account",
          "type": "address"
        }
      ],
      "name": "Paused",
      "type": "event"
    },
    {
      "anonymous": false,
      "inputs": [
        {
          "indexed": false,
          "internalType": "address",
          "name": "from",
          "type": "address"
        },
        {
          "indexed": false,
          "internalType": "address",
          "name": "to",
          "type": "address"
        }
      ],
      "name": "RevenueAccountChanged",
      "type": "event"
    },
    {
      "anonymous": false,
      "inputs": [
        {
          "indexed": true,
          "internalType": "address",
          "name": "from",
          "type": "address"
        },
        {
          "indexed": true,
          "internalType": "address",
          "name": "to",
          "type": "address"
        },
        {
          "indexed": true,
          "internalType": "uint256",
          "name": "tokenId",
          "type": "uint256"
        }
      ],
      "name": "Transfer",
      "type": "event"
    },
    {
      "anonymous": false,
      "inputs": [
        {
          "indexed": true,
          "internalType": "string",
          "name": "name",
          "type": "string"
        },
        {
          "indexed": true,
          "internalType": "address",
          "name": "renter",
          "type": "address"
        },
        {
          "indexed": false,
          "internalType": "string",
          "name": "oldUrl",
          "type": "string"
        },
        {
          "indexed": false,
          "internalType": "string",
          "name": "newUrl",
          "type": "string"
        }
      ],
      "name": "URLUpdated",
      "type": "event"
    },
    {
      "anonymous": false,
      "inputs": [
        {
          "indexed": false,
          "internalType": "address",
          "name": "account",
          "type": "address"
        }
      ],
      "name": "Unpaused",
      "type": "event"
    },
    {
      "inputs": [
        {
          "internalType": "string",
          "name": "name",
          "type": "string"
        },
        {
          "internalType": "enum D1DCV2.EmojiType",
          "name": "emojiType",
          "type": "uint8"
        }
      ],
      "name": "addEmojiReaction",
      "outputs": [],
      "stateMutability": "payable",
      "type": "function"
    },
    {
      "inputs": [
        {
          "internalType": "string",
          "name": "telegram",
          "type": "string"
        },
        {
          "internalType": "string",
          "name": "email",
          "type": "string"
        },
        {
          "internalType": "string",
          "name": "phone",
          "type": "string"
        }
      ],
      "name": "addOwnerInfo",
      "outputs": [],
      "stateMutability": "payable",
      "type": "function"
    },
    {
      "inputs": [
        {
          "internalType": "address",
          "name": "to",
          "type": "address"
        },
        {
          "internalType": "uint256",
          "name": "tokenId",
          "type": "uint256"
        }
      ],
      "name": "approve",
      "outputs": [],
      "stateMutability": "nonpayable",
      "type": "function"
    },
    {
      "inputs": [
        {
          "internalType": "address",
          "name": "owner",
          "type": "address"
        }
      ],
      "name": "balanceOf",
      "outputs": [
        {
          "internalType": "uint256",
          "name": "",
          "type": "uint256"
        }
      ],
      "stateMutability": "view",
      "type": "function"
    },
    {
      "inputs": [],
      "name": "baseRentalPrice",
      "outputs": [
        {
          "internalType": "uint256",
          "name": "",
          "type": "uint256"
        }
      ],
      "stateMutability": "view",
      "type": "function"
    },
    {
      "inputs": [],
      "name": "emailRevealPrice",
      "outputs": [
        {
          "internalType": "uint256",
          "name": "",
          "type": "uint256"
        }
      ],
      "stateMutability": "view",
      "type": "function"
    },
    {
      "inputs": [
        {
          "internalType": "bytes32",
          "name": "",
          "type": "bytes32"
        },
        {
          "internalType": "enum D1DCV2.EmojiType",
          "name": "",
          "type": "uint8"
        }
      ],
      "name": "emojiReactionCounters",
      "outputs": [
        {
          "internalType": "uint256",
          "name": "",
          "type": "uint256"
        }
      ],
      "stateMutability": "view",
      "type": "function"
    },
    {
      "inputs": [
        {
          "internalType": "enum D1DCV2.EmojiType",
          "name": "",
          "type": "uint8"
        }
      ],
      "name": "emojiReactionPrices",
      "outputs": [
        {
          "internalType": "uint256",
          "name": "",
          "type": "uint256"
        }
      ],
      "stateMutability": "view",
      "type": "function"
    },
    {
      "inputs": [],
      "name": "finishNameInitialization",
      "outputs": [],
      "stateMutability": "nonpayable",
      "type": "function"
    },
    {
      "inputs": [
        {
          "internalType": "uint256",
          "name": "tokenId",
          "type": "uint256"
        }
      ],
      "name": "getApproved",
      "outputs": [
        {
          "internalType": "address",
          "name": "",
          "type": "address"
        }
      ],
      "stateMutability": "view",
      "type": "function"
    },
    {
      "inputs": [
        {
          "internalType": "string",
          "name": "name",
          "type": "string"
        }
      ],
      "name": "getOwnerEmail",
      "outputs": [
        {
          "internalType": "string",
          "name": "",
          "type": "string"
        }
      ],
      "stateMutability": "nonpayable",
      "type": "function"
    },
    {
      "inputs": [
        {
          "internalType": "string",
          "name": "name",
          "type": "string"
        }
      ],
      "name": "getOwnerPhone",
      "outputs": [
        {
          "internalType": "string",
          "name": "",
          "type": "string"
        }
      ],
      "stateMutability": "nonpayable",
      "type": "function"
    },
    {
      "inputs": [
        {
          "internalType": "string",
          "name": "name",
          "type": "string"
        }
      ],
      "name": "getOwnerTelegram",
      "outputs": [
        {
          "internalType": "string",
          "name": "",
          "type": "string"
        }
      ],
      "stateMutability": "nonpayable",
      "type": "function"
    },
    {
      "inputs": [
        {
          "internalType": "bytes32",
          "name": "encodedName",
          "type": "bytes32"
        }
      ],
      "name": "getPrice",
      "outputs": [
        {
          "internalType": "uint256",
          "name": "",
          "type": "uint256"
        }
      ],
      "stateMutability": "view",
      "type": "function"
    },
    {
      "inputs": [
        {
          "internalType": "uint256",
          "name": "start",
          "type": "uint256"
        },
        {
          "internalType": "uint256",
          "name": "end",
          "type": "uint256"
        }
      ],
      "name": "getRecordKeys",
      "outputs": [
        {
          "internalType": "bytes32[]",
          "name": "",
          "type": "bytes32[]"
        }
      ],
      "stateMutability": "view",
      "type": "function"
    },
    {
      "inputs": [
        {
          "internalType": "string",
          "name": "_name",
          "type": "string"
        },
        {
          "internalType": "string",
          "name": "_symbol",
          "type": "string"
        },
        {
          "internalType": "uint256",
          "name": "_baseRentalPrice",
          "type": "uint256"
        },
        {
          "internalType": "uint32",
          "name": "_rentalPeriod",
          "type": "uint32"
        },
        {
          "internalType": "uint32",
          "name": "_priceMultiplier",
          "type": "uint32"
        },
        {
          "internalType": "address",
          "name": "_revenueAccount",
          "type": "address"
        },
        {
          "internalType": "uint256",
          "name": "_telegramRevealPrice",
          "type": "uint256"
        },
        {
          "internalType": "uint256",
          "name": "_emailRevealPrice",
          "type": "uint256"
        },
        {
          "internalType": "uint256",
          "name": "_phoneRevealPrice",
          "type": "uint256"
        }
      ],
      "name": "initialize",
      "outputs": [],
      "stateMutability": "nonpayable",
      "type": "function"
    },
    {
      "inputs": [
        {
          "internalType": "string[]",
          "name": "_names",
          "type": "string[]"
        },
        {
          "components": [
            {
              "internalType": "address",
              "name": "renter",
              "type": "address"
            },
            {
              "internalType": "uint32",
              "name": "timeUpdated",
              "type": "uint32"
            },
            {
              "internalType": "uint256",
              "name": "lastPrice",
              "type": "uint256"
            },
            {
              "internalType": "string",
              "name": "url",
              "type": "string"
            },
            {
              "internalType": "string",
              "name": "prev",
              "type": "string"
            },
            {
              "internalType": "string",
              "name": "next",
              "type": "string"
            }
          ],
          "internalType": "struct D1DCV2.NameRecord[]",
          "name": "_records",
          "type": "tuple[]"
        }
      ],
      "name": "initializeNames",
      "outputs": [],
      "stateMutability": "nonpayable",
      "type": "function"
    },
    {
      "inputs": [
        {
          "internalType": "address",
          "name": "owner",
          "type": "address"
        },
        {
          "internalType": "address",
          "name": "operator",
          "type": "address"
        }
      ],
      "name": "isApprovedForAll",
      "outputs": [
        {
          "internalType": "bool",
          "name": "",
          "type": "bool"
        }
      ],
      "stateMutability": "view",
      "type": "function"
    },
    {
      "inputs": [
        {
          "internalType": "uint256",
          "name": "",
          "type": "uint256"
        }
      ],
      "name": "keys",
      "outputs": [
        {
          "internalType": "bytes32",
          "name": "",
          "type": "bytes32"
        }
      ],
      "stateMutability": "view",
      "type": "function"
    },
    {
      "inputs": [],
      "name": "lastCreated",
      "outputs": [
        {
          "internalType": "string",
          "name": "",
          "type": "string"
        }
      ],
      "stateMutability": "view",
      "type": "function"
    },
    {
      "inputs": [],
      "name": "lastRented",
      "outputs": [
        {
          "internalType": "string",
          "name": "",
          "type": "string"
        }
      ],
      "stateMutability": "view",
      "type": "function"
    },
    {
      "inputs": [],
      "name": "name",
      "outputs": [
        {
          "internalType": "string",
          "name": "",
          "type": "string"
        }
      ],
      "stateMutability": "view",
      "type": "function"
    },
    {
      "inputs": [],
      "name": "nameInitialized",
      "outputs": [
        {
          "internalType": "bool",
          "name": "",
          "type": "bool"
        }
      ],
      "stateMutability": "view",
      "type": "function"
    },
    {
      "inputs": [
        {
          "internalType": "bytes32",
          "name": "",
          "type": "bytes32"
        }
      ],
      "name": "nameRecords",
      "outputs": [
        {
          "internalType": "address",
          "name": "renter",
          "type": "address"
        },
        {
          "internalType": "uint32",
          "name": "timeUpdated",
          "type": "uint32"
        },
        {
          "internalType": "uint256",
          "name": "lastPrice",
          "type": "uint256"
        },
        {
          "internalType": "string",
          "name": "url",
          "type": "string"
        },
        {
          "internalType": "string",
          "name": "prev",
          "type": "string"
        },
        {
          "internalType": "string",
          "name": "next",
          "type": "string"
        }
      ],
      "stateMutability": "view",
      "type": "function"
    },
    {
      "inputs": [],
      "name": "numRecords",
      "outputs": [
        {
          "internalType": "uint256",
          "name": "",
          "type": "uint256"
        }
      ],
      "stateMutability": "view",
      "type": "function"
    },
    {
      "inputs": [],
      "name": "owner",
      "outputs": [
        {
          "internalType": "address",
          "name": "",
          "type": "address"
        }
      ],
      "stateMutability": "view",
      "type": "function"
    },
    {
      "inputs": [
        {
          "internalType": "uint256",
          "name": "tokenId",
          "type": "uint256"
        }
      ],
      "name": "ownerOf",
      "outputs": [
        {
          "internalType": "address",
          "name": "",
          "type": "address"
        }
      ],
      "stateMutability": "view",
      "type": "function"
    },
    {
      "inputs": [],
      "name": "pause",
      "outputs": [],
      "stateMutability": "nonpayable",
      "type": "function"
    },
    {
      "inputs": [],
      "name": "paused",
      "outputs": [
        {
          "internalType": "bool",
          "name": "",
          "type": "bool"
        }
      ],
      "stateMutability": "view",
      "type": "function"
    },
    {
      "inputs": [],
      "name": "phoneRevealPrice",
      "outputs": [
        {
          "internalType": "uint256",
          "name": "",
          "type": "uint256"
        }
      ],
      "stateMutability": "view",
      "type": "function"
    },
    {
      "inputs": [],
      "name": "priceMultiplier",
      "outputs": [
        {
          "internalType": "uint32",
          "name": "",
          "type": "uint32"
        }
      ],
      "stateMutability": "view",
      "type": "function"
    },
    {
      "inputs": [],
      "name": "renounceOwnership",
      "outputs": [],
      "stateMutability": "nonpayable",
      "type": "function"
    },
    {
      "inputs": [
        {
          "internalType": "string",
          "name": "name",
          "type": "string"
        },
        {
          "internalType": "string",
          "name": "url",
          "type": "string"
        },
        {
          "internalType": "string",
          "name": "telegram",
          "type": "string"
        },
        {
          "internalType": "string",
          "name": "email",
          "type": "string"
        },
        {
          "internalType": "string",
          "name": "phone",
          "type": "string"
        }
      ],
      "name": "rent",
      "outputs": [],
      "stateMutability": "payable",
      "type": "function"
    },
    {
      "inputs": [],
      "name": "rentalPeriod",
      "outputs": [
        {
          "internalType": "uint32",
          "name": "",
          "type": "uint32"
        }
      ],
      "stateMutability": "view",
      "type": "function"
    },
    {
      "inputs": [
        {
          "internalType": "string",
          "name": "name",
          "type": "string"
        }
      ],
      "name": "requestEmailReveal",
      "outputs": [],
      "stateMutability": "payable",
      "type": "function"
    },
    {
      "inputs": [
        {
          "internalType": "string",
          "name": "name",
          "type": "string"
        }
      ],
      "name": "requestPhoneReveal",
      "outputs": [],
      "stateMutability": "payable",
      "type": "function"
    },
    {
      "inputs": [
        {
          "internalType": "string",
          "name": "name",
          "type": "string"
        }
      ],
      "name": "requestTelegramReveal",
      "outputs": [],
      "stateMutability": "payable",
      "type": "function"
    },
    {
      "inputs": [],
      "name": "revenueAccount",
      "outputs": [
        {
          "internalType": "address",
          "name": "",
          "type": "address"
        }
      ],
      "stateMutability": "view",
      "type": "function"
    },
    {
      "inputs": [
        {
          "internalType": "address",
          "name": "from",
          "type": "address"
        },
        {
          "internalType": "address",
          "name": "to",
          "type": "address"
        },
        {
          "internalType": "uint256",
          "name": "tokenId",
          "type": "uint256"
        }
      ],
      "name": "safeTransferFrom",
      "outputs": [],
      "stateMutability": "nonpayable",
      "type": "function"
    },
    {
      "inputs": [
        {
          "internalType": "address",
          "name": "from",
          "type": "address"
        },
        {
          "internalType": "address",
          "name": "to",
          "type": "address"
        },
        {
          "internalType": "uint256",
          "name": "tokenId",
          "type": "uint256"
        },
        {
          "internalType": "bytes",
          "name": "data",
          "type": "bytes"
        }
      ],
      "name": "safeTransferFrom",
      "outputs": [],
      "stateMutability": "nonpayable",
      "type": "function"
    },
    {
      "inputs": [
        {
          "internalType": "address",
          "name": "operator",
          "type": "address"
        },
        {
          "internalType": "bool",
          "name": "approved",
          "type": "bool"
        }
      ],
      "name": "setApprovalForAll",
      "outputs": [],
      "stateMutability": "nonpayable",
      "type": "function"
    },
    {
      "inputs": [
        {
          "internalType": "uint256",
          "name": "_baseRentalPrice",
          "type": "uint256"
        }
      ],
      "name": "setBaseRentalPrice",
      "outputs": [],
      "stateMutability": "nonpayable",
      "type": "function"
    },
    {
      "inputs": [
        {
          "internalType": "uint256",
          "name": "_emailRevealPrice",
          "type": "uint256"
        }
      ],
      "name": "setEmailPrice",
      "outputs": [],
      "stateMutability": "nonpayable",
      "type": "function"
    },
    {
      "inputs": [
        {
          "internalType": "enum D1DCV2.EmojiType",
          "name": "_emojiType",
          "type": "uint8"
        },
        {
          "internalType": "uint256",
          "name": "_emojiPrice",
          "type": "uint256"
        }
      ],
      "name": "setEmojiPrice",
      "outputs": [],
      "stateMutability": "nonpayable",
      "type": "function"
    },
    {
      "inputs": [
        {
          "internalType": "uint256",
          "name": "_phoneRevealPrice",
          "type": "uint256"
        }
      ],
      "name": "setPhonePrice",
      "outputs": [],
      "stateMutability": "nonpayable",
      "type": "function"
    },
    {
      "inputs": [
        {
          "internalType": "uint32",
          "name": "_priceMultiplier",
          "type": "uint32"
        }
      ],
      "name": "setPriceMultiplier",
      "outputs": [],
      "stateMutability": "nonpayable",
      "type": "function"
    },
    {
      "inputs": [
        {
          "internalType": "uint32",
          "name": "_rentalPeriod",
          "type": "uint32"
        }
      ],
      "name": "setRentalPeriod",
      "outputs": [],
      "stateMutability": "nonpayable",
      "type": "function"
    },
    {
      "inputs": [
        {
          "internalType": "address",
          "name": "_revenueAccount",
          "type": "address"
        }
      ],
      "name": "setRevenueAccount",
      "outputs": [],
      "stateMutability": "nonpayable",
      "type": "function"
    },
    {
      "inputs": [
        {
          "internalType": "uint256",
          "name": "_telegramRevealPrice",
          "type": "uint256"
        }
      ],
      "name": "setTelegramPrice",
      "outputs": [],
      "stateMutability": "nonpayable",
      "type": "function"
    },
    {
      "inputs": [
        {
          "internalType": "bytes4",
          "name": "interfaceId",
          "type": "bytes4"
        }
      ],
      "name": "supportsInterface",
      "outputs": [
        {
          "internalType": "bool",
          "name": "",
          "type": "bool"
        }
      ],
      "stateMutability": "view",
      "type": "function"
    },
    {
      "inputs": [],
      "name": "symbol",
      "outputs": [
        {
          "internalType": "string",
          "name": "",
          "type": "string"
        }
      ],
      "stateMutability": "view",
      "type": "function"
    },
    {
      "inputs": [],
      "name": "telegramRevealPrice",
      "outputs": [
        {
          "internalType": "uint256",
          "name": "",
          "type": "uint256"
        }
      ],
      "stateMutability": "view",
      "type": "function"
    },
    {
      "inputs": [
        {
          "internalType": "uint256",
          "name": "tokenId",
          "type": "uint256"
        }
      ],
      "name": "tokenURI",
      "outputs": [
        {
          "internalType": "string",
          "name": "",
          "type": "string"
        }
      ],
      "stateMutability": "view",
      "type": "function"
    },
    {
      "inputs": [
        {
          "internalType": "address",
          "name": "from",
          "type": "address"
        },
        {
          "internalType": "address",
          "name": "to",
          "type": "address"
        },
        {
          "internalType": "uint256",
          "name": "tokenId",
          "type": "uint256"
        }
      ],
      "name": "transferFrom",
      "outputs": [],
      "stateMutability": "nonpayable",
      "type": "function"
    },
    {
      "inputs": [
        {
          "internalType": "address",
          "name": "newOwner",
          "type": "address"
        }
      ],
      "name": "transferOwnership",
      "outputs": [],
      "stateMutability": "nonpayable",
      "type": "function"
    },
    {
      "inputs": [],
      "name": "unpause",
      "outputs": [],
      "stateMutability": "nonpayable",
      "type": "function"
    },
    {
      "inputs": [
        {
          "internalType": "string",
          "name": "name",
          "type": "string"
        },
        {
          "internalType": "string",
          "name": "url",
          "type": "string"
        }
      ],
      "name": "updateURL",
      "outputs": [],
      "stateMutability": "payable",
      "type": "function"
    },
    {
      "inputs": [],
      "name": "urlUpdatePrice",
      "outputs": [
        {
          "internalType": "uint256",
          "name": "",
          "type": "uint256"
        }
      ],
      "stateMutability": "view",
      "type": "function"
    },
    {
      "inputs": [],
      "name": "withdraw",
      "outputs": [],
      "stateMutability": "nonpayable",
      "type": "function"
    }
  ],
  "transactionHash": "0x3623dfe431b7a91f0884566e165823accf57a2f082a120dc36a8c6d6cfc2ae27",
  "args": [],
  "numDeployments": 2,
  "solcInputHash": "a6aa6a7665059da22f6f6855e5a09366",
  "bytecode": "0x608060405234801561001057600080fd5b50614c1e806100206000396000f3fe60806040526004361061038c5760003560e01c806374edae17116101dc578063b7b9d69611610102578063dbafb570116100a0578063f2fde38b1161006f578063f2fde38b14610a59578063f5dc7d5614610a79578063f623b7af14610aa1578063fcb11ff614610ab457600080fd5b8063dbafb5701461099e578063e8bdcc09146109be578063e985e9c5146109de578063eb75204214610a2757600080fd5b8063c22a3101116100dc578063c22a310114610913578063c87b56dd14610941578063d22da07514610961578063d50cb88b1461097857600080fd5b8063b7b9d696146108b3578063b88d4fde146108d3578063c218c591146108f357600080fd5b80638ab011681161017a578063a1a0c1bc11610149578063a1a0c1bc14610855578063a22cb46514610868578063afff5a6414610888578063b5d1990d1461089d57600080fd5b80638ab01168146107cf5780638c4b8475146107ef5780638da5cb5b1461082257806395d89b411461084057600080fd5b8063839e5f78116101b6578063839e5f78146107705780638456cb59146107835780638789fcc1146107985780638a5cab27146107af57600080fd5b806374edae17146107155780637528b89c146107285780637e1afcb51461074357600080fd5b806331d98b3f116102c15780635c975abb1161025f57806368b2210d1161022e57806368b2210d146106a05780636c863bc2146106c057806370a08231146106e0578063715018a61461070057600080fd5b80635c975abb1461061857806361921a2a146106305780636352211e14610647578063649cde291461066757600080fd5b806342842e0e1161029b57806342842e0e146105b057806348ff2e7c146105d05780634e84bd4a146105f05780635b8e99dc1461060557600080fd5b806331d98b3f146105665780633ccfd60b146105865780633f4ba83a1461059b57600080fd5b80630f75e5c01161032e5780631742c0e0116103085780631742c0e0146104fe5780632143f93b1461051157806323b872dd1461052657806330027f3b1461054657600080fd5b80630f75e5c0146104b05780630f77bcfb146104c7578063159171dd146104de57600080fd5b8063081812fc1161036a578063081812fc1461040a578063095ea7b3146104425780630b3a8d95146104625780630cb6aaf11461048257600080fd5b806301ffc9a71461039157806306b0c389146103c657806306fdde03146103e8575b600080fd5b34801561039d57600080fd5b506103b16103ac366004613b1f565b610ac7565b60405190151581526020015b60405180910390f35b3480156103d257600080fd5b506103e66103e1366004613c1e565b610b19565b005b3480156103f457600080fd5b506103fd610cb6565b6040516103bd9190613d2e565b34801561041657600080fd5b5061042a610425366004613d41565b610d48565b6040516001600160a01b0390911681526020016103bd565b34801561044e57600080fd5b506103e661045d366004613d5a565b610d6f565b34801561046e57600080fd5b506103fd61047d366004613dce565b610e84565b34801561048e57600080fd5b506104a261049d366004613d41565b610ff8565b6040519081526020016103bd565b3480156104bc57600080fd5b506104a261012e5481565b3480156104d357600080fd5b506104a261013d5481565b3480156104ea57600080fd5b506103e66104f9366004613e0f565b61101a565b6103e661050c366004613e2c565b61103f565b34801561051d57600080fd5b506103fd6111d7565b34801561053257600080fd5b506103e6610541366004613eb3565b611266565b34801561055257600080fd5b506103e6610561366004613ef4565b611297565b34801561057257600080fd5b506104a2610581366004613d41565b61131b565b34801561059257600080fd5b506103e66113a9565b3480156105a757600080fd5b506103e66114dd565b3480156105bc57600080fd5b506103e66105cb366004613eb3565b6114ef565b3480156105dc57600080fd5b506103e66105eb366004613d41565b61150a565b3480156105fc57600080fd5b506103e6611518565b6103e6610613366004613f20565b611530565b34801561062457600080fd5b5060975460ff166103b1565b34801561063c57600080fd5b506104a261013c5481565b34801561065357600080fd5b5061042a610662366004613d41565b6117a2565b34801561067357600080fd5b506104a2610682366004613f6d565b61013260209081526000928352604080842090915290825290205481565b3480156106ac57600080fd5b506103fd6106bb366004613dce565b611802565b3480156106cc57600080fd5b506103fd6106db366004613dce565b6118ee565b3480156106ec57600080fd5b506104a26106fb366004613ef4565b6119da565b34801561070c57600080fd5b506103e6611a60565b6103e6610723366004613dce565b611a72565b34801561073457600080fd5b5061012d546103b19060ff1681565b34801561074f57600080fd5b5061076361075e366004613f90565b611cde565b6040516103bd9190613fb2565b6103e661077e366004613ff6565b611df5565b34801561078f57600080fd5b506103e6612071565b3480156107a457600080fd5b506104a261013b5481565b3480156107bb57600080fd5b506103e66107ca366004613d41565b612081565b3480156107db57600080fd5b506103e66107ea366004613e0f565b61208f565b3480156107fb57600080fd5b5061012f5461080d9063ffffffff1681565b60405163ffffffff90911681526020016103bd565b34801561082e57600080fd5b5060c9546001600160a01b031661042a565b34801561084c57600080fd5b506103fd6120c0565b6103e6610863366004613dce565b6120cf565b34801561087457600080fd5b506103e6610883366004614061565b61226b565b34801561089457600080fd5b506103fd612276565b3480156108a957600080fd5b50610139546104a2565b3480156108bf57600080fd5b506103e66108ce36600461409f565b612284565b3480156108df57600080fd5b506103e66108ee3660046140bb565b6122ca565b3480156108ff57600080fd5b506103e661090e366004613d41565b6122fc565b34801561091f57600080fd5b506104a261092e36600461413a565b6101316020526000908152604090205481565b34801561094d57600080fd5b506103fd61095c366004613d41565b61230a565b34801561096d57600080fd5b506104a261013a5481565b34801561098457600080fd5b5061012f5461080d90640100000000900463ffffffff1681565b3480156109aa57600080fd5b506103e66109b9366004613d41565b61237d565b3480156109ca57600080fd5b506103e66109d9366004614199565b61238b565b3480156109ea57600080fd5b506103b16109f93660046141f8565b6001600160a01b039182166000908152606a6020908152604080832093909416825291909152205460ff1690565b348015610a3357600080fd5b50610a47610a42366004613d41565b61265a565b6040516103bd96959493929190614226565b348015610a6557600080fd5b506103e6610a74366004613ef4565b61283a565b348015610a8557600080fd5b5061012f5461042a90600160401b90046001600160a01b031681565b6103e6610aaf36600461428c565b6128b0565b6103e6610ac2366004613dce565b612c75565b60006001600160e01b031982166380ac58cd60e01b1480610af857506001600160e01b03198216635b5e139f60e01b145b80610b1357506301ffc9a760e01b6001600160e01b03198316145b92915050565b600054610100900460ff1615808015610b395750600054600160ff909116105b80610b535750303b158015610b53575060005460ff166001145b610bbb5760405162461bcd60e51b815260206004820152602e60248201527f496e697469616c697a61626c653a20636f6e747261637420697320616c72656160448201526d191e481a5b9a5d1a585b1a5e995960921b60648201526084015b60405180910390fd5b6000805460ff191660011790558015610bde576000805461ff0019166101001790555b610be88a8a612e1d565b610bf0612e4e565b610bf8612e7d565b610c00612eac565b61012e88905561012f80546001600160a01b038716600160401b02600160401b600160e01b031963ffffffff8a81166401000000000267ffffffffffffffff19909416908c1617929092179190911617905561013b84905561013c83905561013d8290558015610caa576000805461ff0019169055604051600181527f7f26b83ff96e1f2b6a682f133852f6798a09c465da95921460cefb38474024989060200160405180910390a15b50505050505050505050565b606060658054610cc590614368565b80601f0160208091040260200160405190810160405280929190818152602001828054610cf190614368565b8015610d3e5780601f10610d1357610100808354040283529160200191610d3e565b820191906000526020600020905b815481529060010190602001808311610d2157829003601f168201915b5050505050905090565b6000610d5382612edb565b506000908152606960205260409020546001600160a01b031690565b6000610d7a826117a2565b9050806001600160a01b0316836001600160a01b031603610de75760405162461bcd60e51b815260206004820152602160248201527f4552433732313a20617070726f76616c20746f2063757272656e74206f776e656044820152603960f91b6064820152608401610bb2565b336001600160a01b0382161480610e035750610e0381336109f9565b610e755760405162461bcd60e51b815260206004820152603d60248201527f4552433732313a20617070726f76652063616c6c6572206973206e6f7420746f60448201527f6b656e206f776e6572206f7220617070726f76656420666f7220616c6c0000006064820152608401610bb2565b610e7f8383612f3a565b505050565b6060600061013060008585604051610e9d9291906143a2565b60408051918290039091208252602082019290925201600020546001600160a01b03169050338114610f4d57336000908152610134602090815260408083206001600160a01b038516845290915290205460ff16610f4d5760405162461bcd60e51b815260206004820152602760248201527f443144433a206e6f207065726d697373696f6e20666f722074656c656772616d604482015266081c995d99585b60ca1b6064820152608401610bb2565b6001600160a01b0381166000908152610133602052604090208054610f7190614368565b80601f0160208091040260200160405190810160405280929190818152602001828054610f9d90614368565b8015610fea5780601f10610fbf57610100808354040283529160200191610fea565b820191906000526020600020905b815481529060010190602001808311610fcd57829003601f168201915b505050505091505092915050565b610139818154811061100957600080fd5b600091825260209091200154905081565b611022612fa8565b61012f805463ffffffff191663ffffffff92909216919091179055565b611047613002565b61104f61305b565b82513490156110a8578061013b54111561107b5760405162461bcd60e51b8152600401610bb2906143b2565b61013b546110899082614410565b336000908152610133602052604090209091506110a68582614486565b505b825115611102578061013c5411156110d25760405162461bcd60e51b8152600401610bb2906143b2565b61013c546110e09082614410565b336000908152610133602052604090209091506001016111008482614486565b505b81511561115c578061013d54111561112c5760405162461bcd60e51b8152600401610bb2906143b2565b61013c5461113a9082614410565b3360009081526101336020526040902090915060010161115a8482614486565b505b80156111cc57604051600090339083908381818185875af1925050503d80600081146111a4576040519150601f19603f3d011682016040523d82523d6000602084013e6111a9565b606091505b50509050806111ca5760405162461bcd60e51b8152600401610bb29061453f565b505b50610e7f600160fb55565b61013780546111e590614368565b80601f016020809104026020016040519081016040528092919081815260200182805461121190614368565b801561125e5780601f106112335761010080835404028352916020019161125e565b820191906000526020600020905b81548152906001019060200180831161124157829003601f168201915b505050505081565b61127033826130a8565b61128c5760405162461bcd60e51b8152600401610bb29061456d565b610e7f838383613127565b61129f612fa8565b61012f54604080516001600160a01b03600160401b9093048316815291831660208301527fe03b0e59900b6347a6bdef98fe51689d53064c5235a2ca9fc10a27c497ec7307910160405180910390a161012f80546001600160a01b03909216600160401b02600160401b600160e01b0319909216919091179055565b60008181526101306020526040812061012f54815463ffffffff4281169261134f9290821691600160a01b909104166145ba565b63ffffffff161161136557505061012e54919050565b80546001600160a01b0316331461139c5761012f54600182015461139791640100000000900463ffffffff16906145de565b6113a2565b80600101545b9392505050565b60c9546001600160a01b03163314806113d4575061012f54600160401b90046001600160a01b031633145b61142f5760405162461bcd60e51b815260206004820152602660248201527f443144433a206d757374206265206f776e6572206f7220726576656e7565206160448201526518d8dbdd5b9d60d21b6064820152608401610bb2565b61012f54604051600091600160401b90046001600160a01b03169047908381818185875af1925050503d8060008114611484576040519150601f19603f3d011682016040523d82523d6000602084013e611489565b606091505b50509050806114da5760405162461bcd60e51b815260206004820152601860248201527f443144433a206661696c656420746f20776974686472617700000000000000006044820152606401610bb2565b50565b6114e5612fa8565b6114ed6132a0565b565b610e7f838383604051806020016040528060008152506122ca565b611512612fa8565b61013c55565b611520612fa8565b61012d805460ff19166001179055565b611538613002565b61154061305b565b610132600083805190602001208152602001908152602001600020600082600281111561156f5761156f6145f5565b6002811115611580576115806145f5565b81526020019081526020016000206000815461159b9061460b565b909155506000610131818360028111156115b7576115b76145f5565b60028111156115c8576115c86145f5565b8152602001908152602001600020549050348111156116295760405162461bcd60e51b815260206004820181905260248201527f443144433a20696e73756666696369656e7420656d6f6a69207061796d656e746044820152606401610bb2565b8251602080850191909120600090815261013090915260408120546001600160a01b031690606461165b84605a6145de565b6116659190614624565b90506000826001600160a01b03168260405160006040518083038185875af1925050503d80600081146116b4576040519150601f19603f3d011682016040523d82523d6000602084013e6116b9565b606091505b50509050600084346116cb9190614410565b9050801561173d57604051600090339083908381818185875af1925050503d8060008114611715576040519150601f19603f3d011682016040523d82523d6000602084013e61171a565b606091505b505090508061173b5760405162461bcd60e51b8152600401610bb29061453f565b505b85600281111561174f5761174f6145f5565b8760405161175d9190614646565b6040519081900381209033907f852605dcec8d6bf5f3c46c20fe8e730e7096150f02450555fed4aa4298158bae90600090a4505050505061179e600160fb55565b5050565b6000818152606760205260408120546001600160a01b031680610b135760405162461bcd60e51b8152602060048201526018602482015277115490cdcc8c4e881a5b9d985b1a59081d1bdad95b88125160421b6044820152606401610bb2565b606060006101306000858560405161181b9291906143a2565b60408051918290039091208252602082019290925201600020546001600160a01b031690503381146118c757336000908152610135602090815260408083206001600160a01b038516845290915290205460ff166118c75760405162461bcd60e51b8152602060048201526024808201527f443144433a206e6f207065726d697373696f6e20666f7220656d61696c2072656044820152631d99585b60e21b6064820152608401610bb2565b6001600160a01b0381166000908152610133602052604090206001018054610f7190614368565b60606000610130600085856040516119079291906143a2565b60408051918290039091208252602082019290925201600020546001600160a01b031690503381146119b357336000908152610136602090815260408083206001600160a01b038516845290915290205460ff166119b35760405162461bcd60e51b8152602060048201526024808201527f443144433a206e6f207065726d697373696f6e20666f722070686f6e652072656044820152631d99585b60e21b6064820152608401610bb2565b6001600160a01b0381166000908152610133602052604090206002018054610f7190614368565b60006001600160a01b038216611a445760405162461bcd60e51b815260206004820152602960248201527f4552433732313a2061646472657373207a65726f206973206e6f7420612076616044820152683634b21037bbb732b960b91b6064820152608401610bb2565b506001600160a01b031660009081526068602052604090205490565b611a68612fa8565b6114ed60006132f2565b611a7a613002565b611a8261305b565b61013d5434811115611ad65760405162461bcd60e51b815260206004820181905260248201527f443144433a20696e73756666696369656e742070686f6e65207061796d656e746044820152606401610bb2565b600061013060008585604051611aed9291906143a2565b60408051918290039091208252602082019290925201600020546001600160a01b03169050338103611b615760405162461bcd60e51b815260206004820152601b60248201527f443144433a2073656c662072657665616c20666f722070686f6e6500000000006044820152606401610bb2565b336000908152610136602090815260408083206001600160a01b038516845290915290205460ff1615611bd65760405162461bcd60e51b815260206004820152601c60248201527f443144433a20616c7265616479207061696420666f722070686f6e65000000006044820152606401610bb2565b336000908152610136602090815260408083206001600160a01b0385168085529252808320805460ff191660011790555184905b60006040518083038185875af1925050503d8060008114611c47576040519150601f19603f3d011682016040523d82523d6000602084013e611c4c565b606091505b5050905060008334611c5e9190614410565b90508015611cd057604051600090339083908381818185875af1925050503d8060008114611ca8576040519150601f19603f3d011682016040523d82523d6000602084013e611cad565b606091505b5050905080611cce5760405162461bcd60e51b8152600401610bb29061453f565b505b5050505061179e600160fb55565b6060828211611d3b5760405162461bcd60e51b8152602060048201526024808201527f443144433a20656e64206d7573742062652067726561746572207468616e20736044820152631d185c9d60e21b6064820152608401610bb2565b6000611d478484614410565b6001600160401b03811115611d5e57611d5e613b3c565b604051908082528060200260200182016040528015611d87578160200160208202803683370190505b509050835b83811015611ded576101398181548110611da857611da8614662565b9060005260206000200154828683611dc09190614410565b81518110611dd057611dd0614662565b602090810291909101015280611de58161460b565b915050611d8c565b509392505050565b611dfd613002565b611e0561305b565b336001600160a01b031661013060008686604051611e249291906143a2565b60408051918290039091208252602082019290925201600020546001600160a01b031614611e865760405162461bcd60e51b815260206004820152600f60248201526e2218a2219d103737ba1037bbb732b960891b6044820152606401610bb2565b610400811115611ecd5760405162461bcd60e51b8152602060048201526012602482015271443144433a2075726c20746f6f206c6f6e6760701b6044820152606401610bb2565b6040513390611edf90869086906143a2565b60405180910390207f096f0aee78aea5199be1c1bf75f83f8c98e7002651030cbe56c0ca959cdd24c561013060008888604051611f1d9291906143a2565b604051809103902081526020019081526020016000206002018585604051611f47939291906146a1565b60405180910390a3818161013060008787604051611f669291906143a2565b604051809103902081526020019081526020016000206002019182611f8c929190614742565b5061013a5434811115611fe15760405162461bcd60e51b815260206004820152601e60248201527f443144433a20696e73756666696369656e742075726c207061796d656e7400006044820152606401610bb2565b6000611fed8234614410565b9050801561205f57604051600090339083908381818185875af1925050503d8060008114612037576040519150601f19603f3d011682016040523d82523d6000602084013e61203c565b606091505b505090508061205d5760405162461bcd60e51b8152600401610bb29061453f565b505b505061206b600160fb55565b50505050565b612079612fa8565b6114ed613344565b612089612fa8565b61013d55565b612097612fa8565b61012f805463ffffffff9092166401000000000267ffffffff0000000019909216919091179055565b606060668054610cc590614368565b6120d7613002565b6120df61305b565b61013c54348111156121335760405162461bcd60e51b815260206004820181905260248201527f443144433a20696e73756666696369656e7420656d61696c207061796d656e746044820152606401610bb2565b60006101306000858560405161214a9291906143a2565b60408051918290039091208252602082019290925201600020546001600160a01b031690503381036121be5760405162461bcd60e51b815260206004820152601b60248201527f443144433a2073656c662072657665616c20666f7220656d61696c00000000006044820152606401610bb2565b336000908152610135602090815260408083206001600160a01b038516845290915290205460ff16156122335760405162461bcd60e51b815260206004820152601c60248201527f443144433a20616c7265616479207061696420666f7220656d61696c000000006044820152606401610bb2565b336000908152610135602090815260408083206001600160a01b0385168085529252808320805460ff19166001179055518490611c0a565b61179e338383613381565b61013880546111e590614368565b61228c612fa8565b8061013160008460028111156122a4576122a46145f5565b60028111156122b5576122b56145f5565b81526020810191909152604001600020555050565b6122d433836130a8565b6122f05760405162461bcd60e51b8152600401610bb29061456d565b61206b8484848461344f565b612304612fa8565b61013b55565b606061231582612edb565b600061232c60408051602081019091526000815290565b9050600081511161234c57604051806020016040528060008152506113a2565b8061235684613482565b6040516020016123679291906147fb565b6040516020818303038152906040529392505050565b612385612fa8565b61012e55565b612393612fa8565b61012d5460ff16156123e75760405162461bcd60e51b815260206004820152601960248201527f443144433a20616c726561647920696e697469616c697a6564000000000000006044820152606401610bb2565b82811461242d5760405162461bcd60e51b81526020600482015260146024820152730886288867440eadccae2eac2d840d8cadccee8d60631b6044820152606401610bb2565b60005b8181101561260557600085858381811061244c5761244c614662565b905060200281019061245e919061482a565b60405161246c9291906143a2565b6040518091039020905083838381811061248857612488614662565b905060200281019061249a9190614870565b6000828152610130602052604090206124b38282614886565b50506101398054600181810183556000929092527f22d66071756d4d57920b8322c1a903a27bd75b44065e925d5f9f1c08908d28f60182905582108015906125175750600081815261013060205260409020600301805461251390614368565b1590505b1561256a578585612529600185614410565b81811061253857612538614662565b905060200281019061254a919061482a565b60008381526101306020526040902060030191612568919083614742565b505b612575600184614410565b8210801561259f5750600081815261013060205260409020600401805461259b90614368565b1590505b156125f25785856125b184600161493e565b8181106125c0576125c0614662565b90506020028101906125d2919061482a565b600083815261013060205260409020600401916125f0919083614742565b505b50806125fd8161460b565b915050612430565b508383612613600182614410565b81811061262257612622614662565b9050602002810190612634919061482a565b61013891612643919083614742565b5061013761265361013882614951565b5050505050565b610130602052600090815260409020805460018201546002830180546001600160a01b03841694600160a01b90940463ffffffff1693919061269b90614368565b80601f01602080910402602001604051908101604052809291908181526020018280546126c790614368565b80156127145780601f106126e957610100808354040283529160200191612714565b820191906000526020600020905b8154815290600101906020018083116126f757829003601f168201915b50505050509080600301805461272990614368565b80601f016020809104026020016040519081016040528092919081815260200182805461275590614368565b80156127a25780601f10612777576101008083540402835291602001916127a2565b820191906000526020600020905b81548152906001019060200180831161278557829003601f168201915b5050505050908060040180546127b790614368565b80601f01602080910402602001604051908101604052809291908181526020018280546127e390614368565b80156128305780601f1061280557610100808354040283529160200191612830565b820191906000526020600020905b81548152906001019060200180831161281357829003601f168201915b5050505050905086565b612842612fa8565b6001600160a01b0381166128a75760405162461bcd60e51b815260206004820152602660248201527f4f776e61626c653a206e6577206f776e657220697320746865207a65726f206160448201526564647265737360d01b6064820152608401610bb2565b6114da816132f2565b6128b8613002565b6128c061305b565b60808611156129075760405162461bcd60e51b8152602060048201526013602482015272443144433a206e616d6520746f6f206c6f6e6760681b6044820152606401610bb2565b61040084111561294e5760405162461bcd60e51b8152602060048201526012602482015271443144433a2075726c20746f6f206c6f6e6760701b6044820152606401610bb2565b600087876040516129609291906143a2565b60408051918290039091206000818152610130602052918220909250906129868361131b565b9050348111156129d85760405162461bcd60e51b815260206004820152601a60248201527f443144433a20696e73756666696369656e74207061796d656e740000000000006044820152606401610bb2565b81546001830182905563ffffffff4216600160a01b0263ffffffff60a01b1933166001600160c01b03198316171783556001600160a01b03168715612a285760028301612a26898b83614742565b505b610137612a368b8d83614742565b506000848152606760205260409020546001600160a01b031615612ae757612a6f8133866040518060200160405280600081525061344f565b60006064612a7e84605a6145de565b612a889190614624565b90506000826001600160a01b03168260405160006040518083038185875af1925050503d8060008114612ad7576040519150601f19603f3d011682016040523d82523d6000602084013e612adc565b606091505b505090505050612b4f565b8a8a6101306000610138604051612afe9190614a1d565b604051809103902081526020019081526020016000206004019182612b24929190614742565b5060038301612b3561013882614951565b50610138612b448b8d83614742565b50612b4f3385613514565b3360009081526101336020526040902080612b6a8982614486565b5060018101612b798882614486565b5060028101612b888782614486565b506000612b958434614410565b90508015612c0757604051600090339083908381818185875af1925050503d8060008114612bdf576040519150601f19603f3d011682016040523d82523d6000602084013e612be4565b606091505b5050905080612c055760405162461bcd60e51b8152600401610bb29061453f565b505b6040513390612c19908f908f906143a2565b60405180910390207ff1d86ac814e2a6b7710c558956057aa8ca4d67a2b19ea13b9dc84c92945c9896868e8e604051612c5493929190614a93565b60405180910390a3505050505050612c6c600160fb55565b50505050505050565b612c7d613002565b612c8561305b565b61013b5434811115612ce55760405162461bcd60e51b815260206004820152602360248201527f443144433a20696e73756666696369656e742074656c656772616d207061796d604482015262195b9d60ea1b6064820152608401610bb2565b600061013060008585604051612cfc9291906143a2565b60408051918290039091208252602082019290925201600020546001600160a01b03169050338103612d705760405162461bcd60e51b815260206004820152601e60248201527f443144433a2073656c662072657665616c20666f722074656c656772616d00006044820152606401610bb2565b336000908152610134602090815260408083206001600160a01b038516845290915290205460ff1615612de55760405162461bcd60e51b815260206004820152601f60248201527f443144433a20616c7265616479207061696420666f722074656c656772616d006044820152606401610bb2565b336000908152610134602090815260408083206001600160a01b0385168085529252808320805460ff19166001179055518490611c0a565b600054610100900460ff16612e445760405162461bcd60e51b8152600401610bb290614ab6565b61179e828261352e565b600054610100900460ff16612e755760405162461bcd60e51b8152600401610bb290614ab6565b6114ed61356e565b600054610100900460ff16612ea45760405162461bcd60e51b8152600401610bb290614ab6565b6114ed6135a1565b600054610100900460ff16612ed35760405162461bcd60e51b8152600401610bb290614ab6565b6114ed6135d1565b6000818152606760205260409020546001600160a01b03166114da5760405162461bcd60e51b8152602060048201526018602482015277115490cdcc8c4e881a5b9d985b1a59081d1bdad95b88125160421b6044820152606401610bb2565b600081815260696020526040902080546001600160a01b0319166001600160a01b0384169081179091558190612f6f826117a2565b6001600160a01b03167f8c5be1e5ebec7d5bd14f71427d1e84f3dd0314c0f7b2291e5b200ac8c7c3b92560405160405180910390a45050565b60c9546001600160a01b031633146114ed5760405162461bcd60e51b815260206004820181905260248201527f4f776e61626c653a2063616c6c6572206973206e6f7420746865206f776e65726044820152606401610bb2565b600260fb54036130545760405162461bcd60e51b815260206004820152601f60248201527f5265656e7472616e637947756172643a207265656e7472616e742063616c6c006044820152606401610bb2565b600260fb55565b60975460ff16156114ed5760405162461bcd60e51b815260206004820152601060248201526f14185d5cd8589b194e881c185d5cd95960821b6044820152606401610bb2565b600160fb55565b6000806130b4836117a2565b9050806001600160a01b0316846001600160a01b031614806130fb57506001600160a01b038082166000908152606a602090815260408083209388168352929052205460ff165b8061311f5750836001600160a01b031661311484610d48565b6001600160a01b0316145b949350505050565b826001600160a01b031661313a826117a2565b6001600160a01b0316146131605760405162461bcd60e51b8152600401610bb290614b01565b6001600160a01b0382166131c25760405162461bcd60e51b8152602060048201526024808201527f4552433732313a207472616e7366657220746f20746865207a65726f206164646044820152637265737360e01b6064820152608401610bb2565b6131cf83838360016135f8565b826001600160a01b03166131e2826117a2565b6001600160a01b0316146132085760405162461bcd60e51b8152600401610bb290614b01565b600081815260696020908152604080832080546001600160a01b03199081169091556001600160a01b0387811680865260688552838620805460001901905590871680865283862080546001019055868652606790945282852080549092168417909155905184937fddf252ad1be2c89b69c2b068fc378daa952ba7f163c4a11628f55a4df523b3ef91a4610e7f8383836001613680565b6132a8613711565b6097805460ff191690557f5db9ee0a495bf2e6ff9c91a7834c1ba4fdd244a5e8aa4e537bd38aeae4b073aa335b6040516001600160a01b03909116815260200160405180910390a1565b60c980546001600160a01b038381166001600160a01b0319831681179093556040519116919082907f8be0079c531659141344cd1fd0a4f28419497f9722a3daafe3b4186f6b6457e090600090a35050565b61334c61305b565b6097805460ff191660011790557f62e78cea01bee320cd4e420270b5ea74000d11b0c9f74754ebdbfc544b05a2586132d53390565b816001600160a01b0316836001600160a01b0316036133e25760405162461bcd60e51b815260206004820152601960248201527f4552433732313a20617070726f766520746f2063616c6c6572000000000000006044820152606401610bb2565b6001600160a01b038381166000818152606a6020908152604080832094871680845294825291829020805460ff191686151590811790915591519182527f17307eab39ab6107e8899845ad3d59bd9653f200f220920489ca2b5937696c31910160405180910390a3505050565b61345a848484613127565b6134668484848461375a565b61206b5760405162461bcd60e51b8152600401610bb290614b46565b6060600061348f8361385b565b60010190506000816001600160401b038111156134ae576134ae613b3c565b6040519080825280601f01601f1916602001820160405280156134d8576020820181803683370190505b5090508181016020015b600019016f181899199a1a9b1b9c1cb0b131b232b360811b600a86061a8153600a85049450846134e257509392505050565b61179e828260405180602001604052806000815250613933565b600054610100900460ff166135555760405162461bcd60e51b8152600401610bb290614ab6565b60656135618382614486565b506066610e7f8282614486565b600054610100900460ff166135955760405162461bcd60e51b8152600401610bb290614ab6565b6097805460ff19169055565b600054610100900460ff166135c85760405162461bcd60e51b8152600401610bb290614ab6565b6114ed336132f2565b600054610100900460ff166130a15760405162461bcd60e51b8152600401610bb290614ab6565b600181111561206b576001600160a01b0384161561363e576001600160a01b03841660009081526068602052604081208054839290613638908490614410565b90915550505b6001600160a01b0383161561206b576001600160a01b0383166000908152606860205260408120805483929061367590849061493e565b909155505050505050565b60008281526101306020908152604080832080546001600160a01b0319166001600160a01b0388811691909117825588168452610133835281842082519384019092529282529081906136d39082614486565b5060408051602081019091526000815260018201906136f29082614486565b506040805160208101909152600081526002820190612c6c9082614486565b60975460ff166114ed5760405162461bcd60e51b815260206004820152601460248201527314185d5cd8589b194e881b9bdd081c185d5cd95960621b6044820152606401610bb2565b60006001600160a01b0384163b1561385057604051630a85bd0160e11b81526001600160a01b0385169063150b7a029061379e903390899088908890600401614b98565b6020604051808303816000875af19250505080156137d9575060408051601f3d908101601f191682019092526137d691810190614bcb565b60015b613836573d808015613807576040519150601f19603f3d011682016040523d82523d6000602084013e61380c565b606091505b50805160000361382e5760405162461bcd60e51b8152600401610bb290614b46565b805181602001fd5b6001600160e01b031916630a85bd0160e11b14905061311f565b506001949350505050565b60008072184f03e93ff9f4daa797ed6e38ed64bf6a1f0160401b831061389a5772184f03e93ff9f4daa797ed6e38ed64bf6a1f0160401b830492506040015b6d04ee2d6d415b85acef810000000083106138c6576d04ee2d6d415b85acef8100000000830492506020015b662386f26fc1000083106138e457662386f26fc10000830492506010015b6305f5e10083106138fc576305f5e100830492506008015b612710831061391057612710830492506004015b60648310613922576064830492506002015b600a8310610b135760010192915050565b61393d8383613966565b61394a600084848461375a565b610e7f5760405162461bcd60e51b8152600401610bb290614b46565b6001600160a01b0382166139bc5760405162461bcd60e51b815260206004820181905260248201527f4552433732313a206d696e7420746f20746865207a65726f20616464726573736044820152606401610bb2565b6000818152606760205260409020546001600160a01b031615613a215760405162461bcd60e51b815260206004820152601c60248201527f4552433732313a20746f6b656e20616c7265616479206d696e746564000000006044820152606401610bb2565b613a2f6000838360016135f8565b6000818152606760205260409020546001600160a01b031615613a945760405162461bcd60e51b815260206004820152601c60248201527f4552433732313a20746f6b656e20616c7265616479206d696e746564000000006044820152606401610bb2565b6001600160a01b038216600081815260686020908152604080832080546001019055848352606790915280822080546001600160a01b0319168417905551839291907fddf252ad1be2c89b69c2b068fc378daa952ba7f163c4a11628f55a4df523b3ef908290a461179e600083836001613680565b6001600160e01b0319811681146114da57600080fd5b600060208284031215613b3157600080fd5b81356113a281613b09565b634e487b7160e01b600052604160045260246000fd5b60006001600160401b0380841115613b6c57613b6c613b3c565b604051601f8501601f19908116603f01168101908282118183101715613b9457613b94613b3c565b81604052809350858152868686011115613bad57600080fd5b858560208301376000602087830101525050509392505050565b600082601f830112613bd857600080fd5b6113a283833560208501613b52565b63ffffffff811681146114da57600080fd5b6001600160a01b03811681146114da57600080fd5b8035613c1981613bf9565b919050565b60008060008060008060008060006101208a8c031215613c3d57600080fd5b89356001600160401b0380821115613c5457600080fd5b613c608d838e01613bc7565b9a5060208c0135915080821115613c7657600080fd5b50613c838c828d01613bc7565b98505060408a0135965060608a0135613c9b81613be7565b955060808a0135613cab81613be7565b9450613cb960a08b01613c0e565b935060c08a0135925060e08a013591506101008a013590509295985092959850929598565b60005b83811015613cf9578181015183820152602001613ce1565b50506000910152565b60008151808452613d1a816020860160208601613cde565b601f01601f19169290920160200192915050565b6020815260006113a26020830184613d02565b600060208284031215613d5357600080fd5b5035919050565b60008060408385031215613d6d57600080fd5b8235613d7881613bf9565b946020939093013593505050565b60008083601f840112613d9857600080fd5b5081356001600160401b03811115613daf57600080fd5b602083019150836020828501011115613dc757600080fd5b9250929050565b60008060208385031215613de157600080fd5b82356001600160401b03811115613df757600080fd5b613e0385828601613d86565b90969095509350505050565b600060208284031215613e2157600080fd5b81356113a281613be7565b600080600060608486031215613e4157600080fd5b83356001600160401b0380821115613e5857600080fd5b613e6487838801613bc7565b94506020860135915080821115613e7a57600080fd5b613e8687838801613bc7565b93506040860135915080821115613e9c57600080fd5b50613ea986828701613bc7565b9150509250925092565b600080600060608486031215613ec857600080fd5b8335613ed381613bf9565b92506020840135613ee381613bf9565b929592945050506040919091013590565b600060208284031215613f0657600080fd5b81356113a281613bf9565b803560038110613c1957600080fd5b60008060408385031215613f3357600080fd5b82356001600160401b03811115613f4957600080fd5b613f5585828601613bc7565b925050613f6460208401613f11565b90509250929050565b60008060408385031215613f8057600080fd5b82359150613f6460208401613f11565b60008060408385031215613fa357600080fd5b50508035926020909101359150565b6020808252825182820181905260009190848201906040850190845b81811015613fea57835183529284019291840191600101613fce565b50909695505050505050565b6000806000806040858703121561400c57600080fd5b84356001600160401b038082111561402357600080fd5b61402f88838901613d86565b9096509450602087013591508082111561404857600080fd5b5061405587828801613d86565b95989497509550505050565b6000806040838503121561407457600080fd5b823561407f81613bf9565b91506020830135801515811461409457600080fd5b809150509250929050565b600080604083850312156140b257600080fd5b613d7883613f11565b600080600080608085870312156140d157600080fd5b84356140dc81613bf9565b935060208501356140ec81613bf9565b92506040850135915060608501356001600160401b0381111561410e57600080fd5b8501601f8101871361411f57600080fd5b61412e87823560208401613b52565b91505092959194509250565b60006020828403121561414c57600080fd5b6113a282613f11565b60008083601f84011261416757600080fd5b5081356001600160401b0381111561417e57600080fd5b6020830191508360208260051b8501011115613dc757600080fd5b600080600080604085870312156141af57600080fd5b84356001600160401b03808211156141c657600080fd5b6141d288838901614155565b909650945060208701359150808211156141eb57600080fd5b5061405587828801614155565b6000806040838503121561420b57600080fd5b823561421681613bf9565b9150602083013561409481613bf9565b60018060a01b038716815263ffffffff8616602082015284604082015260c06060820152600061425960c0830186613d02565b828103608084015261426b8186613d02565b905082810360a084015261427f8185613d02565b9998505050505050505050565b600080600080600080600060a0888a0312156142a757600080fd5b87356001600160401b03808211156142be57600080fd5b6142ca8b838c01613d86565b909950975060208a01359150808211156142e357600080fd5b6142ef8b838c01613d86565b909750955060408a013591508082111561430857600080fd5b6143148b838c01613bc7565b945060608a013591508082111561432a57600080fd5b6143368b838c01613bc7565b935060808a013591508082111561434c57600080fd5b506143598a828b01613bc7565b91505092959891949750929550565b600181811c9082168061437c57607f821691505b60208210810361439c57634e487b7160e01b600052602260045260246000fd5b50919050565b8183823760009101908152919050565b60208082526028908201527f443144433a20696e73756666696369656e7420706572736f6e616c20696e666f604082015267081c185e5b595b9d60c21b606082015260800190565b634e487b7160e01b600052601160045260246000fd5b81810381811115610b1357610b136143fa565b601f821115610e7f57600081815260208120601f850160051c8101602086101561444a5750805b601f850160051c820191505b8181101561446957828155600101614456565b505050505050565b600019600383901b1c191660019190911b1790565b81516001600160401b0381111561449f5761449f613b3c565b6144b3816144ad8454614368565b84614423565b602080601f8311600181146144e257600084156144d05750858301515b6144da8582614471565b865550614469565b600085815260208120601f198616915b82811015614511578886015182559484019460019091019084016144f2565b508582101561452f5787850151600019600388901b60f8161c191681555b5050505050600190811b01905550565b60208082526014908201527363616e6e6f7420726566756e642065786365737360601b604082015260600190565b6020808252602d908201527f4552433732313a2063616c6c6572206973206e6f7420746f6b656e206f776e6560408201526c1c881bdc88185c1c1c9bdd9959609a1b606082015260800190565b63ffffffff8181168382160190808211156145d7576145d76143fa565b5092915050565b8082028115828204841417610b1357610b136143fa565b634e487b7160e01b600052602160045260246000fd5b60006001820161461d5761461d6143fa565b5060010190565b60008261464157634e487b7160e01b600052601260045260246000fd5b500490565b60008251614658818460208701613cde565b9190910192915050565b634e487b7160e01b600052603260045260246000fd5b81835281816020850137506000828201602090810191909152601f909101601f19169091010190565b6040815260008085546146b381614368565b80604086015260606001808416600081146146d557600181146146ef57614720565b60ff1985168884015283151560051b880183019550614720565b8a60005260208060002060005b868110156147175781548b82018701529084019082016146fc565b8a018501975050505b50505050508281036020840152614738818587614678565b9695505050505050565b6001600160401b0383111561475957614759613b3c565b61476d836147678354614368565b83614423565b6000601f84116001811461479b57600085156147895750838201355b6147938682614471565b845550612653565b600083815260209020601f19861690835b828110156147cc57868501358255602094850194600190920191016147ac565b50868210156147e95760001960f88860031b161c19848701351681555b505060018560011b0183555050505050565b6000835161480d818460208801613cde565b835190830190614821818360208801613cde565b01949350505050565b6000808335601e1984360301811261484157600080fd5b8301803591506001600160401b0382111561485b57600080fd5b602001915036819003821315613dc757600080fd5b6000823560be1983360301811261465857600080fd5b813561489181613bf9565b81546001600160a01b031981166001600160a01b0392909216918217835560208401356148bd81613be7565b6001600160c01b03199190911690911760a09190911b63ffffffff60a01b16178155604082013560018201556148f6606083018361482a565b614904818360028601614742565b5050614913608083018361482a565b614921818360038601614742565b505061493060a083018361482a565b61206b818360048601614742565b80820180821115610b1357610b136143fa565b81810361495c575050565b6149668254614368565b6001600160401b0381111561497d5761497d613b3c565b61498b816144ad8454614368565b6000601f8211600181146149b957600083156149a75750848201545b6149b18482614471565b855550612653565b600085815260209020601f19841690600086815260209020845b838110156149f357828601548255600195860195909101906020016149d3565b508583101561452f5793015460001960f8600387901b161c19169092555050600190811b01905550565b6000808354614a2b81614368565b60018281168015614a435760018114614a5857614a87565b60ff1984168752821515830287019450614a87565b8760005260208060002060005b85811015614a7e5781548a820152908401908201614a65565b50505082870194505b50929695505050505050565b838152604060208201526000614aad604083018486614678565b95945050505050565b6020808252602b908201527f496e697469616c697a61626c653a20636f6e7472616374206973206e6f74206960408201526a6e697469616c697a696e6760a81b606082015260800190565b60208082526025908201527f4552433732313a207472616e736665722066726f6d20696e636f72726563742060408201526437bbb732b960d91b606082015260800190565b60208082526032908201527f4552433732313a207472616e7366657220746f206e6f6e20455243373231526560408201527131b2b4bb32b91034b6b83632b6b2b73a32b960711b606082015260800190565b6001600160a01b038581168252841660208201526040810183905260806060820181905260009061473890830184613d02565b600060208284031215614bdd57600080fd5b81516113a281613b0956fea2646970667358221220e1d74a5c8eb3c1dfd57ede7cd5eb52f3247400a15e0362f1436fe376c501ae8664736f6c63430008110033",
  "devdoc": {
    "author": "John Whitton (github.com/johnwhitton), reviewed and revised by Aaron Li (github.com/polymorpher)",
    "kind": "dev",
    "methods": {
      "approve(address,uint256)": {
        "details": "See {IERC721-approve}."
      },
      "balanceOf(address)": {
        "details": "See {IERC721-balanceOf}."
      },
      "getApproved(uint256)": {
        "details": "See {IERC721-getApproved}."
      },
      "isApprovedForAll(address,address)": {
        "details": "See {IERC721-isApprovedForAll}."
      },
      "name()": {
        "details": "See {IERC721Metadata-name}."
      },
      "owner()": {
        "details": "Returns the address of the current owner."
      },
      "ownerOf(uint256)": {
        "details": "See {IERC721-ownerOf}."
      },
      "paused()": {
        "details": "Returns true if the contract is paused, and false otherwise."
      },
      "renounceOwnership()": {
        "details": "Leaves the contract without owner. It will not be possible to call `onlyOwner` functions anymore. Can only be called by the current owner. NOTE: Renouncing ownership will leave the contract without an owner, thereby removing any functionality that is only available to the owner."
      },
      "safeTransferFrom(address,address,uint256)": {
        "details": "See {IERC721-safeTransferFrom}."
      },
      "safeTransferFrom(address,address,uint256,bytes)": {
        "details": "See {IERC721-safeTransferFrom}."
      },
      "setApprovalForAll(address,bool)": {
        "details": "See {IERC721-setApprovalForAll}."
      },
      "supportsInterface(bytes4)": {
        "details": "See {IERC165-supportsInterface}."
      },
      "symbol()": {
        "details": "See {IERC721Metadata-symbol}."
      },
      "tokenURI(uint256)": {
        "details": "See {IERC721Metadata-tokenURI}."
      },
      "transferFrom(address,address,uint256)": {
        "details": "See {IERC721-transferFrom}."
      },
      "transferOwnership(address)": {
        "details": "Transfers ownership of the contract to a new account (`newOwner`). Can only be called by the current owner."
      }
    },
    "stateVariables": {
      "_isEmailReveal": {
        "details": "User -> Name Owner -> Bool"
      },
      "_isPhoneReveal": {
        "details": "User -> Name Owner -> Bool"
      },
      "_isTelegramReveal": {
        "details": "User -> Name Owner -> Bool"
      },
      "_ownerInfos": {
        "details": "Name Owner -> OwnerInfo"
      },
      "emailRevealPrice": {
        "details": "Price for the email reveal"
      },
      "emojiReactionCounters": {
        "details": "TokenId -> Emoji Type -> Counter"
      },
      "emojiReactionPrices": {
        "details": "Emoji Type -> Price"
      },
      "keys": {
        "details": "TokenId list"
      },
      "lastCreated": {
        "details": "Name created lastly"
      },
      "lastRented": {
        "details": "Name rented lastly"
      },
      "nameRecords": {
        "details": "TokenId -> NameRecord"
      },
      "phoneRevealPrice": {
        "details": "Price for the phone reveal"
      },
      "telegramRevealPrice": {
        "details": "Price for the telegram reveal"
      },
      "urlUpdatePrice": {
        "details": "Price for the url update"
      }
    },
    "title": "A subdomain manager contract for .1.country (D1DC - Dot 1 Dot Country)",
    "version": 1
  },
  "userdoc": {
    "kind": "user",
    "methods": {},
    "notice": "This contract allows the rental of domains under .1.country (D1DC) like The Million Dollar Homepage: Anyone can take over a domain name by  browsing to a web2 address like foo.1.country and doubling its last price. Currently, a payer owns the domain only for `rentalPeriod`, and is allowed to embed a tweet for the web page. D1DC creates ERC721 tokens for each domain registration.",
    "version": 1
  },
  "storageLayout": {
    "storage": [
      {
        "astId": 138,
        "contract": "contracts/D1DCV2.sol:D1DCV2",
        "label": "_initialized",
        "offset": 0,
        "slot": "0",
        "type": "t_uint8"
      },
      {
        "astId": 141,
        "contract": "contracts/D1DCV2.sol:D1DCV2",
        "label": "_initializing",
        "offset": 1,
        "slot": "0",
        "type": "t_bool"
      },
      {
        "astId": 1956,
        "contract": "contracts/D1DCV2.sol:D1DCV2",
        "label": "__gap",
        "offset": 0,
        "slot": "1",
        "type": "t_array(t_uint256)50_storage"
      },
      {
        "astId": 2175,
        "contract": "contracts/D1DCV2.sol:D1DCV2",
        "label": "__gap",
        "offset": 0,
        "slot": "51",
        "type": "t_array(t_uint256)50_storage"
      },
      {
        "astId": 529,
        "contract": "contracts/D1DCV2.sol:D1DCV2",
        "label": "_name",
        "offset": 0,
        "slot": "101",
        "type": "t_string_storage"
      },
      {
        "astId": 531,
        "contract": "contracts/D1DCV2.sol:D1DCV2",
        "label": "_symbol",
        "offset": 0,
        "slot": "102",
        "type": "t_string_storage"
      },
      {
        "astId": 535,
        "contract": "contracts/D1DCV2.sol:D1DCV2",
        "label": "_owners",
        "offset": 0,
        "slot": "103",
        "type": "t_mapping(t_uint256,t_address)"
      },
      {
        "astId": 539,
        "contract": "contracts/D1DCV2.sol:D1DCV2",
        "label": "_balances",
        "offset": 0,
        "slot": "104",
        "type": "t_mapping(t_address,t_uint256)"
      },
      {
        "astId": 543,
        "contract": "contracts/D1DCV2.sol:D1DCV2",
        "label": "_tokenApprovals",
        "offset": 0,
        "slot": "105",
        "type": "t_mapping(t_uint256,t_address)"
      },
      {
        "astId": 549,
        "contract": "contracts/D1DCV2.sol:D1DCV2",
        "label": "_operatorApprovals",
        "offset": 0,
        "slot": "106",
        "type": "t_mapping(t_address,t_mapping(t_address,t_bool))"
      },
      {
        "astId": 1469,
        "contract": "contracts/D1DCV2.sol:D1DCV2",
        "label": "__gap",
        "offset": 0,
        "slot": "107",
        "type": "t_array(t_uint256)44_storage"
      },
      {
        "astId": 321,
        "contract": "contracts/D1DCV2.sol:D1DCV2",
        "label": "_paused",
        "offset": 0,
        "slot": "151",
        "type": "t_bool"
      },
      {
        "astId": 426,
        "contract": "contracts/D1DCV2.sol:D1DCV2",
        "label": "__gap",
        "offset": 0,
        "slot": "152",
        "type": "t_array(t_uint256)49_storage"
      },
      {
        "astId": 10,
        "contract": "contracts/D1DCV2.sol:D1DCV2",
        "label": "_owner",
        "offset": 0,
        "slot": "201",
        "type": "t_address"
      },
      {
        "astId": 130,
        "contract": "contracts/D1DCV2.sol:D1DCV2",
        "label": "__gap",
        "offset": 0,
        "slot": "202",
        "type": "t_array(t_uint256)49_storage"
      },
      {
        "astId": 441,
        "contract": "contracts/D1DCV2.sol:D1DCV2",
        "label": "_status",
        "offset": 0,
        "slot": "251",
        "type": "t_uint256"
      },
      {
        "astId": 499,
        "contract": "contracts/D1DCV2.sol:D1DCV2",
        "label": "__gap",
        "offset": 0,
        "slot": "252",
        "type": "t_array(t_uint256)49_storage"
      },
      {
        "astId": 6583,
        "contract": "contracts/D1DCV2.sol:D1DCV2",
        "label": "nameInitialized",
        "offset": 0,
        "slot": "301",
        "type": "t_bool"
      },
      {
        "astId": 6585,
        "contract": "contracts/D1DCV2.sol:D1DCV2",
        "label": "baseRentalPrice",
        "offset": 0,
        "slot": "302",
        "type": "t_uint256"
      },
      {
        "astId": 6587,
        "contract": "contracts/D1DCV2.sol:D1DCV2",
        "label": "rentalPeriod",
        "offset": 0,
        "slot": "303",
        "type": "t_uint32"
      },
      {
        "astId": 6589,
        "contract": "contracts/D1DCV2.sol:D1DCV2",
        "label": "priceMultiplier",
        "offset": 4,
        "slot": "303",
        "type": "t_uint32"
      },
      {
        "astId": 6591,
        "contract": "contracts/D1DCV2.sol:D1DCV2",
        "label": "revenueAccount",
        "offset": 8,
        "slot": "303",
        "type": "t_address"
      },
      {
        "astId": 6621,
        "contract": "contracts/D1DCV2.sol:D1DCV2",
        "label": "nameRecords",
        "offset": 0,
        "slot": "304",
        "type": "t_mapping(t_bytes32,t_struct(NameRecord)6604_storage)"
      },
      {
        "astId": 6627,
        "contract": "contracts/D1DCV2.sol:D1DCV2",
        "label": "emojiReactionPrices",
        "offset": 0,
        "slot": "305",
        "type": "t_mapping(t_enum(EmojiType)6615,t_uint256)"
      },
      {
        "astId": 6635,
        "contract": "contracts/D1DCV2.sol:D1DCV2",
        "label": "emojiReactionCounters",
        "offset": 0,
        "slot": "306",
        "type": "t_mapping(t_bytes32,t_mapping(t_enum(EmojiType)6615,t_uint256))"
      },
      {
        "astId": 6641,
        "contract": "contracts/D1DCV2.sol:D1DCV2",
        "label": "_ownerInfos",
        "offset": 0,
        "slot": "307",
        "type": "t_mapping(t_address,t_struct(OwnerInfo)6611_storage)"
      },
      {
        "astId": 6648,
        "contract": "contracts/D1DCV2.sol:D1DCV2",
        "label": "_isTelegramReveal",
        "offset": 0,
        "slot": "308",
        "type": "t_mapping(t_address,t_mapping(t_address,t_bool))"
      },
      {
        "astId": 6655,
        "contract": "contracts/D1DCV2.sol:D1DCV2",
        "label": "_isEmailReveal",
        "offset": 0,
        "slot": "309",
        "type": "t_mapping(t_address,t_mapping(t_address,t_bool))"
      },
      {
        "astId": 6662,
        "contract": "contracts/D1DCV2.sol:D1DCV2",
        "label": "_isPhoneReveal",
        "offset": 0,
        "slot": "310",
        "type": "t_mapping(t_address,t_mapping(t_address,t_bool))"
      },
      {
        "astId": 6665,
        "contract": "contracts/D1DCV2.sol:D1DCV2",
        "label": "lastRented",
        "offset": 0,
        "slot": "311",
        "type": "t_string_storage"
      },
      {
        "astId": 6668,
        "contract": "contracts/D1DCV2.sol:D1DCV2",
        "label": "lastCreated",
        "offset": 0,
        "slot": "312",
        "type": "t_string_storage"
      },
      {
        "astId": 6672,
        "contract": "contracts/D1DCV2.sol:D1DCV2",
        "label": "keys",
        "offset": 0,
        "slot": "313",
        "type": "t_array(t_bytes32)dyn_storage"
      },
      {
        "astId": 6675,
        "contract": "contracts/D1DCV2.sol:D1DCV2",
        "label": "urlUpdatePrice",
        "offset": 0,
        "slot": "314",
        "type": "t_uint256"
      },
      {
        "astId": 6678,
        "contract": "contracts/D1DCV2.sol:D1DCV2",
        "label": "telegramRevealPrice",
        "offset": 0,
        "slot": "315",
        "type": "t_uint256"
      },
      {
        "astId": 6681,
        "contract": "contracts/D1DCV2.sol:D1DCV2",
        "label": "emailRevealPrice",
        "offset": 0,
        "slot": "316",
        "type": "t_uint256"
      },
      {
        "astId": 6684,
        "contract": "contracts/D1DCV2.sol:D1DCV2",
        "label": "phoneRevealPrice",
        "offset": 0,
        "slot": "317",
        "type": "t_uint256"
      }
    ],
    "types": {
      "t_address": {
        "encoding": "inplace",
        "label": "address",
        "numberOfBytes": "20"
      },
      "t_array(t_bytes32)dyn_storage": {
        "base": "t_bytes32",
        "encoding": "dynamic_array",
        "label": "bytes32[]",
        "numberOfBytes": "32"
      },
      "t_array(t_uint256)44_storage": {
        "base": "t_uint256",
        "encoding": "inplace",
        "label": "uint256[44]",
        "numberOfBytes": "1408"
      },
      "t_array(t_uint256)49_storage": {
        "base": "t_uint256",
        "encoding": "inplace",
        "label": "uint256[49]",
        "numberOfBytes": "1568"
      },
      "t_array(t_uint256)50_storage": {
        "base": "t_uint256",
        "encoding": "inplace",
        "label": "uint256[50]",
        "numberOfBytes": "1600"
      },
      "t_bool": {
        "encoding": "inplace",
        "label": "bool",
        "numberOfBytes": "1"
      },
      "t_bytes32": {
        "encoding": "inplace",
        "label": "bytes32",
        "numberOfBytes": "32"
      },
      "t_enum(EmojiType)6615": {
        "encoding": "inplace",
        "label": "enum D1DCV2.EmojiType",
        "numberOfBytes": "1"
      },
      "t_mapping(t_address,t_bool)": {
        "encoding": "mapping",
        "key": "t_address",
        "label": "mapping(address => bool)",
        "numberOfBytes": "32",
        "value": "t_bool"
      },
      "t_mapping(t_address,t_mapping(t_address,t_bool))": {
        "encoding": "mapping",
        "key": "t_address",
        "label": "mapping(address => mapping(address => bool))",
        "numberOfBytes": "32",
        "value": "t_mapping(t_address,t_bool)"
      },
      "t_mapping(t_address,t_struct(OwnerInfo)6611_storage)": {
        "encoding": "mapping",
        "key": "t_address",
        "label": "mapping(address => struct D1DCV2.OwnerInfo)",
        "numberOfBytes": "32",
        "value": "t_struct(OwnerInfo)6611_storage"
      },
      "t_mapping(t_address,t_uint256)": {
        "encoding": "mapping",
        "key": "t_address",
        "label": "mapping(address => uint256)",
        "numberOfBytes": "32",
        "value": "t_uint256"
      },
      "t_mapping(t_bytes32,t_mapping(t_enum(EmojiType)6615,t_uint256))": {
        "encoding": "mapping",
        "key": "t_bytes32",
        "label": "mapping(bytes32 => mapping(enum D1DCV2.EmojiType => uint256))",
        "numberOfBytes": "32",
        "value": "t_mapping(t_enum(EmojiType)6615,t_uint256)"
      },
      "t_mapping(t_bytes32,t_struct(NameRecord)6604_storage)": {
        "encoding": "mapping",
        "key": "t_bytes32",
        "label": "mapping(bytes32 => struct D1DCV2.NameRecord)",
        "numberOfBytes": "32",
        "value": "t_struct(NameRecord)6604_storage"
      },
      "t_mapping(t_enum(EmojiType)6615,t_uint256)": {
        "encoding": "mapping",
        "key": "t_enum(EmojiType)6615",
        "label": "mapping(enum D1DCV2.EmojiType => uint256)",
        "numberOfBytes": "32",
        "value": "t_uint256"
      },
      "t_mapping(t_uint256,t_address)": {
        "encoding": "mapping",
        "key": "t_uint256",
        "label": "mapping(uint256 => address)",
        "numberOfBytes": "32",
        "value": "t_address"
      },
      "t_string_storage": {
        "encoding": "bytes",
        "label": "string",
        "numberOfBytes": "32"
      },
      "t_struct(NameRecord)6604_storage": {
        "encoding": "inplace",
        "label": "struct D1DCV2.NameRecord",
        "members": [
          {
            "astId": 6593,
            "contract": "contracts/D1DCV2.sol:D1DCV2",
            "label": "renter",
            "offset": 0,
            "slot": "0",
            "type": "t_address"
          },
          {
            "astId": 6595,
            "contract": "contracts/D1DCV2.sol:D1DCV2",
            "label": "timeUpdated",
            "offset": 20,
            "slot": "0",
            "type": "t_uint32"
          },
          {
            "astId": 6597,
            "contract": "contracts/D1DCV2.sol:D1DCV2",
            "label": "lastPrice",
            "offset": 0,
            "slot": "1",
            "type": "t_uint256"
          },
          {
            "astId": 6599,
            "contract": "contracts/D1DCV2.sol:D1DCV2",
            "label": "url",
            "offset": 0,
            "slot": "2",
            "type": "t_string_storage"
          },
          {
            "astId": 6601,
            "contract": "contracts/D1DCV2.sol:D1DCV2",
            "label": "prev",
            "offset": 0,
            "slot": "3",
            "type": "t_string_storage"
          },
          {
            "astId": 6603,
            "contract": "contracts/D1DCV2.sol:D1DCV2",
            "label": "next",
            "offset": 0,
            "slot": "4",
            "type": "t_string_storage"
          }
        ],
        "numberOfBytes": "160"
      },
      "t_struct(OwnerInfo)6611_storage": {
        "encoding": "inplace",
        "label": "struct D1DCV2.OwnerInfo",
        "members": [
          {
            "astId": 6606,
            "contract": "contracts/D1DCV2.sol:D1DCV2",
            "label": "telegram",
            "offset": 0,
            "slot": "0",
            "type": "t_string_storage"
          },
          {
            "astId": 6608,
            "contract": "contracts/D1DCV2.sol:D1DCV2",
            "label": "email",
            "offset": 0,
            "slot": "1",
            "type": "t_string_storage"
          },
          {
            "astId": 6610,
            "contract": "contracts/D1DCV2.sol:D1DCV2",
            "label": "phone",
            "offset": 0,
            "slot": "2",
            "type": "t_string_storage"
          }
        ],
        "numberOfBytes": "96"
      },
      "t_uint256": {
        "encoding": "inplace",
        "label": "uint256",
        "numberOfBytes": "32"
      },
      "t_uint32": {
        "encoding": "inplace",
        "label": "uint32",
        "numberOfBytes": "4"
      },
      "t_uint8": {
        "encoding": "inplace",
        "label": "uint8",
        "numberOfBytes": "1"
      }
    }
  }
}