{
  "address": "0x61cC01144B485b122816655d2B4879Dd423353bf",
  "abi": [
    {
      "anonymous": false,
      "inputs": [
        {
          "indexed": true,
          "internalType": "address",
          "name": "owner",
          "type": "address"
        },
        {
          "indexed": true,
          "internalType": "address",
          "name": "approved",
          "type": "address"
        },
        {
          "indexed": true,
          "internalType": "uint256",
          "name": "tokenId",
          "type": "uint256"
        }
      ],
      "name": "Approval",
      "type": "event"
    },
    {
      "anonymous": false,
      "inputs": [
        {
          "indexed": true,
          "internalType": "address",
          "name": "owner",
          "type": "address"
        },
        {
          "indexed": true,
          "internalType": "address",
          "name": "operator",
          "type": "address"
        },
        {
          "indexed": false,
          "internalType": "bool",
          "name": "approved",
          "type": "bool"
        }
      ],
      "name": "ApprovalForAll",
      "type": "event"
    },
    {
      "anonymous": false,
      "inputs": [
        {
          "indexed": true,
          "internalType": "address",
          "name": "by",
          "type": "address"
        },
        {
          "indexed": true,
          "internalType": "string",
          "name": "name",
          "type": "string"
        },
        {
          "indexed": true,
          "internalType": "enum D1DCV2.EmojiType",
          "name": "emoji",
          "type": "uint8"
        }
      ],
      "name": "EmojiReactionAdded",
      "type": "event"
    },
    {
      "anonymous": false,
      "inputs": [
        {
          "indexed": false,
          "internalType": "uint8",
          "name": "version",
          "type": "uint8"
        }
      ],
      "name": "Initialized",
      "type": "event"
    },
    {
      "anonymous": false,
      "inputs": [
        {
          "indexed": true,
          "internalType": "string",
          "name": "name",
          "type": "string"
        },
        {
          "indexed": true,
          "internalType": "address",
          "name": "renter",
          "type": "address"
        },
        {
          "indexed": false,
          "internalType": "uint256",
          "name": "price",
          "type": "uint256"
        },
        {
          "indexed": false,
          "internalType": "string",
          "name": "url",
          "type": "string"
        }
      ],
      "name": "NameRented",
      "type": "event"
    },
    {
      "anonymous": false,
      "inputs": [
        {
          "indexed": true,
          "internalType": "address",
          "name": "previousOwner",
          "type": "address"
        },
        {
          "indexed": true,
          "internalType": "address",
          "name": "newOwner",
          "type": "address"
        }
      ],
      "name": "OwnershipTransferred",
      "type": "event"
    },
    {
      "anonymous": false,
      "inputs": [
        {
          "indexed": false,
          "internalType": "address",
          "name": "account",
          "type": "address"
        }
      ],
      "name": "Paused",
      "type": "event"
    },
    {
      "anonymous": false,
      "inputs": [
        {
          "indexed": false,
          "internalType": "address",
          "name": "from",
          "type": "address"
        },
        {
          "indexed": false,
          "internalType": "address",
          "name": "to",
          "type": "address"
        }
      ],
      "name": "RevenueAccountChanged",
      "type": "event"
    },
    {
      "anonymous": false,
      "inputs": [
        {
          "indexed": true,
          "internalType": "address",
          "name": "from",
          "type": "address"
        },
        {
          "indexed": true,
          "internalType": "address",
          "name": "to",
          "type": "address"
        },
        {
          "indexed": true,
          "internalType": "uint256",
          "name": "tokenId",
          "type": "uint256"
        }
      ],
      "name": "Transfer",
      "type": "event"
    },
    {
      "anonymous": false,
      "inputs": [
        {
          "indexed": true,
          "internalType": "string",
          "name": "name",
          "type": "string"
        },
        {
          "indexed": true,
          "internalType": "address",
          "name": "renter",
          "type": "address"
        },
        {
          "indexed": false,
          "internalType": "string",
          "name": "oldUrl",
          "type": "string"
        },
        {
          "indexed": false,
          "internalType": "string",
          "name": "newUrl",
          "type": "string"
        }
      ],
      "name": "URLUpdated",
      "type": "event"
    },
    {
      "anonymous": false,
      "inputs": [
        {
          "indexed": false,
          "internalType": "address",
          "name": "account",
          "type": "address"
        }
      ],
      "name": "Unpaused",
      "type": "event"
    },
    {
      "inputs": [
        {
          "internalType": "string",
          "name": "name",
          "type": "string"
        },
        {
          "internalType": "enum D1DCV2.EmojiType",
          "name": "emojiType",
          "type": "uint8"
        }
      ],
      "name": "addEmojiReaction",
      "outputs": [],
      "stateMutability": "payable",
      "type": "function"
    },
    {
      "inputs": [
        {
          "internalType": "string",
          "name": "name",
          "type": "string"
        },
        {
          "internalType": "string",
          "name": "telegram",
          "type": "string"
        },
        {
          "internalType": "string",
          "name": "email",
          "type": "string"
        },
        {
          "internalType": "string",
          "name": "phone",
          "type": "string"
        }
      ],
      "name": "addOwnerInfo",
      "outputs": [],
      "stateMutability": "payable",
      "type": "function"
    },
    {
      "inputs": [
        {
          "internalType": "address",
          "name": "to",
          "type": "address"
        },
        {
          "internalType": "uint256",
          "name": "tokenId",
          "type": "uint256"
        }
      ],
      "name": "approve",
      "outputs": [],
      "stateMutability": "nonpayable",
      "type": "function"
    },
    {
      "inputs": [
        {
          "internalType": "address",
          "name": "owner",
          "type": "address"
        }
      ],
      "name": "balanceOf",
      "outputs": [
        {
          "internalType": "uint256",
          "name": "",
          "type": "uint256"
        }
      ],
      "stateMutability": "view",
      "type": "function"
    },
    {
      "inputs": [],
      "name": "baseRentalPrice",
      "outputs": [
        {
          "internalType": "uint256",
          "name": "",
          "type": "uint256"
        }
      ],
      "stateMutability": "view",
      "type": "function"
    },
    {
      "inputs": [],
      "name": "emailRevealPrice",
      "outputs": [
        {
          "internalType": "uint256",
          "name": "",
          "type": "uint256"
        }
      ],
      "stateMutability": "view",
      "type": "function"
    },
    {
      "inputs": [
        {
          "internalType": "bytes32",
          "name": "",
          "type": "bytes32"
        },
        {
          "internalType": "enum D1DCV2.EmojiType",
          "name": "",
          "type": "uint8"
        }
      ],
      "name": "emojiReactionCounters",
      "outputs": [
        {
          "internalType": "uint256",
          "name": "",
          "type": "uint256"
        }
      ],
      "stateMutability": "view",
      "type": "function"
    },
    {
      "inputs": [
        {
          "internalType": "enum D1DCV2.EmojiType",
          "name": "",
          "type": "uint8"
        }
      ],
      "name": "emojiReactionPrices",
      "outputs": [
        {
          "internalType": "uint256",
          "name": "",
          "type": "uint256"
        }
      ],
      "stateMutability": "view",
      "type": "function"
    },
    {
      "inputs": [],
      "name": "finishNameInitialization",
      "outputs": [],
      "stateMutability": "nonpayable",
      "type": "function"
    },
    {
      "inputs": [
        {
          "internalType": "uint256",
          "name": "tokenId",
          "type": "uint256"
        }
      ],
      "name": "getApproved",
      "outputs": [
        {
          "internalType": "address",
          "name": "",
          "type": "address"
        }
      ],
      "stateMutability": "view",
      "type": "function"
    },
    {
      "inputs": [
        {
          "internalType": "string",
          "name": "name",
          "type": "string"
        }
      ],
      "name": "getOwnerEmail",
      "outputs": [
        {
          "internalType": "string",
          "name": "",
          "type": "string"
        }
      ],
      "stateMutability": "nonpayable",
      "type": "function"
    },
    {
      "inputs": [
        {
          "internalType": "string",
          "name": "name",
          "type": "string"
        }
      ],
      "name": "getOwnerPhone",
      "outputs": [
        {
          "internalType": "string",
          "name": "",
          "type": "string"
        }
      ],
      "stateMutability": "nonpayable",
      "type": "function"
    },
    {
      "inputs": [
        {
          "internalType": "string",
          "name": "name",
          "type": "string"
        }
      ],
      "name": "getOwnerTelegram",
      "outputs": [
        {
          "internalType": "string",
          "name": "",
          "type": "string"
        }
      ],
      "stateMutability": "nonpayable",
      "type": "function"
    },
    {
      "inputs": [
        {
          "internalType": "bytes32",
          "name": "encodedName",
          "type": "bytes32"
        }
      ],
      "name": "getPrice",
      "outputs": [
        {
          "internalType": "uint256",
          "name": "",
          "type": "uint256"
        }
      ],
      "stateMutability": "view",
      "type": "function"
    },
    {
      "inputs": [
        {
          "internalType": "uint256",
          "name": "start",
          "type": "uint256"
        },
        {
          "internalType": "uint256",
          "name": "end",
          "type": "uint256"
        }
      ],
      "name": "getRecordKeys",
      "outputs": [
        {
          "internalType": "bytes32[]",
          "name": "",
          "type": "bytes32[]"
        }
      ],
      "stateMutability": "view",
      "type": "function"
    },
    {
      "inputs": [
        {
          "internalType": "string",
          "name": "_name",
          "type": "string"
        },
        {
          "internalType": "string",
          "name": "_symbol",
          "type": "string"
        },
        {
          "internalType": "uint256",
          "name": "_baseRentalPrice",
          "type": "uint256"
        },
        {
          "internalType": "uint32",
          "name": "_rentalPeriod",
          "type": "uint32"
        },
        {
          "internalType": "uint32",
          "name": "_priceMultiplier",
          "type": "uint32"
        },
        {
          "internalType": "address",
          "name": "_revenueAccount",
          "type": "address"
        },
        {
          "internalType": "uint256",
          "name": "_telegramRevealPrice",
          "type": "uint256"
        },
        {
          "internalType": "uint256",
          "name": "_emailRevealPrice",
          "type": "uint256"
        },
        {
          "internalType": "uint256",
          "name": "_phoneRevealPrice",
          "type": "uint256"
        }
      ],
      "name": "initialize",
      "outputs": [],
      "stateMutability": "nonpayable",
      "type": "function"
    },
    {
      "inputs": [
        {
          "internalType": "string[]",
          "name": "_names",
          "type": "string[]"
        },
        {
          "components": [
            {
              "internalType": "address",
              "name": "renter",
              "type": "address"
            },
            {
              "internalType": "uint32",
              "name": "timeUpdated",
              "type": "uint32"
            },
            {
              "internalType": "uint256",
              "name": "lastPrice",
              "type": "uint256"
            },
            {
              "internalType": "string",
              "name": "url",
              "type": "string"
            },
            {
              "internalType": "string",
              "name": "prev",
              "type": "string"
            },
            {
              "internalType": "string",
              "name": "next",
              "type": "string"
            }
          ],
          "internalType": "struct D1DCV2.NameRecord[]",
          "name": "_records",
          "type": "tuple[]"
        }
      ],
      "name": "initializeNames",
      "outputs": [],
      "stateMutability": "nonpayable",
      "type": "function"
    },
    {
      "inputs": [
        {
          "internalType": "address",
          "name": "owner",
          "type": "address"
        },
        {
          "internalType": "address",
          "name": "operator",
          "type": "address"
        }
      ],
      "name": "isApprovedForAll",
      "outputs": [
        {
          "internalType": "bool",
          "name": "",
          "type": "bool"
        }
      ],
      "stateMutability": "view",
      "type": "function"
    },
    {
      "inputs": [
        {
          "internalType": "uint256",
          "name": "",
          "type": "uint256"
        }
      ],
      "name": "keys",
      "outputs": [
        {
          "internalType": "bytes32",
          "name": "",
          "type": "bytes32"
        }
      ],
      "stateMutability": "view",
      "type": "function"
    },
    {
      "inputs": [],
      "name": "lastCreated",
      "outputs": [
        {
          "internalType": "string",
          "name": "",
          "type": "string"
        }
      ],
      "stateMutability": "view",
      "type": "function"
    },
    {
      "inputs": [],
      "name": "lastRented",
      "outputs": [
        {
          "internalType": "string",
          "name": "",
          "type": "string"
        }
      ],
      "stateMutability": "view",
      "type": "function"
    },
    {
      "inputs": [],
      "name": "name",
      "outputs": [
        {
          "internalType": "string",
          "name": "",
          "type": "string"
        }
      ],
      "stateMutability": "view",
      "type": "function"
    },
    {
      "inputs": [],
      "name": "nameInitialized",
      "outputs": [
        {
          "internalType": "bool",
          "name": "",
          "type": "bool"
        }
      ],
      "stateMutability": "view",
      "type": "function"
    },
    {
      "inputs": [
        {
          "internalType": "bytes32",
          "name": "",
          "type": "bytes32"
        }
      ],
      "name": "nameRecords",
      "outputs": [
        {
          "internalType": "address",
          "name": "renter",
          "type": "address"
        },
        {
          "internalType": "uint32",
          "name": "timeUpdated",
          "type": "uint32"
        },
        {
          "internalType": "uint256",
          "name": "lastPrice",
          "type": "uint256"
        },
        {
          "internalType": "string",
          "name": "url",
          "type": "string"
        },
        {
          "internalType": "string",
          "name": "prev",
          "type": "string"
        },
        {
          "internalType": "string",
          "name": "next",
          "type": "string"
        }
      ],
      "stateMutability": "view",
      "type": "function"
    },
    {
      "inputs": [],
      "name": "numRecords",
      "outputs": [
        {
          "internalType": "uint256",
          "name": "",
          "type": "uint256"
        }
      ],
      "stateMutability": "view",
      "type": "function"
    },
    {
      "inputs": [],
      "name": "owner",
      "outputs": [
        {
          "internalType": "address",
          "name": "",
          "type": "address"
        }
      ],
      "stateMutability": "view",
      "type": "function"
    },
    {
      "inputs": [
        {
          "internalType": "uint256",
          "name": "tokenId",
          "type": "uint256"
        }
      ],
      "name": "ownerOf",
      "outputs": [
        {
          "internalType": "address",
          "name": "",
          "type": "address"
        }
      ],
      "stateMutability": "view",
      "type": "function"
    },
    {
      "inputs": [],
      "name": "pause",
      "outputs": [],
      "stateMutability": "nonpayable",
      "type": "function"
    },
    {
      "inputs": [],
      "name": "paused",
      "outputs": [
        {
          "internalType": "bool",
          "name": "",
          "type": "bool"
        }
      ],
      "stateMutability": "view",
      "type": "function"
    },
    {
      "inputs": [],
      "name": "phoneRevealPrice",
      "outputs": [
        {
          "internalType": "uint256",
          "name": "",
          "type": "uint256"
        }
      ],
      "stateMutability": "view",
      "type": "function"
    },
    {
      "inputs": [],
      "name": "priceMultiplier",
      "outputs": [
        {
          "internalType": "uint32",
          "name": "",
          "type": "uint32"
        }
      ],
      "stateMutability": "view",
      "type": "function"
    },
    {
      "inputs": [],
      "name": "renounceOwnership",
      "outputs": [],
      "stateMutability": "nonpayable",
      "type": "function"
    },
    {
      "inputs": [
        {
          "internalType": "string",
          "name": "name",
          "type": "string"
        },
        {
          "internalType": "string",
          "name": "url",
          "type": "string"
        },
        {
          "internalType": "string",
          "name": "telegram",
          "type": "string"
        },
        {
          "internalType": "string",
          "name": "email",
          "type": "string"
        },
        {
          "internalType": "string",
          "name": "phone",
          "type": "string"
        }
      ],
      "name": "rent",
      "outputs": [],
      "stateMutability": "payable",
      "type": "function"
    },
    {
      "inputs": [],
      "name": "rentalPeriod",
      "outputs": [
        {
          "internalType": "uint32",
          "name": "",
          "type": "uint32"
        }
      ],
      "stateMutability": "view",
      "type": "function"
    },
    {
      "inputs": [
        {
          "internalType": "string",
          "name": "name",
          "type": "string"
        }
      ],
      "name": "requestEmailReveal",
      "outputs": [],
      "stateMutability": "payable",
      "type": "function"
    },
    {
      "inputs": [
        {
          "internalType": "string",
          "name": "name",
          "type": "string"
        }
      ],
      "name": "requestPhoneReveal",
      "outputs": [],
      "stateMutability": "payable",
      "type": "function"
    },
    {
      "inputs": [
        {
          "internalType": "string",
          "name": "name",
          "type": "string"
        }
      ],
      "name": "requestTelegramReveal",
      "outputs": [],
      "stateMutability": "payable",
      "type": "function"
    },
    {
      "inputs": [],
      "name": "revenueAccount",
      "outputs": [
        {
          "internalType": "address",
          "name": "",
          "type": "address"
        }
      ],
      "stateMutability": "view",
      "type": "function"
    },
    {
      "inputs": [
        {
          "internalType": "address",
          "name": "from",
          "type": "address"
        },
        {
          "internalType": "address",
          "name": "to",
          "type": "address"
        },
        {
          "internalType": "uint256",
          "name": "tokenId",
          "type": "uint256"
        }
      ],
      "name": "safeTransferFrom",
      "outputs": [],
      "stateMutability": "nonpayable",
      "type": "function"
    },
    {
      "inputs": [
        {
          "internalType": "address",
          "name": "from",
          "type": "address"
        },
        {
          "internalType": "address",
          "name": "to",
          "type": "address"
        },
        {
          "internalType": "uint256",
          "name": "tokenId",
          "type": "uint256"
        },
        {
          "internalType": "bytes",
          "name": "data",
          "type": "bytes"
        }
      ],
      "name": "safeTransferFrom",
      "outputs": [],
      "stateMutability": "nonpayable",
      "type": "function"
    },
    {
      "inputs": [
        {
          "internalType": "address",
          "name": "operator",
          "type": "address"
        },
        {
          "internalType": "bool",
          "name": "approved",
          "type": "bool"
        }
      ],
      "name": "setApprovalForAll",
      "outputs": [],
      "stateMutability": "nonpayable",
      "type": "function"
    },
    {
      "inputs": [
        {
          "internalType": "uint256",
          "name": "_baseRentalPrice",
          "type": "uint256"
        }
      ],
      "name": "setBaseRentalPrice",
      "outputs": [],
      "stateMutability": "nonpayable",
      "type": "function"
    },
    {
      "inputs": [
        {
          "internalType": "uint256",
          "name": "_emailRevealPrice",
          "type": "uint256"
        }
      ],
      "name": "setEmailPrice",
      "outputs": [],
      "stateMutability": "nonpayable",
      "type": "function"
    },
    {
      "inputs": [
        {
          "internalType": "enum D1DCV2.EmojiType",
          "name": "_emojiType",
          "type": "uint8"
        },
        {
          "internalType": "uint256",
          "name": "_emojiPrice",
          "type": "uint256"
        }
      ],
      "name": "setEmojiPrice",
      "outputs": [],
      "stateMutability": "nonpayable",
      "type": "function"
    },
    {
      "inputs": [
        {
          "internalType": "uint256",
          "name": "_phoneRevealPrice",
          "type": "uint256"
        }
      ],
      "name": "setPhonePrice",
      "outputs": [],
      "stateMutability": "nonpayable",
      "type": "function"
    },
    {
      "inputs": [
        {
          "internalType": "uint32",
          "name": "_priceMultiplier",
          "type": "uint32"
        }
      ],
      "name": "setPriceMultiplier",
      "outputs": [],
      "stateMutability": "nonpayable",
      "type": "function"
    },
    {
      "inputs": [
        {
          "internalType": "uint32",
          "name": "_rentalPeriod",
          "type": "uint32"
        }
      ],
      "name": "setRentalPeriod",
      "outputs": [],
      "stateMutability": "nonpayable",
      "type": "function"
    },
    {
      "inputs": [
        {
          "internalType": "address",
          "name": "_revenueAccount",
          "type": "address"
        }
      ],
      "name": "setRevenueAccount",
      "outputs": [],
      "stateMutability": "nonpayable",
      "type": "function"
    },
    {
      "inputs": [
        {
          "internalType": "uint256",
          "name": "_telegramRevealPrice",
          "type": "uint256"
        }
      ],
      "name": "setTelegramPrice",
      "outputs": [],
      "stateMutability": "nonpayable",
      "type": "function"
    },
    {
      "inputs": [
        {
          "internalType": "bytes4",
          "name": "interfaceId",
          "type": "bytes4"
        }
      ],
      "name": "supportsInterface",
      "outputs": [
        {
          "internalType": "bool",
          "name": "",
          "type": "bool"
        }
      ],
      "stateMutability": "view",
      "type": "function"
    },
    {
      "inputs": [],
      "name": "symbol",
      "outputs": [
        {
          "internalType": "string",
          "name": "",
          "type": "string"
        }
      ],
      "stateMutability": "view",
      "type": "function"
    },
    {
      "inputs": [],
      "name": "telegramRevealPrice",
      "outputs": [
        {
          "internalType": "uint256",
          "name": "",
          "type": "uint256"
        }
      ],
      "stateMutability": "view",
      "type": "function"
    },
    {
      "inputs": [
        {
          "internalType": "uint256",
          "name": "tokenId",
          "type": "uint256"
        }
      ],
      "name": "tokenURI",
      "outputs": [
        {
          "internalType": "string",
          "name": "",
          "type": "string"
        }
      ],
      "stateMutability": "view",
      "type": "function"
    },
    {
      "inputs": [
        {
          "internalType": "address",
          "name": "from",
          "type": "address"
        },
        {
          "internalType": "address",
          "name": "to",
          "type": "address"
        },
        {
          "internalType": "uint256",
          "name": "tokenId",
          "type": "uint256"
        }
      ],
      "name": "transferFrom",
      "outputs": [],
      "stateMutability": "nonpayable",
      "type": "function"
    },
    {
      "inputs": [
        {
          "internalType": "address",
          "name": "newOwner",
          "type": "address"
        }
      ],
      "name": "transferOwnership",
      "outputs": [],
      "stateMutability": "nonpayable",
      "type": "function"
    },
    {
      "inputs": [],
      "name": "unpause",
      "outputs": [],
      "stateMutability": "nonpayable",
      "type": "function"
    },
    {
      "inputs": [
        {
          "internalType": "string",
          "name": "name",
          "type": "string"
        },
        {
          "internalType": "string",
          "name": "url",
          "type": "string"
        }
      ],
      "name": "updateURL",
      "outputs": [],
      "stateMutability": "payable",
      "type": "function"
    },
    {
      "inputs": [],
      "name": "urlUpdatePrice",
      "outputs": [
        {
          "internalType": "uint256",
          "name": "",
          "type": "uint256"
        }
      ],
      "stateMutability": "view",
      "type": "function"
    },
    {
      "inputs": [],
      "name": "withdraw",
      "outputs": [],
      "stateMutability": "nonpayable",
      "type": "function"
    }
  ],
  "transactionHash": "0x9a605522f1c6340b083c67e14cd309e5adb42c8bf2c542b15ac27f3b00b7afe5",
  "args": [],
  "numDeployments": 1,
  "solcInputHash": "6d11dc6bf082bd168a0b4a29d747a9dc",
  "bytecode": "0x608060405234801561001057600080fd5b50614ce5806100206000396000f3fe60806040526004361061038c5760003560e01c806374edae17116101dc578063b7b9d69611610102578063dbafb570116100a0578063f2fde38b1161006f578063f2fde38b14610a59578063f5dc7d5614610a79578063f623b7af14610aa1578063fcb11ff614610ab457600080fd5b8063dbafb5701461099e578063e8bdcc09146109be578063e985e9c5146109de578063eb75204214610a2757600080fd5b8063c22a3101116100dc578063c22a310114610913578063c87b56dd14610941578063d22da07514610961578063d50cb88b1461097857600080fd5b8063b7b9d696146108b3578063b88d4fde146108d3578063c218c591146108f357600080fd5b80638ab011681161017a578063a1a0c1bc11610149578063a1a0c1bc14610855578063a22cb46514610868578063afff5a6414610888578063b5d1990d1461089d57600080fd5b80638ab01168146107cf5780638c4b8475146107ef5780638da5cb5b1461082257806395d89b411461084057600080fd5b8063839e5f78116101b6578063839e5f78146107705780638456cb59146107835780638789fcc1146107985780638a5cab27146107af57600080fd5b806374edae17146107155780637528b89c146107285780637e1afcb51461074357600080fd5b806331d98b3f116102c15780635c975abb1161025f57806368b2210d1161022e57806368b2210d146106a05780636c863bc2146106c057806370a08231146106e0578063715018a61461070057600080fd5b80635c975abb1461061857806361921a2a146106305780636352211e14610647578063649cde291461066757600080fd5b806342842e0e1161029b57806342842e0e146105b057806348ff2e7c146105d05780634e84bd4a146105f05780635b8e99dc1461060557600080fd5b806331d98b3f146105665780633ccfd60b146105865780633f4ba83a1461059b57600080fd5b80630f75e5c01161032e5780632143f93b116103085780632143f93b146104fe57806323b872dd146105135780632745edba1461053357806330027f3b1461054657600080fd5b80630f75e5c0146104b05780630f77bcfb146104c7578063159171dd146104de57600080fd5b8063081812fc1161036a578063081812fc1461040a578063095ea7b3146104425780630b3a8d95146104625780630cb6aaf11461048257600080fd5b806301ffc9a71461039157806306b0c389146103c657806306fdde03146103e8575b600080fd5b34801561039d57600080fd5b506103b16103ac366004613ba0565b610ac7565b60405190151581526020015b60405180910390f35b3480156103d257600080fd5b506103e66103e1366004613c9f565b610b19565b005b3480156103f457600080fd5b506103fd610cb6565b6040516103bd9190613daf565b34801561041657600080fd5b5061042a610425366004613dc2565b610d48565b6040516001600160a01b0390911681526020016103bd565b34801561044e57600080fd5b506103e661045d366004613ddb565b610d6f565b34801561046e57600080fd5b506103fd61047d366004613e4f565b610e84565b34801561048e57600080fd5b506104a261049d366004613dc2565b61101e565b6040519081526020016103bd565b3480156104bc57600080fd5b506104a261012e5481565b3480156104d357600080fd5b506104a26101405481565b3480156104ea57600080fd5b506103e66104f9366004613e90565b611040565b34801561050a57600080fd5b506103fd611065565b34801561051f57600080fd5b506103e661052e366004613ead565b6110f4565b6103e6610541366004613eee565b611125565b34801561055257600080fd5b506103e6610561366004613f9a565b61132e565b34801561057257600080fd5b506104a2610581366004613dc2565b6113b2565b34801561059257600080fd5b506103e6611440565b3480156105a757600080fd5b506103e6611574565b3480156105bc57600080fd5b506103e66105cb366004613ead565b611586565b3480156105dc57600080fd5b506103e66105eb366004613dc2565b6115a1565b3480156105fc57600080fd5b506103e66115af565b6103e6610613366004613fc6565b6115c7565b34801561062457600080fd5b5060975460ff166103b1565b34801561063c57600080fd5b506104a261013f5481565b34801561065357600080fd5b5061042a610662366004613dc2565b611854565b34801561067357600080fd5b506104a2610682366004614013565b61013360209081526000928352604080842090915290825290205481565b3480156106ac57600080fd5b506103fd6106bb366004613e4f565b6118b4565b3480156106cc57600080fd5b506103fd6106db366004613e4f565b6119c5565b3480156106ec57600080fd5b506104a26106fb366004613f9a565b611ad6565b34801561070c57600080fd5b506103e6611b5c565b6103e6610723366004613e4f565b611b6e565b34801561073457600080fd5b5061012d546103b19060ff1681565b34801561074f57600080fd5b5061076361075e366004614036565b611e1d565b6040516103bd9190614058565b6103e661077e36600461409c565b611f34565b34801561078f57600080fd5b506103e6612149565b3480156107a457600080fd5b506104a261013e5481565b3480156107bb57600080fd5b506103e66107ca366004613dc2565b612159565b3480156107db57600080fd5b506103e66107ea366004613e90565b612167565b3480156107fb57600080fd5b5061012f5461080d9063ffffffff1681565b60405163ffffffff90911681526020016103bd565b34801561082e57600080fd5b5060c9546001600160a01b031661042a565b34801561084c57600080fd5b506103fd612198565b6103e6610863366004613e4f565b6121a7565b34801561087457600080fd5b506103e6610883366004614107565b6122f2565b34801561089457600080fd5b506103fd6122fd565b3480156108a957600080fd5b5061013c546104a2565b3480156108bf57600080fd5b506103e66108ce366004614145565b61230b565b3480156108df57600080fd5b506103e66108ee366004614161565b612351565b3480156108ff57600080fd5b506103e661090e366004613dc2565b612383565b34801561091f57600080fd5b506104a261092e3660046141d4565b6101326020526000908152604090205481565b34801561094d57600080fd5b506103fd61095c366004613dc2565b612391565b34801561096d57600080fd5b506104a261013d5481565b34801561098457600080fd5b5061012f5461080d90640100000000900463ffffffff1681565b3480156109aa57600080fd5b506103e66109b9366004613dc2565b612404565b3480156109ca57600080fd5b506103e66109d9366004614233565b612412565b3480156109ea57600080fd5b506103b16109f9366004614292565b6001600160a01b039182166000908152606a6020908152604080832093909416825291909152205460ff1690565b348015610a3357600080fd5b50610a47610a42366004613dc2565b6126e1565b6040516103bd969594939291906142c0565b348015610a6557600080fd5b506103e6610a74366004613f9a565b6128c1565b348015610a8557600080fd5b5061012f5461042a90600160401b90046001600160a01b031681565b6103e6610aaf366004614326565b612937565b6103e6610ac2366004613e4f565b612d18565b60006001600160e01b031982166380ac58cd60e01b1480610af857506001600160e01b03198216635b5e139f60e01b145b80610b1357506301ffc9a760e01b6001600160e01b03198316145b92915050565b600054610100900460ff1615808015610b395750600054600160ff909116105b80610b535750303b158015610b53575060005460ff166001145b610bbb5760405162461bcd60e51b815260206004820152602e60248201527f496e697469616c697a61626c653a20636f6e747261637420697320616c72656160448201526d191e481a5b9a5d1a585b1a5e995960921b60648201526084015b60405180910390fd5b6000805460ff191660011790558015610bde576000805461ff0019166101001790555b610be88a8a612e6f565b610bf0612ea0565b610bf8612ecf565b610c00612efe565b61012e88905561012f80546001600160a01b038716600160401b02600160401b600160e01b031963ffffffff8a81166401000000000267ffffffffffffffff19909416908c1617929092179190911617905561013e84905561013f8390556101408290558015610caa576000805461ff0019169055604051600181527f7f26b83ff96e1f2b6a682f133852f6798a09c465da95921460cefb38474024989060200160405180910390a15b50505050505050505050565b606060658054610cc590614402565b80601f0160208091040260200160405190810160405280929190818152602001828054610cf190614402565b8015610d3e5780601f10610d1357610100808354040283529160200191610d3e565b820191906000526020600020905b815481529060010190602001808311610d2157829003601f168201915b5050505050905090565b6000610d5382612f2d565b506000908152606960205260409020546001600160a01b031690565b6000610d7a82611854565b9050806001600160a01b0316836001600160a01b031603610de75760405162461bcd60e51b815260206004820152602160248201527f4552433732313a20617070726f76616c20746f2063757272656e74206f776e656044820152603960f91b6064820152608401610bb2565b336001600160a01b0382161480610e035750610e0381336109f9565b610e755760405162461bcd60e51b815260206004820152603d60248201527f4552433732313a20617070726f76652063616c6c6572206973206e6f7420746f60448201527f6b656e206f776e6572206f7220617070726f76656420666f7220616c6c0000006064820152608401610bb2565b610e7f8383612f8c565b505050565b6060600061013060008585604051610e9d92919061443c565b6040518091039020815260200190815260200160002060000160009054906101000a90046001600160a01b0316905060008484604051610ede92919061443c565b6040519081900390209050336001600160a01b03831614610f7c57336000908152610134602090815260408083208484528252808320546101379092529091205410610f7c5760405162461bcd60e51b815260206004820152602760248201527f443144433a206e6f207065726d697373696f6e20666f722074656c656772616d604482015266081c995d99585b60ca1b6064820152608401610bb2565b6000818152610131602052604090208054610f9690614402565b80601f0160208091040260200160405190810160405280929190818152602001828054610fc290614402565b801561100f5780601f10610fe45761010080835404028352916020019161100f565b820191906000526020600020905b815481529060010190602001808311610ff257829003601f168201915b50505050509250505092915050565b61013c818154811061102f57600080fd5b600091825260209091200154905081565b611048612ffa565b61012f805463ffffffff191663ffffffff92909216919091179055565b61013a805461107390614402565b80601f016020809104026020016040519081016040528092919081815260200182805461109f90614402565b80156110ec5780601f106110c1576101008083540402835291602001916110ec565b820191906000526020600020905b8154815290600101906020018083116110cf57829003601f168201915b505050505081565b6110fe3382613054565b61111a5760405162461bcd60e51b8152600401610bb29061444c565b610e7f8383836130d3565b61112d61324c565b6111356132a5565b8351602085012083513490156111b2578061013e5411156111685760405162461bcd60e51b8152600401610bb290614499565b61013e5461117690826144f7565b600083815261013160205260409020909150611192868261456d565b503360009081526101346020908152604080832085845290915290204290555b835115611229578061013f5411156111dc5760405162461bcd60e51b8152600401610bb290614499565b61013f546111ea90826144f7565b600083815261013160205260409020909150600101611209858261456d565b503360009081526101356020908152604080832085845290915290204290555b8251156112a057806101405411156112535760405162461bcd60e51b8152600401610bb290614499565b61013f5461126190826144f7565b600083815261013160205260409020909150600101611280858261456d565b503360009081526101366020908152604080832085845290915290204290555b801561131c576000336001600160a01b0316826040515b60006040518083038185875af1925050503d80600081146112f4576040519150601f19603f3d011682016040523d82523d6000602084013e6112f9565b606091505b505090508061131a5760405162461bcd60e51b8152600401610bb290614626565b505b5050611328600160fb55565b50505050565b611336612ffa565b61012f54604080516001600160a01b03600160401b9093048316815291831660208301527fe03b0e59900b6347a6bdef98fe51689d53064c5235a2ca9fc10a27c497ec7307910160405180910390a161012f80546001600160a01b03909216600160401b02600160401b600160e01b0319909216919091179055565b60008181526101306020526040812061012f54815463ffffffff428116926113e69290821691600160a01b90910416614654565b63ffffffff16116113fc57505061012e54919050565b80546001600160a01b031633146114335761012f54600182015461142e91640100000000900463ffffffff1690614678565b611439565b80600101545b9392505050565b60c9546001600160a01b031633148061146b575061012f54600160401b90046001600160a01b031633145b6114c65760405162461bcd60e51b815260206004820152602660248201527f443144433a206d757374206265206f776e6572206f7220726576656e7565206160448201526518d8dbdd5b9d60d21b6064820152608401610bb2565b61012f54604051600091600160401b90046001600160a01b03169047908381818185875af1925050503d806000811461151b576040519150601f19603f3d011682016040523d82523d6000602084013e611520565b606091505b50509050806115715760405162461bcd60e51b815260206004820152601860248201527f443144433a206661696c656420746f20776974686472617700000000000000006044820152606401610bb2565b50565b61157c612ffa565b6115846132f2565b565b610e7f83838360405180602001604052806000815250612351565b6115a9612ffa565b61013f55565b6115b7612ffa565b61012d805460ff19166001179055565b6115cf61324c565b6115d76132a5565b61013360008380519060200120815260200190815260200160002060008260028111156116065761160661468f565b60028111156116175761161761468f565b815260200190815260200160002060008154611632906146a5565b9091555060006101328183600281111561164e5761164e61468f565b600281111561165f5761165f61468f565b8152602001908152602001600020549050348111156116c05760405162461bcd60e51b815260206004820181905260248201527f443144433a20696e73756666696369656e7420656d6f6a69207061796d656e746044820152606401610bb2565b8251602080850191909120600090815261013090915260408120546001600160a01b03169060646116f284605a614678565b6116fc91906146be565b90506000826001600160a01b03168260405160006040518083038185875af1925050503d806000811461174b576040519150601f19603f3d011682016040523d82523d6000602084013e611750565b606091505b50509050806117715760405162461bcd60e51b8152600401610bb2906146e0565b600061177d85346144f7565b905080156117ef57604051600090339083908381818185875af1925050503d80600081146117c7576040519150601f19603f3d011682016040523d82523d6000602084013e6117cc565b606091505b50509050806117ed5760405162461bcd60e51b8152600401610bb290614626565b505b8560028111156118015761180161468f565b8760405161180f919061470d565b6040519081900381209033907f852605dcec8d6bf5f3c46c20fe8e730e7096150f02450555fed4aa4298158bae90600090a45050505050611850600160fb55565b5050565b6000818152606760205260408120546001600160a01b031680610b135760405162461bcd60e51b8152602060048201526018602482015277115490cdcc8c4e881a5b9d985b1a59081d1bdad95b88125160421b6044820152606401610bb2565b60606000610130600085856040516118cd92919061443c565b6040518091039020815260200190815260200160002060000160009054906101000a90046001600160a01b031690506000848460405161190e92919061443c565b6040519081900390209050336001600160a01b038316146119a8573360009081526101356020908152604080832084845282528083205461013890925290912054106119a85760405162461bcd60e51b8152602060048201526024808201527f443144433a206e6f207065726d697373696f6e20666f7220656d61696c2072656044820152631d99585b60e21b6064820152608401610bb2565b6000818152610131602052604090206001018054610f9690614402565b60606000610130600085856040516119de92919061443c565b6040518091039020815260200190815260200160002060000160009054906101000a90046001600160a01b0316905060008484604051611a1f92919061443c565b6040519081900390209050336001600160a01b03831614611ab957336000908152610136602090815260408083208484528252808320546101399092529091205410611ab95760405162461bcd60e51b8152602060048201526024808201527f443144433a206e6f207065726d697373696f6e20666f722070686f6e652072656044820152631d99585b60e21b6064820152608401610bb2565b6000818152610131602052604090206002018054610f9690614402565b60006001600160a01b038216611b405760405162461bcd60e51b815260206004820152602960248201527f4552433732313a2061646472657373207a65726f206973206e6f7420612076616044820152683634b21037bbb732b960b91b6064820152608401610bb2565b506001600160a01b031660009081526068602052604090205490565b611b64612ffa565b6115846000613344565b611b7661324c565b611b7e6132a5565b6101405434811115611bd25760405162461bcd60e51b815260206004820181905260248201527f443144433a20696e73756666696369656e742070686f6e65207061796d656e746044820152606401610bb2565b60008383604051611be492919061443c565b6040805191829003909120600081815261013060205291909120549091506001600160a01b0316338103611c5a5760405162461bcd60e51b815260206004820152601b60248201527f443144433a2073656c662072657665616c20666f722070686f6e6500000000006044820152606401610bb2565b6000828152610139602090815260408083205433845261013683528184208685529092529091205411611d9d5733600090815261013660209081526040808320858452909152808220429055516001600160a01b0383169085905b60006040518083038185875af1925050503d8060008114611cf2576040519150601f19603f3d011682016040523d82523d6000602084013e611cf7565b606091505b5050905080611d185760405162461bcd60e51b8152600401610bb2906146e0565b6000611d2485346144f7565b90508015611d9657604051600090339083908381818185875af1925050503d8060008114611d6e576040519150601f19603f3d011682016040523d82523d6000602084013e611d73565b606091505b5050905080611d945760405162461bcd60e51b8152600401610bb290614626565b505b5050611e10565b348015611e0e57604051600090339083908381818185875af1925050503d8060008114611de6576040519150601f19603f3d011682016040523d82523d6000602084013e611deb565b606091505b5050905080611e0c5760405162461bcd60e51b8152600401610bb290614626565b505b505b505050611850600160fb55565b6060828211611e7a5760405162461bcd60e51b8152602060048201526024808201527f443144433a20656e64206d7573742062652067726561746572207468616e20736044820152631d185c9d60e21b6064820152608401610bb2565b6000611e8684846144f7565b6001600160401b03811115611e9d57611e9d613bbd565b604051908082528060200260200182016040528015611ec6578160200160208202803683370190505b509050835b83811015611f2c5761013c8181548110611ee757611ee7614729565b9060005260206000200154828683611eff91906144f7565b81518110611f0f57611f0f614729565b602090810291909101015280611f24816146a5565b915050611ecb565b509392505050565b611f3c61324c565b611f446132a5565b336001600160a01b031661013060008686604051611f6392919061443c565b60408051918290039091208252602082019290925201600020546001600160a01b031614611fc55760405162461bcd60e51b815260206004820152600f60248201526e2218a2219d103737ba1037bbb732b960891b6044820152606401610bb2565b61040081111561200c5760405162461bcd60e51b8152602060048201526012602482015271443144433a2075726c20746f6f206c6f6e6760701b6044820152606401610bb2565b604051339061201e908690869061443c565b60405180910390207f096f0aee78aea5199be1c1bf75f83f8c98e7002651030cbe56c0ca959cdd24c56101306000888860405161205c92919061443c565b60405180910390208152602001908152602001600020600201858560405161208693929190614768565b60405180910390a38181610130600087876040516120a592919061443c565b6040518091039020815260200190815260200160002060020191826120cb929190614809565b5061013d54348111156121205760405162461bcd60e51b815260206004820152601e60248201527f443144433a20696e73756666696369656e742075726c207061796d656e7400006044820152606401610bb2565b600061212c82346144f7565b9050801561131c576000336001600160a01b0316826040516112b7565b612151612ffa565b611584613396565b612161612ffa565b61014055565b61216f612ffa565b61012f805463ffffffff9092166401000000000267ffffffff0000000019909216919091179055565b606060668054610cc590614402565b6121af61324c565b6121b76132a5565b61013f543481111561220b5760405162461bcd60e51b815260206004820181905260248201527f443144433a20696e73756666696369656e7420656d61696c207061796d656e746044820152606401610bb2565b6000838360405161221d92919061443c565b6040805191829003909120600081815261013060205291909120549091506001600160a01b03163381036122935760405162461bcd60e51b815260206004820152601b60248201527f443144433a2073656c662072657665616c20666f7220656d61696c00000000006044820152606401610bb2565b6000828152610138602090815260408083205433845261013583528184208685529092529091205411611d9d5733600090815261013560209081526040808320858452909152808220429055516001600160a01b038316908590611cb5565b6118503383836133d3565b61013b805461107390614402565b612313612ffa565b80610132600084600281111561232b5761232b61468f565b600281111561233c5761233c61468f565b81526020810191909152604001600020555050565b61235b3383613054565b6123775760405162461bcd60e51b8152600401610bb29061444c565b611328848484846134a1565b61238b612ffa565b61013e55565b606061239c82612f2d565b60006123b360408051602081019091526000815290565b905060008151116123d35760405180602001604052806000815250611439565b806123dd846134d4565b6040516020016123ee9291906148c2565b6040516020818303038152906040529392505050565b61240c612ffa565b61012e55565b61241a612ffa565b61012d5460ff161561246e5760405162461bcd60e51b815260206004820152601960248201527f443144433a20616c726561647920696e697469616c697a6564000000000000006044820152606401610bb2565b8281146124b45760405162461bcd60e51b81526020600482015260146024820152730886288867440eadccae2eac2d840d8cadccee8d60631b6044820152606401610bb2565b60005b8181101561268c5760008585838181106124d3576124d3614729565b90506020028101906124e591906148f1565b6040516124f392919061443c565b6040518091039020905083838381811061250f5761250f614729565b90506020028101906125219190614937565b60008281526101306020526040902061253a828261494d565b505061013c8054600181810183556000929092527fa55c1639d917d7b7cbf3837f1642937d4507076edbe26b1a6008234bb0c4953001829055821080159061259e5750600081815261013060205260409020600301805461259a90614402565b1590505b156125f15785856125b06001856144f7565b8181106125bf576125bf614729565b90506020028101906125d191906148f1565b600083815261013060205260409020600301916125ef919083614809565b505b6125fc6001846144f7565b821080156126265750600081815261013060205260409020600401805461262290614402565b1590505b15612679578585612638846001614a05565b81811061264757612647614729565b905060200281019061265991906148f1565b60008381526101306020526040902060040191612677919083614809565b505b5080612684816146a5565b9150506124b7565b50838361269a6001826144f7565b8181106126a9576126a9614729565b90506020028101906126bb91906148f1565b61013b916126ca919083614809565b5061013a6126da61013b82614a18565b5050505050565b610130602052600090815260409020805460018201546002830180546001600160a01b03841694600160a01b90940463ffffffff1693919061272290614402565b80601f016020809104026020016040519081016040528092919081815260200182805461274e90614402565b801561279b5780601f106127705761010080835404028352916020019161279b565b820191906000526020600020905b81548152906001019060200180831161277e57829003601f168201915b5050505050908060030180546127b090614402565b80601f01602080910402602001604051908101604052809291908181526020018280546127dc90614402565b80156128295780601f106127fe57610100808354040283529160200191612829565b820191906000526020600020905b81548152906001019060200180831161280c57829003601f168201915b50505050509080600401805461283e90614402565b80601f016020809104026020016040519081016040528092919081815260200182805461286a90614402565b80156128b75780601f1061288c576101008083540402835291602001916128b7565b820191906000526020600020905b81548152906001019060200180831161289a57829003601f168201915b5050505050905086565b6128c9612ffa565b6001600160a01b03811661292e5760405162461bcd60e51b815260206004820152602660248201527f4f776e61626c653a206e6577206f776e657220697320746865207a65726f206160448201526564647265737360d01b6064820152608401610bb2565b61157181613344565b61293f61324c565b6129476132a5565b608086111561298e5760405162461bcd60e51b8152602060048201526013602482015272443144433a206e616d6520746f6f206c6f6e6760681b6044820152606401610bb2565b6104008411156129d55760405162461bcd60e51b8152602060048201526012602482015271443144433a2075726c20746f6f206c6f6e6760701b6044820152606401610bb2565b600087876040516129e792919061443c565b6040805191829003909120600081815261013060205291822090925090612a0d836113b2565b905034811115612a5f5760405162461bcd60e51b815260206004820152601a60248201527f443144433a20696e73756666696369656e74207061796d656e740000000000006044820152606401610bb2565b81546001830182905563ffffffff4216600160a01b0263ffffffff60a01b1933166001600160c01b03198316171783556001600160a01b03168715612aaf5760028301612aad898b83614809565b505b61013a612abd8b8d83614809565b506000848152606760205260409020546001600160a01b031615612b8b57612af6813386604051806020016040528060008152506134a1565b60006064612b0584605a614678565b612b0f91906146be565b90506000826001600160a01b03168260405160006040518083038185875af1925050503d8060008114612b5e576040519150601f19603f3d011682016040523d82523d6000602084013e612b63565b606091505b5050905080612b845760405162461bcd60e51b8152600401610bb2906146e0565b5050612bf3565b8a8a610130600061013b604051612ba29190614ae4565b604051809103902081526020019081526020016000206004019182612bc8929190614809565b5060038301612bd961013b82614a18565b5061013b612be88b8d83614809565b50612bf33385613566565b60008481526101316020526040902080612c0d898261456d565b5060018101612c1c888261456d565b5060028101612c2b878261456d565b506000612c3884346144f7565b90508015612caa57604051600090339083908381818185875af1925050503d8060008114612c82576040519150601f19603f3d011682016040523d82523d6000602084013e612c87565b606091505b5050905080612ca85760405162461bcd60e51b8152600401610bb290614626565b505b6040513390612cbc908f908f9061443c565b60405180910390207ff1d86ac814e2a6b7710c558956057aa8ca4d67a2b19ea13b9dc84c92945c9896868e8e604051612cf793929190614b5a565b60405180910390a3505050505050612d0f600160fb55565b50505050505050565b612d2061324c565b612d286132a5565b61013e5434811115612d885760405162461bcd60e51b815260206004820152602360248201527f443144433a20696e73756666696369656e742074656c656772616d207061796d604482015262195b9d60ea1b6064820152608401610bb2565b60008383604051612d9a92919061443c565b6040805191829003909120600081815261013060205291909120549091506001600160a01b0316338103612e105760405162461bcd60e51b815260206004820152601e60248201527f443144433a2073656c662072657665616c20666f722074656c656772616d00006044820152606401610bb2565b6000828152610137602090815260408083205433845261013483528184208685529092529091205411611d9d5733600090815261013460209081526040808320858452909152808220429055516001600160a01b038316908590611cb5565b600054610100900460ff16612e965760405162461bcd60e51b8152600401610bb290614b7d565b6118508282613580565b600054610100900460ff16612ec75760405162461bcd60e51b8152600401610bb290614b7d565b6115846135c0565b600054610100900460ff16612ef65760405162461bcd60e51b8152600401610bb290614b7d565b6115846135f3565b600054610100900460ff16612f255760405162461bcd60e51b8152600401610bb290614b7d565b611584613623565b6000818152606760205260409020546001600160a01b03166115715760405162461bcd60e51b8152602060048201526018602482015277115490cdcc8c4e881a5b9d985b1a59081d1bdad95b88125160421b6044820152606401610bb2565b600081815260696020526040902080546001600160a01b0319166001600160a01b0384169081179091558190612fc182611854565b6001600160a01b03167f8c5be1e5ebec7d5bd14f71427d1e84f3dd0314c0f7b2291e5b200ac8c7c3b92560405160405180910390a45050565b60c9546001600160a01b031633146115845760405162461bcd60e51b815260206004820181905260248201527f4f776e61626c653a2063616c6c6572206973206e6f7420746865206f776e65726044820152606401610bb2565b60008061306083611854565b9050806001600160a01b0316846001600160a01b031614806130a757506001600160a01b038082166000908152606a602090815260408083209388168352929052205460ff165b806130cb5750836001600160a01b03166130c084610d48565b6001600160a01b0316145b949350505050565b826001600160a01b03166130e682611854565b6001600160a01b03161461310c5760405162461bcd60e51b8152600401610bb290614bc8565b6001600160a01b03821661316e5760405162461bcd60e51b8152602060048201526024808201527f4552433732313a207472616e7366657220746f20746865207a65726f206164646044820152637265737360e01b6064820152608401610bb2565b61317b838383600161364a565b826001600160a01b031661318e82611854565b6001600160a01b0316146131b45760405162461bcd60e51b8152600401610bb290614bc8565b600081815260696020908152604080832080546001600160a01b03199081169091556001600160a01b0387811680865260688552838620805460001901905590871680865283862080546001019055868652606790945282852080549092168417909155905184937fddf252ad1be2c89b69c2b068fc378daa952ba7f163c4a11628f55a4df523b3ef91a4610e7f83838360016136d2565b600260fb540361329e5760405162461bcd60e51b815260206004820152601f60248201527f5265656e7472616e637947756172643a207265656e7472616e742063616c6c006044820152606401610bb2565b600260fb55565b60975460ff16156115845760405162461bcd60e51b815260206004820152601060248201526f14185d5cd8589b194e881c185d5cd95960821b6044820152606401610bb2565b600160fb55565b6132fa613792565b6097805460ff191690557f5db9ee0a495bf2e6ff9c91a7834c1ba4fdd244a5e8aa4e537bd38aeae4b073aa335b6040516001600160a01b03909116815260200160405180910390a1565b60c980546001600160a01b038381166001600160a01b0319831681179093556040519116919082907f8be0079c531659141344cd1fd0a4f28419497f9722a3daafe3b4186f6b6457e090600090a35050565b61339e6132a5565b6097805460ff191660011790557f62e78cea01bee320cd4e420270b5ea74000d11b0c9f74754ebdbfc544b05a2586133273390565b816001600160a01b0316836001600160a01b0316036134345760405162461bcd60e51b815260206004820152601960248201527f4552433732313a20617070726f766520746f2063616c6c6572000000000000006044820152606401610bb2565b6001600160a01b038381166000818152606a6020908152604080832094871680845294825291829020805460ff191686151590811790915591519182527f17307eab39ab6107e8899845ad3d59bd9653f200f220920489ca2b5937696c31910160405180910390a3505050565b6134ac8484846130d3565b6134b8848484846137db565b6113285760405162461bcd60e51b8152600401610bb290614c0d565b606060006134e1836138dc565b60010190506000816001600160401b0381111561350057613500613bbd565b6040519080825280601f01601f19166020018201604052801561352a576020820181803683370190505b5090508181016020015b600019016f181899199a1a9b1b9c1cb0b131b232b360811b600a86061a8153600a850494508461353457509392505050565b6118508282604051806020016040528060008152506139b4565b600054610100900460ff166135a75760405162461bcd60e51b8152600401610bb290614b7d565b60656135b3838261456d565b506066610e7f828261456d565b600054610100900460ff166135e75760405162461bcd60e51b8152600401610bb290614b7d565b6097805460ff19169055565b600054610100900460ff1661361a5760405162461bcd60e51b8152600401610bb290614b7d565b61158433613344565b600054610100900460ff166132eb5760405162461bcd60e51b8152600401610bb290614b7d565b6001811115611328576001600160a01b03841615613690576001600160a01b0384166000908152606860205260408120805483929061368a9084906144f7565b90915550505b6001600160a01b03831615611328576001600160a01b038316600090815260686020526040812080548392906136c7908490614a05565b909155505050505050565b60008281526101306020908152604080832080546001600160a01b0319166001600160a01b03881617815561013183528184208251938401909252928252849291819061371f908261456d565b50604080516020810190915260008152600182019061373e908261456d565b50604080516020810190915260008152600282019061375d908261456d565b505050600090815261013760209081526040808320429081905561013883528184208190556101399092529091205550505050565b60975460ff166115845760405162461bcd60e51b815260206004820152601460248201527314185d5cd8589b194e881b9bdd081c185d5cd95960621b6044820152606401610bb2565b60006001600160a01b0384163b156138d157604051630a85bd0160e11b81526001600160a01b0385169063150b7a029061381f903390899088908890600401614c5f565b6020604051808303816000875af192505050801561385a575060408051601f3d908101601f1916820190925261385791810190614c92565b60015b6138b7573d808015613888576040519150601f19603f3d011682016040523d82523d6000602084013e61388d565b606091505b5080516000036138af5760405162461bcd60e51b8152600401610bb290614c0d565b805181602001fd5b6001600160e01b031916630a85bd0160e11b1490506130cb565b506001949350505050565b60008072184f03e93ff9f4daa797ed6e38ed64bf6a1f0160401b831061391b5772184f03e93ff9f4daa797ed6e38ed64bf6a1f0160401b830492506040015b6d04ee2d6d415b85acef81000000008310613947576d04ee2d6d415b85acef8100000000830492506020015b662386f26fc10000831061396557662386f26fc10000830492506010015b6305f5e100831061397d576305f5e100830492506008015b612710831061399157612710830492506004015b606483106139a3576064830492506002015b600a8310610b135760010192915050565b6139be83836139e7565b6139cb60008484846137db565b610e7f5760405162461bcd60e51b8152600401610bb290614c0d565b6001600160a01b038216613a3d5760405162461bcd60e51b815260206004820181905260248201527f4552433732313a206d696e7420746f20746865207a65726f20616464726573736044820152606401610bb2565b6000818152606760205260409020546001600160a01b031615613aa25760405162461bcd60e51b815260206004820152601c60248201527f4552433732313a20746f6b656e20616c7265616479206d696e746564000000006044820152606401610bb2565b613ab060008383600161364a565b6000818152606760205260409020546001600160a01b031615613b155760405162461bcd60e51b815260206004820152601c60248201527f4552433732313a20746f6b656e20616c7265616479206d696e746564000000006044820152606401610bb2565b6001600160a01b038216600081815260686020908152604080832080546001019055848352606790915280822080546001600160a01b0319168417905551839291907fddf252ad1be2c89b69c2b068fc378daa952ba7f163c4a11628f55a4df523b3ef908290a46118506000838360016136d2565b6001600160e01b03198116811461157157600080fd5b600060208284031215613bb257600080fd5b813561143981613b8a565b634e487b7160e01b600052604160045260246000fd5b60006001600160401b0380841115613bed57613bed613bbd565b604051601f8501601f19908116603f01168101908282118183101715613c1557613c15613bbd565b81604052809350858152868686011115613c2e57600080fd5b858560208301376000602087830101525050509392505050565b600082601f830112613c5957600080fd5b61143983833560208501613bd3565b63ffffffff8116811461157157600080fd5b6001600160a01b038116811461157157600080fd5b8035613c9a81613c7a565b919050565b60008060008060008060008060006101208a8c031215613cbe57600080fd5b89356001600160401b0380821115613cd557600080fd5b613ce18d838e01613c48565b9a5060208c0135915080821115613cf757600080fd5b50613d048c828d01613c48565b98505060408a0135965060608a0135613d1c81613c68565b955060808a0135613d2c81613c68565b9450613d3a60a08b01613c8f565b935060c08a0135925060e08a013591506101008a013590509295985092959850929598565b60005b83811015613d7a578181015183820152602001613d62565b50506000910152565b60008151808452613d9b816020860160208601613d5f565b601f01601f19169290920160200192915050565b6020815260006114396020830184613d83565b600060208284031215613dd457600080fd5b5035919050565b60008060408385031215613dee57600080fd5b8235613df981613c7a565b946020939093013593505050565b60008083601f840112613e1957600080fd5b5081356001600160401b03811115613e3057600080fd5b602083019150836020828501011115613e4857600080fd5b9250929050565b60008060208385031215613e6257600080fd5b82356001600160401b03811115613e7857600080fd5b613e8485828601613e07565b90969095509350505050565b600060208284031215613ea257600080fd5b813561143981613c68565b600080600060608486031215613ec257600080fd5b8335613ecd81613c7a565b92506020840135613edd81613c7a565b929592945050506040919091013590565b60008060008060808587031215613f0457600080fd5b84356001600160401b0380821115613f1b57600080fd5b613f2788838901613c48565b95506020870135915080821115613f3d57600080fd5b613f4988838901613c48565b94506040870135915080821115613f5f57600080fd5b613f6b88838901613c48565b93506060870135915080821115613f8157600080fd5b50613f8e87828801613c48565b91505092959194509250565b600060208284031215613fac57600080fd5b813561143981613c7a565b803560038110613c9a57600080fd5b60008060408385031215613fd957600080fd5b82356001600160401b03811115613fef57600080fd5b613ffb85828601613c48565b92505061400a60208401613fb7565b90509250929050565b6000806040838503121561402657600080fd5b8235915061400a60208401613fb7565b6000806040838503121561404957600080fd5b50508035926020909101359150565b6020808252825182820181905260009190848201906040850190845b8181101561409057835183529284019291840191600101614074565b50909695505050505050565b600080600080604085870312156140b257600080fd5b84356001600160401b03808211156140c957600080fd5b6140d588838901613e07565b909650945060208701359150808211156140ee57600080fd5b506140fb87828801613e07565b95989497509550505050565b6000806040838503121561411a57600080fd5b823561412581613c7a565b91506020830135801515811461413a57600080fd5b809150509250929050565b6000806040838503121561415857600080fd5b613df983613fb7565b6000806000806080858703121561417757600080fd5b843561418281613c7a565b9350602085013561419281613c7a565b92506040850135915060608501356001600160401b038111156141b457600080fd5b8501601f810187136141c557600080fd5b613f8e87823560208401613bd3565b6000602082840312156141e657600080fd5b61143982613fb7565b60008083601f84011261420157600080fd5b5081356001600160401b0381111561421857600080fd5b6020830191508360208260051b8501011115613e4857600080fd5b6000806000806040858703121561424957600080fd5b84356001600160401b038082111561426057600080fd5b61426c888389016141ef565b9096509450602087013591508082111561428557600080fd5b506140fb878288016141ef565b600080604083850312156142a557600080fd5b82356142b081613c7a565b9150602083013561413a81613c7a565b60018060a01b038716815263ffffffff8616602082015284604082015260c0606082015260006142f360c0830186613d83565b82810360808401526143058186613d83565b905082810360a08401526143198185613d83565b9998505050505050505050565b600080600080600080600060a0888a03121561434157600080fd5b87356001600160401b038082111561435857600080fd5b6143648b838c01613e07565b909950975060208a013591508082111561437d57600080fd5b6143898b838c01613e07565b909750955060408a01359150808211156143a257600080fd5b6143ae8b838c01613c48565b945060608a01359150808211156143c457600080fd5b6143d08b838c01613c48565b935060808a01359150808211156143e657600080fd5b506143f38a828b01613c48565b91505092959891949750929550565b600181811c9082168061441657607f821691505b60208210810361443657634e487b7160e01b600052602260045260246000fd5b50919050565b8183823760009101908152919050565b6020808252602d908201527f4552433732313a2063616c6c6572206973206e6f7420746f6b656e206f776e6560408201526c1c881bdc88185c1c1c9bdd9959609a1b606082015260800190565b60208082526028908201527f443144433a20696e73756666696369656e7420706572736f6e616c20696e666f604082015267081c185e5b595b9d60c21b606082015260800190565b634e487b7160e01b600052601160045260246000fd5b81810381811115610b1357610b136144e1565b601f821115610e7f57600081815260208120601f850160051c810160208610156145315750805b601f850160051c820191505b818110156145505782815560010161453d565b505050505050565b600019600383901b1c191660019190911b1790565b81516001600160401b0381111561458657614586613bbd565b61459a816145948454614402565b8461450a565b602080601f8311600181146145c957600084156145b75750858301515b6145c18582614558565b865550614550565b600085815260208120601f198616915b828110156145f8578886015182559484019460019091019084016145d9565b50858210156146165787850151600019600388901b60f8161c191681555b5050505050600190811b01905550565b60208082526014908201527363616e6e6f7420726566756e642065786365737360601b604082015260600190565b63ffffffff818116838216019080821115614671576146716144e1565b5092915050565b8082028115828204841417610b1357610b136144e1565b634e487b7160e01b600052602160045260246000fd5b6000600182016146b7576146b76144e1565b5060010190565b6000826146db57634e487b7160e01b600052601260045260246000fd5b500490565b60208082526013908201527232b93937b91039b2b73234b7339032ba3432b960691b604082015260600190565b6000825161471f818460208701613d5f565b9190910192915050565b634e487b7160e01b600052603260045260246000fd5b81835281816020850137506000828201602090810191909152601f909101601f19169091010190565b60408152600080855461477a81614402565b806040860152606060018084166000811461479c57600181146147b6576147e7565b60ff1985168884015283151560051b8801830195506147e7565b8a60005260208060002060005b868110156147de5781548b82018701529084019082016147c3565b8a018501975050505b505050505082810360208401526147ff81858761473f565b9695505050505050565b6001600160401b0383111561482057614820613bbd565b6148348361482e8354614402565b8361450a565b6000601f84116001811461486257600085156148505750838201355b61485a8682614558565b8455506126da565b600083815260209020601f19861690835b828110156148935786850135825560209485019460019092019101614873565b50868210156148b05760001960f88860031b161c19848701351681555b505060018560011b0183555050505050565b600083516148d4818460208801613d5f565b8351908301906148e8818360208801613d5f565b01949350505050565b6000808335601e1984360301811261490857600080fd5b8301803591506001600160401b0382111561492257600080fd5b602001915036819003821315613e4857600080fd5b6000823560be1983360301811261471f57600080fd5b813561495881613c7a565b81546001600160a01b031981166001600160a01b03929092169182178355602084013561498481613c68565b6001600160c01b03199190911690911760a09190911b63ffffffff60a01b16178155604082013560018201556149bd60608301836148f1565b6149cb818360028601614809565b50506149da60808301836148f1565b6149e8818360038601614809565b50506149f760a08301836148f1565b611328818360048601614809565b80820180821115610b1357610b136144e1565b818103614a23575050565b614a2d8254614402565b6001600160401b03811115614a4457614a44613bbd565b614a52816145948454614402565b6000601f821160018114614a805760008315614a6e5750848201545b614a788482614558565b8555506126da565b600085815260209020601f19841690600086815260209020845b83811015614aba5782860154825560019586019590910190602001614a9a565b50858310156146165793015460001960f8600387901b161c19169092555050600190811b01905550565b6000808354614af281614402565b60018281168015614b0a5760018114614b1f57614b4e565b60ff1984168752821515830287019450614b4e565b8760005260208060002060005b85811015614b455781548a820152908401908201614b2c565b50505082870194505b50929695505050505050565b838152604060208201526000614b7460408301848661473f565b95945050505050565b6020808252602b908201527f496e697469616c697a61626c653a20636f6e7472616374206973206e6f74206960408201526a6e697469616c697a696e6760a81b606082015260800190565b60208082526025908201527f4552433732313a207472616e736665722066726f6d20696e636f72726563742060408201526437bbb732b960d91b606082015260800190565b60208082526032908201527f4552433732313a207472616e7366657220746f206e6f6e20455243373231526560408201527131b2b4bb32b91034b6b83632b6b2b73a32b960711b606082015260800190565b6001600160a01b03858116825284166020820152604081018390526080606082018190526000906147ff90830184613d83565b600060208284031215614ca457600080fd5b815161143981613b8a56fea2646970667358221220b7e09508296a45d3304b17ce6b421166e38fcccaa86b7104e2933685fe6394fd64736f6c63430008110033",
  "devdoc": {
    "author": "John Whitton (github.com/johnwhitton), reviewed and revised by Aaron Li (github.com/polymorpher)",
    "kind": "dev",
    "methods": {
      "approve(address,uint256)": {
        "details": "See {IERC721-approve}."
      },
      "balanceOf(address)": {
        "details": "See {IERC721-balanceOf}."
      },
      "getApproved(uint256)": {
        "details": "See {IERC721-getApproved}."
      },
      "isApprovedForAll(address,address)": {
        "details": "See {IERC721-isApprovedForAll}."
      },
      "name()": {
        "details": "See {IERC721Metadata-name}."
      },
      "owner()": {
        "details": "Returns the address of the current owner."
      },
      "ownerOf(uint256)": {
        "details": "See {IERC721-ownerOf}."
      },
      "paused()": {
        "details": "Returns true if the contract is paused, and false otherwise."
      },
      "renounceOwnership()": {
        "details": "Leaves the contract without owner. It will not be possible to call `onlyOwner` functions anymore. Can only be called by the current owner. NOTE: Renouncing ownership will leave the contract without an owner, thereby removing any functionality that is only available to the owner."
      },
      "safeTransferFrom(address,address,uint256)": {
        "details": "See {IERC721-safeTransferFrom}."
      },
      "safeTransferFrom(address,address,uint256,bytes)": {
        "details": "See {IERC721-safeTransferFrom}."
      },
      "setApprovalForAll(address,bool)": {
        "details": "See {IERC721-setApprovalForAll}."
      },
      "supportsInterface(bytes4)": {
        "details": "See {IERC165-supportsInterface}."
      },
      "symbol()": {
        "details": "See {IERC721Metadata-symbol}."
      },
      "tokenURI(uint256)": {
        "details": "See {IERC721Metadata-tokenURI}."
      },
      "transferFrom(address,address,uint256)": {
        "details": "See {IERC721-transferFrom}."
      },
      "transferOwnership(address)": {
        "details": "Transfers ownership of the contract to a new account (`newOwner`). Can only be called by the current owner."
      }
    },
    "stateVariables": {
      "_emailRevealAt": {
        "details": "User -> Name -> Timestamp got the reval permission"
      },
      "_emailUpdateAt": {
        "details": "TokenId -> Timestamp the email info was updated"
      },
      "_ownerInfos": {
        "details": "TokenId -> OwnerInfo"
      },
      "_phoneRevealAt": {
        "details": "User -> Name -> Timestamp got the reval permission"
      },
      "_phoneUpdateAt": {
        "details": "TokenId -> Timestamp the phone info was updated"
      },
      "_telegramRevealAt": {
        "details": "User -> Name -> Timestamp got the reval permission"
      },
      "_telegramUpdateAt": {
        "details": "TokenId -> Timestamp the telegram info was updated"
      },
      "emailRevealPrice": {
        "details": "Price for the email reveal"
      },
      "emojiReactionCounters": {
        "details": "TokenId -> Emoji Type -> Counter"
      },
      "emojiReactionPrices": {
        "details": "Emoji Type -> Price"
      },
      "keys": {
        "details": "TokenId list"
      },
      "lastCreated": {
        "details": "Name created lastly"
      },
      "lastRented": {
        "details": "Name rented lastly"
      },
      "nameRecords": {
        "details": "TokenId -> NameRecord"
      },
      "phoneRevealPrice": {
        "details": "Price for the phone reveal"
      },
      "telegramRevealPrice": {
        "details": "Price for the telegram reveal"
      },
      "urlUpdatePrice": {
        "details": "Price for the url update"
      }
    },
    "title": "A subdomain manager contract for .1.country (D1DC - Dot 1 Dot Country)",
    "version": 1
  },
  "userdoc": {
    "kind": "user",
    "methods": {},
    "notice": "This contract allows the rental of domains under .1.country (D1DC) like The Million Dollar Homepage: Anyone can take over a domain name by  browsing to a web2 address like foo.1.country and doubling its last price. Currently, a payer owns the domain only for `rentalPeriod`, and is allowed to embed a tweet for the web page. D1DC creates ERC721 tokens for each domain registration.",
    "version": 1
  },
  "storageLayout": {
    "storage": [
      {
        "astId": 138,
        "contract": "contracts/D1DCV2.sol:D1DCV2",
        "label": "_initialized",
        "offset": 0,
        "slot": "0",
        "type": "t_uint8"
      },
      {
        "astId": 141,
        "contract": "contracts/D1DCV2.sol:D1DCV2",
        "label": "_initializing",
        "offset": 1,
        "slot": "0",
        "type": "t_bool"
      },
      {
        "astId": 1956,
        "contract": "contracts/D1DCV2.sol:D1DCV2",
        "label": "__gap",
        "offset": 0,
        "slot": "1",
        "type": "t_array(t_uint256)50_storage"
      },
      {
        "astId": 2175,
        "contract": "contracts/D1DCV2.sol:D1DCV2",
        "label": "__gap",
        "offset": 0,
        "slot": "51",
        "type": "t_array(t_uint256)50_storage"
      },
      {
        "astId": 529,
        "contract": "contracts/D1DCV2.sol:D1DCV2",
        "label": "_name",
        "offset": 0,
        "slot": "101",
        "type": "t_string_storage"
      },
      {
        "astId": 531,
        "contract": "contracts/D1DCV2.sol:D1DCV2",
        "label": "_symbol",
        "offset": 0,
        "slot": "102",
        "type": "t_string_storage"
      },
      {
        "astId": 535,
        "contract": "contracts/D1DCV2.sol:D1DCV2",
        "label": "_owners",
        "offset": 0,
        "slot": "103",
        "type": "t_mapping(t_uint256,t_address)"
      },
      {
        "astId": 539,
        "contract": "contracts/D1DCV2.sol:D1DCV2",
        "label": "_balances",
        "offset": 0,
        "slot": "104",
        "type": "t_mapping(t_address,t_uint256)"
      },
      {
        "astId": 543,
        "contract": "contracts/D1DCV2.sol:D1DCV2",
        "label": "_tokenApprovals",
        "offset": 0,
        "slot": "105",
        "type": "t_mapping(t_uint256,t_address)"
      },
      {
        "astId": 549,
        "contract": "contracts/D1DCV2.sol:D1DCV2",
        "label": "_operatorApprovals",
        "offset": 0,
        "slot": "106",
        "type": "t_mapping(t_address,t_mapping(t_address,t_bool))"
      },
      {
        "astId": 1469,
        "contract": "contracts/D1DCV2.sol:D1DCV2",
        "label": "__gap",
        "offset": 0,
        "slot": "107",
        "type": "t_array(t_uint256)44_storage"
      },
      {
        "astId": 321,
        "contract": "contracts/D1DCV2.sol:D1DCV2",
        "label": "_paused",
        "offset": 0,
        "slot": "151",
        "type": "t_bool"
      },
      {
        "astId": 426,
        "contract": "contracts/D1DCV2.sol:D1DCV2",
        "label": "__gap",
        "offset": 0,
        "slot": "152",
        "type": "t_array(t_uint256)49_storage"
      },
      {
        "astId": 10,
        "contract": "contracts/D1DCV2.sol:D1DCV2",
        "label": "_owner",
        "offset": 0,
        "slot": "201",
        "type": "t_address"
      },
      {
        "astId": 130,
        "contract": "contracts/D1DCV2.sol:D1DCV2",
        "label": "__gap",
        "offset": 0,
        "slot": "202",
        "type": "t_array(t_uint256)49_storage"
      },
      {
        "astId": 441,
        "contract": "contracts/D1DCV2.sol:D1DCV2",
        "label": "_status",
        "offset": 0,
        "slot": "251",
        "type": "t_uint256"
      },
      {
        "astId": 499,
        "contract": "contracts/D1DCV2.sol:D1DCV2",
        "label": "__gap",
        "offset": 0,
        "slot": "252",
        "type": "t_array(t_uint256)49_storage"
      },
      {
        "astId": 3070,
        "contract": "contracts/D1DCV2.sol:D1DCV2",
        "label": "nameInitialized",
        "offset": 0,
        "slot": "301",
        "type": "t_bool"
      },
      {
        "astId": 3072,
        "contract": "contracts/D1DCV2.sol:D1DCV2",
        "label": "baseRentalPrice",
        "offset": 0,
        "slot": "302",
        "type": "t_uint256"
      },
      {
        "astId": 3074,
        "contract": "contracts/D1DCV2.sol:D1DCV2",
        "label": "rentalPeriod",
        "offset": 0,
        "slot": "303",
        "type": "t_uint32"
      },
      {
        "astId": 3076,
        "contract": "contracts/D1DCV2.sol:D1DCV2",
        "label": "priceMultiplier",
        "offset": 4,
        "slot": "303",
        "type": "t_uint32"
      },
      {
        "astId": 3078,
        "contract": "contracts/D1DCV2.sol:D1DCV2",
        "label": "revenueAccount",
        "offset": 8,
        "slot": "303",
        "type": "t_address"
      },
      {
        "astId": 3108,
        "contract": "contracts/D1DCV2.sol:D1DCV2",
        "label": "nameRecords",
        "offset": 0,
        "slot": "304",
        "type": "t_mapping(t_bytes32,t_struct(NameRecord)3091_storage)"
      },
      {
        "astId": 3114,
        "contract": "contracts/D1DCV2.sol:D1DCV2",
        "label": "_ownerInfos",
        "offset": 0,
        "slot": "305",
        "type": "t_mapping(t_bytes32,t_struct(OwnerInfo)3098_storage)"
      },
      {
        "astId": 3120,
        "contract": "contracts/D1DCV2.sol:D1DCV2",
        "label": "emojiReactionPrices",
        "offset": 0,
        "slot": "306",
        "type": "t_mapping(t_enum(EmojiType)3102,t_uint256)"
      },
      {
        "astId": 3128,
        "contract": "contracts/D1DCV2.sol:D1DCV2",
        "label": "emojiReactionCounters",
        "offset": 0,
        "slot": "307",
        "type": "t_mapping(t_bytes32,t_mapping(t_enum(EmojiType)3102,t_uint256))"
      },
      {
        "astId": 3135,
        "contract": "contracts/D1DCV2.sol:D1DCV2",
        "label": "_telegramRevealAt",
        "offset": 0,
        "slot": "308",
        "type": "t_mapping(t_address,t_mapping(t_bytes32,t_uint256))"
      },
      {
        "astId": 3142,
        "contract": "contracts/D1DCV2.sol:D1DCV2",
        "label": "_emailRevealAt",
        "offset": 0,
        "slot": "309",
        "type": "t_mapping(t_address,t_mapping(t_bytes32,t_uint256))"
      },
      {
        "astId": 3149,
        "contract": "contracts/D1DCV2.sol:D1DCV2",
        "label": "_phoneRevealAt",
        "offset": 0,
        "slot": "310",
        "type": "t_mapping(t_address,t_mapping(t_bytes32,t_uint256))"
      },
      {
        "astId": 3154,
        "contract": "contracts/D1DCV2.sol:D1DCV2",
        "label": "_telegramUpdateAt",
        "offset": 0,
        "slot": "311",
        "type": "t_mapping(t_bytes32,t_uint256)"
      },
      {
        "astId": 3159,
        "contract": "contracts/D1DCV2.sol:D1DCV2",
        "label": "_emailUpdateAt",
        "offset": 0,
        "slot": "312",
        "type": "t_mapping(t_bytes32,t_uint256)"
      },
      {
        "astId": 3164,
        "contract": "contracts/D1DCV2.sol:D1DCV2",
        "label": "_phoneUpdateAt",
        "offset": 0,
        "slot": "313",
        "type": "t_mapping(t_bytes32,t_uint256)"
      },
      {
        "astId": 3167,
        "contract": "contracts/D1DCV2.sol:D1DCV2",
        "label": "lastRented",
        "offset": 0,
        "slot": "314",
        "type": "t_string_storage"
      },
      {
        "astId": 3170,
        "contract": "contracts/D1DCV2.sol:D1DCV2",
        "label": "lastCreated",
        "offset": 0,
        "slot": "315",
        "type": "t_string_storage"
      },
      {
        "astId": 3174,
        "contract": "contracts/D1DCV2.sol:D1DCV2",
        "label": "keys",
        "offset": 0,
        "slot": "316",
        "type": "t_array(t_bytes32)dyn_storage"
      },
      {
        "astId": 3177,
        "contract": "contracts/D1DCV2.sol:D1DCV2",
        "label": "urlUpdatePrice",
        "offset": 0,
        "slot": "317",
        "type": "t_uint256"
      },
      {
        "astId": 3180,
        "contract": "contracts/D1DCV2.sol:D1DCV2",
        "label": "telegramRevealPrice",
        "offset": 0,
        "slot": "318",
        "type": "t_uint256"
      },
      {
        "astId": 3183,
        "contract": "contracts/D1DCV2.sol:D1DCV2",
        "label": "emailRevealPrice",
        "offset": 0,
        "slot": "319",
        "type": "t_uint256"
      },
      {
        "astId": 3186,
        "contract": "contracts/D1DCV2.sol:D1DCV2",
        "label": "phoneRevealPrice",
        "offset": 0,
        "slot": "320",
        "type": "t_uint256"
      }
    ],
    "types": {
      "t_address": {
        "encoding": "inplace",
        "label": "address",
        "numberOfBytes": "20"
      },
      "t_array(t_bytes32)dyn_storage": {
        "base": "t_bytes32",
        "encoding": "dynamic_array",
        "label": "bytes32[]",
        "numberOfBytes": "32"
      },
      "t_array(t_uint256)44_storage": {
        "base": "t_uint256",
        "encoding": "inplace",
        "label": "uint256[44]",
        "numberOfBytes": "1408"
      },
      "t_array(t_uint256)49_storage": {
        "base": "t_uint256",
        "encoding": "inplace",
        "label": "uint256[49]",
        "numberOfBytes": "1568"
      },
      "t_array(t_uint256)50_storage": {
        "base": "t_uint256",
        "encoding": "inplace",
        "label": "uint256[50]",
        "numberOfBytes": "1600"
      },
      "t_bool": {
        "encoding": "inplace",
        "label": "bool",
        "numberOfBytes": "1"
      },
      "t_bytes32": {
        "encoding": "inplace",
        "label": "bytes32",
        "numberOfBytes": "32"
      },
      "t_enum(EmojiType)3102": {
        "encoding": "inplace",
        "label": "enum D1DCV2.EmojiType",
        "numberOfBytes": "1"
      },
      "t_mapping(t_address,t_bool)": {
        "encoding": "mapping",
        "key": "t_address",
        "label": "mapping(address => bool)",
        "numberOfBytes": "32",
        "value": "t_bool"
      },
      "t_mapping(t_address,t_mapping(t_address,t_bool))": {
        "encoding": "mapping",
        "key": "t_address",
        "label": "mapping(address => mapping(address => bool))",
        "numberOfBytes": "32",
        "value": "t_mapping(t_address,t_bool)"
      },
      "t_mapping(t_address,t_mapping(t_bytes32,t_uint256))": {
        "encoding": "mapping",
        "key": "t_address",
        "label": "mapping(address => mapping(bytes32 => uint256))",
        "numberOfBytes": "32",
        "value": "t_mapping(t_bytes32,t_uint256)"
      },
      "t_mapping(t_address,t_uint256)": {
        "encoding": "mapping",
        "key": "t_address",
        "label": "mapping(address => uint256)",
        "numberOfBytes": "32",
        "value": "t_uint256"
      },
      "t_mapping(t_bytes32,t_mapping(t_enum(EmojiType)3102,t_uint256))": {
        "encoding": "mapping",
        "key": "t_bytes32",
        "label": "mapping(bytes32 => mapping(enum D1DCV2.EmojiType => uint256))",
        "numberOfBytes": "32",
        "value": "t_mapping(t_enum(EmojiType)3102,t_uint256)"
      },
      "t_mapping(t_bytes32,t_struct(NameRecord)3091_storage)": {
        "encoding": "mapping",
        "key": "t_bytes32",
        "label": "mapping(bytes32 => struct D1DCV2.NameRecord)",
        "numberOfBytes": "32",
        "value": "t_struct(NameRecord)3091_storage"
      },
      "t_mapping(t_bytes32,t_struct(OwnerInfo)3098_storage)": {
        "encoding": "mapping",
        "key": "t_bytes32",
        "label": "mapping(bytes32 => struct D1DCV2.OwnerInfo)",
        "numberOfBytes": "32",
        "value": "t_struct(OwnerInfo)3098_storage"
      },
      "t_mapping(t_bytes32,t_uint256)": {
        "encoding": "mapping",
        "key": "t_bytes32",
        "label": "mapping(bytes32 => uint256)",
        "numberOfBytes": "32",
        "value": "t_uint256"
      },
      "t_mapping(t_enum(EmojiType)3102,t_uint256)": {
        "encoding": "mapping",
        "key": "t_enum(EmojiType)3102",
        "label": "mapping(enum D1DCV2.EmojiType => uint256)",
        "numberOfBytes": "32",
        "value": "t_uint256"
      },
      "t_mapping(t_uint256,t_address)": {
        "encoding": "mapping",
        "key": "t_uint256",
        "label": "mapping(uint256 => address)",
        "numberOfBytes": "32",
        "value": "t_address"
      },
      "t_string_storage": {
        "encoding": "bytes",
        "label": "string",
        "numberOfBytes": "32"
      },
      "t_struct(NameRecord)3091_storage": {
        "encoding": "inplace",
        "label": "struct D1DCV2.NameRecord",
        "members": [
          {
            "astId": 3080,
            "contract": "contracts/D1DCV2.sol:D1DCV2",
            "label": "renter",
            "offset": 0,
            "slot": "0",
            "type": "t_address"
          },
          {
            "astId": 3082,
            "contract": "contracts/D1DCV2.sol:D1DCV2",
            "label": "timeUpdated",
            "offset": 20,
            "slot": "0",
            "type": "t_uint32"
          },
          {
            "astId": 3084,
            "contract": "contracts/D1DCV2.sol:D1DCV2",
            "label": "lastPrice",
            "offset": 0,
            "slot": "1",
            "type": "t_uint256"
          },
          {
            "astId": 3086,
            "contract": "contracts/D1DCV2.sol:D1DCV2",
            "label": "url",
            "offset": 0,
            "slot": "2",
            "type": "t_string_storage"
          },
          {
            "astId": 3088,
            "contract": "contracts/D1DCV2.sol:D1DCV2",
            "label": "prev",
            "offset": 0,
            "slot": "3",
            "type": "t_string_storage"
          },
          {
            "astId": 3090,
            "contract": "contracts/D1DCV2.sol:D1DCV2",
            "label": "next",
            "offset": 0,
            "slot": "4",
            "type": "t_string_storage"
          }
        ],
        "numberOfBytes": "160"
      },
      "t_struct(OwnerInfo)3098_storage": {
        "encoding": "inplace",
        "label": "struct D1DCV2.OwnerInfo",
        "members": [
          {
            "astId": 3093,
            "contract": "contracts/D1DCV2.sol:D1DCV2",
            "label": "telegram",
            "offset": 0,
            "slot": "0",
            "type": "t_string_storage"
          },
          {
            "astId": 3095,
            "contract": "contracts/D1DCV2.sol:D1DCV2",
            "label": "email",
            "offset": 0,
            "slot": "1",
            "type": "t_string_storage"
          },
          {
            "astId": 3097,
            "contract": "contracts/D1DCV2.sol:D1DCV2",
            "label": "phone",
            "offset": 0,
            "slot": "2",
            "type": "t_string_storage"
          }
        ],
        "numberOfBytes": "96"
      },
      "t_uint256": {
        "encoding": "inplace",
        "label": "uint256",
        "numberOfBytes": "32"
      },
      "t_uint32": {
        "encoding": "inplace",
        "label": "uint32",
        "numberOfBytes": "4"
      },
      "t_uint8": {
        "encoding": "inplace",
        "label": "uint8",
        "numberOfBytes": "1"
      }
    }
  }
}