{
  "address": "0xf4Ecd19159b5168A1a0dE687F1DDC852823a3EA3",
  "abi": [
    {
      "inputs": [
        {
          "internalType": "string",
          "name": "_name",
          "type": "string"
        },
        {
          "internalType": "string",
          "name": "_symbol",
          "type": "string"
        },
        {
          "internalType": "uint256",
          "name": "_baseRentalPrice",
          "type": "uint256"
        },
        {
          "internalType": "uint32",
          "name": "_rentalPeriod",
          "type": "uint32"
        },
        {
          "internalType": "uint32",
          "name": "_priceMultiplier",
          "type": "uint32"
        }
      ],
      "stateMutability": "nonpayable",
      "type": "constructor"
    },
    {
      "anonymous": false,
      "inputs": [
        {
          "indexed": true,
          "internalType": "address",
          "name": "owner",
          "type": "address"
        },
        {
          "indexed": true,
          "internalType": "address",
          "name": "approved",
          "type": "address"
        },
        {
          "indexed": true,
          "internalType": "uint256",
          "name": "tokenId",
          "type": "uint256"
        }
      ],
      "name": "Approval",
      "type": "event"
    },
    {
      "anonymous": false,
      "inputs": [
        {
          "indexed": true,
          "internalType": "address",
          "name": "owner",
          "type": "address"
        },
        {
          "indexed": true,
          "internalType": "address",
          "name": "operator",
          "type": "address"
        },
        {
          "indexed": false,
          "internalType": "bool",
          "name": "approved",
          "type": "bool"
        }
      ],
      "name": "ApprovalForAll",
      "type": "event"
    },
    {
      "anonymous": false,
      "inputs": [
        {
          "indexed": true,
          "internalType": "string",
          "name": "name",
          "type": "string"
        },
        {
          "indexed": true,
          "internalType": "address",
          "name": "renter",
          "type": "address"
        },
        {
          "indexed": false,
          "internalType": "uint256",
          "name": "price",
          "type": "uint256"
        },
        {
          "indexed": false,
          "internalType": "string",
          "name": "url",
          "type": "string"
        }
      ],
      "name": "NameRented",
      "type": "event"
    },
    {
      "anonymous": false,
      "inputs": [
        {
          "indexed": true,
          "internalType": "address",
          "name": "previousOwner",
          "type": "address"
        },
        {
          "indexed": true,
          "internalType": "address",
          "name": "newOwner",
          "type": "address"
        }
      ],
      "name": "OwnershipTransferred",
      "type": "event"
    },
    {
      "anonymous": false,
      "inputs": [
        {
          "indexed": false,
          "internalType": "address",
          "name": "account",
          "type": "address"
        }
      ],
      "name": "Paused",
      "type": "event"
    },
    {
      "anonymous": false,
      "inputs": [
        {
          "indexed": true,
          "internalType": "address",
          "name": "from",
          "type": "address"
        },
        {
          "indexed": true,
          "internalType": "address",
          "name": "to",
          "type": "address"
        },
        {
          "indexed": true,
          "internalType": "uint256",
          "name": "tokenId",
          "type": "uint256"
        }
      ],
      "name": "Transfer",
      "type": "event"
    },
    {
      "anonymous": false,
      "inputs": [
        {
          "indexed": true,
          "internalType": "string",
          "name": "name",
          "type": "string"
        },
        {
          "indexed": true,
          "internalType": "address",
          "name": "renter",
          "type": "address"
        },
        {
          "indexed": false,
          "internalType": "string",
          "name": "oldUrl",
          "type": "string"
        },
        {
          "indexed": false,
          "internalType": "string",
          "name": "newUrl",
          "type": "string"
        }
      ],
      "name": "URLUpdated",
      "type": "event"
    },
    {
      "anonymous": false,
      "inputs": [
        {
          "indexed": false,
          "internalType": "address",
          "name": "account",
          "type": "address"
        }
      ],
      "name": "Unpaused",
      "type": "event"
    },
    {
      "inputs": [
        {
          "internalType": "address",
          "name": "to",
          "type": "address"
        },
        {
          "internalType": "uint256",
          "name": "tokenId",
          "type": "uint256"
        }
      ],
      "name": "approve",
      "outputs": [],
      "stateMutability": "nonpayable",
      "type": "function"
    },
    {
      "inputs": [
        {
          "internalType": "address",
          "name": "owner",
          "type": "address"
        }
      ],
      "name": "balanceOf",
      "outputs": [
        {
          "internalType": "uint256",
          "name": "",
          "type": "uint256"
        }
      ],
      "stateMutability": "view",
      "type": "function"
    },
    {
      "inputs": [],
      "name": "baseRentalPrice",
      "outputs": [
        {
          "internalType": "uint256",
          "name": "",
          "type": "uint256"
        }
      ],
      "stateMutability": "view",
      "type": "function"
    },
    {
      "inputs": [
        {
          "internalType": "uint256",
          "name": "tokenId",
          "type": "uint256"
        }
      ],
      "name": "getApproved",
      "outputs": [
        {
          "internalType": "address",
          "name": "",
          "type": "address"
        }
      ],
      "stateMutability": "view",
      "type": "function"
    },
    {
      "inputs": [
        {
          "internalType": "bytes32",
          "name": "encodedName",
          "type": "bytes32"
        }
      ],
      "name": "getPrice",
      "outputs": [
        {
          "internalType": "uint256",
          "name": "",
          "type": "uint256"
        }
      ],
      "stateMutability": "view",
      "type": "function"
    },
    {
      "inputs": [
        {
          "internalType": "address",
          "name": "owner",
          "type": "address"
        },
        {
          "internalType": "address",
          "name": "operator",
          "type": "address"
        }
      ],
      "name": "isApprovedForAll",
      "outputs": [
        {
          "internalType": "bool",
          "name": "",
          "type": "bool"
        }
      ],
      "stateMutability": "view",
      "type": "function"
    },
    {
      "inputs": [],
      "name": "name",
      "outputs": [
        {
          "internalType": "string",
          "name": "",
          "type": "string"
        }
      ],
      "stateMutability": "view",
      "type": "function"
    },
    {
      "inputs": [
        {
          "internalType": "bytes32",
          "name": "",
          "type": "bytes32"
        }
      ],
      "name": "nameRecords",
      "outputs": [
        {
          "internalType": "address",
          "name": "renter",
          "type": "address"
        },
        {
          "internalType": "uint32",
          "name": "timeUpdated",
          "type": "uint32"
        },
        {
          "internalType": "uint256",
          "name": "lastPrice",
          "type": "uint256"
        },
        {
          "internalType": "string",
          "name": "url",
          "type": "string"
        }
      ],
      "stateMutability": "view",
      "type": "function"
    },
    {
      "inputs": [],
      "name": "owner",
      "outputs": [
        {
          "internalType": "address",
          "name": "",
          "type": "address"
        }
      ],
      "stateMutability": "view",
      "type": "function"
    },
    {
      "inputs": [
        {
          "internalType": "uint256",
          "name": "tokenId",
          "type": "uint256"
        }
      ],
      "name": "ownerOf",
      "outputs": [
        {
          "internalType": "address",
          "name": "",
          "type": "address"
        }
      ],
      "stateMutability": "view",
      "type": "function"
    },
    {
      "inputs": [],
      "name": "pause",
      "outputs": [],
      "stateMutability": "nonpayable",
      "type": "function"
    },
    {
      "inputs": [],
      "name": "paused",
      "outputs": [
        {
          "internalType": "bool",
          "name": "",
          "type": "bool"
        }
      ],
      "stateMutability": "view",
      "type": "function"
    },
    {
      "inputs": [],
      "name": "priceMultiplier",
      "outputs": [
        {
          "internalType": "uint32",
          "name": "",
          "type": "uint32"
        }
      ],
      "stateMutability": "view",
      "type": "function"
    },
    {
      "inputs": [],
      "name": "renounceOwnership",
      "outputs": [],
      "stateMutability": "nonpayable",
      "type": "function"
    },
    {
      "inputs": [
        {
          "internalType": "string",
          "name": "name",
          "type": "string"
        },
        {
          "internalType": "string",
          "name": "url",
          "type": "string"
        }
      ],
      "name": "rent",
      "outputs": [],
      "stateMutability": "payable",
      "type": "function"
    },
    {
      "inputs": [],
      "name": "rentalPeriod",
      "outputs": [
        {
          "internalType": "uint32",
          "name": "",
          "type": "uint32"
        }
      ],
      "stateMutability": "view",
      "type": "function"
    },
    {
      "inputs": [
        {
          "internalType": "address",
          "name": "from",
          "type": "address"
        },
        {
          "internalType": "address",
          "name": "to",
          "type": "address"
        },
        {
          "internalType": "uint256",
          "name": "tokenId",
          "type": "uint256"
        }
      ],
      "name": "safeTransferFrom",
      "outputs": [],
      "stateMutability": "nonpayable",
      "type": "function"
    },
    {
      "inputs": [
        {
          "internalType": "address",
          "name": "from",
          "type": "address"
        },
        {
          "internalType": "address",
          "name": "to",
          "type": "address"
        },
        {
          "internalType": "uint256",
          "name": "tokenId",
          "type": "uint256"
        },
        {
          "internalType": "bytes",
          "name": "data",
          "type": "bytes"
        }
      ],
      "name": "safeTransferFrom",
      "outputs": [],
      "stateMutability": "nonpayable",
      "type": "function"
    },
    {
      "inputs": [
        {
          "internalType": "address",
          "name": "operator",
          "type": "address"
        },
        {
          "internalType": "bool",
          "name": "approved",
          "type": "bool"
        }
      ],
      "name": "setApprovalForAll",
      "outputs": [],
      "stateMutability": "nonpayable",
      "type": "function"
    },
    {
      "inputs": [
        {
          "internalType": "uint256",
          "name": "_baseRentalPrice",
          "type": "uint256"
        }
      ],
      "name": "setBaseRentalPrice",
      "outputs": [],
      "stateMutability": "nonpayable",
      "type": "function"
    },
    {
      "inputs": [
        {
          "internalType": "uint32",
          "name": "_priceMultiplier",
          "type": "uint32"
        }
      ],
      "name": "setPriceMultiplier",
      "outputs": [],
      "stateMutability": "nonpayable",
      "type": "function"
    },
    {
      "inputs": [
        {
          "internalType": "uint32",
          "name": "_rentalPeriod",
          "type": "uint32"
        }
      ],
      "name": "setRentalPeriod",
      "outputs": [],
      "stateMutability": "nonpayable",
      "type": "function"
    },
    {
      "inputs": [
        {
          "internalType": "bytes4",
          "name": "interfaceId",
          "type": "bytes4"
        }
      ],
      "name": "supportsInterface",
      "outputs": [
        {
          "internalType": "bool",
          "name": "",
          "type": "bool"
        }
      ],
      "stateMutability": "view",
      "type": "function"
    },
    {
      "inputs": [],
      "name": "symbol",
      "outputs": [
        {
          "internalType": "string",
          "name": "",
          "type": "string"
        }
      ],
      "stateMutability": "view",
      "type": "function"
    },
    {
      "inputs": [
        {
          "internalType": "uint256",
          "name": "tokenId",
          "type": "uint256"
        }
      ],
      "name": "tokenURI",
      "outputs": [
        {
          "internalType": "string",
          "name": "",
          "type": "string"
        }
      ],
      "stateMutability": "view",
      "type": "function"
    },
    {
      "inputs": [
        {
          "internalType": "address",
          "name": "from",
          "type": "address"
        },
        {
          "internalType": "address",
          "name": "to",
          "type": "address"
        },
        {
          "internalType": "uint256",
          "name": "tokenId",
          "type": "uint256"
        }
      ],
      "name": "transferFrom",
      "outputs": [],
      "stateMutability": "nonpayable",
      "type": "function"
    },
    {
      "inputs": [
        {
          "internalType": "address",
          "name": "newOwner",
          "type": "address"
        }
      ],
      "name": "transferOwnership",
      "outputs": [],
      "stateMutability": "nonpayable",
      "type": "function"
    },
    {
      "inputs": [],
      "name": "unpause",
      "outputs": [],
      "stateMutability": "nonpayable",
      "type": "function"
    },
    {
      "inputs": [
        {
          "internalType": "string",
          "name": "name",
          "type": "string"
        },
        {
          "internalType": "string",
          "name": "url",
          "type": "string"
        }
      ],
      "name": "updateURL",
      "outputs": [],
      "stateMutability": "payable",
      "type": "function"
    }
  ],
  "transactionHash": "0x1a480d8d6dba666df3569fa1743b4ddbf1d3fde3fb67fd4fab524662dfe9e4e2",
  "args": [
    ".1.country",
    "D1DC",
    "1000000000000000000",
    864,
    2
  ],
  "numDeployments": 1,
  "solcInputHash": "c62af15c475850b97cfe4de1a3926f69",
  "bytecode": "0x60806040523480156200001157600080fd5b5060405162002539380380620025398339810160408190526200003491620001dd565b8484600062000044838262000305565b50600162000053828262000305565b50506006805460ff19169055506200006b33620000a4565b6007929092556008805463ffffffff938416640100000000026001600160401b0319909116939092169290921717905550620003d19050565b600680546001600160a01b03838116610100818102610100600160a81b031985161790945560405193909204169182907f8be0079c531659141344cd1fd0a4f28419497f9722a3daafe3b4186f6b6457e090600090a35050565b634e487b7160e01b600052604160045260246000fd5b600082601f8301126200012657600080fd5b81516001600160401b0380821115620001435762000143620000fe565b604051601f8301601f19908116603f011681019082821181831017156200016e576200016e620000fe565b816040528381526020925086838588010111156200018b57600080fd5b600091505b83821015620001af578582018301518183018401529082019062000190565b600093810190920192909252949350505050565b805163ffffffff81168114620001d857600080fd5b919050565b600080600080600060a08688031215620001f657600080fd5b85516001600160401b03808211156200020e57600080fd5b6200021c89838a0162000114565b965060208801519150808211156200023357600080fd5b50620002428882890162000114565b945050604086015192506200025a60608701620001c3565b91506200026a60808701620001c3565b90509295509295909350565b600181811c908216806200028b57607f821691505b602082108103620002ac57634e487b7160e01b600052602260045260246000fd5b50919050565b601f8211156200030057600081815260208120601f850160051c81016020861015620002db5750805b601f850160051c820191505b81811015620002fc57828155600101620002e7565b5050505b505050565b81516001600160401b03811115620003215762000321620000fe565b620003398162000332845462000276565b84620002b2565b602080601f831160018114620003715760008415620003585750858301515b600019600386901b1c1916600185901b178555620002fc565b600085815260208120601f198616915b82811015620003a25788860151825594840194600190910190840162000381565b5085821015620003c15787850151600019600388901b60f8161c191681555b5050505050600190811b01905550565b61215880620003e16000396000f3fe6080604052600436106101c25760003560e01c8063715018a6116100f7578063a22cb46511610095578063dbafb57011610064578063dbafb570146104e8578063e985e9c514610508578063eb75204214610528578063f2fde38b1461055857600080fd5b8063a22cb46514610463578063b88d4fde14610483578063c87b56dd146104a3578063d50cb88b146104c357600080fd5b80638ab01168116100d15780638ab01168146103d95780638c4b8475146103f95780638da5cb5b1461042b57806395d89b411461044e57600080fd5b8063715018a61461039c578063839e5f78146103b15780638456cb59146103c457600080fd5b806324c1ef171161016457806342842e0e1161013e57806342842e0e146103245780635c975abb146103445780636352211e1461035c57806370a082311461037c57600080fd5b806324c1ef17146102dc57806331d98b3f146102ef5780633f4ba83a1461030f57600080fd5b8063095ea7b3116101a0578063095ea7b3146102565780630f75e5c014610278578063159171dd1461029c57806323b872dd146102bc57600080fd5b806301ffc9a7146101c757806306fdde03146101fc578063081812fc1461021e575b600080fd5b3480156101d357600080fd5b506101e76101e2366004611a41565b610578565b60405190151581526020015b60405180910390f35b34801561020857600080fd5b506102116105ca565b6040516101f39190611aae565b34801561022a57600080fd5b5061023e610239366004611ac1565b61065c565b6040516001600160a01b0390911681526020016101f3565b34801561026257600080fd5b50610276610271366004611af6565b610683565b005b34801561028457600080fd5b5061028e60075481565b6040519081526020016101f3565b3480156102a857600080fd5b506102766102b7366004611b20565b61079d565b3480156102c857600080fd5b506102766102d7366004611b46565b6107c1565b6102766102ea366004611bcb565b6107f2565b3480156102fb57600080fd5b5061028e61030a366004611ac1565b610a58565b34801561031b57600080fd5b50610276610ae2565b34801561033057600080fd5b5061027661033f366004611b46565b610af4565b34801561035057600080fd5b5060065460ff166101e7565b34801561036857600080fd5b5061023e610377366004611ac1565b610b0f565b34801561038857600080fd5b5061028e610397366004611c37565b610b6f565b3480156103a857600080fd5b50610276610bf5565b6102766103bf366004611bcb565b610c07565b3480156103d057600080fd5b50610276610d19565b3480156103e557600080fd5b506102766103f4366004611b20565b610d29565b34801561040557600080fd5b506008546104169063ffffffff1681565b60405163ffffffff90911681526020016101f3565b34801561043757600080fd5b5060065461010090046001600160a01b031661023e565b34801561045a57600080fd5b50610211610d59565b34801561046f57600080fd5b5061027661047e366004611c52565b610d68565b34801561048f57600080fd5b5061027661049e366004611ca4565b610d77565b3480156104af57600080fd5b506102116104be366004611ac1565b610daf565b3480156104cf57600080fd5b5060085461041690640100000000900463ffffffff1681565b3480156104f457600080fd5b50610276610503366004611ac1565b610e22565b34801561051457600080fd5b506101e7610523366004611d80565b610e2f565b34801561053457600080fd5b50610548610543366004611ac1565b610e5d565b6040516101f39493929190611db3565b34801561056457600080fd5b50610276610573366004611c37565b610f20565b60006001600160e01b031982166380ac58cd60e01b14806105a957506001600160e01b03198216635b5e139f60e01b145b806105c457506301ffc9a760e01b6001600160e01b03198316145b92915050565b6060600080546105d990611df0565b80601f016020809104026020016040519081016040528092919081815260200182805461060590611df0565b80156106525780601f1061062757610100808354040283529160200191610652565b820191906000526020600020905b81548152906001019060200180831161063557829003601f168201915b5050505050905090565b600061066782610f99565b506000908152600460205260409020546001600160a01b031690565b600061068e82610b0f565b9050806001600160a01b0316836001600160a01b0316036107005760405162461bcd60e51b815260206004820152602160248201527f4552433732313a20617070726f76616c20746f2063757272656e74206f776e656044820152603960f91b60648201526084015b60405180910390fd5b336001600160a01b038216148061071c575061071c8133610e2f565b61078e5760405162461bcd60e51b815260206004820152603d60248201527f4552433732313a20617070726f76652063616c6c6572206973206e6f7420746f60448201527f6b656e206f776e6572206f7220617070726f76656420666f7220616c6c00000060648201526084016106f7565b6107988383610ff8565b505050565b6107a5611066565b6008805463ffffffff191663ffffffff92909216919091179055565b6107cb33826110c6565b6107e75760405162461bcd60e51b81526004016106f790611e2a565b610798838383611125565b6107fa61129e565b60808311156108415760405162461bcd60e51b8152602060048201526013602482015272443144433a206e616d6520746f6f206c6f6e6760681b60448201526064016106f7565b6104008111156108885760405162461bcd60e51b8152602060048201526012602482015271443144433a2075726c20746f6f206c6f6e6760701b60448201526064016106f7565b6000848460405161089a929190611e77565b604080519182900390912060008181526009602052918220909250906108bf83610a58565b9050348111156109115760405162461bcd60e51b815260206004820152601a60248201527f443144433a20696e73756666696369656e74207061796d656e7400000000000060448201526064016106f7565b81546001830182905563ffffffff4216600160a01b0263ffffffff60a01b1933166001600160c01b03198316171783556001600160a01b03168415610961576002830161095f868883611ed5565b505b6000848152600260205260409020546001600160a01b03161561099e57610999813386604051806020016040528060008152506112e4565b6109a8565b6109a83385611317565b60006109b48334611fab565b90508015610a4d57604051600090339083908381818185875af1925050503d80600081146109fe576040519150601f19603f3d011682016040523d82523d6000602084013e610a03565b606091505b5050905080610a4b5760405162461bcd60e51b815260206004820152601460248201527363616e6e6f7420726566756e642065786365737360601b60448201526064016106f7565b505b505050505050505050565b6000818152600960205260408120600854815463ffffffff42811692610a8a9290821691600160a01b90910416611fbe565b63ffffffff1611610a9f575050600754919050565b80546001600160a01b03163314610ad5576008546001820154610ad091640100000000900463ffffffff1690611fe2565b610adb565b80600101545b9392505050565b610aea611066565b610af2611331565b565b61079883838360405180602001604052806000815250610d77565b6000818152600260205260408120546001600160a01b0316806105c45760405162461bcd60e51b8152602060048201526018602482015277115490cdcc8c4e881a5b9d985b1a59081d1bdad95b88125160421b60448201526064016106f7565b60006001600160a01b038216610bd95760405162461bcd60e51b815260206004820152602960248201527f4552433732313a2061646472657373207a65726f206973206e6f7420612076616044820152683634b21037bbb732b960b91b60648201526084016106f7565b506001600160a01b031660009081526003602052604090205490565b610bfd611066565b610af26000611383565b610c0f61129e565b336001600160a01b0316600960008686604051610c2d929190611e77565b60408051918290039091208252602082019290925201600020546001600160a01b031614610c8f5760405162461bcd60e51b815260206004820152600f60248201526e2218a2219d103737ba1037bbb732b960891b60448201526064016106f7565b610400811115610cd65760405162461bcd60e51b8152602060048201526012602482015271443144433a2075726c20746f6f206c6f6e6760701b60448201526064016106f7565b8181600960008787604051610cec929190611e77565b604051809103902081526020019081526020016000206002019182610d12929190611ed5565b5050505050565b610d21611066565b610af26113dd565b610d31611066565b6008805463ffffffff9092166401000000000267ffffffff0000000019909216919091179055565b6060600180546105d990611df0565b610d7333838361141a565b5050565b610d8133836110c6565b610d9d5760405162461bcd60e51b81526004016106f790611e2a565b610da9848484846112e4565b50505050565b6060610dba82610f99565b6000610dd160408051602081019091526000815290565b90506000815111610df15760405180602001604052806000815250610adb565b80610dfb846114e8565b604051602001610e0c929190611ff9565b6040516020818303038152906040529392505050565b610e2a611066565b600755565b6001600160a01b03918216600090815260056020908152604080832093909416825291909152205460ff1690565b6009602052600090815260409020805460018201546002830180546001600160a01b03841694600160a01b90940463ffffffff16939190610e9d90611df0565b80601f0160208091040260200160405190810160405280929190818152602001828054610ec990611df0565b8015610f165780601f10610eeb57610100808354040283529160200191610f16565b820191906000526020600020905b815481529060010190602001808311610ef957829003601f168201915b5050505050905084565b610f28611066565b6001600160a01b038116610f8d5760405162461bcd60e51b815260206004820152602660248201527f4f776e61626c653a206e6577206f776e657220697320746865207a65726f206160448201526564647265737360d01b60648201526084016106f7565b610f9681611383565b50565b6000818152600260205260409020546001600160a01b0316610f965760405162461bcd60e51b8152602060048201526018602482015277115490cdcc8c4e881a5b9d985b1a59081d1bdad95b88125160421b60448201526064016106f7565b600081815260046020526040902080546001600160a01b0319166001600160a01b038416908117909155819061102d82610b0f565b6001600160a01b03167f8c5be1e5ebec7d5bd14f71427d1e84f3dd0314c0f7b2291e5b200ac8c7c3b92560405160405180910390a45050565b6006546001600160a01b03610100909104163314610af25760405162461bcd60e51b815260206004820181905260248201527f4f776e61626c653a2063616c6c6572206973206e6f7420746865206f776e657260448201526064016106f7565b6000806110d283610b0f565b9050806001600160a01b0316846001600160a01b031614806110f957506110f98185610e2f565b8061111d5750836001600160a01b03166111128461065c565b6001600160a01b0316145b949350505050565b826001600160a01b031661113882610b0f565b6001600160a01b03161461115e5760405162461bcd60e51b81526004016106f790612028565b6001600160a01b0382166111c05760405162461bcd60e51b8152602060048201526024808201527f4552433732313a207472616e7366657220746f20746865207a65726f206164646044820152637265737360e01b60648201526084016106f7565b6111cd838383600161157b565b826001600160a01b03166111e082610b0f565b6001600160a01b0316146112065760405162461bcd60e51b81526004016106f790612028565b600081815260046020908152604080832080546001600160a01b03199081169091556001600160a01b0387811680865260038552838620805460001901905590871680865283862080546001019055868652600290945282852080549092168417909155905184937fddf252ad1be2c89b69c2b068fc378daa952ba7f163c4a11628f55a4df523b3ef91a46107988383836001611603565b60065460ff1615610af25760405162461bcd60e51b815260206004820152601060248201526f14185d5cd8589b194e881c185d5cd95960821b60448201526064016106f7565b6112ef848484611125565b6112fb84848484611633565b610da95760405162461bcd60e51b81526004016106f79061206d565b610d73828260405180602001604052806000815250611734565b611339611767565b6006805460ff191690557f5db9ee0a495bf2e6ff9c91a7834c1ba4fdd244a5e8aa4e537bd38aeae4b073aa335b6040516001600160a01b03909116815260200160405180910390a1565b600680546001600160a01b03838116610100818102610100600160a81b031985161790945560405193909204169182907f8be0079c531659141344cd1fd0a4f28419497f9722a3daafe3b4186f6b6457e090600090a35050565b6113e561129e565b6006805460ff191660011790557f62e78cea01bee320cd4e420270b5ea74000d11b0c9f74754ebdbfc544b05a2586113663390565b816001600160a01b0316836001600160a01b03160361147b5760405162461bcd60e51b815260206004820152601960248201527f4552433732313a20617070726f766520746f2063616c6c65720000000000000060448201526064016106f7565b6001600160a01b03838116600081815260056020908152604080832094871680845294825291829020805460ff191686151590811790915591519182527f17307eab39ab6107e8899845ad3d59bd9653f200f220920489ca2b5937696c31910160405180910390a3505050565b606060006114f5836117b0565b600101905060008167ffffffffffffffff81111561151557611515611c8e565b6040519080825280601f01601f19166020018201604052801561153f576020820181803683370190505b5090508181016020015b600019016f181899199a1a9b1b9c1cb0b131b232b360811b600a86061a8153600a850494508461154957509392505050565b6001811115610da9576001600160a01b038416156115c1576001600160a01b038416600090815260036020526040812080548392906115bb908490611fab565b90915550505b6001600160a01b03831615610da9576001600160a01b038316600090815260036020526040812080548392906115f89084906120bf565b909155505050505050565b50600090815260096020526040902080546001600160a01b0319166001600160a01b039290921691909117905550565b60006001600160a01b0384163b1561172957604051630a85bd0160e11b81526001600160a01b0385169063150b7a02906116779033908990889088906004016120d2565b6020604051808303816000875af19250505080156116b2575060408051601f3d908101601f191682019092526116af91810190612105565b60015b61170f573d8080156116e0576040519150601f19603f3d011682016040523d82523d6000602084013e6116e5565b606091505b5080516000036117075760405162461bcd60e51b81526004016106f79061206d565b805181602001fd5b6001600160e01b031916630a85bd0160e11b14905061111d565b506001949350505050565b61173e8383611888565b61174b6000848484611633565b6107985760405162461bcd60e51b81526004016106f79061206d565b60065460ff16610af25760405162461bcd60e51b815260206004820152601460248201527314185d5cd8589b194e881b9bdd081c185d5cd95960621b60448201526064016106f7565b60008072184f03e93ff9f4daa797ed6e38ed64bf6a1f0160401b83106117ef5772184f03e93ff9f4daa797ed6e38ed64bf6a1f0160401b830492506040015b6d04ee2d6d415b85acef8100000000831061181b576d04ee2d6d415b85acef8100000000830492506020015b662386f26fc10000831061183957662386f26fc10000830492506010015b6305f5e1008310611851576305f5e100830492506008015b612710831061186557612710830492506004015b60648310611877576064830492506002015b600a83106105c45760010192915050565b6001600160a01b0382166118de5760405162461bcd60e51b815260206004820181905260248201527f4552433732313a206d696e7420746f20746865207a65726f206164647265737360448201526064016106f7565b6000818152600260205260409020546001600160a01b0316156119435760405162461bcd60e51b815260206004820152601c60248201527f4552433732313a20746f6b656e20616c7265616479206d696e7465640000000060448201526064016106f7565b61195160008383600161157b565b6000818152600260205260409020546001600160a01b0316156119b65760405162461bcd60e51b815260206004820152601c60248201527f4552433732313a20746f6b656e20616c7265616479206d696e7465640000000060448201526064016106f7565b6001600160a01b038216600081815260036020908152604080832080546001019055848352600290915280822080546001600160a01b0319168417905551839291907fddf252ad1be2c89b69c2b068fc378daa952ba7f163c4a11628f55a4df523b3ef908290a4610d73600083836001611603565b6001600160e01b031981168114610f9657600080fd5b600060208284031215611a5357600080fd5b8135610adb81611a2b565b60005b83811015611a79578181015183820152602001611a61565b50506000910152565b60008151808452611a9a816020860160208601611a5e565b601f01601f19169290920160200192915050565b602081526000610adb6020830184611a82565b600060208284031215611ad357600080fd5b5035919050565b80356001600160a01b0381168114611af157600080fd5b919050565b60008060408385031215611b0957600080fd5b611b1283611ada565b946020939093013593505050565b600060208284031215611b3257600080fd5b813563ffffffff81168114610adb57600080fd5b600080600060608486031215611b5b57600080fd5b611b6484611ada565b9250611b7260208501611ada565b9150604084013590509250925092565b60008083601f840112611b9457600080fd5b50813567ffffffffffffffff811115611bac57600080fd5b602083019150836020828501011115611bc457600080fd5b9250929050565b60008060008060408587031215611be157600080fd5b843567ffffffffffffffff80821115611bf957600080fd5b611c0588838901611b82565b90965094506020870135915080821115611c1e57600080fd5b50611c2b87828801611b82565b95989497509550505050565b600060208284031215611c4957600080fd5b610adb82611ada565b60008060408385031215611c6557600080fd5b611c6e83611ada565b915060208301358015158114611c8357600080fd5b809150509250929050565b634e487b7160e01b600052604160045260246000fd5b60008060008060808587031215611cba57600080fd5b611cc385611ada565b9350611cd160208601611ada565b925060408501359150606085013567ffffffffffffffff80821115611cf557600080fd5b818701915087601f830112611d0957600080fd5b813581811115611d1b57611d1b611c8e565b604051601f8201601f19908116603f01168101908382118183101715611d4357611d43611c8e565b816040528281528a6020848701011115611d5c57600080fd5b82602086016020830137600060208483010152809550505050505092959194509250565b60008060408385031215611d9357600080fd5b611d9c83611ada565b9150611daa60208401611ada565b90509250929050565b60018060a01b038516815263ffffffff84166020820152826040820152608060608201526000611de66080830184611a82565b9695505050505050565b600181811c90821680611e0457607f821691505b602082108103611e2457634e487b7160e01b600052602260045260246000fd5b50919050565b6020808252602d908201527f4552433732313a2063616c6c6572206973206e6f7420746f6b656e206f776e6560408201526c1c881bdc88185c1c1c9bdd9959609a1b606082015260800190565b8183823760009101908152919050565b601f82111561079857600081815260208120601f850160051c81016020861015611eae5750805b601f850160051c820191505b81811015611ecd57828155600101611eba565b505050505050565b67ffffffffffffffff831115611eed57611eed611c8e565b611f0183611efb8354611df0565b83611e87565b6000601f841160018114611f355760008515611f1d5750838201355b600019600387901b1c1916600186901b178355610d12565b600083815260209020601f19861690835b82811015611f665786850135825560209485019460019092019101611f46565b5086821015611f835760001960f88860031b161c19848701351681555b505060018560011b0183555050505050565b634e487b7160e01b600052601160045260246000fd5b818103818111156105c4576105c4611f95565b63ffffffff818116838216019080821115611fdb57611fdb611f95565b5092915050565b80820281158282048414176105c4576105c4611f95565b6000835161200b818460208801611a5e565b83519083019061201f818360208801611a5e565b01949350505050565b60208082526025908201527f4552433732313a207472616e736665722066726f6d20696e636f72726563742060408201526437bbb732b960d91b606082015260800190565b60208082526032908201527f4552433732313a207472616e7366657220746f206e6f6e20455243373231526560408201527131b2b4bb32b91034b6b83632b6b2b73a32b960711b606082015260800190565b808201808211156105c4576105c4611f95565b6001600160a01b0385811682528416602082015260408101839052608060608201819052600090611de690830184611a82565b60006020828403121561211757600080fd5b8151610adb81611a2b56fea26469706673582212200c451202a96de9e286c443c10aaade804f4ce90e6c4c8c55200dfd3022b37f9364736f6c63430008110033",
  "devdoc": {
    "author": "John Whitton (github.com/johnwhitton), reviewed and revised by Aaron Li (github.com/polymorpher)",
    "kind": "dev",
    "methods": {
      "approve(address,uint256)": {
        "details": "See {IERC721-approve}."
      },
      "balanceOf(address)": {
        "details": "See {IERC721-balanceOf}."
      },
      "getApproved(uint256)": {
        "details": "See {IERC721-getApproved}."
      },
      "isApprovedForAll(address,address)": {
        "details": "See {IERC721-isApprovedForAll}."
      },
      "name()": {
        "details": "See {IERC721Metadata-name}."
      },
      "owner()": {
        "details": "Returns the address of the current owner."
      },
      "ownerOf(uint256)": {
        "details": "See {IERC721-ownerOf}."
      },
      "paused()": {
        "details": "Returns true if the contract is paused, and false otherwise."
      },
      "renounceOwnership()": {
        "details": "Leaves the contract without owner. It will not be possible to call `onlyOwner` functions anymore. Can only be called by the current owner. NOTE: Renouncing ownership will leave the contract without an owner, thereby removing any functionality that is only available to the owner."
      },
      "safeTransferFrom(address,address,uint256)": {
        "details": "See {IERC721-safeTransferFrom}."
      },
      "safeTransferFrom(address,address,uint256,bytes)": {
        "details": "See {IERC721-safeTransferFrom}."
      },
      "setApprovalForAll(address,bool)": {
        "details": "See {IERC721-setApprovalForAll}."
      },
      "supportsInterface(bytes4)": {
        "details": "See {IERC165-supportsInterface}."
      },
      "symbol()": {
        "details": "See {IERC721Metadata-symbol}."
      },
      "tokenURI(uint256)": {
        "details": "See {IERC721Metadata-tokenURI}."
      },
      "transferFrom(address,address,uint256)": {
        "details": "See {IERC721-transferFrom}."
      },
      "transferOwnership(address)": {
        "details": "Transfers ownership of the contract to a new account (`newOwner`). Can only be called by the current owner."
      }
    },
    "title": "A subdomain manager contract for .1.country (D1DC - Dot 1 Dot Country)",
    "version": 1
  },
  "userdoc": {
    "kind": "user",
    "methods": {},
    "notice": "This contract allows the rental of domains under .1.country (D1DC) like The Million Dollar Homepage: Anyone can take over a domain name by  browsing to a web2 address like foo.1.country and doubling its last price. Currently, a payer owns the domain only for `rentalPeriod`, and is allowed to embed a tweet for the web page. D1DC creates ERC721 tokens for each domain registration.",
    "version": 1
  },
  "storageLayout": {
    "storage": [
      {
        "astId": 246,
        "contract": "contracts/D1DC.sol:D1DC",
        "label": "_name",
        "offset": 0,
        "slot": "0",
        "type": "t_string_storage"
      },
      {
        "astId": 248,
        "contract": "contracts/D1DC.sol:D1DC",
        "label": "_symbol",
        "offset": 0,
        "slot": "1",
        "type": "t_string_storage"
      },
      {
        "astId": 252,
        "contract": "contracts/D1DC.sol:D1DC",
        "label": "_owners",
        "offset": 0,
        "slot": "2",
        "type": "t_mapping(t_uint256,t_address)"
      },
      {
        "astId": 256,
        "contract": "contracts/D1DC.sol:D1DC",
        "label": "_balances",
        "offset": 0,
        "slot": "3",
        "type": "t_mapping(t_address,t_uint256)"
      },
      {
        "astId": 260,
        "contract": "contracts/D1DC.sol:D1DC",
        "label": "_tokenApprovals",
        "offset": 0,
        "slot": "4",
        "type": "t_mapping(t_uint256,t_address)"
      },
      {
        "astId": 266,
        "contract": "contracts/D1DC.sol:D1DC",
        "label": "_operatorApprovals",
        "offset": 0,
        "slot": "5",
        "type": "t_mapping(t_address,t_mapping(t_address,t_bool))"
      },
      {
        "astId": 130,
        "contract": "contracts/D1DC.sol:D1DC",
        "label": "_paused",
        "offset": 0,
        "slot": "6",
        "type": "t_bool"
      },
      {
        "astId": 7,
        "contract": "contracts/D1DC.sol:D1DC",
        "label": "_owner",
        "offset": 1,
        "slot": "6",
        "type": "t_address"
      },
      {
        "astId": 2768,
        "contract": "contracts/D1DC.sol:D1DC",
        "label": "baseRentalPrice",
        "offset": 0,
        "slot": "7",
        "type": "t_uint256"
      },
      {
        "astId": 2770,
        "contract": "contracts/D1DC.sol:D1DC",
        "label": "rentalPeriod",
        "offset": 0,
        "slot": "8",
        "type": "t_uint32"
      },
      {
        "astId": 2772,
        "contract": "contracts/D1DC.sol:D1DC",
        "label": "priceMultiplier",
        "offset": 4,
        "slot": "8",
        "type": "t_uint32"
      },
      {
        "astId": 2786,
        "contract": "contracts/D1DC.sol:D1DC",
        "label": "nameRecords",
        "offset": 0,
        "slot": "9",
        "type": "t_mapping(t_bytes32,t_struct(NameRecord)2781_storage)"
      }
    ],
    "types": {
      "t_address": {
        "encoding": "inplace",
        "label": "address",
        "numberOfBytes": "20"
      },
      "t_bool": {
        "encoding": "inplace",
        "label": "bool",
        "numberOfBytes": "1"
      },
      "t_bytes32": {
        "encoding": "inplace",
        "label": "bytes32",
        "numberOfBytes": "32"
      },
      "t_mapping(t_address,t_bool)": {
        "encoding": "mapping",
        "key": "t_address",
        "label": "mapping(address => bool)",
        "numberOfBytes": "32",
        "value": "t_bool"
      },
      "t_mapping(t_address,t_mapping(t_address,t_bool))": {
        "encoding": "mapping",
        "key": "t_address",
        "label": "mapping(address => mapping(address => bool))",
        "numberOfBytes": "32",
        "value": "t_mapping(t_address,t_bool)"
      },
      "t_mapping(t_address,t_uint256)": {
        "encoding": "mapping",
        "key": "t_address",
        "label": "mapping(address => uint256)",
        "numberOfBytes": "32",
        "value": "t_uint256"
      },
      "t_mapping(t_bytes32,t_struct(NameRecord)2781_storage)": {
        "encoding": "mapping",
        "key": "t_bytes32",
        "label": "mapping(bytes32 => struct D1DC.NameRecord)",
        "numberOfBytes": "32",
        "value": "t_struct(NameRecord)2781_storage"
      },
      "t_mapping(t_uint256,t_address)": {
        "encoding": "mapping",
        "key": "t_uint256",
        "label": "mapping(uint256 => address)",
        "numberOfBytes": "32",
        "value": "t_address"
      },
      "t_string_storage": {
        "encoding": "bytes",
        "label": "string",
        "numberOfBytes": "32"
      },
      "t_struct(NameRecord)2781_storage": {
        "encoding": "inplace",
        "label": "struct D1DC.NameRecord",
        "members": [
          {
            "astId": 2774,
            "contract": "contracts/D1DC.sol:D1DC",
            "label": "renter",
            "offset": 0,
            "slot": "0",
            "type": "t_address"
          },
          {
            "astId": 2776,
            "contract": "contracts/D1DC.sol:D1DC",
            "label": "timeUpdated",
            "offset": 20,
            "slot": "0",
            "type": "t_uint32"
          },
          {
            "astId": 2778,
            "contract": "contracts/D1DC.sol:D1DC",
            "label": "lastPrice",
            "offset": 0,
            "slot": "1",
            "type": "t_uint256"
          },
          {
            "astId": 2780,
            "contract": "contracts/D1DC.sol:D1DC",
            "label": "url",
            "offset": 0,
            "slot": "2",
            "type": "t_string_storage"
          }
        ],
        "numberOfBytes": "96"
      },
      "t_uint256": {
        "encoding": "inplace",
        "label": "uint256",
        "numberOfBytes": "32"
      },
      "t_uint32": {
        "encoding": "inplace",
        "label": "uint32",
        "numberOfBytes": "4"
      }
    }
  }
}