{
  "address": "0x27670dB3faf681f3241bB646b5e200C1E42d721A",
  "abi": [
    {
      "anonymous": false,
      "inputs": [
        {
          "indexed": true,
          "internalType": "address",
          "name": "oldAddressRegistry",
          "type": "address"
        },
        {
          "indexed": true,
          "internalType": "address",
          "name": "newAddressRegistry",
          "type": "address"
        }
      ],
      "name": "AddressRegistryUpdated",
      "type": "event"
    },
    {
      "anonymous": false,
      "inputs": [
        {
          "indexed": true,
          "internalType": "address",
          "name": "owner",
          "type": "address"
        },
        {
          "indexed": true,
          "internalType": "address",
          "name": "approved",
          "type": "address"
        },
        {
          "indexed": true,
          "internalType": "uint256",
          "name": "tokenId",
          "type": "uint256"
        }
      ],
      "name": "Approval",
      "type": "event"
    },
    {
      "anonymous": false,
      "inputs": [
        {
          "indexed": true,
          "internalType": "address",
          "name": "owner",
          "type": "address"
        },
        {
          "indexed": true,
          "internalType": "address",
          "name": "operator",
          "type": "address"
        },
        {
          "indexed": false,
          "internalType": "bool",
          "name": "approved",
          "type": "bool"
        }
      ],
      "name": "ApprovalForAll",
      "type": "event"
    },
    {
      "anonymous": false,
      "inputs": [
        {
          "indexed": true,
          "internalType": "address",
          "name": "by",
          "type": "address"
        },
        {
          "indexed": true,
          "internalType": "string",
          "name": "name",
          "type": "string"
        },
        {
          "indexed": true,
          "internalType": "enum D1DCV2.EmojiType",
          "name": "emoji",
          "type": "uint8"
        }
      ],
      "name": "EmojiReactionAdded",
      "type": "event"
    },
    {
      "anonymous": false,
      "inputs": [
        {
          "indexed": false,
          "internalType": "uint8",
          "name": "version",
          "type": "uint8"
        }
      ],
      "name": "Initialized",
      "type": "event"
    },
    {
      "anonymous": false,
      "inputs": [
        {
          "indexed": true,
          "internalType": "string",
          "name": "name",
          "type": "string"
        },
        {
          "indexed": true,
          "internalType": "address",
          "name": "renter",
          "type": "address"
        },
        {
          "indexed": false,
          "internalType": "uint256",
          "name": "price",
          "type": "uint256"
        },
        {
          "indexed": false,
          "internalType": "string",
          "name": "url",
          "type": "string"
        }
      ],
      "name": "NameRented",
      "type": "event"
    },
    {
      "anonymous": false,
      "inputs": [
        {
          "indexed": true,
          "internalType": "address",
          "name": "previousOwner",
          "type": "address"
        },
        {
          "indexed": true,
          "internalType": "address",
          "name": "newOwner",
          "type": "address"
        }
      ],
      "name": "OwnershipTransferred",
      "type": "event"
    },
    {
      "anonymous": false,
      "inputs": [
        {
          "indexed": false,
          "internalType": "address",
          "name": "account",
          "type": "address"
        }
      ],
      "name": "Paused",
      "type": "event"
    },
    {
      "anonymous": false,
      "inputs": [
        {
          "indexed": false,
          "internalType": "address",
          "name": "from",
          "type": "address"
        },
        {
          "indexed": false,
          "internalType": "address",
          "name": "to",
          "type": "address"
        }
      ],
      "name": "RevenueAccountChanged",
      "type": "event"
    },
    {
      "anonymous": false,
      "inputs": [
        {
          "indexed": true,
          "internalType": "address",
          "name": "from",
          "type": "address"
        },
        {
          "indexed": true,
          "internalType": "address",
          "name": "to",
          "type": "address"
        },
        {
          "indexed": true,
          "internalType": "uint256",
          "name": "tokenId",
          "type": "uint256"
        }
      ],
      "name": "Transfer",
      "type": "event"
    },
    {
      "anonymous": false,
      "inputs": [
        {
          "indexed": true,
          "internalType": "string",
          "name": "name",
          "type": "string"
        },
        {
          "indexed": true,
          "internalType": "address",
          "name": "renter",
          "type": "address"
        },
        {
          "indexed": false,
          "internalType": "string",
          "name": "oldUrl",
          "type": "string"
        },
        {
          "indexed": false,
          "internalType": "string",
          "name": "newUrl",
          "type": "string"
        }
      ],
      "name": "URLUpdated",
      "type": "event"
    },
    {
      "anonymous": false,
      "inputs": [
        {
          "indexed": false,
          "internalType": "address",
          "name": "account",
          "type": "address"
        }
      ],
      "name": "Unpaused",
      "type": "event"
    },
    {
      "inputs": [
        {
          "internalType": "string",
          "name": "name",
          "type": "string"
        },
        {
          "internalType": "enum D1DCV2.EmojiType",
          "name": "emojiType",
          "type": "uint8"
        }
      ],
      "name": "addEmojiReaction",
      "outputs": [],
      "stateMutability": "payable",
      "type": "function"
    },
    {
      "inputs": [
        {
          "internalType": "string",
          "name": "name",
          "type": "string"
        },
        {
          "internalType": "string",
          "name": "telegram",
          "type": "string"
        },
        {
          "internalType": "string",
          "name": "email",
          "type": "string"
        },
        {
          "internalType": "string",
          "name": "phone",
          "type": "string"
        }
      ],
      "name": "addOwnerInfo",
      "outputs": [],
      "stateMutability": "payable",
      "type": "function"
    },
    {
      "inputs": [],
      "name": "addressRegistry",
      "outputs": [
        {
          "internalType": "contract IAddressRegistry",
          "name": "",
          "type": "address"
        }
      ],
      "stateMutability": "view",
      "type": "function"
    },
    {
      "inputs": [
        {
          "internalType": "address",
          "name": "to",
          "type": "address"
        },
        {
          "internalType": "uint256",
          "name": "tokenId",
          "type": "uint256"
        }
      ],
      "name": "approve",
      "outputs": [],
      "stateMutability": "nonpayable",
      "type": "function"
    },
    {
      "inputs": [
        {
          "internalType": "address",
          "name": "owner",
          "type": "address"
        }
      ],
      "name": "balanceOf",
      "outputs": [
        {
          "internalType": "uint256",
          "name": "",
          "type": "uint256"
        }
      ],
      "stateMutability": "view",
      "type": "function"
    },
    {
      "inputs": [],
      "name": "baseRentalPrice",
      "outputs": [
        {
          "internalType": "uint256",
          "name": "",
          "type": "uint256"
        }
      ],
      "stateMutability": "view",
      "type": "function"
    },
    {
      "inputs": [],
      "name": "emailRevealPrice",
      "outputs": [
        {
          "internalType": "uint256",
          "name": "",
          "type": "uint256"
        }
      ],
      "stateMutability": "view",
      "type": "function"
    },
    {
      "inputs": [
        {
          "internalType": "bytes32",
          "name": "",
          "type": "bytes32"
        },
        {
          "internalType": "enum D1DCV2.EmojiType",
          "name": "",
          "type": "uint8"
        }
      ],
      "name": "emojiReactionCounters",
      "outputs": [
        {
          "internalType": "uint256",
          "name": "",
          "type": "uint256"
        }
      ],
      "stateMutability": "view",
      "type": "function"
    },
    {
      "inputs": [
        {
          "internalType": "enum D1DCV2.EmojiType",
          "name": "",
          "type": "uint8"
        }
      ],
      "name": "emojiReactionPrices",
      "outputs": [
        {
          "internalType": "uint256",
          "name": "",
          "type": "uint256"
        }
      ],
      "stateMutability": "view",
      "type": "function"
    },
    {
      "inputs": [],
      "name": "finishNameInitialization",
      "outputs": [],
      "stateMutability": "nonpayable",
      "type": "function"
    },
    {
      "inputs": [
        {
          "internalType": "uint256",
          "name": "tokenId",
          "type": "uint256"
        }
      ],
      "name": "getApproved",
      "outputs": [
        {
          "internalType": "address",
          "name": "",
          "type": "address"
        }
      ],
      "stateMutability": "view",
      "type": "function"
    },
    {
      "inputs": [
        {
          "internalType": "string",
          "name": "name",
          "type": "string"
        }
      ],
      "name": "getOwnerEmail",
      "outputs": [
        {
          "internalType": "string",
          "name": "",
          "type": "string"
        }
      ],
      "stateMutability": "view",
      "type": "function"
    },
    {
      "inputs": [
        {
          "internalType": "string",
          "name": "name",
          "type": "string"
        }
      ],
      "name": "getOwnerPhone",
      "outputs": [
        {
          "internalType": "string",
          "name": "",
          "type": "string"
        }
      ],
      "stateMutability": "view",
      "type": "function"
    },
    {
      "inputs": [
        {
          "internalType": "string",
          "name": "name",
          "type": "string"
        }
      ],
      "name": "getOwnerTelegram",
      "outputs": [
        {
          "internalType": "string",
          "name": "",
          "type": "string"
        }
      ],
      "stateMutability": "view",
      "type": "function"
    },
    {
      "inputs": [
        {
          "internalType": "bytes32",
          "name": "encodedName",
          "type": "bytes32"
        }
      ],
      "name": "getPrice",
      "outputs": [
        {
          "internalType": "uint256",
          "name": "",
          "type": "uint256"
        }
      ],
      "stateMutability": "view",
      "type": "function"
    },
    {
      "inputs": [
        {
          "internalType": "uint256",
          "name": "start",
          "type": "uint256"
        },
        {
          "internalType": "uint256",
          "name": "end",
          "type": "uint256"
        }
      ],
      "name": "getRecordKeys",
      "outputs": [
        {
          "internalType": "bytes32[]",
          "name": "",
          "type": "bytes32[]"
        }
      ],
      "stateMutability": "view",
      "type": "function"
    },
    {
      "inputs": [
        {
          "internalType": "address",
          "name": "_addressRegistry",
          "type": "address"
        },
        {
          "internalType": "string",
          "name": "_name",
          "type": "string"
        },
        {
          "internalType": "string",
          "name": "_symbol",
          "type": "string"
        },
        {
          "internalType": "uint256",
          "name": "_baseRentalPrice",
          "type": "uint256"
        },
        {
          "internalType": "uint32",
          "name": "_rentalPeriod",
          "type": "uint32"
        },
        {
          "internalType": "uint32",
          "name": "_priceMultiplier",
          "type": "uint32"
        },
        {
          "internalType": "address",
          "name": "_revenueAccount",
          "type": "address"
        },
        {
          "internalType": "uint256",
          "name": "_telegramRevealPrice",
          "type": "uint256"
        },
        {
          "internalType": "uint256",
          "name": "_emailRevealPrice",
          "type": "uint256"
        },
        {
          "internalType": "uint256",
          "name": "_phoneRevealPrice",
          "type": "uint256"
        }
      ],
      "name": "initialize",
      "outputs": [],
      "stateMutability": "nonpayable",
      "type": "function"
    },
    {
      "inputs": [
        {
          "internalType": "string[]",
          "name": "_names",
          "type": "string[]"
        },
        {
          "components": [
            {
              "internalType": "address",
              "name": "renter",
              "type": "address"
            },
            {
              "internalType": "uint32",
              "name": "timeUpdated",
              "type": "uint32"
            },
            {
              "internalType": "uint256",
              "name": "lastPrice",
              "type": "uint256"
            },
            {
              "internalType": "string",
              "name": "url",
              "type": "string"
            },
            {
              "internalType": "string",
              "name": "prev",
              "type": "string"
            },
            {
              "internalType": "string",
              "name": "next",
              "type": "string"
            }
          ],
          "internalType": "struct D1DCV2.NameRecord[]",
          "name": "_records",
          "type": "tuple[]"
        }
      ],
      "name": "initializeNames",
      "outputs": [],
      "stateMutability": "nonpayable",
      "type": "function"
    },
    {
      "inputs": [
        {
          "internalType": "address",
          "name": "owner",
          "type": "address"
        },
        {
          "internalType": "address",
          "name": "operator",
          "type": "address"
        }
      ],
      "name": "isApprovedForAll",
      "outputs": [
        {
          "internalType": "bool",
          "name": "",
          "type": "bool"
        }
      ],
      "stateMutability": "view",
      "type": "function"
    },
    {
      "inputs": [
        {
          "internalType": "uint256",
          "name": "",
          "type": "uint256"
        }
      ],
      "name": "keys",
      "outputs": [
        {
          "internalType": "bytes32",
          "name": "",
          "type": "bytes32"
        }
      ],
      "stateMutability": "view",
      "type": "function"
    },
    {
      "inputs": [],
      "name": "lastCreated",
      "outputs": [
        {
          "internalType": "string",
          "name": "",
          "type": "string"
        }
      ],
      "stateMutability": "view",
      "type": "function"
    },
    {
      "inputs": [],
      "name": "lastRented",
      "outputs": [
        {
          "internalType": "string",
          "name": "",
          "type": "string"
        }
      ],
      "stateMutability": "view",
      "type": "function"
    },
    {
      "inputs": [],
      "name": "name",
      "outputs": [
        {
          "internalType": "string",
          "name": "",
          "type": "string"
        }
      ],
      "stateMutability": "view",
      "type": "function"
    },
    {
      "inputs": [],
      "name": "nameInitialized",
      "outputs": [
        {
          "internalType": "bool",
          "name": "",
          "type": "bool"
        }
      ],
      "stateMutability": "view",
      "type": "function"
    },
    {
      "inputs": [
        {
          "internalType": "bytes32",
          "name": "",
          "type": "bytes32"
        }
      ],
      "name": "nameRecords",
      "outputs": [
        {
          "internalType": "address",
          "name": "renter",
          "type": "address"
        },
        {
          "internalType": "uint32",
          "name": "timeUpdated",
          "type": "uint32"
        },
        {
          "internalType": "uint256",
          "name": "lastPrice",
          "type": "uint256"
        },
        {
          "internalType": "string",
          "name": "url",
          "type": "string"
        },
        {
          "internalType": "string",
          "name": "prev",
          "type": "string"
        },
        {
          "internalType": "string",
          "name": "next",
          "type": "string"
        }
      ],
      "stateMutability": "view",
      "type": "function"
    },
    {
      "inputs": [],
      "name": "numRecords",
      "outputs": [
        {
          "internalType": "uint256",
          "name": "",
          "type": "uint256"
        }
      ],
      "stateMutability": "view",
      "type": "function"
    },
    {
      "inputs": [],
      "name": "owner",
      "outputs": [
        {
          "internalType": "address",
          "name": "",
          "type": "address"
        }
      ],
      "stateMutability": "view",
      "type": "function"
    },
    {
      "inputs": [
        {
          "internalType": "uint256",
          "name": "tokenId",
          "type": "uint256"
        }
      ],
      "name": "ownerOf",
      "outputs": [
        {
          "internalType": "address",
          "name": "",
          "type": "address"
        }
      ],
      "stateMutability": "view",
      "type": "function"
    },
    {
      "inputs": [
        {
          "internalType": "bytes32",
          "name": "",
          "type": "bytes32"
        },
        {
          "internalType": "uint256",
          "name": "",
          "type": "uint256"
        }
      ],
      "name": "ownersOfName",
      "outputs": [
        {
          "internalType": "address",
          "name": "",
          "type": "address"
        }
      ],
      "stateMutability": "view",
      "type": "function"
    },
    {
      "inputs": [],
      "name": "pause",
      "outputs": [],
      "stateMutability": "nonpayable",
      "type": "function"
    },
    {
      "inputs": [],
      "name": "paused",
      "outputs": [
        {
          "internalType": "bool",
          "name": "",
          "type": "bool"
        }
      ],
      "stateMutability": "view",
      "type": "function"
    },
    {
      "inputs": [],
      "name": "phoneRevealPrice",
      "outputs": [
        {
          "internalType": "uint256",
          "name": "",
          "type": "uint256"
        }
      ],
      "stateMutability": "view",
      "type": "function"
    },
    {
      "inputs": [],
      "name": "priceMultiplier",
      "outputs": [
        {
          "internalType": "uint32",
          "name": "",
          "type": "uint32"
        }
      ],
      "stateMutability": "view",
      "type": "function"
    },
    {
      "inputs": [],
      "name": "renounceOwnership",
      "outputs": [],
      "stateMutability": "nonpayable",
      "type": "function"
    },
    {
      "inputs": [
        {
          "internalType": "string",
          "name": "name",
          "type": "string"
        },
        {
          "internalType": "string",
          "name": "url",
          "type": "string"
        },
        {
          "internalType": "string",
          "name": "telegram",
          "type": "string"
        },
        {
          "internalType": "string",
          "name": "email",
          "type": "string"
        },
        {
          "internalType": "string",
          "name": "phone",
          "type": "string"
        }
      ],
      "name": "rent",
      "outputs": [],
      "stateMutability": "payable",
      "type": "function"
    },
    {
      "inputs": [],
      "name": "rentalPeriod",
      "outputs": [
        {
          "internalType": "uint32",
          "name": "",
          "type": "uint32"
        }
      ],
      "stateMutability": "view",
      "type": "function"
    },
    {
      "inputs": [
        {
          "internalType": "string",
          "name": "name",
          "type": "string"
        }
      ],
      "name": "requestEmailReveal",
      "outputs": [],
      "stateMutability": "payable",
      "type": "function"
    },
    {
      "inputs": [
        {
          "internalType": "string",
          "name": "name",
          "type": "string"
        }
      ],
      "name": "requestPhoneReveal",
      "outputs": [],
      "stateMutability": "payable",
      "type": "function"
    },
    {
      "inputs": [
        {
          "internalType": "string",
          "name": "name",
          "type": "string"
        }
      ],
      "name": "requestTelegramReveal",
      "outputs": [],
      "stateMutability": "payable",
      "type": "function"
    },
    {
      "inputs": [],
      "name": "revenueAccount",
      "outputs": [
        {
          "internalType": "address",
          "name": "",
          "type": "address"
        }
      ],
      "stateMutability": "view",
      "type": "function"
    },
    {
      "inputs": [
        {
          "internalType": "address",
          "name": "from",
          "type": "address"
        },
        {
          "internalType": "address",
          "name": "to",
          "type": "address"
        },
        {
          "internalType": "uint256",
          "name": "tokenId",
          "type": "uint256"
        }
      ],
      "name": "safeTransferFrom",
      "outputs": [],
      "stateMutability": "nonpayable",
      "type": "function"
    },
    {
      "inputs": [
        {
          "internalType": "address",
          "name": "from",
          "type": "address"
        },
        {
          "internalType": "address",
          "name": "to",
          "type": "address"
        },
        {
          "internalType": "uint256",
          "name": "tokenId",
          "type": "uint256"
        },
        {
          "internalType": "bytes",
          "name": "data",
          "type": "bytes"
        }
      ],
      "name": "safeTransferFrom",
      "outputs": [],
      "stateMutability": "nonpayable",
      "type": "function"
    },
    {
      "inputs": [
        {
          "internalType": "address",
          "name": "operator",
          "type": "address"
        },
        {
          "internalType": "bool",
          "name": "approved",
          "type": "bool"
        }
      ],
      "name": "setApprovalForAll",
      "outputs": [],
      "stateMutability": "nonpayable",
      "type": "function"
    },
    {
      "inputs": [
        {
          "internalType": "uint256",
          "name": "_baseRentalPrice",
          "type": "uint256"
        }
      ],
      "name": "setBaseRentalPrice",
      "outputs": [],
      "stateMutability": "nonpayable",
      "type": "function"
    },
    {
      "inputs": [
        {
          "internalType": "uint256",
          "name": "_emailRevealPrice",
          "type": "uint256"
        }
      ],
      "name": "setEmailPrice",
      "outputs": [],
      "stateMutability": "nonpayable",
      "type": "function"
    },
    {
      "inputs": [
        {
          "internalType": "enum D1DCV2.EmojiType",
          "name": "_emojiType",
          "type": "uint8"
        },
        {
          "internalType": "uint256",
          "name": "_emojiPrice",
          "type": "uint256"
        }
      ],
      "name": "setEmojiPrice",
      "outputs": [],
      "stateMutability": "nonpayable",
      "type": "function"
    },
    {
      "inputs": [
        {
          "internalType": "uint256",
          "name": "_phoneRevealPrice",
          "type": "uint256"
        }
      ],
      "name": "setPhonePrice",
      "outputs": [],
      "stateMutability": "nonpayable",
      "type": "function"
    },
    {
      "inputs": [
        {
          "internalType": "uint32",
          "name": "_priceMultiplier",
          "type": "uint32"
        }
      ],
      "name": "setPriceMultiplier",
      "outputs": [],
      "stateMutability": "nonpayable",
      "type": "function"
    },
    {
      "inputs": [
        {
          "internalType": "uint32",
          "name": "_rentalPeriod",
          "type": "uint32"
        }
      ],
      "name": "setRentalPeriod",
      "outputs": [],
      "stateMutability": "nonpayable",
      "type": "function"
    },
    {
      "inputs": [
        {
          "internalType": "address",
          "name": "_revenueAccount",
          "type": "address"
        }
      ],
      "name": "setRevenueAccount",
      "outputs": [],
      "stateMutability": "nonpayable",
      "type": "function"
    },
    {
      "inputs": [
        {
          "internalType": "uint256",
          "name": "_telegramRevealPrice",
          "type": "uint256"
        }
      ],
      "name": "setTelegramPrice",
      "outputs": [],
      "stateMutability": "nonpayable",
      "type": "function"
    },
    {
      "inputs": [
        {
          "internalType": "bytes4",
          "name": "interfaceId",
          "type": "bytes4"
        }
      ],
      "name": "supportsInterface",
      "outputs": [
        {
          "internalType": "bool",
          "name": "",
          "type": "bool"
        }
      ],
      "stateMutability": "view",
      "type": "function"
    },
    {
      "inputs": [],
      "name": "symbol",
      "outputs": [
        {
          "internalType": "string",
          "name": "",
          "type": "string"
        }
      ],
      "stateMutability": "view",
      "type": "function"
    },
    {
      "inputs": [],
      "name": "telegramRevealPrice",
      "outputs": [
        {
          "internalType": "uint256",
          "name": "",
          "type": "uint256"
        }
      ],
      "stateMutability": "view",
      "type": "function"
    },
    {
      "inputs": [
        {
          "internalType": "uint256",
          "name": "tokenId",
          "type": "uint256"
        }
      ],
      "name": "tokenURI",
      "outputs": [
        {
          "internalType": "string",
          "name": "",
          "type": "string"
        }
      ],
      "stateMutability": "view",
      "type": "function"
    },
    {
      "inputs": [
        {
          "internalType": "address",
          "name": "from",
          "type": "address"
        },
        {
          "internalType": "address",
          "name": "to",
          "type": "address"
        },
        {
          "internalType": "uint256",
          "name": "tokenId",
          "type": "uint256"
        }
      ],
      "name": "transferFrom",
      "outputs": [],
      "stateMutability": "nonpayable",
      "type": "function"
    },
    {
      "inputs": [
        {
          "internalType": "address",
          "name": "newOwner",
          "type": "address"
        }
      ],
      "name": "transferOwnership",
      "outputs": [],
      "stateMutability": "nonpayable",
      "type": "function"
    },
    {
      "inputs": [],
      "name": "unpause",
      "outputs": [],
      "stateMutability": "nonpayable",
      "type": "function"
    },
    {
      "inputs": [
        {
          "internalType": "address",
          "name": "_addressRegistry",
          "type": "address"
        }
      ],
      "name": "updateAddressRegistry",
      "outputs": [],
      "stateMutability": "nonpayable",
      "type": "function"
    },
    {
      "inputs": [
        {
          "internalType": "string",
          "name": "name",
          "type": "string"
        },
        {
          "internalType": "string",
          "name": "url",
          "type": "string"
        }
      ],
      "name": "updateURL",
      "outputs": [],
      "stateMutability": "payable",
      "type": "function"
    },
    {
      "inputs": [],
      "name": "urlUpdatePrice",
      "outputs": [
        {
          "internalType": "uint256",
          "name": "",
          "type": "uint256"
        }
      ],
      "stateMutability": "view",
      "type": "function"
    },
    {
      "inputs": [],
      "name": "withdraw",
      "outputs": [],
      "stateMutability": "nonpayable",
      "type": "function"
    }
  ],
  "transactionHash": "0x95d6e40599f1510d02a14ef1b8eea6b8dd9f86ef5696f9482243d32068c3a3b7",
  "args": [],
  "numDeployments": 3,
  "solcInputHash": "79183c8105ea1bb07ec9c5774211be4e",
  "bytecode": "0x608060405234801561001057600080fd5b50614f4a806100206000396000f3fe6080604052600436106103ad5760003560e01c80637528b89c116101e7578063b88d4fde1161010d578063e8bdcc09116100a0578063f3ad65f41161006f578063f3ad65f414610ada578063f5dc7d5614610afb578063f623b7af14610b23578063fcb11ff614610b3657600080fd5b8063e8bdcc0914610a1f578063e985e9c514610a3f578063eb75204214610a88578063f2fde38b14610aba57600080fd5b8063d22da075116100dc578063d22da075146109a2578063d3a3270c146109b9578063d50cb88b146109d9578063dbafb570146109ff57600080fd5b8063b88d4fde14610914578063c218c59114610934578063c22a310114610954578063c87b56dd1461098257600080fd5b80638c4b847511610185578063a22cb46511610154578063a22cb465146108a9578063afff5a64146108c9578063b5d1990d146108de578063b7b9d696146108f457600080fd5b80638c4b8475146108305780638da5cb5b1461086357806395d89b4114610881578063a1a0c1bc1461089657600080fd5b80638456cb59116101c15780638456cb59146107c45780638789fcc1146107d95780638a5cab27146107f05780638ab011681461081057600080fd5b80637528b89c146107695780637e1afcb514610784578063839e5f78146107b157600080fd5b80633f4ba83a116102d75780636352211e1161026a5780636c863bc2116102395780636c863bc21461070157806370a0823114610721578063715018a61461074157806374edae171461075657600080fd5b80636352211e14610668578063649cde291461068857806368b2210d146106c157806368e79e89146106e157600080fd5b80635b8e99dc116102a65780635b8e99dc146106065780635c1cac4f146106195780635c975abb1461063957806361921a2a1461065157600080fd5b80633f4ba83a1461059c57806342842e0e146105b157806348ff2e7c146105d15780634e84bd4a146105f157600080fd5b80630f77bcfb1161034f5780632745edba1161031e5780632745edba1461053457806330027f3b1461054757806331d98b3f146105675780633ccfd60b1461058757600080fd5b80630f77bcfb146104c8578063159171dd146104df5780632143f93b146104ff57806323b872dd1461051457600080fd5b8063095ea7b31161038b578063095ea7b3146104415780630b3a8d95146104635780630cb6aaf1146104835780630f75e5c0146104b157600080fd5b806301ffc9a7146103b257806306fdde03146103e7578063081812fc14610409575b600080fd5b3480156103be57600080fd5b506103d26103cd366004613dcf565b610b49565b60405190151581526020015b60405180910390f35b3480156103f357600080fd5b506103fc610b9b565b6040516103de9190613e3c565b34801561041557600080fd5b50610429610424366004613e4f565b610c2d565b6040516001600160a01b0390911681526020016103de565b34801561044d57600080fd5b5061046161045c366004613e8d565b610c54565b005b34801561046f57600080fd5b506103fc61047e366004613f01565b610d6e565b34801561048f57600080fd5b506104a361049e366004613e4f565b610f08565b6040519081526020016103de565b3480156104bd57600080fd5b506104a361012e5481565b3480156104d457600080fd5b506104a36101405481565b3480156104eb57600080fd5b506104616104fa366004613f5f565b610f2a565b34801561050b57600080fd5b506103fc610f4f565b34801561052057600080fd5b5061046161052f366004613f7c565b610fde565b610461610542366004614068565b61100f565b34801561055357600080fd5b50610461610562366004614114565b611218565b34801561057357600080fd5b506104a3610582366004613e4f565b61129c565b34801561059357600080fd5b5061046161132a565b3480156105a857600080fd5b5061046161145e565b3480156105bd57600080fd5b506104616105cc366004613f7c565b611470565b3480156105dd57600080fd5b506104616105ec366004613e4f565b61148b565b3480156105fd57600080fd5b50610461611499565b610461610614366004614140565b6114b1565b34801561062557600080fd5b5061046161063436600461418d565b61173c565b34801561064557600080fd5b5060975460ff166103d2565b34801561065d57600080fd5b506104a361013f5481565b34801561067457600080fd5b50610429610683366004613e4f565b6118f4565b34801561069457600080fd5b506104a36106a336600461425b565b61013360209081526000928352604080842090915290825290205481565b3480156106cd57600080fd5b506103fc6106dc366004613f01565b611954565b3480156106ed57600080fd5b506104616106fc366004614114565b611a65565b34801561070d57600080fd5b506103fc61071c366004613f01565b611acb565b34801561072d57600080fd5b506104a361073c366004614114565b611bdc565b34801561074d57600080fd5b50610461611c62565b610461610764366004613f01565b611c74565b34801561077557600080fd5b5061012d546103d29060ff1681565b34801561079057600080fd5b506107a461079f36600461427e565b611f21565b6040516103de91906142a0565b6104616107bf3660046142e4565b612038565b3480156107d057600080fd5b5061046161224d565b3480156107e557600080fd5b506104a361013e5481565b3480156107fc57600080fd5b5061046161080b366004613e4f565b61225d565b34801561081c57600080fd5b5061046161082b366004613f5f565b61226b565b34801561083c57600080fd5b5061012f5461084e9063ffffffff1681565b60405163ffffffff90911681526020016103de565b34801561086f57600080fd5b5060c9546001600160a01b0316610429565b34801561088d57600080fd5b506103fc61229c565b6104616108a4366004613f01565b6122ab565b3480156108b557600080fd5b506104616108c436600461434f565b6123f6565b3480156108d557600080fd5b506103fc612401565b3480156108ea57600080fd5b5061013c546104a3565b34801561090057600080fd5b5061046161090f36600461438d565b61240f565b34801561092057600080fd5b5061046161092f3660046143a9565b612455565b34801561094057600080fd5b5061046161094f366004613e4f565b612487565b34801561096057600080fd5b506104a361096f36600461441c565b6101326020526000908152604090205481565b34801561098e57600080fd5b506103fc61099d366004613e4f565b612495565b3480156109ae57600080fd5b506104a361013d5481565b3480156109c557600080fd5b506104296109d436600461427e565b612508565b3480156109e557600080fd5b5061012f5461084e90640100000000900463ffffffff1681565b348015610a0b57600080fd5b50610461610a1a366004613e4f565b612541565b348015610a2b57600080fd5b50610461610a3a36600461447b565b61254f565b348015610a4b57600080fd5b506103d2610a5a3660046144da565b6001600160a01b039182166000908152606a6020908152604080832093909416825291909152205460ff1690565b348015610a9457600080fd5b50610aa8610aa3366004613e4f565b61281e565b6040516103de96959493929190614508565b348015610ac657600080fd5b50610461610ad5366004614114565b6129fe565b348015610ae657600080fd5b5061014254610429906001600160a01b031681565b348015610b0757600080fd5b5061012f5461042990600160401b90046001600160a01b031681565b610461610b3136600461456e565b612a74565b610461610b44366004613f01565b612e55565b60006001600160e01b031982166380ac58cd60e01b1480610b7a57506001600160e01b03198216635b5e139f60e01b145b80610b9557506301ffc9a760e01b6001600160e01b03198316145b92915050565b606060658054610baa9061464a565b80601f0160208091040260200160405190810160405280929190818152602001828054610bd69061464a565b8015610c235780601f10610bf857610100808354040283529160200191610c23565b820191906000526020600020905b815481529060010190602001808311610c0657829003601f168201915b5050505050905090565b6000610c3882612fac565b506000908152606960205260409020546001600160a01b031690565b6000610c5f826118f4565b9050806001600160a01b0316836001600160a01b031603610cd15760405162461bcd60e51b815260206004820152602160248201527f4552433732313a20617070726f76616c20746f2063757272656e74206f776e656044820152603960f91b60648201526084015b60405180910390fd5b336001600160a01b0382161480610ced5750610ced8133610a5a565b610d5f5760405162461bcd60e51b815260206004820152603d60248201527f4552433732313a20617070726f76652063616c6c6572206973206e6f7420746f60448201527f6b656e206f776e6572206f7220617070726f76656420666f7220616c6c0000006064820152608401610cc8565b610d69838361300b565b505050565b6060600061013060008585604051610d87929190614684565b6040518091039020815260200190815260200160002060000160009054906101000a90046001600160a01b0316905060008484604051610dc8929190614684565b6040519081900390209050336001600160a01b03831614610e6657336000908152610134602090815260408083208484528252808320546101379092529091205410610e665760405162461bcd60e51b815260206004820152602760248201527f443144433a206e6f207065726d697373696f6e20666f722074656c656772616d604482015266081c995d99585b60ca1b6064820152608401610cc8565b6000818152610131602052604090208054610e809061464a565b80601f0160208091040260200160405190810160405280929190818152602001828054610eac9061464a565b8015610ef95780601f10610ece57610100808354040283529160200191610ef9565b820191906000526020600020905b815481529060010190602001808311610edc57829003601f168201915b50505050509250505092915050565b61013c8181548110610f1957600080fd5b600091825260209091200154905081565b610f32613079565b61012f805463ffffffff191663ffffffff92909216919091179055565b61013a8054610f5d9061464a565b80601f0160208091040260200160405190810160405280929190818152602001828054610f899061464a565b8015610fd65780601f10610fab57610100808354040283529160200191610fd6565b820191906000526020600020905b815481529060010190602001808311610fb957829003601f168201915b505050505081565b610fe833826130d3565b6110045760405162461bcd60e51b8152600401610cc890614694565b610d69838383613152565b6110176132cb565b61101f613324565b83516020850120835134901561109c578061013e5411156110525760405162461bcd60e51b8152600401610cc8906146e1565b61013e54611060908261473f565b60008381526101316020526040902090915061107c86826147b5565b503360009081526101346020908152604080832085845290915290204290555b835115611113578061013f5411156110c65760405162461bcd60e51b8152600401610cc8906146e1565b61013f546110d4908261473f565b6000838152610131602052604090209091506001016110f385826147b5565b503360009081526101356020908152604080832085845290915290204290555b82511561118a578061014054111561113d5760405162461bcd60e51b8152600401610cc8906146e1565b61013f5461114b908261473f565b60008381526101316020526040902090915060010161116a85826147b5565b503360009081526101366020908152604080832085845290915290204290555b8015611206576000336001600160a01b0316826040515b60006040518083038185875af1925050503d80600081146111de576040519150601f19603f3d011682016040523d82523d6000602084013e6111e3565b606091505b50509050806112045760405162461bcd60e51b8152600401610cc89061486e565b505b5050611212600160fb55565b50505050565b611220613079565b61012f54604080516001600160a01b03600160401b9093048316815291831660208301527fe03b0e59900b6347a6bdef98fe51689d53064c5235a2ca9fc10a27c497ec7307910160405180910390a161012f80546001600160a01b03909216600160401b02600160401b600160e01b0319909216919091179055565b60008181526101306020526040812061012f54815463ffffffff428116926112d09290821691600160a01b9091041661489c565b63ffffffff16116112e657505061012e54919050565b80546001600160a01b0316331461131d5761012f54600182015461131891640100000000900463ffffffff16906148c0565b611323565b80600101545b9392505050565b60c9546001600160a01b0316331480611355575061012f54600160401b90046001600160a01b031633145b6113b05760405162461bcd60e51b815260206004820152602660248201527f443144433a206d757374206265206f776e6572206f7220726576656e7565206160448201526518d8dbdd5b9d60d21b6064820152608401610cc8565b61012f54604051600091600160401b90046001600160a01b03169047908381818185875af1925050503d8060008114611405576040519150601f19603f3d011682016040523d82523d6000602084013e61140a565b606091505b505090508061145b5760405162461bcd60e51b815260206004820152601860248201527f443144433a206661696c656420746f20776974686472617700000000000000006044820152606401610cc8565b50565b611466613079565b61146e613371565b565b610d6983838360405180602001604052806000815250612455565b611493613079565b61013f55565b6114a1613079565b61012d805460ff19166001179055565b6114b96132cb565b6114c1613324565b61013360008380519060200120815260200190815260200160002060008260028111156114f0576114f06148d7565b6002811115611501576115016148d7565b81526020019081526020016000206000815461151c906148ed565b90915550600061013281836002811115611538576115386148d7565b6002811115611549576115496148d7565b8152602001908152602001600020549050348111156115aa5760405162461bcd60e51b815260206004820181905260248201527f443144433a20696e73756666696369656e7420656d6f6a69207061796d656e746044820152606401610cc8565b8251602080850191909120600090815261013090915260408120546001600160a01b03169060646115dc84605a6148c0565b6115e69190614906565b90506000826001600160a01b03168260405160006040518083038185875af1925050503d8060008114611635576040519150601f19603f3d011682016040523d82523d6000602084013e61163a565b606091505b505090508061165b5760405162461bcd60e51b8152600401610cc890614928565b6000611667853461473f565b905080156116d75760405133908290600081818185875af1925050503d80600081146116af576040519150601f19603f3d011682016040523d82523d6000602084013e6116b4565b606091505b505080925050816116d75760405162461bcd60e51b8152600401610cc89061486e565b8560028111156116e9576116e96148d7565b876040516116f79190614955565b6040519081900381209033907f852605dcec8d6bf5f3c46c20fe8e730e7096150f02450555fed4aa4298158bae90600090a45050505050611738600160fb55565b5050565b600054610100900460ff161580801561175c5750600054600160ff909116105b806117765750303b158015611776575060005460ff166001145b6117d95760405162461bcd60e51b815260206004820152602e60248201527f496e697469616c697a61626c653a20636f6e747261637420697320616c72656160448201526d191e481a5b9a5d1a585b1a5e995960921b6064820152608401610cc8565b6000805460ff1916600117905580156117fc576000805461ff0019166101001790555b6118068a8a6133c3565b61180e6133f4565b611816613423565b61181e613452565b61014280546001600160a01b03808e166001600160a01b03199092169190911790915561012e89905561012f8054918716600160401b02600160401b600160e01b031963ffffffff8a81166401000000000267ffffffffffffffff19909516908c1617939093179290921691909117905561013e84905561013f83905561014082905580156118e7576000805461ff0019169055604051600181527f7f26b83ff96e1f2b6a682f133852f6798a09c465da95921460cefb38474024989060200160405180910390a15b5050505050505050505050565b6000818152606760205260408120546001600160a01b031680610b955760405162461bcd60e51b8152602060048201526018602482015277115490cdcc8c4e881a5b9d985b1a59081d1bdad95b88125160421b6044820152606401610cc8565b606060006101306000858560405161196d929190614684565b6040518091039020815260200190815260200160002060000160009054906101000a90046001600160a01b03169050600084846040516119ae929190614684565b6040519081900390209050336001600160a01b03831614611a4857336000908152610135602090815260408083208484528252808320546101389092529091205410611a485760405162461bcd60e51b8152602060048201526024808201527f443144433a206e6f207065726d697373696f6e20666f7220656d61696c2072656044820152631d99585b60e21b6064820152608401610cc8565b6000818152610131602052604090206001018054610e809061464a565b611a6d613079565b610142546040516001600160a01b038084169216907f5c6d51380de48b3e0b986b2b05159d07234e14394089f2d4324d4d41463fecea90600090a361014280546001600160a01b0319166001600160a01b0392909216919091179055565b6060600061013060008585604051611ae4929190614684565b6040518091039020815260200190815260200160002060000160009054906101000a90046001600160a01b0316905060008484604051611b25929190614684565b6040519081900390209050336001600160a01b03831614611bbf57336000908152610136602090815260408083208484528252808320546101399092529091205410611bbf5760405162461bcd60e51b8152602060048201526024808201527f443144433a206e6f207065726d697373696f6e20666f722070686f6e652072656044820152631d99585b60e21b6064820152608401610cc8565b6000818152610131602052604090206002018054610e809061464a565b60006001600160a01b038216611c465760405162461bcd60e51b815260206004820152602960248201527f4552433732313a2061646472657373207a65726f206973206e6f7420612076616044820152683634b21037bbb732b960b91b6064820152608401610cc8565b506001600160a01b031660009081526068602052604090205490565b611c6a613079565b61146e6000613481565b611c7c6132cb565b611c84613324565b6101405434811115611cd85760405162461bcd60e51b815260206004820181905260248201527f443144433a20696e73756666696369656e742070686f6e65207061796d656e746044820152606401610cc8565b60008383604051611cea929190614684565b6040805191829003909120600081815261013060205291909120549091506001600160a01b0316338103611d605760405162461bcd60e51b815260206004820152601b60248201527f443144433a2073656c662072657665616c20666f722070686f6e6500000000006044820152606401610cc8565b60008281526101396020908152604080832054338452610136835281842086855290925282205411611ea2573360009081526101366020908152604080832086845290915290819020429055516001600160a01b0383169085905b60006040518083038185875af1925050503d8060008114611df8576040519150601f19603f3d011682016040523d82523d6000602084013e611dfd565b606091505b50508091505080611e205760405162461bcd60e51b8152600401610cc890614928565b6000611e2c853461473f565b90508015611e9c5760405133908290600081818185875af1925050503d8060008114611e74576040519150601f19603f3d011682016040523d82523d6000602084013e611e79565b606091505b50508092505081611e9c5760405162461bcd60e51b8152600401610cc89061486e565b50611f13565b348015611f115760405133908290600081818185875af1925050503d8060008114611ee9576040519150601f19603f3d011682016040523d82523d6000602084013e611eee565b606091505b50508092505081611f115760405162461bcd60e51b8152600401610cc89061486e565b505b50505050611738600160fb55565b6060828211611f7e5760405162461bcd60e51b8152602060048201526024808201527f443144433a20656e64206d7573742062652067726561746572207468616e20736044820152631d185c9d60e21b6064820152608401610cc8565b6000611f8a848461473f565b6001600160401b03811115611fa157611fa1613fbd565b604051908082528060200260200182016040528015611fca578160200160208202803683370190505b509050835b838110156120305761013c8181548110611feb57611feb614971565b9060005260206000200154828683612003919061473f565b8151811061201357612013614971565b602090810291909101015280612028816148ed565b915050611fcf565b509392505050565b6120406132cb565b612048613324565b336001600160a01b031661013060008686604051612067929190614684565b60408051918290039091208252602082019290925201600020546001600160a01b0316146120c95760405162461bcd60e51b815260206004820152600f60248201526e2218a2219d103737ba1037bbb732b960891b6044820152606401610cc8565b6104008111156121105760405162461bcd60e51b8152602060048201526012602482015271443144433a2075726c20746f6f206c6f6e6760701b6044820152606401610cc8565b60405133906121229086908690614684565b60405180910390207f096f0aee78aea5199be1c1bf75f83f8c98e7002651030cbe56c0ca959cdd24c561013060008888604051612160929190614684565b60405180910390208152602001908152602001600020600201858560405161218a939291906149b0565b60405180910390a38181610130600087876040516121a9929190614684565b6040518091039020815260200190815260200160002060020191826121cf929190614a51565b5061013d54348111156122245760405162461bcd60e51b815260206004820152601e60248201527f443144433a20696e73756666696369656e742075726c207061796d656e7400006044820152606401610cc8565b6000612230823461473f565b90508015611206576000336001600160a01b0316826040516111a1565b612255613079565b61146e6134d3565b612265613079565b61014055565b612273613079565b61012f805463ffffffff9092166401000000000267ffffffff0000000019909216919091179055565b606060668054610baa9061464a565b6122b36132cb565b6122bb613324565b61013f543481111561230f5760405162461bcd60e51b815260206004820181905260248201527f443144433a20696e73756666696369656e7420656d61696c207061796d656e746044820152606401610cc8565b60008383604051612321929190614684565b6040805191829003909120600081815261013060205291909120549091506001600160a01b03163381036123975760405162461bcd60e51b815260206004820152601b60248201527f443144433a2073656c662072657665616c20666f7220656d61696c00000000006044820152606401610cc8565b60008281526101386020908152604080832054338452610135835281842086855290925282205411611ea2573360009081526101356020908152604080832086845290915290819020429055516001600160a01b038316908590611dbb565b611738338383613510565b61013b8054610f5d9061464a565b612417613079565b80610132600084600281111561242f5761242f6148d7565b6002811115612440576124406148d7565b81526020810191909152604001600020555050565b61245f33836130d3565b61247b5760405162461bcd60e51b8152600401610cc890614694565b611212848484846135de565b61248f613079565b61013e55565b60606124a082612fac565b60006124b760408051602081019091526000815290565b905060008151116124d75760405180602001604052806000815250611323565b806124e184613611565b6040516020016124f2929190614b0a565b6040516020818303038152906040529392505050565b610141602052816000526040600020818154811061252557600080fd5b6000918252602090912001546001600160a01b03169150829050565b612549613079565b61012e55565b612557613079565b61012d5460ff16156125ab5760405162461bcd60e51b815260206004820152601960248201527f443144433a20616c726561647920696e697469616c697a6564000000000000006044820152606401610cc8565b8281146125f15760405162461bcd60e51b81526020600482015260146024820152730886288867440eadccae2eac2d840d8cadccee8d60631b6044820152606401610cc8565b60005b818110156127c957600085858381811061261057612610614971565b90506020028101906126229190614b39565b604051612630929190614684565b6040518091039020905083838381811061264c5761264c614971565b905060200281019061265e9190614b7f565b6000828152610130602052604090206126778282614b95565b505061013c8054600181810183556000929092527fa55c1639d917d7b7cbf3837f1642937d4507076edbe26b1a6008234bb0c495300182905582108015906126db575060008181526101306020526040902060030180546126d79061464a565b1590505b1561272e5785856126ed60018561473f565b8181106126fc576126fc614971565b905060200281019061270e9190614b39565b6000838152610130602052604090206003019161272c919083614a51565b505b61273960018461473f565b821080156127635750600081815261013060205260409020600401805461275f9061464a565b1590505b156127b6578585612775846001614c4d565b81811061278457612784614971565b90506020028101906127969190614b39565b600083815261013060205260409020600401916127b4919083614a51565b505b50806127c1816148ed565b9150506125f4565b5083836127d760018261473f565b8181106127e6576127e6614971565b90506020028101906127f89190614b39565b61013b91612807919083614a51565b5061013a61281761013b82614c60565b5050505050565b610130602052600090815260409020805460018201546002830180546001600160a01b03841694600160a01b90940463ffffffff1693919061285f9061464a565b80601f016020809104026020016040519081016040528092919081815260200182805461288b9061464a565b80156128d85780601f106128ad576101008083540402835291602001916128d8565b820191906000526020600020905b8154815290600101906020018083116128bb57829003601f168201915b5050505050908060030180546128ed9061464a565b80601f01602080910402602001604051908101604052809291908181526020018280546129199061464a565b80156129665780601f1061293b57610100808354040283529160200191612966565b820191906000526020600020905b81548152906001019060200180831161294957829003601f168201915b50505050509080600401805461297b9061464a565b80601f01602080910402602001604051908101604052809291908181526020018280546129a79061464a565b80156129f45780601f106129c9576101008083540402835291602001916129f4565b820191906000526020600020905b8154815290600101906020018083116129d757829003601f168201915b5050505050905086565b612a06613079565b6001600160a01b038116612a6b5760405162461bcd60e51b815260206004820152602660248201527f4f776e61626c653a206e6577206f776e657220697320746865207a65726f206160448201526564647265737360d01b6064820152608401610cc8565b61145b81613481565b612a7c6132cb565b612a84613324565b6080861115612acb5760405162461bcd60e51b8152602060048201526013602482015272443144433a206e616d6520746f6f206c6f6e6760681b6044820152606401610cc8565b610400841115612b125760405162461bcd60e51b8152602060048201526012602482015271443144433a2075726c20746f6f206c6f6e6760701b6044820152606401610cc8565b60008787604051612b24929190614684565b6040805191829003909120600081815261013060205291822090925090612b4a8361129c565b905034811115612b9c5760405162461bcd60e51b815260206004820152601a60248201527f443144433a20696e73756666696369656e74207061796d656e740000000000006044820152606401610cc8565b81546001830182905563ffffffff4216600160a01b0263ffffffff60a01b1933166001600160c01b03198316171783556001600160a01b03168715612bec5760028301612bea898b83614a51565b505b61013a612bfa8b8d83614a51565b506000848152606760205260409020546001600160a01b031615612cc857612c33813386604051806020016040528060008152506135de565b60006064612c4284605a6148c0565b612c4c9190614906565b90506000826001600160a01b03168260405160006040518083038185875af1925050503d8060008114612c9b576040519150601f19603f3d011682016040523d82523d6000602084013e612ca0565b606091505b5050905080612cc15760405162461bcd60e51b8152600401610cc890614928565b5050612d30565b8a8a610130600061013b604051612cdf9190614d2c565b604051809103902081526020019081526020016000206004019182612d05929190614a51565b5060038301612d1661013b82614c60565b5061013b612d258b8d83614a51565b50612d3033856136a3565b60008481526101316020526040902080612d4a89826147b5565b5060018101612d5988826147b5565b5060028101612d6887826147b5565b506000612d75843461473f565b90508015612de757604051600090339083908381818185875af1925050503d8060008114612dbf576040519150601f19603f3d011682016040523d82523d6000602084013e612dc4565b606091505b5050905080612de55760405162461bcd60e51b8152600401610cc89061486e565b505b6040513390612df9908f908f90614684565b60405180910390207ff1d86ac814e2a6b7710c558956057aa8ca4d67a2b19ea13b9dc84c92945c9896868e8e604051612e3493929190614da2565b60405180910390a3505050505050612e4c600160fb55565b50505050505050565b612e5d6132cb565b612e65613324565b61013e5434811115612ec55760405162461bcd60e51b815260206004820152602360248201527f443144433a20696e73756666696369656e742074656c656772616d207061796d604482015262195b9d60ea1b6064820152608401610cc8565b60008383604051612ed7929190614684565b6040805191829003909120600081815261013060205291909120549091506001600160a01b0316338103612f4d5760405162461bcd60e51b815260206004820152601e60248201527f443144433a2073656c662072657665616c20666f722074656c656772616d00006044820152606401610cc8565b60008281526101376020908152604080832054338452610134835281842086855290925282205411611ea2573360009081526101346020908152604080832086845290915290819020429055516001600160a01b038316908590611dbb565b6000818152606760205260409020546001600160a01b031661145b5760405162461bcd60e51b8152602060048201526018602482015277115490cdcc8c4e881a5b9d985b1a59081d1bdad95b88125160421b6044820152606401610cc8565b600081815260696020526040902080546001600160a01b0319166001600160a01b0384169081179091558190613040826118f4565b6001600160a01b03167f8c5be1e5ebec7d5bd14f71427d1e84f3dd0314c0f7b2291e5b200ac8c7c3b92560405160405180910390a45050565b60c9546001600160a01b0316331461146e5760405162461bcd60e51b815260206004820181905260248201527f4f776e61626c653a2063616c6c6572206973206e6f7420746865206f776e65726044820152606401610cc8565b6000806130df836118f4565b9050806001600160a01b0316846001600160a01b0316148061312657506001600160a01b038082166000908152606a602090815260408083209388168352929052205460ff165b8061314a5750836001600160a01b031661313f84610c2d565b6001600160a01b0316145b949350505050565b826001600160a01b0316613165826118f4565b6001600160a01b03161461318b5760405162461bcd60e51b8152600401610cc890614dc5565b6001600160a01b0382166131ed5760405162461bcd60e51b8152602060048201526024808201527f4552433732313a207472616e7366657220746f20746865207a65726f206164646044820152637265737360e01b6064820152608401610cc8565b6131fa83838360016136bd565b826001600160a01b031661320d826118f4565b6001600160a01b0316146132335760405162461bcd60e51b8152600401610cc890614dc5565b600081815260696020908152604080832080546001600160a01b03199081169091556001600160a01b0387811680865260688552838620805460001901905590871680865283862080546001019055868652606790945282852080549092168417909155905184937fddf252ad1be2c89b69c2b068fc378daa952ba7f163c4a11628f55a4df523b3ef91a4610d698383836001613745565b600260fb540361331d5760405162461bcd60e51b815260206004820152601f60248201527f5265656e7472616e637947756172643a207265656e7472616e742063616c6c006044820152606401610cc8565b600260fb55565b60975460ff161561146e5760405162461bcd60e51b815260206004820152601060248201526f14185d5cd8589b194e881c185d5cd95960821b6044820152606401610cc8565b600160fb55565b6133796138f7565b6097805460ff191690557f5db9ee0a495bf2e6ff9c91a7834c1ba4fdd244a5e8aa4e537bd38aeae4b073aa335b6040516001600160a01b03909116815260200160405180910390a1565b600054610100900460ff166133ea5760405162461bcd60e51b8152600401610cc890614e0a565b6117388282613940565b600054610100900460ff1661341b5760405162461bcd60e51b8152600401610cc890614e0a565b61146e613980565b600054610100900460ff1661344a5760405162461bcd60e51b8152600401610cc890614e0a565b61146e6139b3565b600054610100900460ff166134795760405162461bcd60e51b8152600401610cc890614e0a565b61146e6139e3565b60c980546001600160a01b038381166001600160a01b0319831681179093556040519116919082907f8be0079c531659141344cd1fd0a4f28419497f9722a3daafe3b4186f6b6457e090600090a35050565b6134db613324565b6097805460ff191660011790557f62e78cea01bee320cd4e420270b5ea74000d11b0c9f74754ebdbfc544b05a2586133a63390565b816001600160a01b0316836001600160a01b0316036135715760405162461bcd60e51b815260206004820152601960248201527f4552433732313a20617070726f766520746f2063616c6c6572000000000000006044820152606401610cc8565b6001600160a01b038381166000818152606a6020908152604080832094871680845294825291829020805460ff191686151590811790915591519182527f17307eab39ab6107e8899845ad3d59bd9653f200f220920489ca2b5937696c31910160405180910390a3505050565b6135e9848484613152565b6135f584848484613a0a565b6112125760405162461bcd60e51b8152600401610cc890614e55565b6060600061361e83613b0b565b60010190506000816001600160401b0381111561363d5761363d613fbd565b6040519080825280601f01601f191660200182016040528015613667576020820181803683370190505b5090508181016020015b600019016f181899199a1a9b1b9c1cb0b131b232b360811b600a86061a8153600a850494508461367157509392505050565b611738828260405180602001604052806000815250613be3565b6001811115611212576001600160a01b03841615613703576001600160a01b038416600090815260686020526040812080548392906136fd90849061473f565b90915550505b6001600160a01b03831615611212576001600160a01b0383166000908152606860205260408120805483929061373a908490614c4d565b909155505050505050565b60008281526101306020908152604080832080546001600160a01b0319166001600160a01b03881617815561013183528184208251938401909252928252849291819061379290826147b5565b5060408051602081019091526000815260018201906137b190826147b5565b5060408051602081019091526000815260028201906137d090826147b5565b5060008381526101376020908152604080832042908190556101388352818420819055610139835281842055610141825280832080546001810182559084528284200180546001600160a01b0319166001600160a01b038b811691909117909155610142548251632f1e843760e01b81529251911692632f1e843792600480820193918290030181865afa15801561386c573d6000803e3d6000fd5b505050506040513d601f19601f820116820180604052508101906138909190614ea7565b60405163dce02fdb60e01b8152600481018690529091506001600160a01b0382169063dce02fdb90602401600060405180830381600087803b1580156138d557600080fd5b505af11580156138e9573d6000803e3d6000fd5b505050505050505050505050565b60975460ff1661146e5760405162461bcd60e51b815260206004820152601460248201527314185d5cd8589b194e881b9bdd081c185d5cd95960621b6044820152606401610cc8565b600054610100900460ff166139675760405162461bcd60e51b8152600401610cc890614e0a565b606561397383826147b5565b506066610d6982826147b5565b600054610100900460ff166139a75760405162461bcd60e51b8152600401610cc890614e0a565b6097805460ff19169055565b600054610100900460ff166139da5760405162461bcd60e51b8152600401610cc890614e0a565b61146e33613481565b600054610100900460ff1661336a5760405162461bcd60e51b8152600401610cc890614e0a565b60006001600160a01b0384163b15613b0057604051630a85bd0160e11b81526001600160a01b0385169063150b7a0290613a4e903390899088908890600401614ec4565b6020604051808303816000875af1925050508015613a89575060408051601f3d908101601f19168201909252613a8691810190614ef7565b60015b613ae6573d808015613ab7576040519150601f19603f3d011682016040523d82523d6000602084013e613abc565b606091505b508051600003613ade5760405162461bcd60e51b8152600401610cc890614e55565b805181602001fd5b6001600160e01b031916630a85bd0160e11b14905061314a565b506001949350505050565b60008072184f03e93ff9f4daa797ed6e38ed64bf6a1f0160401b8310613b4a5772184f03e93ff9f4daa797ed6e38ed64bf6a1f0160401b830492506040015b6d04ee2d6d415b85acef81000000008310613b76576d04ee2d6d415b85acef8100000000830492506020015b662386f26fc100008310613b9457662386f26fc10000830492506010015b6305f5e1008310613bac576305f5e100830492506008015b6127108310613bc057612710830492506004015b60648310613bd2576064830492506002015b600a8310610b955760010192915050565b613bed8383613c16565b613bfa6000848484613a0a565b610d695760405162461bcd60e51b8152600401610cc890614e55565b6001600160a01b038216613c6c5760405162461bcd60e51b815260206004820181905260248201527f4552433732313a206d696e7420746f20746865207a65726f20616464726573736044820152606401610cc8565b6000818152606760205260409020546001600160a01b031615613cd15760405162461bcd60e51b815260206004820152601c60248201527f4552433732313a20746f6b656e20616c7265616479206d696e746564000000006044820152606401610cc8565b613cdf6000838360016136bd565b6000818152606760205260409020546001600160a01b031615613d445760405162461bcd60e51b815260206004820152601c60248201527f4552433732313a20746f6b656e20616c7265616479206d696e746564000000006044820152606401610cc8565b6001600160a01b038216600081815260686020908152604080832080546001019055848352606790915280822080546001600160a01b0319168417905551839291907fddf252ad1be2c89b69c2b068fc378daa952ba7f163c4a11628f55a4df523b3ef908290a4611738600083836001613745565b6001600160e01b03198116811461145b57600080fd5b600060208284031215613de157600080fd5b813561132381613db9565b60005b83811015613e07578181015183820152602001613def565b50506000910152565b60008151808452613e28816020860160208601613dec565b601f01601f19169290920160200192915050565b6020815260006113236020830184613e10565b600060208284031215613e6157600080fd5b5035919050565b6001600160a01b038116811461145b57600080fd5b8035613e8881613e68565b919050565b60008060408385031215613ea057600080fd5b8235613eab81613e68565b946020939093013593505050565b60008083601f840112613ecb57600080fd5b5081356001600160401b03811115613ee257600080fd5b602083019150836020828501011115613efa57600080fd5b9250929050565b60008060208385031215613f1457600080fd5b82356001600160401b03811115613f2a57600080fd5b613f3685828601613eb9565b90969095509350505050565b63ffffffff8116811461145b57600080fd5b8035613e8881613f42565b600060208284031215613f7157600080fd5b813561132381613f42565b600080600060608486031215613f9157600080fd5b8335613f9c81613e68565b92506020840135613fac81613e68565b929592945050506040919091013590565b634e487b7160e01b600052604160045260246000fd5b60006001600160401b0380841115613fed57613fed613fbd565b604051601f8501601f19908116603f0116810190828211818310171561401557614015613fbd565b8160405280935085815286868601111561402e57600080fd5b858560208301376000602087830101525050509392505050565b600082601f83011261405957600080fd5b61132383833560208501613fd3565b6000806000806080858703121561407e57600080fd5b84356001600160401b038082111561409557600080fd5b6140a188838901614048565b955060208701359150808211156140b757600080fd5b6140c388838901614048565b945060408701359150808211156140d957600080fd5b6140e588838901614048565b935060608701359150808211156140fb57600080fd5b5061410887828801614048565b91505092959194509250565b60006020828403121561412657600080fd5b813561132381613e68565b803560038110613e8857600080fd5b6000806040838503121561415357600080fd5b82356001600160401b0381111561416957600080fd5b61417585828601614048565b92505061418460208401614131565b90509250929050565b6000806000806000806000806000806101408b8d0312156141ad57600080fd5b6141b68b613e7d565b995060208b01356001600160401b03808211156141d257600080fd5b6141de8e838f01614048565b9a5060408d01359150808211156141f457600080fd5b506142018d828e01614048565b98505060608b0135965061421760808c01613f54565b955061422560a08c01613f54565b945061423360c08c01613e7d565b935060e08b013592506101008b013591506101208b013590509295989b9194979a5092959850565b6000806040838503121561426e57600080fd5b8235915061418460208401614131565b6000806040838503121561429157600080fd5b50508035926020909101359150565b6020808252825182820181905260009190848201906040850190845b818110156142d8578351835292840192918401916001016142bc565b50909695505050505050565b600080600080604085870312156142fa57600080fd5b84356001600160401b038082111561431157600080fd5b61431d88838901613eb9565b9096509450602087013591508082111561433657600080fd5b5061434387828801613eb9565b95989497509550505050565b6000806040838503121561436257600080fd5b823561436d81613e68565b91506020830135801515811461438257600080fd5b809150509250929050565b600080604083850312156143a057600080fd5b613eab83614131565b600080600080608085870312156143bf57600080fd5b84356143ca81613e68565b935060208501356143da81613e68565b92506040850135915060608501356001600160401b038111156143fc57600080fd5b8501601f8101871361440d57600080fd5b61410887823560208401613fd3565b60006020828403121561442e57600080fd5b61132382614131565b60008083601f84011261444957600080fd5b5081356001600160401b0381111561446057600080fd5b6020830191508360208260051b8501011115613efa57600080fd5b6000806000806040858703121561449157600080fd5b84356001600160401b03808211156144a857600080fd5b6144b488838901614437565b909650945060208701359150808211156144cd57600080fd5b5061434387828801614437565b600080604083850312156144ed57600080fd5b82356144f881613e68565b9150602083013561438281613e68565b60018060a01b038716815263ffffffff8616602082015284604082015260c06060820152600061453b60c0830186613e10565b828103608084015261454d8186613e10565b905082810360a08401526145618185613e10565b9998505050505050505050565b600080600080600080600060a0888a03121561458957600080fd5b87356001600160401b03808211156145a057600080fd5b6145ac8b838c01613eb9565b909950975060208a01359150808211156145c557600080fd5b6145d18b838c01613eb9565b909750955060408a01359150808211156145ea57600080fd5b6145f68b838c01614048565b945060608a013591508082111561460c57600080fd5b6146188b838c01614048565b935060808a013591508082111561462e57600080fd5b5061463b8a828b01614048565b91505092959891949750929550565b600181811c9082168061465e57607f821691505b60208210810361467e57634e487b7160e01b600052602260045260246000fd5b50919050565b8183823760009101908152919050565b6020808252602d908201527f4552433732313a2063616c6c6572206973206e6f7420746f6b656e206f776e6560408201526c1c881bdc88185c1c1c9bdd9959609a1b606082015260800190565b60208082526028908201527f443144433a20696e73756666696369656e7420706572736f6e616c20696e666f604082015267081c185e5b595b9d60c21b606082015260800190565b634e487b7160e01b600052601160045260246000fd5b81810381811115610b9557610b95614729565b601f821115610d6957600081815260208120601f850160051c810160208610156147795750805b601f850160051c820191505b8181101561479857828155600101614785565b505050505050565b600019600383901b1c191660019190911b1790565b81516001600160401b038111156147ce576147ce613fbd565b6147e2816147dc845461464a565b84614752565b602080601f83116001811461481157600084156147ff5750858301515b61480985826147a0565b865550614798565b600085815260208120601f198616915b8281101561484057888601518255948401946001909101908401614821565b508582101561485e5787850151600019600388901b60f8161c191681555b5050505050600190811b01905550565b60208082526014908201527363616e6e6f7420726566756e642065786365737360601b604082015260600190565b63ffffffff8181168382160190808211156148b9576148b9614729565b5092915050565b8082028115828204841417610b9557610b95614729565b634e487b7160e01b600052602160045260246000fd5b6000600182016148ff576148ff614729565b5060010190565b60008261492357634e487b7160e01b600052601260045260246000fd5b500490565b60208082526013908201527232b93937b91039b2b73234b7339032ba3432b960691b604082015260600190565b60008251614967818460208701613dec565b9190910192915050565b634e487b7160e01b600052603260045260246000fd5b81835281816020850137506000828201602090810191909152601f909101601f19169091010190565b6040815260008085546149c28161464a565b80604086015260606001808416600081146149e457600181146149fe57614a2f565b60ff1985168884015283151560051b880183019550614a2f565b8a60005260208060002060005b86811015614a265781548b8201870152908401908201614a0b565b8a018501975050505b50505050508281036020840152614a47818587614987565b9695505050505050565b6001600160401b03831115614a6857614a68613fbd565b614a7c83614a76835461464a565b83614752565b6000601f841160018114614aaa5760008515614a985750838201355b614aa286826147a0565b845550612817565b600083815260209020601f19861690835b82811015614adb5786850135825560209485019460019092019101614abb565b5086821015614af85760001960f88860031b161c19848701351681555b505060018560011b0183555050505050565b60008351614b1c818460208801613dec565b835190830190614b30818360208801613dec565b01949350505050565b6000808335601e19843603018112614b5057600080fd5b8301803591506001600160401b03821115614b6a57600080fd5b602001915036819003821315613efa57600080fd5b6000823560be1983360301811261496757600080fd5b8135614ba081613e68565b81546001600160a01b031981166001600160a01b039290921691821783556020840135614bcc81613f42565b6001600160c01b03199190911690911760a09190911b63ffffffff60a01b1617815560408201356001820155614c056060830183614b39565b614c13818360028601614a51565b5050614c226080830183614b39565b614c30818360038601614a51565b5050614c3f60a0830183614b39565b611212818360048601614a51565b80820180821115610b9557610b95614729565b818103614c6b575050565b614c75825461464a565b6001600160401b03811115614c8c57614c8c613fbd565b614c9a816147dc845461464a565b6000601f821160018114614cc85760008315614cb65750848201545b614cc084826147a0565b855550612817565b600085815260209020601f19841690600086815260209020845b83811015614d025782860154825560019586019590910190602001614ce2565b508583101561485e5793015460001960f8600387901b161c19169092555050600190811b01905550565b6000808354614d3a8161464a565b60018281168015614d525760018114614d6757614d96565b60ff1984168752821515830287019450614d96565b8760005260208060002060005b85811015614d8d5781548a820152908401908201614d74565b50505082870194505b50929695505050505050565b838152604060208201526000614dbc604083018486614987565b95945050505050565b60208082526025908201527f4552433732313a207472616e736665722066726f6d20696e636f72726563742060408201526437bbb732b960d91b606082015260800190565b6020808252602b908201527f496e697469616c697a61626c653a20636f6e7472616374206973206e6f74206960408201526a6e697469616c697a696e6760a81b606082015260800190565b60208082526032908201527f4552433732313a207472616e7366657220746f206e6f6e20455243373231526560408201527131b2b4bb32b91034b6b83632b6b2b73a32b960711b606082015260800190565b600060208284031215614eb957600080fd5b815161132381613e68565b6001600160a01b0385811682528416602082015260408101839052608060608201819052600090614a4790830184613e10565b600060208284031215614f0957600080fd5b815161132381613db956fea26469706673582212205c498bf51bb6fbed757e4914073056ae91227a93a5b71db8411607a2e28224cb64736f6c63430008110033",
  "devdoc": {
    "author": "John Whitton (github.com/johnwhitton), reviewed and revised by Aaron Li (github.com/polymorpher)",
    "kind": "dev",
    "methods": {
      "approve(address,uint256)": {
        "details": "See {IERC721-approve}."
      },
      "balanceOf(address)": {
        "details": "See {IERC721-balanceOf}."
      },
      "getApproved(uint256)": {
        "details": "See {IERC721-getApproved}."
      },
      "isApprovedForAll(address,address)": {
        "details": "See {IERC721-isApprovedForAll}."
      },
      "name()": {
        "details": "See {IERC721Metadata-name}."
      },
      "owner()": {
        "details": "Returns the address of the current owner."
      },
      "ownerOf(uint256)": {
        "details": "See {IERC721-ownerOf}."
      },
      "paused()": {
        "details": "Returns true if the contract is paused, and false otherwise."
      },
      "renounceOwnership()": {
        "details": "Leaves the contract without owner. It will not be possible to call `onlyOwner` functions anymore. Can only be called by the current owner. NOTE: Renouncing ownership will leave the contract without an owner, thereby removing any functionality that is only available to the owner."
      },
      "safeTransferFrom(address,address,uint256)": {
        "details": "See {IERC721-safeTransferFrom}."
      },
      "safeTransferFrom(address,address,uint256,bytes)": {
        "details": "See {IERC721-safeTransferFrom}."
      },
      "setApprovalForAll(address,bool)": {
        "details": "See {IERC721-setApprovalForAll}."
      },
      "supportsInterface(bytes4)": {
        "details": "See {IERC165-supportsInterface}."
      },
      "symbol()": {
        "details": "See {IERC721Metadata-symbol}."
      },
      "tokenURI(uint256)": {
        "details": "See {IERC721Metadata-tokenURI}."
      },
      "transferFrom(address,address,uint256)": {
        "details": "See {IERC721-transferFrom}."
      },
      "transferOwnership(address)": {
        "details": "Transfers ownership of the contract to a new account (`newOwner`). Can only be called by the current owner."
      }
    },
    "stateVariables": {
      "_emailRevealAt": {
        "details": "User -> Name -> Timestamp got the reval permission"
      },
      "_emailUpdateAt": {
        "details": "TokenId -> Timestamp the email info was updated"
      },
      "_ownerInfos": {
        "details": "TokenId -> OwnerInfo"
      },
      "_phoneRevealAt": {
        "details": "User -> Name -> Timestamp got the reval permission"
      },
      "_phoneUpdateAt": {
        "details": "TokenId -> Timestamp the phone info was updated"
      },
      "_telegramRevealAt": {
        "details": "User -> Name -> Timestamp got the reval permission"
      },
      "_telegramUpdateAt": {
        "details": "TokenId -> Timestamp the telegram info was updated"
      },
      "addressRegistry": {
        "details": "AddressRegistry contract"
      },
      "emailRevealPrice": {
        "details": "Price for the email reveal"
      },
      "emojiReactionCounters": {
        "details": "TokenId -> Emoji Type -> Counter"
      },
      "emojiReactionPrices": {
        "details": "Emoji Type -> Price"
      },
      "keys": {
        "details": "TokenId list"
      },
      "lastCreated": {
        "details": "Name created lastly"
      },
      "lastRented": {
        "details": "Name rented lastly"
      },
      "nameRecords": {
        "details": "TokenId -> NameRecord"
      },
      "ownersOfName": {
        "details": "TokenId -> Owner list"
      },
      "phoneRevealPrice": {
        "details": "Price for the phone reveal"
      },
      "telegramRevealPrice": {
        "details": "Price for the telegram reveal"
      },
      "urlUpdatePrice": {
        "details": "Price for the url update"
      }
    },
    "title": "A subdomain manager contract for .1.country (D1DC - Dot 1 Dot Country)",
    "version": 1
  },
  "userdoc": {
    "kind": "user",
    "methods": {},
    "notice": "This contract allows the rental of domains under .1.country (D1DC) like The Million Dollar Homepage: Anyone can take over a domain name by  browsing to a web2 address like foo.1.country and doubling its last price. Currently, a payer owns the domain only for `rentalPeriod`, and is allowed to embed a tweet for the web page. D1DC creates ERC721 tokens for each domain registration.",
    "version": 1
  },
  "storageLayout": {
    "storage": [
      {
        "astId": 138,
        "contract": "contracts/D1DCV2.sol:D1DCV2",
        "label": "_initialized",
        "offset": 0,
        "slot": "0",
        "type": "t_uint8"
      },
      {
        "astId": 141,
        "contract": "contracts/D1DCV2.sol:D1DCV2",
        "label": "_initializing",
        "offset": 1,
        "slot": "0",
        "type": "t_bool"
      },
      {
        "astId": 1956,
        "contract": "contracts/D1DCV2.sol:D1DCV2",
        "label": "__gap",
        "offset": 0,
        "slot": "1",
        "type": "t_array(t_uint256)50_storage"
      },
      {
        "astId": 2175,
        "contract": "contracts/D1DCV2.sol:D1DCV2",
        "label": "__gap",
        "offset": 0,
        "slot": "51",
        "type": "t_array(t_uint256)50_storage"
      },
      {
        "astId": 529,
        "contract": "contracts/D1DCV2.sol:D1DCV2",
        "label": "_name",
        "offset": 0,
        "slot": "101",
        "type": "t_string_storage"
      },
      {
        "astId": 531,
        "contract": "contracts/D1DCV2.sol:D1DCV2",
        "label": "_symbol",
        "offset": 0,
        "slot": "102",
        "type": "t_string_storage"
      },
      {
        "astId": 535,
        "contract": "contracts/D1DCV2.sol:D1DCV2",
        "label": "_owners",
        "offset": 0,
        "slot": "103",
        "type": "t_mapping(t_uint256,t_address)"
      },
      {
        "astId": 539,
        "contract": "contracts/D1DCV2.sol:D1DCV2",
        "label": "_balances",
        "offset": 0,
        "slot": "104",
        "type": "t_mapping(t_address,t_uint256)"
      },
      {
        "astId": 543,
        "contract": "contracts/D1DCV2.sol:D1DCV2",
        "label": "_tokenApprovals",
        "offset": 0,
        "slot": "105",
        "type": "t_mapping(t_uint256,t_address)"
      },
      {
        "astId": 549,
        "contract": "contracts/D1DCV2.sol:D1DCV2",
        "label": "_operatorApprovals",
        "offset": 0,
        "slot": "106",
        "type": "t_mapping(t_address,t_mapping(t_address,t_bool))"
      },
      {
        "astId": 1469,
        "contract": "contracts/D1DCV2.sol:D1DCV2",
        "label": "__gap",
        "offset": 0,
        "slot": "107",
        "type": "t_array(t_uint256)44_storage"
      },
      {
        "astId": 321,
        "contract": "contracts/D1DCV2.sol:D1DCV2",
        "label": "_paused",
        "offset": 0,
        "slot": "151",
        "type": "t_bool"
      },
      {
        "astId": 426,
        "contract": "contracts/D1DCV2.sol:D1DCV2",
        "label": "__gap",
        "offset": 0,
        "slot": "152",
        "type": "t_array(t_uint256)49_storage"
      },
      {
        "astId": 10,
        "contract": "contracts/D1DCV2.sol:D1DCV2",
        "label": "_owner",
        "offset": 0,
        "slot": "201",
        "type": "t_address"
      },
      {
        "astId": 130,
        "contract": "contracts/D1DCV2.sol:D1DCV2",
        "label": "__gap",
        "offset": 0,
        "slot": "202",
        "type": "t_array(t_uint256)49_storage"
      },
      {
        "astId": 441,
        "contract": "contracts/D1DCV2.sol:D1DCV2",
        "label": "_status",
        "offset": 0,
        "slot": "251",
        "type": "t_uint256"
      },
      {
        "astId": 499,
        "contract": "contracts/D1DCV2.sol:D1DCV2",
        "label": "__gap",
        "offset": 0,
        "slot": "252",
        "type": "t_array(t_uint256)49_storage"
      },
      {
        "astId": 3072,
        "contract": "contracts/D1DCV2.sol:D1DCV2",
        "label": "nameInitialized",
        "offset": 0,
        "slot": "301",
        "type": "t_bool"
      },
      {
        "astId": 3074,
        "contract": "contracts/D1DCV2.sol:D1DCV2",
        "label": "baseRentalPrice",
        "offset": 0,
        "slot": "302",
        "type": "t_uint256"
      },
      {
        "astId": 3076,
        "contract": "contracts/D1DCV2.sol:D1DCV2",
        "label": "rentalPeriod",
        "offset": 0,
        "slot": "303",
        "type": "t_uint32"
      },
      {
        "astId": 3078,
        "contract": "contracts/D1DCV2.sol:D1DCV2",
        "label": "priceMultiplier",
        "offset": 4,
        "slot": "303",
        "type": "t_uint32"
      },
      {
        "astId": 3080,
        "contract": "contracts/D1DCV2.sol:D1DCV2",
        "label": "revenueAccount",
        "offset": 8,
        "slot": "303",
        "type": "t_address"
      },
      {
        "astId": 3110,
        "contract": "contracts/D1DCV2.sol:D1DCV2",
        "label": "nameRecords",
        "offset": 0,
        "slot": "304",
        "type": "t_mapping(t_bytes32,t_struct(NameRecord)3093_storage)"
      },
      {
        "astId": 3116,
        "contract": "contracts/D1DCV2.sol:D1DCV2",
        "label": "_ownerInfos",
        "offset": 0,
        "slot": "305",
        "type": "t_mapping(t_bytes32,t_struct(OwnerInfo)3100_storage)"
      },
      {
        "astId": 3122,
        "contract": "contracts/D1DCV2.sol:D1DCV2",
        "label": "emojiReactionPrices",
        "offset": 0,
        "slot": "306",
        "type": "t_mapping(t_enum(EmojiType)3104,t_uint256)"
      },
      {
        "astId": 3130,
        "contract": "contracts/D1DCV2.sol:D1DCV2",
        "label": "emojiReactionCounters",
        "offset": 0,
        "slot": "307",
        "type": "t_mapping(t_bytes32,t_mapping(t_enum(EmojiType)3104,t_uint256))"
      },
      {
        "astId": 3137,
        "contract": "contracts/D1DCV2.sol:D1DCV2",
        "label": "_telegramRevealAt",
        "offset": 0,
        "slot": "308",
        "type": "t_mapping(t_address,t_mapping(t_bytes32,t_uint256))"
      },
      {
        "astId": 3144,
        "contract": "contracts/D1DCV2.sol:D1DCV2",
        "label": "_emailRevealAt",
        "offset": 0,
        "slot": "309",
        "type": "t_mapping(t_address,t_mapping(t_bytes32,t_uint256))"
      },
      {
        "astId": 3151,
        "contract": "contracts/D1DCV2.sol:D1DCV2",
        "label": "_phoneRevealAt",
        "offset": 0,
        "slot": "310",
        "type": "t_mapping(t_address,t_mapping(t_bytes32,t_uint256))"
      },
      {
        "astId": 3156,
        "contract": "contracts/D1DCV2.sol:D1DCV2",
        "label": "_telegramUpdateAt",
        "offset": 0,
        "slot": "311",
        "type": "t_mapping(t_bytes32,t_uint256)"
      },
      {
        "astId": 3161,
        "contract": "contracts/D1DCV2.sol:D1DCV2",
        "label": "_emailUpdateAt",
        "offset": 0,
        "slot": "312",
        "type": "t_mapping(t_bytes32,t_uint256)"
      },
      {
        "astId": 3166,
        "contract": "contracts/D1DCV2.sol:D1DCV2",
        "label": "_phoneUpdateAt",
        "offset": 0,
        "slot": "313",
        "type": "t_mapping(t_bytes32,t_uint256)"
      },
      {
        "astId": 3169,
        "contract": "contracts/D1DCV2.sol:D1DCV2",
        "label": "lastRented",
        "offset": 0,
        "slot": "314",
        "type": "t_string_storage"
      },
      {
        "astId": 3172,
        "contract": "contracts/D1DCV2.sol:D1DCV2",
        "label": "lastCreated",
        "offset": 0,
        "slot": "315",
        "type": "t_string_storage"
      },
      {
        "astId": 3176,
        "contract": "contracts/D1DCV2.sol:D1DCV2",
        "label": "keys",
        "offset": 0,
        "slot": "316",
        "type": "t_array(t_bytes32)dyn_storage"
      },
      {
        "astId": 3179,
        "contract": "contracts/D1DCV2.sol:D1DCV2",
        "label": "urlUpdatePrice",
        "offset": 0,
        "slot": "317",
        "type": "t_uint256"
      },
      {
        "astId": 3182,
        "contract": "contracts/D1DCV2.sol:D1DCV2",
        "label": "telegramRevealPrice",
        "offset": 0,
        "slot": "318",
        "type": "t_uint256"
      },
      {
        "astId": 3185,
        "contract": "contracts/D1DCV2.sol:D1DCV2",
        "label": "emailRevealPrice",
        "offset": 0,
        "slot": "319",
        "type": "t_uint256"
      },
      {
        "astId": 3188,
        "contract": "contracts/D1DCV2.sol:D1DCV2",
        "label": "phoneRevealPrice",
        "offset": 0,
        "slot": "320",
        "type": "t_uint256"
      },
      {
        "astId": 3194,
        "contract": "contracts/D1DCV2.sol:D1DCV2",
        "label": "ownersOfName",
        "offset": 0,
        "slot": "321",
        "type": "t_mapping(t_bytes32,t_array(t_address)dyn_storage)"
      },
      {
        "astId": 3198,
        "contract": "contracts/D1DCV2.sol:D1DCV2",
        "label": "addressRegistry",
        "offset": 0,
        "slot": "322",
        "type": "t_contract(IAddressRegistry)5534"
      }
    ],
    "types": {
      "t_address": {
        "encoding": "inplace",
        "label": "address",
        "numberOfBytes": "20"
      },
      "t_array(t_address)dyn_storage": {
        "base": "t_address",
        "encoding": "dynamic_array",
        "label": "address[]",
        "numberOfBytes": "32"
      },
      "t_array(t_bytes32)dyn_storage": {
        "base": "t_bytes32",
        "encoding": "dynamic_array",
        "label": "bytes32[]",
        "numberOfBytes": "32"
      },
      "t_array(t_uint256)44_storage": {
        "base": "t_uint256",
        "encoding": "inplace",
        "label": "uint256[44]",
        "numberOfBytes": "1408"
      },
      "t_array(t_uint256)49_storage": {
        "base": "t_uint256",
        "encoding": "inplace",
        "label": "uint256[49]",
        "numberOfBytes": "1568"
      },
      "t_array(t_uint256)50_storage": {
        "base": "t_uint256",
        "encoding": "inplace",
        "label": "uint256[50]",
        "numberOfBytes": "1600"
      },
      "t_bool": {
        "encoding": "inplace",
        "label": "bool",
        "numberOfBytes": "1"
      },
      "t_bytes32": {
        "encoding": "inplace",
        "label": "bytes32",
        "numberOfBytes": "32"
      },
      "t_contract(IAddressRegistry)5534": {
        "encoding": "inplace",
        "label": "contract IAddressRegistry",
        "numberOfBytes": "20"
      },
      "t_enum(EmojiType)3104": {
        "encoding": "inplace",
        "label": "enum D1DCV2.EmojiType",
        "numberOfBytes": "1"
      },
      "t_mapping(t_address,t_bool)": {
        "encoding": "mapping",
        "key": "t_address",
        "label": "mapping(address => bool)",
        "numberOfBytes": "32",
        "value": "t_bool"
      },
      "t_mapping(t_address,t_mapping(t_address,t_bool))": {
        "encoding": "mapping",
        "key": "t_address",
        "label": "mapping(address => mapping(address => bool))",
        "numberOfBytes": "32",
        "value": "t_mapping(t_address,t_bool)"
      },
      "t_mapping(t_address,t_mapping(t_bytes32,t_uint256))": {
        "encoding": "mapping",
        "key": "t_address",
        "label": "mapping(address => mapping(bytes32 => uint256))",
        "numberOfBytes": "32",
        "value": "t_mapping(t_bytes32,t_uint256)"
      },
      "t_mapping(t_address,t_uint256)": {
        "encoding": "mapping",
        "key": "t_address",
        "label": "mapping(address => uint256)",
        "numberOfBytes": "32",
        "value": "t_uint256"
      },
      "t_mapping(t_bytes32,t_array(t_address)dyn_storage)": {
        "encoding": "mapping",
        "key": "t_bytes32",
        "label": "mapping(bytes32 => address[])",
        "numberOfBytes": "32",
        "value": "t_array(t_address)dyn_storage"
      },
      "t_mapping(t_bytes32,t_mapping(t_enum(EmojiType)3104,t_uint256))": {
        "encoding": "mapping",
        "key": "t_bytes32",
        "label": "mapping(bytes32 => mapping(enum D1DCV2.EmojiType => uint256))",
        "numberOfBytes": "32",
        "value": "t_mapping(t_enum(EmojiType)3104,t_uint256)"
      },
      "t_mapping(t_bytes32,t_struct(NameRecord)3093_storage)": {
        "encoding": "mapping",
        "key": "t_bytes32",
        "label": "mapping(bytes32 => struct D1DCV2.NameRecord)",
        "numberOfBytes": "32",
        "value": "t_struct(NameRecord)3093_storage"
      },
      "t_mapping(t_bytes32,t_struct(OwnerInfo)3100_storage)": {
        "encoding": "mapping",
        "key": "t_bytes32",
        "label": "mapping(bytes32 => struct D1DCV2.OwnerInfo)",
        "numberOfBytes": "32",
        "value": "t_struct(OwnerInfo)3100_storage"
      },
      "t_mapping(t_bytes32,t_uint256)": {
        "encoding": "mapping",
        "key": "t_bytes32",
        "label": "mapping(bytes32 => uint256)",
        "numberOfBytes": "32",
        "value": "t_uint256"
      },
      "t_mapping(t_enum(EmojiType)3104,t_uint256)": {
        "encoding": "mapping",
        "key": "t_enum(EmojiType)3104",
        "label": "mapping(enum D1DCV2.EmojiType => uint256)",
        "numberOfBytes": "32",
        "value": "t_uint256"
      },
      "t_mapping(t_uint256,t_address)": {
        "encoding": "mapping",
        "key": "t_uint256",
        "label": "mapping(uint256 => address)",
        "numberOfBytes": "32",
        "value": "t_address"
      },
      "t_string_storage": {
        "encoding": "bytes",
        "label": "string",
        "numberOfBytes": "32"
      },
      "t_struct(NameRecord)3093_storage": {
        "encoding": "inplace",
        "label": "struct D1DCV2.NameRecord",
        "members": [
          {
            "astId": 3082,
            "contract": "contracts/D1DCV2.sol:D1DCV2",
            "label": "renter",
            "offset": 0,
            "slot": "0",
            "type": "t_address"
          },
          {
            "astId": 3084,
            "contract": "contracts/D1DCV2.sol:D1DCV2",
            "label": "timeUpdated",
            "offset": 20,
            "slot": "0",
            "type": "t_uint32"
          },
          {
            "astId": 3086,
            "contract": "contracts/D1DCV2.sol:D1DCV2",
            "label": "lastPrice",
            "offset": 0,
            "slot": "1",
            "type": "t_uint256"
          },
          {
            "astId": 3088,
            "contract": "contracts/D1DCV2.sol:D1DCV2",
            "label": "url",
            "offset": 0,
            "slot": "2",
            "type": "t_string_storage"
          },
          {
            "astId": 3090,
            "contract": "contracts/D1DCV2.sol:D1DCV2",
            "label": "prev",
            "offset": 0,
            "slot": "3",
            "type": "t_string_storage"
          },
          {
            "astId": 3092,
            "contract": "contracts/D1DCV2.sol:D1DCV2",
            "label": "next",
            "offset": 0,
            "slot": "4",
            "type": "t_string_storage"
          }
        ],
        "numberOfBytes": "160"
      },
      "t_struct(OwnerInfo)3100_storage": {
        "encoding": "inplace",
        "label": "struct D1DCV2.OwnerInfo",
        "members": [
          {
            "astId": 3095,
            "contract": "contracts/D1DCV2.sol:D1DCV2",
            "label": "telegram",
            "offset": 0,
            "slot": "0",
            "type": "t_string_storage"
          },
          {
            "astId": 3097,
            "contract": "contracts/D1DCV2.sol:D1DCV2",
            "label": "email",
            "offset": 0,
            "slot": "1",
            "type": "t_string_storage"
          },
          {
            "astId": 3099,
            "contract": "contracts/D1DCV2.sol:D1DCV2",
            "label": "phone",
            "offset": 0,
            "slot": "2",
            "type": "t_string_storage"
          }
        ],
        "numberOfBytes": "96"
      },
      "t_uint256": {
        "encoding": "inplace",
        "label": "uint256",
        "numberOfBytes": "32"
      },
      "t_uint32": {
        "encoding": "inplace",
        "label": "uint32",
        "numberOfBytes": "4"
      },
      "t_uint8": {
        "encoding": "inplace",
        "label": "uint8",
        "numberOfBytes": "1"
      }
    }
  }
}