{
  "address": "0xa3Ee09263221c79649773b1394007F685b723E9c",
  "abi": [
    {
      "inputs": [
        {
          "internalType": "string",
          "name": "_name",
          "type": "string"
        },
        {
          "internalType": "string",
          "name": "_symbol",
          "type": "string"
        },
        {
          "internalType": "uint256",
          "name": "_baseRentalPrice",
          "type": "uint256"
        },
        {
          "internalType": "uint32",
          "name": "_rentalPeriod",
          "type": "uint32"
        },
        {
          "internalType": "uint32",
          "name": "_priceMultiplier",
          "type": "uint32"
        },
        {
          "internalType": "address",
          "name": "_revenueAccount",
          "type": "address"
        }
      ],
      "stateMutability": "nonpayable",
      "type": "constructor"
    },
    {
      "anonymous": false,
      "inputs": [
        {
          "indexed": true,
          "internalType": "address",
          "name": "owner",
          "type": "address"
        },
        {
          "indexed": true,
          "internalType": "address",
          "name": "approved",
          "type": "address"
        },
        {
          "indexed": true,
          "internalType": "uint256",
          "name": "tokenId",
          "type": "uint256"
        }
      ],
      "name": "Approval",
      "type": "event"
    },
    {
      "anonymous": false,
      "inputs": [
        {
          "indexed": true,
          "internalType": "address",
          "name": "owner",
          "type": "address"
        },
        {
          "indexed": true,
          "internalType": "address",
          "name": "operator",
          "type": "address"
        },
        {
          "indexed": false,
          "internalType": "bool",
          "name": "approved",
          "type": "bool"
        }
      ],
      "name": "ApprovalForAll",
      "type": "event"
    },
    {
      "anonymous": false,
      "inputs": [
        {
          "indexed": true,
          "internalType": "string",
          "name": "name",
          "type": "string"
        },
        {
          "indexed": true,
          "internalType": "address",
          "name": "renter",
          "type": "address"
        },
        {
          "indexed": false,
          "internalType": "uint256",
          "name": "price",
          "type": "uint256"
        },
        {
          "indexed": false,
          "internalType": "string",
          "name": "url",
          "type": "string"
        }
      ],
      "name": "NameRented",
      "type": "event"
    },
    {
      "anonymous": false,
      "inputs": [
        {
          "indexed": true,
          "internalType": "address",
          "name": "previousOwner",
          "type": "address"
        },
        {
          "indexed": true,
          "internalType": "address",
          "name": "newOwner",
          "type": "address"
        }
      ],
      "name": "OwnershipTransferred",
      "type": "event"
    },
    {
      "anonymous": false,
      "inputs": [
        {
          "indexed": false,
          "internalType": "address",
          "name": "account",
          "type": "address"
        }
      ],
      "name": "Paused",
      "type": "event"
    },
    {
      "anonymous": false,
      "inputs": [
        {
          "indexed": false,
          "internalType": "address",
          "name": "from",
          "type": "address"
        },
        {
          "indexed": false,
          "internalType": "address",
          "name": "to",
          "type": "address"
        }
      ],
      "name": "RevenueAccountChanged",
      "type": "event"
    },
    {
      "anonymous": false,
      "inputs": [
        {
          "indexed": true,
          "internalType": "address",
          "name": "from",
          "type": "address"
        },
        {
          "indexed": true,
          "internalType": "address",
          "name": "to",
          "type": "address"
        },
        {
          "indexed": true,
          "internalType": "uint256",
          "name": "tokenId",
          "type": "uint256"
        }
      ],
      "name": "Transfer",
      "type": "event"
    },
    {
      "anonymous": false,
      "inputs": [
        {
          "indexed": true,
          "internalType": "string",
          "name": "name",
          "type": "string"
        },
        {
          "indexed": true,
          "internalType": "address",
          "name": "renter",
          "type": "address"
        },
        {
          "indexed": false,
          "internalType": "string",
          "name": "oldUrl",
          "type": "string"
        },
        {
          "indexed": false,
          "internalType": "string",
          "name": "newUrl",
          "type": "string"
        }
      ],
      "name": "URLUpdated",
      "type": "event"
    },
    {
      "anonymous": false,
      "inputs": [
        {
          "indexed": false,
          "internalType": "address",
          "name": "account",
          "type": "address"
        }
      ],
      "name": "Unpaused",
      "type": "event"
    },
    {
      "inputs": [
        {
          "internalType": "address",
          "name": "to",
          "type": "address"
        },
        {
          "internalType": "uint256",
          "name": "tokenId",
          "type": "uint256"
        }
      ],
      "name": "approve",
      "outputs": [],
      "stateMutability": "nonpayable",
      "type": "function"
    },
    {
      "inputs": [
        {
          "internalType": "address",
          "name": "owner",
          "type": "address"
        }
      ],
      "name": "balanceOf",
      "outputs": [
        {
          "internalType": "uint256",
          "name": "",
          "type": "uint256"
        }
      ],
      "stateMutability": "view",
      "type": "function"
    },
    {
      "inputs": [],
      "name": "baseRentalPrice",
      "outputs": [
        {
          "internalType": "uint256",
          "name": "",
          "type": "uint256"
        }
      ],
      "stateMutability": "view",
      "type": "function"
    },
    {
      "inputs": [
        {
          "internalType": "uint256",
          "name": "tokenId",
          "type": "uint256"
        }
      ],
      "name": "getApproved",
      "outputs": [
        {
          "internalType": "address",
          "name": "",
          "type": "address"
        }
      ],
      "stateMutability": "view",
      "type": "function"
    },
    {
      "inputs": [
        {
          "internalType": "bytes32",
          "name": "encodedName",
          "type": "bytes32"
        }
      ],
      "name": "getPrice",
      "outputs": [
        {
          "internalType": "uint256",
          "name": "",
          "type": "uint256"
        }
      ],
      "stateMutability": "view",
      "type": "function"
    },
    {
      "inputs": [
        {
          "internalType": "address",
          "name": "owner",
          "type": "address"
        },
        {
          "internalType": "address",
          "name": "operator",
          "type": "address"
        }
      ],
      "name": "isApprovedForAll",
      "outputs": [
        {
          "internalType": "bool",
          "name": "",
          "type": "bool"
        }
      ],
      "stateMutability": "view",
      "type": "function"
    },
    {
      "inputs": [],
      "name": "lastRented",
      "outputs": [
        {
          "internalType": "string",
          "name": "",
          "type": "string"
        }
      ],
      "stateMutability": "view",
      "type": "function"
    },
    {
      "inputs": [],
      "name": "name",
      "outputs": [
        {
          "internalType": "string",
          "name": "",
          "type": "string"
        }
      ],
      "stateMutability": "view",
      "type": "function"
    },
    {
      "inputs": [
        {
          "internalType": "bytes32",
          "name": "",
          "type": "bytes32"
        }
      ],
      "name": "nameRecords",
      "outputs": [
        {
          "internalType": "address",
          "name": "renter",
          "type": "address"
        },
        {
          "internalType": "uint32",
          "name": "timeUpdated",
          "type": "uint32"
        },
        {
          "internalType": "uint256",
          "name": "lastPrice",
          "type": "uint256"
        },
        {
          "internalType": "string",
          "name": "url",
          "type": "string"
        }
      ],
      "stateMutability": "view",
      "type": "function"
    },
    {
      "inputs": [],
      "name": "owner",
      "outputs": [
        {
          "internalType": "address",
          "name": "",
          "type": "address"
        }
      ],
      "stateMutability": "view",
      "type": "function"
    },
    {
      "inputs": [
        {
          "internalType": "uint256",
          "name": "tokenId",
          "type": "uint256"
        }
      ],
      "name": "ownerOf",
      "outputs": [
        {
          "internalType": "address",
          "name": "",
          "type": "address"
        }
      ],
      "stateMutability": "view",
      "type": "function"
    },
    {
      "inputs": [],
      "name": "pause",
      "outputs": [],
      "stateMutability": "nonpayable",
      "type": "function"
    },
    {
      "inputs": [],
      "name": "paused",
      "outputs": [
        {
          "internalType": "bool",
          "name": "",
          "type": "bool"
        }
      ],
      "stateMutability": "view",
      "type": "function"
    },
    {
      "inputs": [],
      "name": "priceMultiplier",
      "outputs": [
        {
          "internalType": "uint32",
          "name": "",
          "type": "uint32"
        }
      ],
      "stateMutability": "view",
      "type": "function"
    },
    {
      "inputs": [],
      "name": "renounceOwnership",
      "outputs": [],
      "stateMutability": "nonpayable",
      "type": "function"
    },
    {
      "inputs": [
        {
          "internalType": "string",
          "name": "name",
          "type": "string"
        },
        {
          "internalType": "string",
          "name": "url",
          "type": "string"
        }
      ],
      "name": "rent",
      "outputs": [],
      "stateMutability": "payable",
      "type": "function"
    },
    {
      "inputs": [],
      "name": "rentalPeriod",
      "outputs": [
        {
          "internalType": "uint32",
          "name": "",
          "type": "uint32"
        }
      ],
      "stateMutability": "view",
      "type": "function"
    },
    {
      "inputs": [],
      "name": "revenueAccount",
      "outputs": [
        {
          "internalType": "address",
          "name": "",
          "type": "address"
        }
      ],
      "stateMutability": "view",
      "type": "function"
    },
    {
      "inputs": [
        {
          "internalType": "address",
          "name": "from",
          "type": "address"
        },
        {
          "internalType": "address",
          "name": "to",
          "type": "address"
        },
        {
          "internalType": "uint256",
          "name": "tokenId",
          "type": "uint256"
        }
      ],
      "name": "safeTransferFrom",
      "outputs": [],
      "stateMutability": "nonpayable",
      "type": "function"
    },
    {
      "inputs": [
        {
          "internalType": "address",
          "name": "from",
          "type": "address"
        },
        {
          "internalType": "address",
          "name": "to",
          "type": "address"
        },
        {
          "internalType": "uint256",
          "name": "tokenId",
          "type": "uint256"
        },
        {
          "internalType": "bytes",
          "name": "data",
          "type": "bytes"
        }
      ],
      "name": "safeTransferFrom",
      "outputs": [],
      "stateMutability": "nonpayable",
      "type": "function"
    },
    {
      "inputs": [
        {
          "internalType": "address",
          "name": "operator",
          "type": "address"
        },
        {
          "internalType": "bool",
          "name": "approved",
          "type": "bool"
        }
      ],
      "name": "setApprovalForAll",
      "outputs": [],
      "stateMutability": "nonpayable",
      "type": "function"
    },
    {
      "inputs": [
        {
          "internalType": "uint256",
          "name": "_baseRentalPrice",
          "type": "uint256"
        }
      ],
      "name": "setBaseRentalPrice",
      "outputs": [],
      "stateMutability": "nonpayable",
      "type": "function"
    },
    {
      "inputs": [
        {
          "internalType": "uint32",
          "name": "_priceMultiplier",
          "type": "uint32"
        }
      ],
      "name": "setPriceMultiplier",
      "outputs": [],
      "stateMutability": "nonpayable",
      "type": "function"
    },
    {
      "inputs": [
        {
          "internalType": "uint32",
          "name": "_rentalPeriod",
          "type": "uint32"
        }
      ],
      "name": "setRentalPeriod",
      "outputs": [],
      "stateMutability": "nonpayable",
      "type": "function"
    },
    {
      "inputs": [
        {
          "internalType": "address",
          "name": "_revenueAccount",
          "type": "address"
        }
      ],
      "name": "setRevenueAccount",
      "outputs": [],
      "stateMutability": "nonpayable",
      "type": "function"
    },
    {
      "inputs": [
        {
          "internalType": "bytes4",
          "name": "interfaceId",
          "type": "bytes4"
        }
      ],
      "name": "supportsInterface",
      "outputs": [
        {
          "internalType": "bool",
          "name": "",
          "type": "bool"
        }
      ],
      "stateMutability": "view",
      "type": "function"
    },
    {
      "inputs": [],
      "name": "symbol",
      "outputs": [
        {
          "internalType": "string",
          "name": "",
          "type": "string"
        }
      ],
      "stateMutability": "view",
      "type": "function"
    },
    {
      "inputs": [
        {
          "internalType": "uint256",
          "name": "tokenId",
          "type": "uint256"
        }
      ],
      "name": "tokenURI",
      "outputs": [
        {
          "internalType": "string",
          "name": "",
          "type": "string"
        }
      ],
      "stateMutability": "view",
      "type": "function"
    },
    {
      "inputs": [
        {
          "internalType": "address",
          "name": "from",
          "type": "address"
        },
        {
          "internalType": "address",
          "name": "to",
          "type": "address"
        },
        {
          "internalType": "uint256",
          "name": "tokenId",
          "type": "uint256"
        }
      ],
      "name": "transferFrom",
      "outputs": [],
      "stateMutability": "nonpayable",
      "type": "function"
    },
    {
      "inputs": [
        {
          "internalType": "address",
          "name": "newOwner",
          "type": "address"
        }
      ],
      "name": "transferOwnership",
      "outputs": [],
      "stateMutability": "nonpayable",
      "type": "function"
    },
    {
      "inputs": [],
      "name": "unpause",
      "outputs": [],
      "stateMutability": "nonpayable",
      "type": "function"
    },
    {
      "inputs": [
        {
          "internalType": "string",
          "name": "name",
          "type": "string"
        },
        {
          "internalType": "string",
          "name": "url",
          "type": "string"
        }
      ],
      "name": "updateURL",
      "outputs": [],
      "stateMutability": "payable",
      "type": "function"
    },
    {
      "inputs": [],
      "name": "withdraw",
      "outputs": [],
      "stateMutability": "nonpayable",
      "type": "function"
    }
  ],
  "transactionHash": "0xec09fbd395b2a5ca5b391b3a991b4e620488a7d4dbbe608c4d30d9e98dd15389",
  "args": [
    ".1.country",
    "D1DC",
    "100000000000000000000",
    7776000,
    2,
    "0x47cF6225BF5A8CD992CF02f4703217C4B900a3e7"
  ],
  "numDeployments": 1,
  "solcInputHash": "e974b47ee86d0bb4497d08e647fe2cd6",
  "bytecode": "0x60806040523480156200001157600080fd5b50604051620029ec380380620029ec833981016040819052620000349162000207565b8585600062000044838262000350565b50600162000053828262000350565b50506006805460ff19169055506200006b33620000ce565b600793909355600880546001600160a01b039094166801000000000000000002600160401b600160e01b031963ffffffff938416640100000000026001600160401b031990961693909416929092179390931791909116179055506200041c9050565b600680546001600160a01b03838116610100818102610100600160a81b031985161790945560405193909204169182907f8be0079c531659141344cd1fd0a4f28419497f9722a3daafe3b4186f6b6457e090600090a35050565b634e487b7160e01b600052604160045260246000fd5b600082601f8301126200015057600080fd5b81516001600160401b03808211156200016d576200016d62000128565b604051601f8301601f19908116603f0116810190828211818310171562000198576200019862000128565b81604052838152602092508683858801011115620001b557600080fd5b600091505b83821015620001d95785820183015181830184015290820190620001ba565b600093810190920192909252949350505050565b805163ffffffff811681146200020257600080fd5b919050565b60008060008060008060c087890312156200022157600080fd5b86516001600160401b03808211156200023957600080fd5b620002478a838b016200013e565b975060208901519150808211156200025e57600080fd5b506200026d89828a016200013e565b955050604087015193506200028560608801620001ed565b92506200029560808801620001ed565b60a08801519092506001600160a01b0381168114620002b357600080fd5b809150509295509295509295565b600181811c90821680620002d657607f821691505b602082108103620002f757634e487b7160e01b600052602260045260246000fd5b50919050565b601f8211156200034b57600081815260208120601f850160051c81016020861015620003265750805b601f850160051c820191505b81811015620003475782815560010162000332565b5050505b505050565b81516001600160401b038111156200036c576200036c62000128565b62000384816200037d8454620002c1565b84620002fd565b602080601f831160018114620003bc5760008415620003a35750858301515b600019600386901b1c1916600185901b17855562000347565b600085815260208120601f198616915b82811015620003ed57888601518255948401946001909101908401620003cc565b50858210156200040c5787850151600019600388901b60f8161c191681555b5050505050600190811b01905550565b6125c0806200042c6000396000f3fe6080604052600436106101ee5760003560e01c806370a082311161010d578063a22cb465116100a0578063dbafb5701161006f578063dbafb5701461055e578063e985e9c51461057e578063eb7520421461059e578063f2fde38b146105ce578063f5dc7d56146105ee57600080fd5b8063a22cb465146104d9578063b88d4fde146104f9578063c87b56dd14610519578063d50cb88b1461053957600080fd5b80638ab01168116100dc5780638ab011681461044f5780638c4b84751461046f5780638da5cb5b146104a157806395d89b41146104c457600080fd5b806370a08231146103f2578063715018a614610412578063839e5f78146104275780638456cb591461043a57600080fd5b806324c1ef17116101855780633f4ba83a116101545780633f4ba83a1461038557806342842e0e1461039a5780635c975abb146103ba5780636352211e146103d257600080fd5b806324c1ef171461031d57806330027f3b1461033057806331d98b3f146103505780633ccfd60b1461037057600080fd5b80630f75e5c0116101c15780630f75e5c0146102a4578063159171dd146102c85780632143f93b146102e857806323b872dd146102fd57600080fd5b806301ffc9a7146101f357806306fdde0314610228578063081812fc1461024a578063095ea7b314610282575b600080fd5b3480156101ff57600080fd5b5061021361020e366004611dc6565b610615565b60405190151581526020015b60405180910390f35b34801561023457600080fd5b5061023d610667565b60405161021f9190611e33565b34801561025657600080fd5b5061026a610265366004611e46565b6106f9565b6040516001600160a01b03909116815260200161021f565b34801561028e57600080fd5b506102a261029d366004611e7b565b610720565b005b3480156102b057600080fd5b506102ba60075481565b60405190815260200161021f565b3480156102d457600080fd5b506102a26102e3366004611ea5565b61083a565b3480156102f457600080fd5b5061023d61085e565b34801561030957600080fd5b506102a2610318366004611ecb565b6108ec565b6102a261032b366004611f50565b61091d565b34801561033c57600080fd5b506102a261034b366004611fbc565b610be6565b34801561035c57600080fd5b506102ba61036b366004611e46565b610c6d565b34801561037c57600080fd5b506102a2610cf7565b34801561039157600080fd5b506102a2610de6565b3480156103a657600080fd5b506102a26103b5366004611ecb565b610df8565b3480156103c657600080fd5b5060065460ff16610213565b3480156103de57600080fd5b5061026a6103ed366004611e46565b610e13565b3480156103fe57600080fd5b506102ba61040d366004611fbc565b610e73565b34801561041e57600080fd5b506102a2610ef9565b6102a2610435366004611f50565b610f0b565b34801561044657600080fd5b506102a261109e565b34801561045b57600080fd5b506102a261046a366004611ea5565b6110ae565b34801561047b57600080fd5b5060085461048c9063ffffffff1681565b60405163ffffffff909116815260200161021f565b3480156104ad57600080fd5b5060065461010090046001600160a01b031661026a565b3480156104d057600080fd5b5061023d6110de565b3480156104e557600080fd5b506102a26104f4366004611fd7565b6110ed565b34801561050557600080fd5b506102a2610514366004612029565b6110fc565b34801561052557600080fd5b5061023d610534366004611e46565b611134565b34801561054557600080fd5b5060085461048c90640100000000900463ffffffff1681565b34801561056a57600080fd5b506102a2610579366004611e46565b6111a7565b34801561058a57600080fd5b50610213610599366004612105565b6111b4565b3480156105aa57600080fd5b506105be6105b9366004611e46565b6111e2565b60405161021f9493929190612138565b3480156105da57600080fd5b506102a26105e9366004611fbc565b6112a5565b3480156105fa57600080fd5b5060085461026a90600160401b90046001600160a01b031681565b60006001600160e01b031982166380ac58cd60e01b148061064657506001600160e01b03198216635b5e139f60e01b145b8061066157506301ffc9a760e01b6001600160e01b03198316145b92915050565b60606000805461067690612175565b80601f01602080910402602001604051908101604052809291908181526020018280546106a290612175565b80156106ef5780601f106106c4576101008083540402835291602001916106ef565b820191906000526020600020905b8154815290600101906020018083116106d257829003601f168201915b5050505050905090565b60006107048261131e565b506000908152600460205260409020546001600160a01b031690565b600061072b82610e13565b9050806001600160a01b0316836001600160a01b03160361079d5760405162461bcd60e51b815260206004820152602160248201527f4552433732313a20617070726f76616c20746f2063757272656e74206f776e656044820152603960f91b60648201526084015b60405180910390fd5b336001600160a01b03821614806107b957506107b981336111b4565b61082b5760405162461bcd60e51b815260206004820152603d60248201527f4552433732313a20617070726f76652063616c6c6572206973206e6f7420746f60448201527f6b656e206f776e6572206f7220617070726f76656420666f7220616c6c0000006064820152608401610794565b610835838361137d565b505050565b6108426113eb565b6008805463ffffffff191663ffffffff92909216919091179055565b600a805461086b90612175565b80601f016020809104026020016040519081016040528092919081815260200182805461089790612175565b80156108e45780601f106108b9576101008083540402835291602001916108e4565b820191906000526020600020905b8154815290600101906020018083116108c757829003601f168201915b505050505081565b6108f6338261144b565b6109125760405162461bcd60e51b8152600401610794906121af565b6108358383836114aa565b610925611623565b608083111561096c5760405162461bcd60e51b8152602060048201526013602482015272443144433a206e616d6520746f6f206c6f6e6760681b6044820152606401610794565b6104008111156109b35760405162461bcd60e51b8152602060048201526012602482015271443144433a2075726c20746f6f206c6f6e6760701b6044820152606401610794565b600084846040516109c59291906121fc565b604080519182900390912060008181526009602052918220909250906109ea83610c6d565b905034811115610a3c5760405162461bcd60e51b815260206004820152601a60248201527f443144433a20696e73756666696369656e74207061796d656e740000000000006044820152606401610794565b81546001830182905563ffffffff4216600160a01b0263ffffffff60a01b1933166001600160c01b03198316171783556001600160a01b03168415610a8c5760028301610a8a86888361225a565b505b600a610a99888a8361225a565b506000848152600260205260409020546001600160a01b031615610ad757610ad281338660405180602001604052806000815250611669565b610ae1565b610ae1338561169c565b6000610aed8334612330565b90508015610b8657604051600090339083908381818185875af1925050503d8060008114610b37576040519150601f19603f3d011682016040523d82523d6000602084013e610b3c565b606091505b5050905080610b845760405162461bcd60e51b815260206004820152601460248201527363616e6e6f7420726566756e642065786365737360601b6044820152606401610794565b505b6040513390610b98908b908b906121fc565b60405180910390207ff1d86ac814e2a6b7710c558956057aa8ca4d67a2b19ea13b9dc84c92945c9896858a8a604051610bd39392919061236c565b60405180910390a3505050505050505050565b610bee6113eb565b600854604080516001600160a01b03600160401b9093048316815291831660208301527fe03b0e59900b6347a6bdef98fe51689d53064c5235a2ca9fc10a27c497ec7307910160405180910390a1600880546001600160a01b03909216600160401b0268010000000000000000600160e01b0319909216919091179055565b6000818152600960205260408120600854815463ffffffff42811692610c9f9290821691600160a01b9091041661238f565b63ffffffff1611610cb4575050600754919050565b80546001600160a01b03163314610cea576008546001820154610ce591640100000000900463ffffffff16906123b3565b610cf0565b80600101545b9392505050565b60065461010090046001600160a01b03166001600160a01b0316336001600160a01b03161480610d385750600854600160401b90046001600160a01b031633145b610d935760405162461bcd60e51b815260206004820152602660248201527f443144433a206d757374206265206f776e6572206f7220726576656e7565206160448201526518d8dbdd5b9d60d21b6064820152608401610794565b600854604051600160401b9091046001600160a01b0316904790600081818185875af1925050503d8060008114610835576040519150601f19603f3d011682016040523d82523d6000602084013e505050565b610dee6113eb565b610df66116b6565b565b610835838383604051806020016040528060008152506110fc565b6000818152600260205260408120546001600160a01b0316806106615760405162461bcd60e51b8152602060048201526018602482015277115490cdcc8c4e881a5b9d985b1a59081d1bdad95b88125160421b6044820152606401610794565b60006001600160a01b038216610edd5760405162461bcd60e51b815260206004820152602960248201527f4552433732313a2061646472657373207a65726f206973206e6f7420612076616044820152683634b21037bbb732b960b91b6064820152608401610794565b506001600160a01b031660009081526003602052604090205490565b610f016113eb565b610df66000611708565b610f13611623565b336001600160a01b0316600960008686604051610f319291906121fc565b60408051918290039091208252602082019290925201600020546001600160a01b031614610f935760405162461bcd60e51b815260206004820152600f60248201526e2218a2219d103737ba1037bbb732b960891b6044820152606401610794565b610400811115610fda5760405162461bcd60e51b8152602060048201526012602482015271443144433a2075726c20746f6f206c6f6e6760701b6044820152606401610794565b6040513390610fec90869086906121fc565b60405180910390207f096f0aee78aea5199be1c1bf75f83f8c98e7002651030cbe56c0ca959cdd24c56009600088886040516110299291906121fc565b604051809103902081526020019081526020016000206002018585604051611053939291906123ca565b60405180910390a381816009600087876040516110719291906121fc565b60405180910390208152602001908152602001600020600201918261109792919061225a565b5050505050565b6110a66113eb565b610df6611762565b6110b66113eb565b6008805463ffffffff9092166401000000000267ffffffff0000000019909216919091179055565b60606001805461067690612175565b6110f833838361179f565b5050565b611106338361144b565b6111225760405162461bcd60e51b8152600401610794906121af565b61112e84848484611669565b50505050565b606061113f8261131e565b600061115660408051602081019091526000815290565b905060008151116111765760405180602001604052806000815250610cf0565b806111808461186d565b604051602001611191929190612461565b6040516020818303038152906040529392505050565b6111af6113eb565b600755565b6001600160a01b03918216600090815260056020908152604080832093909416825291909152205460ff1690565b6009602052600090815260409020805460018201546002830180546001600160a01b03841694600160a01b90940463ffffffff1693919061122290612175565b80601f016020809104026020016040519081016040528092919081815260200182805461124e90612175565b801561129b5780601f106112705761010080835404028352916020019161129b565b820191906000526020600020905b81548152906001019060200180831161127e57829003601f168201915b5050505050905084565b6112ad6113eb565b6001600160a01b0381166113125760405162461bcd60e51b815260206004820152602660248201527f4f776e61626c653a206e6577206f776e657220697320746865207a65726f206160448201526564647265737360d01b6064820152608401610794565b61131b81611708565b50565b6000818152600260205260409020546001600160a01b031661131b5760405162461bcd60e51b8152602060048201526018602482015277115490cdcc8c4e881a5b9d985b1a59081d1bdad95b88125160421b6044820152606401610794565b600081815260046020526040902080546001600160a01b0319166001600160a01b03841690811790915581906113b282610e13565b6001600160a01b03167f8c5be1e5ebec7d5bd14f71427d1e84f3dd0314c0f7b2291e5b200ac8c7c3b92560405160405180910390a45050565b6006546001600160a01b03610100909104163314610df65760405162461bcd60e51b815260206004820181905260248201527f4f776e61626c653a2063616c6c6572206973206e6f7420746865206f776e65726044820152606401610794565b60008061145783610e13565b9050806001600160a01b0316846001600160a01b0316148061147e575061147e81856111b4565b806114a25750836001600160a01b0316611497846106f9565b6001600160a01b0316145b949350505050565b826001600160a01b03166114bd82610e13565b6001600160a01b0316146114e35760405162461bcd60e51b815260040161079490612490565b6001600160a01b0382166115455760405162461bcd60e51b8152602060048201526024808201527f4552433732313a207472616e7366657220746f20746865207a65726f206164646044820152637265737360e01b6064820152608401610794565b6115528383836001611900565b826001600160a01b031661156582610e13565b6001600160a01b03161461158b5760405162461bcd60e51b815260040161079490612490565b600081815260046020908152604080832080546001600160a01b03199081169091556001600160a01b0387811680865260038552838620805460001901905590871680865283862080546001019055868652600290945282852080549092168417909155905184937fddf252ad1be2c89b69c2b068fc378daa952ba7f163c4a11628f55a4df523b3ef91a46108358383836001611988565b60065460ff1615610df65760405162461bcd60e51b815260206004820152601060248201526f14185d5cd8589b194e881c185d5cd95960821b6044820152606401610794565b6116748484846114aa565b611680848484846119b8565b61112e5760405162461bcd60e51b8152600401610794906124d5565b6110f8828260405180602001604052806000815250611ab9565b6116be611aec565b6006805460ff191690557f5db9ee0a495bf2e6ff9c91a7834c1ba4fdd244a5e8aa4e537bd38aeae4b073aa335b6040516001600160a01b03909116815260200160405180910390a1565b600680546001600160a01b03838116610100818102610100600160a81b031985161790945560405193909204169182907f8be0079c531659141344cd1fd0a4f28419497f9722a3daafe3b4186f6b6457e090600090a35050565b61176a611623565b6006805460ff191660011790557f62e78cea01bee320cd4e420270b5ea74000d11b0c9f74754ebdbfc544b05a2586116eb3390565b816001600160a01b0316836001600160a01b0316036118005760405162461bcd60e51b815260206004820152601960248201527f4552433732313a20617070726f766520746f2063616c6c6572000000000000006044820152606401610794565b6001600160a01b03838116600081815260056020908152604080832094871680845294825291829020805460ff191686151590811790915591519182527f17307eab39ab6107e8899845ad3d59bd9653f200f220920489ca2b5937696c31910160405180910390a3505050565b6060600061187a83611b35565b600101905060008167ffffffffffffffff81111561189a5761189a612013565b6040519080825280601f01601f1916602001820160405280156118c4576020820181803683370190505b5090508181016020015b600019016f181899199a1a9b1b9c1cb0b131b232b360811b600a86061a8153600a85049450846118ce57509392505050565b600181111561112e576001600160a01b03841615611946576001600160a01b03841660009081526003602052604081208054839290611940908490612330565b90915550505b6001600160a01b0383161561112e576001600160a01b0383166000908152600360205260408120805483929061197d908490612527565b909155505050505050565b50600090815260096020526040902080546001600160a01b0319166001600160a01b039290921691909117905550565b60006001600160a01b0384163b15611aae57604051630a85bd0160e11b81526001600160a01b0385169063150b7a02906119fc90339089908890889060040161253a565b6020604051808303816000875af1925050508015611a37575060408051601f3d908101601f19168201909252611a349181019061256d565b60015b611a94573d808015611a65576040519150601f19603f3d011682016040523d82523d6000602084013e611a6a565b606091505b508051600003611a8c5760405162461bcd60e51b8152600401610794906124d5565b805181602001fd5b6001600160e01b031916630a85bd0160e11b1490506114a2565b506001949350505050565b611ac38383611c0d565b611ad060008484846119b8565b6108355760405162461bcd60e51b8152600401610794906124d5565b60065460ff16610df65760405162461bcd60e51b815260206004820152601460248201527314185d5cd8589b194e881b9bdd081c185d5cd95960621b6044820152606401610794565b60008072184f03e93ff9f4daa797ed6e38ed64bf6a1f0160401b8310611b745772184f03e93ff9f4daa797ed6e38ed64bf6a1f0160401b830492506040015b6d04ee2d6d415b85acef81000000008310611ba0576d04ee2d6d415b85acef8100000000830492506020015b662386f26fc100008310611bbe57662386f26fc10000830492506010015b6305f5e1008310611bd6576305f5e100830492506008015b6127108310611bea57612710830492506004015b60648310611bfc576064830492506002015b600a83106106615760010192915050565b6001600160a01b038216611c635760405162461bcd60e51b815260206004820181905260248201527f4552433732313a206d696e7420746f20746865207a65726f20616464726573736044820152606401610794565b6000818152600260205260409020546001600160a01b031615611cc85760405162461bcd60e51b815260206004820152601c60248201527f4552433732313a20746f6b656e20616c7265616479206d696e746564000000006044820152606401610794565b611cd6600083836001611900565b6000818152600260205260409020546001600160a01b031615611d3b5760405162461bcd60e51b815260206004820152601c60248201527f4552433732313a20746f6b656e20616c7265616479206d696e746564000000006044820152606401610794565b6001600160a01b038216600081815260036020908152604080832080546001019055848352600290915280822080546001600160a01b0319168417905551839291907fddf252ad1be2c89b69c2b068fc378daa952ba7f163c4a11628f55a4df523b3ef908290a46110f8600083836001611988565b6001600160e01b03198116811461131b57600080fd5b600060208284031215611dd857600080fd5b8135610cf081611db0565b60005b83811015611dfe578181015183820152602001611de6565b50506000910152565b60008151808452611e1f816020860160208601611de3565b601f01601f19169290920160200192915050565b602081526000610cf06020830184611e07565b600060208284031215611e5857600080fd5b5035919050565b80356001600160a01b0381168114611e7657600080fd5b919050565b60008060408385031215611e8e57600080fd5b611e9783611e5f565b946020939093013593505050565b600060208284031215611eb757600080fd5b813563ffffffff81168114610cf057600080fd5b600080600060608486031215611ee057600080fd5b611ee984611e5f565b9250611ef760208501611e5f565b9150604084013590509250925092565b60008083601f840112611f1957600080fd5b50813567ffffffffffffffff811115611f3157600080fd5b602083019150836020828501011115611f4957600080fd5b9250929050565b60008060008060408587031215611f6657600080fd5b843567ffffffffffffffff80821115611f7e57600080fd5b611f8a88838901611f07565b90965094506020870135915080821115611fa357600080fd5b50611fb087828801611f07565b95989497509550505050565b600060208284031215611fce57600080fd5b610cf082611e5f565b60008060408385031215611fea57600080fd5b611ff383611e5f565b91506020830135801515811461200857600080fd5b809150509250929050565b634e487b7160e01b600052604160045260246000fd5b6000806000806080858703121561203f57600080fd5b61204885611e5f565b935061205660208601611e5f565b925060408501359150606085013567ffffffffffffffff8082111561207a57600080fd5b818701915087601f83011261208e57600080fd5b8135818111156120a0576120a0612013565b604051601f8201601f19908116603f011681019083821181831017156120c8576120c8612013565b816040528281528a60208487010111156120e157600080fd5b82602086016020830137600060208483010152809550505050505092959194509250565b6000806040838503121561211857600080fd5b61212183611e5f565b915061212f60208401611e5f565b90509250929050565b60018060a01b038516815263ffffffff8416602082015282604082015260806060820152600061216b6080830184611e07565b9695505050505050565b600181811c9082168061218957607f821691505b6020821081036121a957634e487b7160e01b600052602260045260246000fd5b50919050565b6020808252602d908201527f4552433732313a2063616c6c6572206973206e6f7420746f6b656e206f776e6560408201526c1c881bdc88185c1c1c9bdd9959609a1b606082015260800190565b8183823760009101908152919050565b601f82111561083557600081815260208120601f850160051c810160208610156122335750805b601f850160051c820191505b818110156122525782815560010161223f565b505050505050565b67ffffffffffffffff83111561227257612272612013565b612286836122808354612175565b8361220c565b6000601f8411600181146122ba57600085156122a25750838201355b600019600387901b1c1916600186901b178355611097565b600083815260209020601f19861690835b828110156122eb57868501358255602094850194600190920191016122cb565b50868210156123085760001960f88860031b161c19848701351681555b505060018560011b0183555050505050565b634e487b7160e01b600052601160045260246000fd5b818103818111156106615761066161231a565b81835281816020850137506000828201602090810191909152601f909101601f19169091010190565b838152604060208201526000612386604083018486612343565b95945050505050565b63ffffffff8181168382160190808211156123ac576123ac61231a565b5092915050565b80820281158282048414176106615761066161231a565b6040815260008085546123dc81612175565b80604086015260606001808416600081146123fe576001811461241857612449565b60ff1985168884015283151560051b880183019550612449565b8a60005260208060002060005b868110156124405781548b8201870152908401908201612425565b8a018501975050505b5050505050828103602084015261216b818587612343565b60008351612473818460208801611de3565b835190830190612487818360208801611de3565b01949350505050565b60208082526025908201527f4552433732313a207472616e736665722066726f6d20696e636f72726563742060408201526437bbb732b960d91b606082015260800190565b60208082526032908201527f4552433732313a207472616e7366657220746f206e6f6e20455243373231526560408201527131b2b4bb32b91034b6b83632b6b2b73a32b960711b606082015260800190565b808201808211156106615761066161231a565b6001600160a01b038581168252841660208201526040810183905260806060820181905260009061216b90830184611e07565b60006020828403121561257f57600080fd5b8151610cf081611db056fea264697066735822122078abf51d1f602cbc6e730bd2c9ba9aad65b842ce6dc21934db3985edaae8030d64736f6c63430008110033",
  "devdoc": {
    "author": "John Whitton (github.com/johnwhitton), reviewed and revised by Aaron Li (github.com/polymorpher)",
    "kind": "dev",
    "methods": {
      "approve(address,uint256)": {
        "details": "See {IERC721-approve}."
      },
      "balanceOf(address)": {
        "details": "See {IERC721-balanceOf}."
      },
      "getApproved(uint256)": {
        "details": "See {IERC721-getApproved}."
      },
      "isApprovedForAll(address,address)": {
        "details": "See {IERC721-isApprovedForAll}."
      },
      "name()": {
        "details": "See {IERC721Metadata-name}."
      },
      "owner()": {
        "details": "Returns the address of the current owner."
      },
      "ownerOf(uint256)": {
        "details": "See {IERC721-ownerOf}."
      },
      "paused()": {
        "details": "Returns true if the contract is paused, and false otherwise."
      },
      "renounceOwnership()": {
        "details": "Leaves the contract without owner. It will not be possible to call `onlyOwner` functions anymore. Can only be called by the current owner. NOTE: Renouncing ownership will leave the contract without an owner, thereby removing any functionality that is only available to the owner."
      },
      "safeTransferFrom(address,address,uint256)": {
        "details": "See {IERC721-safeTransferFrom}."
      },
      "safeTransferFrom(address,address,uint256,bytes)": {
        "details": "See {IERC721-safeTransferFrom}."
      },
      "setApprovalForAll(address,bool)": {
        "details": "See {IERC721-setApprovalForAll}."
      },
      "supportsInterface(bytes4)": {
        "details": "See {IERC165-supportsInterface}."
      },
      "symbol()": {
        "details": "See {IERC721Metadata-symbol}."
      },
      "tokenURI(uint256)": {
        "details": "See {IERC721Metadata-tokenURI}."
      },
      "transferFrom(address,address,uint256)": {
        "details": "See {IERC721-transferFrom}."
      },
      "transferOwnership(address)": {
        "details": "Transfers ownership of the contract to a new account (`newOwner`). Can only be called by the current owner."
      }
    },
    "title": "A subdomain manager contract for .1.country (D1DC - Dot 1 Dot Country)",
    "version": 1
  },
  "userdoc": {
    "kind": "user",
    "methods": {},
    "notice": "This contract allows the rental of domains under .1.country (D1DC) like The Million Dollar Homepage: Anyone can take over a domain name by  browsing to a web2 address like foo.1.country and doubling its last price. Currently, a payer owns the domain only for `rentalPeriod`, and is allowed to embed a tweet for the web page. D1DC creates ERC721 tokens for each domain registration.",
    "version": 1
  },
  "storageLayout": {
    "storage": [
      {
        "astId": 246,
        "contract": "contracts/D1DC.sol:D1DC",
        "label": "_name",
        "offset": 0,
        "slot": "0",
        "type": "t_string_storage"
      },
      {
        "astId": 248,
        "contract": "contracts/D1DC.sol:D1DC",
        "label": "_symbol",
        "offset": 0,
        "slot": "1",
        "type": "t_string_storage"
      },
      {
        "astId": 252,
        "contract": "contracts/D1DC.sol:D1DC",
        "label": "_owners",
        "offset": 0,
        "slot": "2",
        "type": "t_mapping(t_uint256,t_address)"
      },
      {
        "astId": 256,
        "contract": "contracts/D1DC.sol:D1DC",
        "label": "_balances",
        "offset": 0,
        "slot": "3",
        "type": "t_mapping(t_address,t_uint256)"
      },
      {
        "astId": 260,
        "contract": "contracts/D1DC.sol:D1DC",
        "label": "_tokenApprovals",
        "offset": 0,
        "slot": "4",
        "type": "t_mapping(t_uint256,t_address)"
      },
      {
        "astId": 266,
        "contract": "contracts/D1DC.sol:D1DC",
        "label": "_operatorApprovals",
        "offset": 0,
        "slot": "5",
        "type": "t_mapping(t_address,t_mapping(t_address,t_bool))"
      },
      {
        "astId": 130,
        "contract": "contracts/D1DC.sol:D1DC",
        "label": "_paused",
        "offset": 0,
        "slot": "6",
        "type": "t_bool"
      },
      {
        "astId": 7,
        "contract": "contracts/D1DC.sol:D1DC",
        "label": "_owner",
        "offset": 1,
        "slot": "6",
        "type": "t_address"
      },
      {
        "astId": 2768,
        "contract": "contracts/D1DC.sol:D1DC",
        "label": "baseRentalPrice",
        "offset": 0,
        "slot": "7",
        "type": "t_uint256"
      },
      {
        "astId": 2770,
        "contract": "contracts/D1DC.sol:D1DC",
        "label": "rentalPeriod",
        "offset": 0,
        "slot": "8",
        "type": "t_uint32"
      },
      {
        "astId": 2772,
        "contract": "contracts/D1DC.sol:D1DC",
        "label": "priceMultiplier",
        "offset": 4,
        "slot": "8",
        "type": "t_uint32"
      },
      {
        "astId": 2774,
        "contract": "contracts/D1DC.sol:D1DC",
        "label": "revenueAccount",
        "offset": 8,
        "slot": "8",
        "type": "t_address"
      },
      {
        "astId": 2788,
        "contract": "contracts/D1DC.sol:D1DC",
        "label": "nameRecords",
        "offset": 0,
        "slot": "9",
        "type": "t_mapping(t_bytes32,t_struct(NameRecord)2783_storage)"
      },
      {
        "astId": 2790,
        "contract": "contracts/D1DC.sol:D1DC",
        "label": "lastRented",
        "offset": 0,
        "slot": "10",
        "type": "t_string_storage"
      }
    ],
    "types": {
      "t_address": {
        "encoding": "inplace",
        "label": "address",
        "numberOfBytes": "20"
      },
      "t_bool": {
        "encoding": "inplace",
        "label": "bool",
        "numberOfBytes": "1"
      },
      "t_bytes32": {
        "encoding": "inplace",
        "label": "bytes32",
        "numberOfBytes": "32"
      },
      "t_mapping(t_address,t_bool)": {
        "encoding": "mapping",
        "key": "t_address",
        "label": "mapping(address => bool)",
        "numberOfBytes": "32",
        "value": "t_bool"
      },
      "t_mapping(t_address,t_mapping(t_address,t_bool))": {
        "encoding": "mapping",
        "key": "t_address",
        "label": "mapping(address => mapping(address => bool))",
        "numberOfBytes": "32",
        "value": "t_mapping(t_address,t_bool)"
      },
      "t_mapping(t_address,t_uint256)": {
        "encoding": "mapping",
        "key": "t_address",
        "label": "mapping(address => uint256)",
        "numberOfBytes": "32",
        "value": "t_uint256"
      },
      "t_mapping(t_bytes32,t_struct(NameRecord)2783_storage)": {
        "encoding": "mapping",
        "key": "t_bytes32",
        "label": "mapping(bytes32 => struct D1DC.NameRecord)",
        "numberOfBytes": "32",
        "value": "t_struct(NameRecord)2783_storage"
      },
      "t_mapping(t_uint256,t_address)": {
        "encoding": "mapping",
        "key": "t_uint256",
        "label": "mapping(uint256 => address)",
        "numberOfBytes": "32",
        "value": "t_address"
      },
      "t_string_storage": {
        "encoding": "bytes",
        "label": "string",
        "numberOfBytes": "32"
      },
      "t_struct(NameRecord)2783_storage": {
        "encoding": "inplace",
        "label": "struct D1DC.NameRecord",
        "members": [
          {
            "astId": 2776,
            "contract": "contracts/D1DC.sol:D1DC",
            "label": "renter",
            "offset": 0,
            "slot": "0",
            "type": "t_address"
          },
          {
            "astId": 2778,
            "contract": "contracts/D1DC.sol:D1DC",
            "label": "timeUpdated",
            "offset": 20,
            "slot": "0",
            "type": "t_uint32"
          },
          {
            "astId": 2780,
            "contract": "contracts/D1DC.sol:D1DC",
            "label": "lastPrice",
            "offset": 0,
            "slot": "1",
            "type": "t_uint256"
          },
          {
            "astId": 2782,
            "contract": "contracts/D1DC.sol:D1DC",
            "label": "url",
            "offset": 0,
            "slot": "2",
            "type": "t_string_storage"
          }
        ],
        "numberOfBytes": "96"
      },
      "t_uint256": {
        "encoding": "inplace",
        "label": "uint256",
        "numberOfBytes": "32"
      },
      "t_uint32": {
        "encoding": "inplace",
        "label": "uint32",
        "numberOfBytes": "4"
      }
    }
  }
}