{
  "address": "0xE0E1b92619881e009336DcFaB776ccF536D61978",
  "abi": [
    {
      "anonymous": false,
      "inputs": [
        {
          "indexed": false,
          "internalType": "uint8",
          "name": "version",
          "type": "uint8"
        }
      ],
      "name": "Initialized",
      "type": "event"
    },
    {
      "anonymous": false,
      "inputs": [
        {
          "indexed": false,
          "internalType": "address",
          "name": "by",
          "type": "address"
        },
        {
          "indexed": true,
          "internalType": "string",
          "name": "name",
          "type": "string"
        },
        {
          "indexed": true,
          "internalType": "string",
          "name": "aliasName",
          "type": "string"
        },
        {
          "indexed": true,
          "internalType": "string",
          "name": "url",
          "type": "string"
        }
      ],
      "name": "NewURLSet",
      "type": "event"
    },
    {
      "anonymous": false,
      "inputs": [
        {
          "indexed": true,
          "internalType": "address",
          "name": "previousOwner",
          "type": "address"
        },
        {
          "indexed": true,
          "internalType": "address",
          "name": "newOwner",
          "type": "address"
        }
      ],
      "name": "OwnershipTransferred",
      "type": "event"
    },
    {
      "anonymous": false,
      "inputs": [
        {
          "indexed": false,
          "internalType": "address",
          "name": "account",
          "type": "address"
        }
      ],
      "name": "Paused",
      "type": "event"
    },
    {
      "anonymous": false,
      "inputs": [
        {
          "indexed": true,
          "internalType": "address",
          "name": "from",
          "type": "address"
        },
        {
          "indexed": true,
          "internalType": "address",
          "name": "to",
          "type": "address"
        }
      ],
      "name": "RevenueAccountChanged",
      "type": "event"
    },
    {
      "anonymous": false,
      "inputs": [
        {
          "indexed": false,
          "internalType": "address",
          "name": "by",
          "type": "address"
        },
        {
          "indexed": true,
          "internalType": "string",
          "name": "name",
          "type": "string"
        },
        {
          "indexed": true,
          "internalType": "string",
          "name": "aliasName",
          "type": "string"
        },
        {
          "indexed": true,
          "internalType": "string",
          "name": "url",
          "type": "string"
        }
      ],
      "name": "URLDeleted",
      "type": "event"
    },
    {
      "anonymous": false,
      "inputs": [
        {
          "indexed": false,
          "internalType": "address",
          "name": "by",
          "type": "address"
        },
        {
          "indexed": true,
          "internalType": "string",
          "name": "name",
          "type": "string"
        },
        {
          "indexed": true,
          "internalType": "string",
          "name": "aliasName",
          "type": "string"
        },
        {
          "indexed": false,
          "internalType": "string",
          "name": "oldURL",
          "type": "string"
        },
        {
          "indexed": true,
          "internalType": "string",
          "name": "newURL",
          "type": "string"
        }
      ],
      "name": "URLUpdated",
      "type": "event"
    },
    {
      "anonymous": false,
      "inputs": [
        {
          "indexed": false,
          "internalType": "address",
          "name": "account",
          "type": "address"
        }
      ],
      "name": "Unpaused",
      "type": "event"
    },
    {
      "inputs": [],
      "name": "addressRegistry",
      "outputs": [
        {
          "internalType": "contract IAddressRegistry",
          "name": "",
          "type": "address"
        }
      ],
      "stateMutability": "view",
      "type": "function"
    },
    {
      "inputs": [
        {
          "internalType": "string",
          "name": "_name",
          "type": "string"
        },
        {
          "internalType": "string",
          "name": "_aliasName",
          "type": "string"
        }
      ],
      "name": "checkURLValidity",
      "outputs": [
        {
          "internalType": "bool",
          "name": "",
          "type": "bool"
        }
      ],
      "stateMutability": "view",
      "type": "function"
    },
    {
      "inputs": [
        {
          "internalType": "string",
          "name": "_name",
          "type": "string"
        },
        {
          "internalType": "string",
          "name": "_aliasName",
          "type": "string"
        }
      ],
      "name": "deleteURL",
      "outputs": [],
      "stateMutability": "nonpayable",
      "type": "function"
    },
    {
      "inputs": [
        {
          "internalType": "string",
          "name": "_name",
          "type": "string"
        },
        {
          "internalType": "string",
          "name": "_aliasName",
          "type": "string"
        }
      ],
      "name": "getURL",
      "outputs": [
        {
          "internalType": "string",
          "name": "",
          "type": "string"
        }
      ],
      "stateMutability": "view",
      "type": "function"
    },
    {
      "inputs": [
        {
          "internalType": "address",
          "name": "_addressRegistry",
          "type": "address"
        },
        {
          "internalType": "uint256",
          "name": "_urlUpdatePrice",
          "type": "uint256"
        },
        {
          "internalType": "address",
          "name": "_revenueAccount",
          "type": "address"
        }
      ],
      "name": "initialize",
      "outputs": [],
      "stateMutability": "nonpayable",
      "type": "function"
    },
    {
      "inputs": [
        {
          "internalType": "bytes32",
          "name": "",
          "type": "bytes32"
        }
      ],
      "name": "nameOwnerUpdateAt",
      "outputs": [
        {
          "internalType": "uint256",
          "name": "",
          "type": "uint256"
        }
      ],
      "stateMutability": "view",
      "type": "function"
    },
    {
      "inputs": [],
      "name": "owner",
      "outputs": [
        {
          "internalType": "address",
          "name": "",
          "type": "address"
        }
      ],
      "stateMutability": "view",
      "type": "function"
    },
    {
      "inputs": [],
      "name": "paused",
      "outputs": [
        {
          "internalType": "bool",
          "name": "",
          "type": "bool"
        }
      ],
      "stateMutability": "view",
      "type": "function"
    },
    {
      "inputs": [],
      "name": "renounceOwnership",
      "outputs": [],
      "stateMutability": "nonpayable",
      "type": "function"
    },
    {
      "inputs": [],
      "name": "revenueAccount",
      "outputs": [
        {
          "internalType": "address",
          "name": "",
          "type": "address"
        }
      ],
      "stateMutability": "view",
      "type": "function"
    },
    {
      "inputs": [
        {
          "internalType": "bytes32",
          "name": "_d1dcV2TokenId",
          "type": "bytes32"
        }
      ],
      "name": "setNameOwnerUpdateAt",
      "outputs": [],
      "stateMutability": "nonpayable",
      "type": "function"
    },
    {
      "inputs": [
        {
          "internalType": "string",
          "name": "_name",
          "type": "string"
        },
        {
          "internalType": "string",
          "name": "_aliasName",
          "type": "string"
        },
        {
          "internalType": "string",
          "name": "_url",
          "type": "string"
        }
      ],
      "name": "setNewURL",
      "outputs": [],
      "stateMutability": "payable",
      "type": "function"
    },
    {
      "inputs": [
        {
          "internalType": "address",
          "name": "_revenueAccount",
          "type": "address"
        }
      ],
      "name": "setRevenueAccount",
      "outputs": [],
      "stateMutability": "nonpayable",
      "type": "function"
    },
    {
      "inputs": [
        {
          "internalType": "address",
          "name": "newOwner",
          "type": "address"
        }
      ],
      "name": "transferOwnership",
      "outputs": [],
      "stateMutability": "nonpayable",
      "type": "function"
    },
    {
      "inputs": [
        {
          "internalType": "string",
          "name": "_name",
          "type": "string"
        },
        {
          "internalType": "string",
          "name": "_aliasName",
          "type": "string"
        },
        {
          "internalType": "string",
          "name": "_url",
          "type": "string"
        }
      ],
      "name": "updateURL",
      "outputs": [],
      "stateMutability": "nonpayable",
      "type": "function"
    },
    {
      "inputs": [
        {
          "internalType": "uint256",
          "name": "_urlUpdatePrice",
          "type": "uint256"
        }
      ],
      "name": "updateURLUpdatePrice",
      "outputs": [],
      "stateMutability": "nonpayable",
      "type": "function"
    },
    {
      "inputs": [],
      "name": "urlUpdatePrice",
      "outputs": [
        {
          "internalType": "uint256",
          "name": "",
          "type": "uint256"
        }
      ],
      "stateMutability": "view",
      "type": "function"
    },
    {
      "inputs": [
        {
          "internalType": "bytes32",
          "name": "",
          "type": "bytes32"
        },
        {
          "internalType": "string",
          "name": "",
          "type": "string"
        }
      ],
      "name": "vanityURLUpdatedAt",
      "outputs": [
        {
          "internalType": "uint256",
          "name": "",
          "type": "uint256"
        }
      ],
      "stateMutability": "view",
      "type": "function"
    },
    {
      "inputs": [
        {
          "internalType": "bytes32",
          "name": "",
          "type": "bytes32"
        },
        {
          "internalType": "string",
          "name": "",
          "type": "string"
        }
      ],
      "name": "vanityURLs",
      "outputs": [
        {
          "internalType": "string",
          "name": "",
          "type": "string"
        }
      ],
      "stateMutability": "view",
      "type": "function"
    },
    {
      "inputs": [],
      "name": "withdraw",
      "outputs": [],
      "stateMutability": "nonpayable",
      "type": "function"
    }
  ],
  "transactionHash": "0xd30fd0ddcd15782baa54a949b6f03ab28726f77f140bdd7acc569b64c7b311d4",
  "args": [],
  "numDeployments": 1,
  "solcInputHash": "6fc189ab5209b0c101774ae89159699e",
  "bytecode": "0x608060405234801561001057600080fd5b5061200f806100206000396000f3fe60806040526004361061011f5760003560e01c8063b2867247116100a0578063e3452cfb11610064578063e3452cfb1461033c578063f1558de71461035c578063f2fde38b14610389578063f3ad65f4146103a9578063f5dc7d56146103c957600080fd5b8063b2867247146102a6578063c350a1b5146102c6578063d22da075146102e6578063d6c5b8c9146102fc578063dce02fdb1461031c57600080fd5b80635b9299cd116100e75780635b9299cd146101fb5780635c975abb1461021b5780635de870c91461023f578063715018a61461025f5780638da5cb5b1461027457600080fd5b806305e66add1461012457806328b431071461015a57806330027f3b146101b15780633b513894146101d35780633ccfd60b146101e6575b600080fd5b34801561013057600080fd5b5061014461013f36600461186a565b6103e9565b60405161015191906118d5565b60405180910390f35b34801561016657600080fd5b506101a361017536600461186a565b60cc602090815260009283526040909220815180830184018051928152908401929093019190912091525481565b604051908152602001610151565b3480156101bd57600080fd5b506101d16101cc36600461191d565b61049f565b005b6101d16101e136600461198a565b610503565b3480156101f257600080fd5b506101d161094f565b34801561020757600080fd5b506101d1610216366004611a24565b610a73565b34801561022757600080fd5b5060655460ff165b6040519015158152602001610151565b34801561024b57600080fd5b506101d161025a366004611a3d565b610a80565b34801561026b57600080fd5b506101d1610e71565b34801561028057600080fd5b506033546001600160a01b03165b6040516001600160a01b039091168152602001610151565b3480156102b257600080fd5b506101446102c1366004611a3d565b610e85565b3480156102d257600080fd5b506101d16102e1366004611aa9565b610f64565b3480156102f257600080fd5b506101a360cd5481565b34801561030857600080fd5b5061022f610317366004611aeb565b6110b5565b34801561032857600080fd5b506101d1610337366004611a24565b611119565b34801561034857600080fd5b506101d161035736600461198a565b6111c5565b34801561036857600080fd5b506101a3610377366004611a24565b60ca6020526000908152604090205481565b34801561039557600080fd5b506101d16103a436600461191d565b611528565b3480156103b557600080fd5b5060c95461028e906001600160a01b031681565b3480156103d557600080fd5b5060ce5461028e906001600160a01b031681565b60cb60209081526000928352604090922081518083018401805192815290840192909301919091209152805461041e90611b45565b80601f016020809104026020016040519081016040528092919081815260200182805461044a90611b45565b80156104975780601f1061046c57610100808354040283529160200191610497565b820191906000526020600020905b81548152906001019060200180831161047a57829003601f168201915b505050505081565b6104a761159e565b60ce546040516001600160a01b038084169216907fe03b0e59900b6347a6bdef98fe51689d53064c5235a2ca9fc10a27c497ec730790600090a360ce80546001600160a01b0319166001600160a01b0392909216919091179055565b61050b6115f8565b610513611651565b85858080601f0160208091040260200160405190810160405280939291908181526020018383808284376000920182905250845160208087019190912060c95460408051631177e3cf60e01b815290519297509395506001600160a01b03169350631177e3cf9260048082019392918290030181865afa15801561059b573d6000803e3d6000fd5b505050506040513d601f19601f820116820180604052508101906105bf9190611b7f565b6040516375ba902160e11b8152600481018490529091506000906001600160a01b0383169063eb75204290602401600060405180830381865afa15801561060a573d6000803e3d6000fd5b505050506040513d6000823e601f3d908101601f191682016040526106329190810190611be9565b50505050509050806001600160a01b0316336001600160a01b0316146106735760405162461bcd60e51b815260040161066a90611caa565b60405180910390fd5b60008a8a604051610685929190611cda565b604051809103902090506107028b8b8080601f01602080910402602001604051908101604052809392919081815260200183838082843760009201919091525050604080516020601f8f018190048102820181019092528d815292508d91508c90819084018382808284376000920191909152506110b592505050565b1561074f5760405162461bcd60e51b815260206004820152601d60248201527f56616e69747955524c3a2075726c20616c726561647920657869737473000000604482015260640161066a565b60cd54348111156107a25760405162461bcd60e51b815260206004820152601f60248201527f56616e69747955524c3a20696e73756666696369656e74207061796d656e7400604482015260640161066a565b878760cb60008581526020019081526020016000208c8c6040516107c7929190611cda565b908152602001604051809103902091826107e2929190611d35565b504260cc60008481526020019081526020016000208b8b604051610807929190611cda565b9081526040519081900360200190205560006108238234611df6565b905080156108bc57604051600090339083908381818185875af1925050503d806000811461086d576040519150601f19603f3d011682016040523d82523d6000602084013e610872565b606091505b50509050806108ba5760405162461bcd60e51b815260206004820152601460248201527363616e6e6f7420726566756e642065786365737360601b604482015260640161066a565b505b88886040516108cc929190611cda565b60405180910390208b8b6040516108e4929190611cda565b60405180910390208e8e6040516108fc929190611cda565b604051908190038120338252907f13e9759ec5026e955e0e6d2ead4f13f2125d2d68a621346a3ed77c4aa5f28de19060200160405180910390a4505050505050506109476001609755565b505050505050565b6033546001600160a01b0316331480610972575060ce546001600160a01b031633145b6109cd5760405162461bcd60e51b815260206004820152602660248201527f443144433a206d757374206265206f776e6572206f7220726576656e7565206160448201526518d8dbdd5b9d60d21b606482015260840161066a565b60ce546040516000916001600160a01b03169047908381818185875af1925050503d8060008114610a1a576040519150601f19603f3d011682016040523d82523d6000602084013e610a1f565b606091505b5050905080610a705760405162461bcd60e51b815260206004820152601860248201527f443144433a206661696c656420746f2077697468647261770000000000000000604482015260640161066a565b50565b610a7b61159e565b60cd55565b610a88611651565b83838080601f0160208091040260200160405190810160405280939291908181526020018383808284376000920182905250845160208087019190912060c95460408051631177e3cf60e01b815290519297509395506001600160a01b03169350631177e3cf9260048082019392918290030181865afa158015610b10573d6000803e3d6000fd5b505050506040513d601f19601f82011682018060405250810190610b349190611b7f565b6040516375ba902160e11b8152600481018490529091506000906001600160a01b0383169063eb75204290602401600060405180830381865afa158015610b7f573d6000803e3d6000fd5b505050506040513d6000823e601f3d908101601f19168201604052610ba79190810190611be9565b50505050509050806001600160a01b0316336001600160a01b031614610bdf5760405162461bcd60e51b815260040161066a90611caa565b60008888604051610bf1929190611cda565b60408051918290038220600081815260cb6020529182209093509091610c1a908a908a90611cda565b90815260200160405180910390208054610c3390611b45565b80601f0160208091040260200160405190810160405280929190818152602001828054610c5f90611b45565b8015610cac5780601f10610c8157610100808354040283529160200191610cac565b820191906000526020600020905b815481529060010190602001808311610c8f57829003601f168201915b50505050509050610d268a8a8080601f01602080910402602001604051908101604052809392919081815260200183838082843760009201919091525050604080516020601f8e018190048102820181019092528c815292508c91508b90819084018382808284376000920191909152506110b592505050565b610d6b5760405162461bcd60e51b815260206004820152601660248201527515985b9a5d1e5554930e881a5b9d985b1a590815549360521b604482015260640161066a565b80604051610d799190611e17565b60405180910390208888604051610d91929190611cda565b60405180910390208b8b604051610da9929190611cda565b604051908190038120338252907f0ebb99856fe845dcc1e2291e7f2d8ac960cacfe58868974461990868583d62129060200160405180910390a46040518060200160405280600081525060cb60008481526020019081526020016000208989604051610e16929190611cda565b90815260200160405180910390209081610e309190611e33565b504260cc60008481526020019081526020016000208989604051610e55929190611cda565b9081526040519081900360200190205550505050505050505050565b610e7961159e565b610e83600061169e565b565b606060008585604051610e99929190611cda565b60408051918290038220600081815260cb6020529190912090925090610ec29086908690611cda565b90815260200160405180910390208054610edb90611b45565b80601f0160208091040260200160405190810160405280929190818152602001828054610f0790611b45565b8015610f545780601f10610f2957610100808354040283529160200191610f54565b820191906000526020600020905b815481529060010190602001808311610f3757829003601f168201915b5050505050915050949350505050565b600054610100900460ff1615808015610f845750600054600160ff909116105b80610f9e5750303b158015610f9e575060005460ff166001145b6110015760405162461bcd60e51b815260206004820152602e60248201527f496e697469616c697a61626c653a20636f6e747261637420697320616c72656160448201526d191e481a5b9a5d1a585b1a5e995960921b606482015260840161066a565b6000805460ff191660011790558015611024576000805461ff0019166101001790555b61102c6116f0565b61103461171f565b60c980546001600160a01b038087166001600160a01b03199283161790925560cd85905560ce80549285169290911691909117905580156110af576000805461ff0019169055604051600181527f7f26b83ff96e1f2b6a682f133852f6798a09c465da95921460cefb38474024989060200160405180910390a15b50505050565b8151602080840191909120600081815260cc909252604080832090516110dc908590611e17565b90815260200160405180910390205460ca600083815260200190815260200160002054111561110c57600061110f565b60015b9150505b92915050565b60c95460408051631177e3cf60e01b815290516000926001600160a01b031691631177e3cf9160048083019260209291908290030181865afa158015611163573d6000803e3d6000fd5b505050506040513d601f19601f820116820180604052508101906111879190611b7f565b9050336001600160a01b038216146111b15760405162461bcd60e51b815260040161066a90611caa565b50600090815260ca60205260409020429055565b6111cd611651565b85858080601f0160208091040260200160405190810160405280939291908181526020018383808284376000920182905250845160208087019190912060c95460408051631177e3cf60e01b815290519297509395506001600160a01b03169350631177e3cf9260048082019392918290030181865afa158015611255573d6000803e3d6000fd5b505050506040513d601f19601f820116820180604052508101906112799190611b7f565b6040516375ba902160e11b8152600481018490529091506000906001600160a01b0383169063eb75204290602401600060405180830381865afa1580156112c4573d6000803e3d6000fd5b505050506040513d6000823e601f3d908101601f191682016040526112ec9190810190611be9565b50505050509050806001600160a01b0316336001600160a01b0316146113245760405162461bcd60e51b815260040161066a90611caa565b60008a8a604051611336929190611cda565b604051809103902090506113b38b8b8080601f01602080910402602001604051908101604052809392919081815260200183838082843760009201919091525050604080516020601f8f018190048102820181019092528d815292508d91508c90819084018382808284376000920191909152506110b592505050565b6113f85760405162461bcd60e51b815260206004820152601660248201527515985b9a5d1e5554930e881a5b9d985b1a590815549360521b604482015260640161066a565b8686604051611408929190611cda565b60405180910390208989604051611420929190611cda565b60405180910390208c8c604051611438929190611cda565b60405180910390207fb50e10d60f9b32ef3d334612dab67fef5b70a8634f47d76d0ed93a7729fec3353360cb60008781526020019081526020016000208e8e604051611485929190611cda565b90815260405190819003602001812061149e9291611ef3565b60405180910390a4868660cb60008481526020019081526020016000208b8b6040516114cb929190611cda565b908152602001604051809103902091826114e6929190611d35565b504260cc60008381526020019081526020016000208a8a60405161150b929190611cda565b908152604051908190036020019020555050505050505050505050565b61153061159e565b6001600160a01b0381166115955760405162461bcd60e51b815260206004820152602660248201527f4f776e61626c653a206e6577206f776e657220697320746865207a65726f206160448201526564647265737360d01b606482015260840161066a565b610a708161169e565b6033546001600160a01b03163314610e835760405162461bcd60e51b815260206004820181905260248201527f4f776e61626c653a2063616c6c6572206973206e6f7420746865206f776e6572604482015260640161066a565b60026097540361164a5760405162461bcd60e51b815260206004820152601f60248201527f5265656e7472616e637947756172643a207265656e7472616e742063616c6c00604482015260640161066a565b6002609755565b60655460ff1615610e835760405162461bcd60e51b815260206004820152601060248201526f14185d5cd8589b194e881c185d5cd95960821b604482015260640161066a565b6001609755565b603380546001600160a01b038381166001600160a01b0319831681179093556040519116919082907f8be0079c531659141344cd1fd0a4f28419497f9722a3daafe3b4186f6b6457e090600090a35050565b600054610100900460ff166117175760405162461bcd60e51b815260040161066a90611f8e565b610e8361174e565b600054610100900460ff166117465760405162461bcd60e51b815260040161066a90611f8e565b610e8361177e565b600054610100900460ff166117755760405162461bcd60e51b815260040161066a90611f8e565b610e833361169e565b600054610100900460ff166116975760405162461bcd60e51b815260040161066a90611f8e565b634e487b7160e01b600052604160045260246000fd5b604051601f8201601f1916810167ffffffffffffffff811182821017156117e4576117e46117a5565b604052919050565b600067ffffffffffffffff821115611806576118066117a5565b50601f01601f191660200190565b600082601f83011261182557600080fd5b8135611838611833826117ec565b6117bb565b81815284602083860101111561184d57600080fd5b816020850160208301376000918101602001919091529392505050565b6000806040838503121561187d57600080fd5b82359150602083013567ffffffffffffffff81111561189b57600080fd5b6118a785828601611814565b9150509250929050565b60005b838110156118cc5781810151838201526020016118b4565b50506000910152565b60208152600082518060208401526118f48160408501602087016118b1565b601f01601f19169190910160400192915050565b6001600160a01b0381168114610a7057600080fd5b60006020828403121561192f57600080fd5b813561193a81611908565b9392505050565b60008083601f84011261195357600080fd5b50813567ffffffffffffffff81111561196b57600080fd5b60208301915083602082850101111561198357600080fd5b9250929050565b600080600080600080606087890312156119a357600080fd5b863567ffffffffffffffff808211156119bb57600080fd5b6119c78a838b01611941565b909850965060208901359150808211156119e057600080fd5b6119ec8a838b01611941565b90965094506040890135915080821115611a0557600080fd5b50611a1289828a01611941565b979a9699509497509295939492505050565b600060208284031215611a3657600080fd5b5035919050565b60008060008060408587031215611a5357600080fd5b843567ffffffffffffffff80821115611a6b57600080fd5b611a7788838901611941565b90965094506020870135915080821115611a9057600080fd5b50611a9d87828801611941565b95989497509550505050565b600080600060608486031215611abe57600080fd5b8335611ac981611908565b9250602084013591506040840135611ae081611908565b809150509250925092565b60008060408385031215611afe57600080fd5b823567ffffffffffffffff80821115611b1657600080fd5b611b2286838701611814565b93506020850135915080821115611b3857600080fd5b506118a785828601611814565b600181811c90821680611b5957607f821691505b602082108103611b7957634e487b7160e01b600052602260045260246000fd5b50919050565b600060208284031215611b9157600080fd5b815161193a81611908565b600082601f830112611bad57600080fd5b8151611bbb611833826117ec565b818152846020838601011115611bd057600080fd5b611be18260208301602087016118b1565b949350505050565b60008060008060008060c08789031215611c0257600080fd5b8651611c0d81611908565b602088015190965063ffffffff81168114611c2757600080fd5b60408801516060890151919650945067ffffffffffffffff80821115611c4c57600080fd5b611c588a838b01611b9c565b94506080890151915080821115611c6e57600080fd5b611c7a8a838b01611b9c565b935060a0890151915080821115611c9057600080fd5b50611c9d89828a01611b9c565b9150509295509295509295565b6020808252601690820152752b30b734ba3caaa9261d1037b7363c902218a221ab1960511b604082015260600190565b8183823760009101908152919050565b601f821115611d3057600081815260208120601f850160051c81016020861015611d115750805b601f850160051c820191505b8181101561094757828155600101611d1d565b505050565b67ffffffffffffffff831115611d4d57611d4d6117a5565b611d6183611d5b8354611b45565b83611cea565b6000601f841160018114611d955760008515611d7d5750838201355b600019600387901b1c1916600186901b178355611def565b600083815260209020601f19861690835b82811015611dc65786850135825560209485019460019092019101611da6565b5086821015611de35760001960f88860031b161c19848701351681555b505060018560011b0183555b5050505050565b8181038181111561111357634e487b7160e01b600052601160045260246000fd5b60008251611e298184602087016118b1565b9190910192915050565b815167ffffffffffffffff811115611e4d57611e4d6117a5565b611e6181611e5b8454611b45565b84611cea565b602080601f831160018114611e965760008415611e7e5750858301515b600019600386901b1c1916600185901b178555610947565b600085815260208120601f198616915b82811015611ec557888601518255948401946001909101908401611ea6565b5085821015611ee35787850151600019600388901b60f8161c191681555b5050505050600190811b01905550565b60018060a01b03831681526000602060408184015260008454611f1581611b45565b8060408701526060600180841660008114611f375760018114611f5157611f7f565b60ff1985168984015283151560051b890183019550611f7f565b896000528660002060005b85811015611f775781548b8201860152908301908801611f5c565b8a0184019650505b50939998505050505050505050565b6020808252602b908201527f496e697469616c697a61626c653a20636f6e7472616374206973206e6f74206960408201526a6e697469616c697a696e6760a81b60608201526080019056fea2646970667358221220ba5b1b19b15e3a1656b5464df32ca93404d8e348e14c479f2c783e4eec10526864736f6c63430008110033",
  "devdoc": {
    "kind": "dev",
    "methods": {
      "owner()": {
        "details": "Returns the address of the current owner."
      },
      "paused()": {
        "details": "Returns true if the contract is paused, and false otherwise."
      },
      "renounceOwnership()": {
        "details": "Leaves the contract without owner. It will not be possible to call `onlyOwner` functions anymore. Can only be called by the current owner. NOTE: Renouncing ownership will leave the contract without an owner, thereby removing any functionality that is only available to the owner."
      },
      "transferOwnership(address)": {
        "details": "Transfers ownership of the contract to a new account (`newOwner`). Can only be called by the current owner."
      }
    },
    "stateVariables": {
      "addressRegistry": {
        "details": "AddressRegistry contract"
      },
      "nameOwnerUpdateAt": {
        "details": "D1DCV2 TokenId -> Timestamp the name owner was updated"
      },
      "revenueAccount": {
        "details": "Fee withdrawal address"
      },
      "urlUpdatePrice": {
        "details": "Price for the url update"
      },
      "vanityURLUpdatedAt": {
        "details": "D1DCV2 Token Id -> Alias Name -> Timestamp the URL was updatedVanity URL is valid only if nameOwnerUpdateAt <= vanityURLUpdatedAt"
      },
      "vanityURLs": {
        "details": "D1DCV2 TokenId -> Alias Name -> URL"
      }
    },
    "version": 1
  },
  "userdoc": {
    "kind": "user",
    "methods": {},
    "version": 1
  },
  "storageLayout": {
    "storage": [
      {
        "astId": 138,
        "contract": "contracts/VanityURL.sol:VanityURL",
        "label": "_initialized",
        "offset": 0,
        "slot": "0",
        "type": "t_uint8"
      },
      {
        "astId": 141,
        "contract": "contracts/VanityURL.sol:VanityURL",
        "label": "_initializing",
        "offset": 1,
        "slot": "0",
        "type": "t_bool"
      },
      {
        "astId": 825,
        "contract": "contracts/VanityURL.sol:VanityURL",
        "label": "__gap",
        "offset": 0,
        "slot": "1",
        "type": "t_array(t_uint256)50_storage"
      },
      {
        "astId": 10,
        "contract": "contracts/VanityURL.sol:VanityURL",
        "label": "_owner",
        "offset": 0,
        "slot": "51",
        "type": "t_address"
      },
      {
        "astId": 130,
        "contract": "contracts/VanityURL.sol:VanityURL",
        "label": "__gap",
        "offset": 0,
        "slot": "52",
        "type": "t_array(t_uint256)49_storage"
      },
      {
        "astId": 321,
        "contract": "contracts/VanityURL.sol:VanityURL",
        "label": "_paused",
        "offset": 0,
        "slot": "101",
        "type": "t_bool"
      },
      {
        "astId": 426,
        "contract": "contracts/VanityURL.sol:VanityURL",
        "label": "__gap",
        "offset": 0,
        "slot": "102",
        "type": "t_array(t_uint256)49_storage"
      },
      {
        "astId": 441,
        "contract": "contracts/VanityURL.sol:VanityURL",
        "label": "_status",
        "offset": 0,
        "slot": "151",
        "type": "t_uint256"
      },
      {
        "astId": 499,
        "contract": "contracts/VanityURL.sol:VanityURL",
        "label": "__gap",
        "offset": 0,
        "slot": "152",
        "type": "t_array(t_uint256)49_storage"
      },
      {
        "astId": 843,
        "contract": "contracts/VanityURL.sol:VanityURL",
        "label": "addressRegistry",
        "offset": 0,
        "slot": "201",
        "type": "t_contract(IAddressRegistry)1364"
      },
      {
        "astId": 848,
        "contract": "contracts/VanityURL.sol:VanityURL",
        "label": "nameOwnerUpdateAt",
        "offset": 0,
        "slot": "202",
        "type": "t_mapping(t_bytes32,t_uint256)"
      },
      {
        "astId": 855,
        "contract": "contracts/VanityURL.sol:VanityURL",
        "label": "vanityURLs",
        "offset": 0,
        "slot": "203",
        "type": "t_mapping(t_bytes32,t_mapping(t_string_memory_ptr,t_string_storage))"
      },
      {
        "astId": 862,
        "contract": "contracts/VanityURL.sol:VanityURL",
        "label": "vanityURLUpdatedAt",
        "offset": 0,
        "slot": "204",
        "type": "t_mapping(t_bytes32,t_mapping(t_string_memory_ptr,t_uint256))"
      },
      {
        "astId": 865,
        "contract": "contracts/VanityURL.sol:VanityURL",
        "label": "urlUpdatePrice",
        "offset": 0,
        "slot": "205",
        "type": "t_uint256"
      },
      {
        "astId": 868,
        "contract": "contracts/VanityURL.sol:VanityURL",
        "label": "revenueAccount",
        "offset": 0,
        "slot": "206",
        "type": "t_address"
      }
    ],
    "types": {
      "t_address": {
        "encoding": "inplace",
        "label": "address",
        "numberOfBytes": "20"
      },
      "t_array(t_uint256)49_storage": {
        "base": "t_uint256",
        "encoding": "inplace",
        "label": "uint256[49]",
        "numberOfBytes": "1568"
      },
      "t_array(t_uint256)50_storage": {
        "base": "t_uint256",
        "encoding": "inplace",
        "label": "uint256[50]",
        "numberOfBytes": "1600"
      },
      "t_bool": {
        "encoding": "inplace",
        "label": "bool",
        "numberOfBytes": "1"
      },
      "t_bytes32": {
        "encoding": "inplace",
        "label": "bytes32",
        "numberOfBytes": "32"
      },
      "t_contract(IAddressRegistry)1364": {
        "encoding": "inplace",
        "label": "contract IAddressRegistry",
        "numberOfBytes": "20"
      },
      "t_mapping(t_bytes32,t_mapping(t_string_memory_ptr,t_string_storage))": {
        "encoding": "mapping",
        "key": "t_bytes32",
        "label": "mapping(bytes32 => mapping(string => string))",
        "numberOfBytes": "32",
        "value": "t_mapping(t_string_memory_ptr,t_string_storage)"
      },
      "t_mapping(t_bytes32,t_mapping(t_string_memory_ptr,t_uint256))": {
        "encoding": "mapping",
        "key": "t_bytes32",
        "label": "mapping(bytes32 => mapping(string => uint256))",
        "numberOfBytes": "32",
        "value": "t_mapping(t_string_memory_ptr,t_uint256)"
      },
      "t_mapping(t_bytes32,t_uint256)": {
        "encoding": "mapping",
        "key": "t_bytes32",
        "label": "mapping(bytes32 => uint256)",
        "numberOfBytes": "32",
        "value": "t_uint256"
      },
      "t_mapping(t_string_memory_ptr,t_string_storage)": {
        "encoding": "mapping",
        "key": "t_string_memory_ptr",
        "label": "mapping(string => string)",
        "numberOfBytes": "32",
        "value": "t_string_storage"
      },
      "t_mapping(t_string_memory_ptr,t_uint256)": {
        "encoding": "mapping",
        "key": "t_string_memory_ptr",
        "label": "mapping(string => uint256)",
        "numberOfBytes": "32",
        "value": "t_uint256"
      },
      "t_string_memory_ptr": {
        "encoding": "bytes",
        "label": "string",
        "numberOfBytes": "32"
      },
      "t_string_storage": {
        "encoding": "bytes",
        "label": "string",
        "numberOfBytes": "32"
      },
      "t_uint256": {
        "encoding": "inplace",
        "label": "uint256",
        "numberOfBytes": "32"
      },
      "t_uint8": {
        "encoding": "inplace",
        "label": "uint8",
        "numberOfBytes": "1"
      }
    }
  }
}