{
  "address": "0x67cB6a3153a661f57c50A6b5C3206Db081b9C060",
  "abi": [
    {
      "anonymous": false,
      "inputs": [
        {
          "indexed": false,
          "internalType": "uint8",
          "name": "version",
          "type": "uint8"
        }
      ],
      "name": "Initialized",
      "type": "event"
    },
    {
      "anonymous": false,
      "inputs": [
        {
          "indexed": true,
          "internalType": "address",
          "name": "by",
          "type": "address"
        },
        {
          "indexed": true,
          "internalType": "string",
          "name": "aliasName",
          "type": "string"
        },
        {
          "indexed": true,
          "internalType": "string",
          "name": "url",
          "type": "string"
        }
      ],
      "name": "NewURLSet",
      "type": "event"
    },
    {
      "anonymous": false,
      "inputs": [
        {
          "indexed": true,
          "internalType": "address",
          "name": "previousOwner",
          "type": "address"
        },
        {
          "indexed": true,
          "internalType": "address",
          "name": "newOwner",
          "type": "address"
        }
      ],
      "name": "OwnershipTransferred",
      "type": "event"
    },
    {
      "anonymous": false,
      "inputs": [
        {
          "indexed": false,
          "internalType": "address",
          "name": "account",
          "type": "address"
        }
      ],
      "name": "Paused",
      "type": "event"
    },
    {
      "anonymous": false,
      "inputs": [
        {
          "indexed": true,
          "internalType": "address",
          "name": "by",
          "type": "address"
        },
        {
          "indexed": false,
          "internalType": "string",
          "name": "aliasNAme",
          "type": "string"
        },
        {
          "indexed": false,
          "internalType": "string",
          "name": "url",
          "type": "string"
        }
      ],
      "name": "URLDeleted",
      "type": "event"
    },
    {
      "anonymous": false,
      "inputs": [
        {
          "indexed": true,
          "internalType": "address",
          "name": "by",
          "type": "address"
        },
        {
          "indexed": true,
          "internalType": "string",
          "name": "aliasName",
          "type": "string"
        },
        {
          "indexed": true,
          "internalType": "string",
          "name": "oldURL",
          "type": "string"
        },
        {
          "indexed": false,
          "internalType": "string",
          "name": "newURL",
          "type": "string"
        }
      ],
      "name": "URLUpdated",
      "type": "event"
    },
    {
      "anonymous": false,
      "inputs": [
        {
          "indexed": false,
          "internalType": "address",
          "name": "account",
          "type": "address"
        }
      ],
      "name": "Unpaused",
      "type": "event"
    },
    {
      "inputs": [
        {
          "internalType": "string",
          "name": "",
          "type": "string"
        }
      ],
      "name": "aliasOwners",
      "outputs": [
        {
          "internalType": "address",
          "name": "",
          "type": "address"
        }
      ],
      "stateMutability": "view",
      "type": "function"
    },
    {
      "inputs": [
        {
          "internalType": "string",
          "name": "",
          "type": "string"
        }
      ],
      "name": "aliasURLs",
      "outputs": [
        {
          "internalType": "string",
          "name": "",
          "type": "string"
        }
      ],
      "stateMutability": "view",
      "type": "function"
    },
    {
      "inputs": [
        {
          "internalType": "string",
          "name": "_aliasName",
          "type": "string"
        }
      ],
      "name": "deleteURL",
      "outputs": [],
      "stateMutability": "nonpayable",
      "type": "function"
    },
    {
      "inputs": [
        {
          "internalType": "string",
          "name": "_aliasName",
          "type": "string"
        }
      ],
      "name": "getURL",
      "outputs": [
        {
          "internalType": "string",
          "name": "",
          "type": "string"
        }
      ],
      "stateMutability": "view",
      "type": "function"
    },
    {
      "inputs": [
        {
          "internalType": "uint256",
          "name": "_urlUpdatePrice",
          "type": "uint256"
        }
      ],
      "name": "initialize",
      "outputs": [],
      "stateMutability": "nonpayable",
      "type": "function"
    },
    {
      "inputs": [],
      "name": "owner",
      "outputs": [
        {
          "internalType": "address",
          "name": "",
          "type": "address"
        }
      ],
      "stateMutability": "view",
      "type": "function"
    },
    {
      "inputs": [],
      "name": "paused",
      "outputs": [
        {
          "internalType": "bool",
          "name": "",
          "type": "bool"
        }
      ],
      "stateMutability": "view",
      "type": "function"
    },
    {
      "inputs": [],
      "name": "renounceOwnership",
      "outputs": [],
      "stateMutability": "nonpayable",
      "type": "function"
    },
    {
      "inputs": [
        {
          "internalType": "string",
          "name": "_aliasName",
          "type": "string"
        },
        {
          "internalType": "string",
          "name": "_url",
          "type": "string"
        }
      ],
      "name": "setNewURL",
      "outputs": [],
      "stateMutability": "payable",
      "type": "function"
    },
    {
      "inputs": [
        {
          "internalType": "address",
          "name": "newOwner",
          "type": "address"
        }
      ],
      "name": "transferOwnership",
      "outputs": [],
      "stateMutability": "nonpayable",
      "type": "function"
    },
    {
      "inputs": [
        {
          "internalType": "string",
          "name": "_aliasName",
          "type": "string"
        },
        {
          "internalType": "string",
          "name": "_url",
          "type": "string"
        }
      ],
      "name": "updateURL",
      "outputs": [],
      "stateMutability": "nonpayable",
      "type": "function"
    },
    {
      "inputs": [
        {
          "internalType": "uint256",
          "name": "_urlUpdatePrice",
          "type": "uint256"
        }
      ],
      "name": "updateURLUpdatePrice",
      "outputs": [],
      "stateMutability": "nonpayable",
      "type": "function"
    },
    {
      "inputs": [],
      "name": "urlUpdatePrice",
      "outputs": [
        {
          "internalType": "uint256",
          "name": "",
          "type": "uint256"
        }
      ],
      "stateMutability": "view",
      "type": "function"
    }
  ],
  "transactionHash": "0xf87d498615ee455ba603906911782383b3b1c5474fc94129c96027f76c1ba383",
  "args": [],
  "numDeployments": 1,
  "solcInputHash": "858f51e52665e21efe926524afc28f8e",
  "bytecode": "0x608060405234801561001057600080fd5b50611151806100206000396000f3fe6080604052600436106100c25760003560e01c80638da5cb5b1161007f578063d22da07511610059578063d22da0751461021d578063dd392a5514610241578063f2fde38b14610261578063fe4b84df1461028157600080fd5b80638da5cb5b14610197578063936aaa48146101c95780639ebec0241461020a57600080fd5b806338e64f33146100c75780635b9299cd146100fd5780635c975abb1461011f5780637026f8bb14610142578063715018a614610162578063839e5f7814610177575b600080fd5b3480156100d357600080fd5b506100e76100e2366004610d5c565b6102a1565b6040516100f49190610de9565b60405180910390f35b34801561010957600080fd5b5061011d610118366004610e03565b610346565b005b34801561012b57600080fd5b5060655460ff1660405190151581526020016100f4565b34801561014e57600080fd5b5061011d61015d366004610d5c565b610353565b34801561016e57600080fd5b5061011d610492565b34801561018357600080fd5b5061011d610192366004610e1c565b6104a6565b3480156101a357600080fd5b506033546001600160a01b03165b6040516001600160a01b0390911681526020016100f4565b3480156101d557600080fd5b506101b16101e4366004610d5c565b805160208183018101805160c9825292820191909301209152546001600160a01b031681565b61011d610218366004610e1c565b6105c8565b34801561022957600080fd5b5061023360cb5481565b6040519081526020016100f4565b34801561024d57600080fd5b506100e761025c366004610d5c565b61081d565b34801561026d57600080fd5b5061011d61027c366004610e80565b6108cd565b34801561028d57600080fd5b5061011d61029c366004610e03565b610946565b805160208183018101805160ca82529282019190930120915280546102c590610ea9565b80601f01602080910402602001604051908101604052809291908181526020018280546102f190610ea9565b801561033e5780601f106103135761010080835404028352916020019161033e565b820191906000526020600020905b81548152906001019060200180831161032157829003601f168201915b505050505081565b61034e610a64565b60cb55565b61035b610abe565b336001600160a01b03167f4be78346886ac3f84a694f1b65e5d716bd9fd933ea7482204f93776de1c0349c8260ca846040516103979190610ee3565b9081526040519081900360200181206103b09291610eff565b60405180910390a2600060c9826040516103ca9190610ee3565b908152604051908190036020019020546001600160a01b031690503381146104395760405162461bcd60e51b815260206004820152601b60248201527f56616e69747955524c3a206f6e6c7920616c696173206f776e6572000000000060448201526064015b60405180910390fd5b60c9826040516104499190610ee3565b90815260405190819003602001812080546001600160a01b031916905560ca90610474908490610ee3565b9081526020016040518091039020600061048e9190610c6b565b5050565b61049a610a64565b6104a46000610b04565b565b6104ae610abe565b816040516104bc9190610ee3565b6040518091039020826040516104d29190610ee3565b6040518091039020336001600160a01b03167f105d82d50af61091d609f6536d7e7955414834b0573cd342fa11b18a2bd32363846040516105139190610de9565b60405180910390a4600060c98360405161052d9190610ee3565b908152604051908190036020019020546001600160a01b031690503381146105975760405162461bcd60e51b815260206004820152601b60248201527f56616e69747955524c3a206f6e6c7920616c696173206f776e657200000000006044820152606401610430565b8160ca846040516105a89190610ee3565b908152602001604051809103902090816105c29190610fe9565b50505050565b6105d0610b56565b6105d8610abe565b60cb543481111561062b5760405162461bcd60e51b815260206004820152601f60248201527f56616e69747955524c3a20696e73756666696369656e74207061796d656e74006044820152606401610430565b600060c98460405161063d9190610ee3565b908152604051908190036020019020546001600160a01b0316905080156106a65760405162461bcd60e51b815260206004820152601d60248201527f56616e69747955524c3a2075726c20616c7265616479206578697374730000006044820152606401610430565b3360c9856040516106b79190610ee3565b908152602001604051809103902060006101000a8154816001600160a01b0302191690836001600160a01b031602179055508260ca856040516106fa9190610ee3565b908152602001604051809103902090816107149190610fe9565b50600061072183346110a9565b905080156107ba57604051600090339083908381818185875af1925050503d806000811461076b576040519150601f19603f3d011682016040523d82523d6000602084013e610770565b606091505b50509050806107b85760405162461bcd60e51b815260206004820152601460248201527363616e6e6f7420726566756e642065786365737360601b6044820152606401610430565b505b836040516107c89190610ee3565b6040518091039020856040516107de9190610ee3565b6040519081900381209033907facb316c76fb5725dcfa516f598c22b8f4e34fa7f595fa9f12585c5cb076f6ed490600090a450505061048e6001609755565b606060ca8260405161082f9190610ee3565b9081526020016040518091039020805461084890610ea9565b80601f016020809104026020016040519081016040528092919081815260200182805461087490610ea9565b80156108c15780601f10610896576101008083540402835291602001916108c1565b820191906000526020600020905b8154815290600101906020018083116108a457829003601f168201915b50505050509050919050565b6108d5610a64565b6001600160a01b03811661093a5760405162461bcd60e51b815260206004820152602660248201527f4f776e61626c653a206e6577206f776e657220697320746865207a65726f206160448201526564647265737360d01b6064820152608401610430565b61094381610b04565b50565b600054610100900460ff16158080156109665750600054600160ff909116105b806109805750303b158015610980575060005460ff166001145b6109e35760405162461bcd60e51b815260206004820152602e60248201527f496e697469616c697a61626c653a20636f6e747261637420697320616c72656160448201526d191e481a5b9a5d1a585b1a5e995960921b6064820152608401610430565b6000805460ff191660011790558015610a06576000805461ff0019166101001790555b610a0e610bb6565b610a16610be5565b60cb829055801561048e576000805461ff0019169055604051600181527f7f26b83ff96e1f2b6a682f133852f6798a09c465da95921460cefb38474024989060200160405180910390a15050565b6033546001600160a01b031633146104a45760405162461bcd60e51b815260206004820181905260248201527f4f776e61626c653a2063616c6c6572206973206e6f7420746865206f776e65726044820152606401610430565b60655460ff16156104a45760405162461bcd60e51b815260206004820152601060248201526f14185d5cd8589b194e881c185d5cd95960821b6044820152606401610430565b603380546001600160a01b038381166001600160a01b0319831681179093556040519116919082907f8be0079c531659141344cd1fd0a4f28419497f9722a3daafe3b4186f6b6457e090600090a35050565b600260975403610ba85760405162461bcd60e51b815260206004820152601f60248201527f5265656e7472616e637947756172643a207265656e7472616e742063616c6c006044820152606401610430565b6002609755565b6001609755565b600054610100900460ff16610bdd5760405162461bcd60e51b8152600401610430906110d0565b6104a4610c14565b600054610100900460ff16610c0c5760405162461bcd60e51b8152600401610430906110d0565b6104a4610c44565b600054610100900460ff16610c3b5760405162461bcd60e51b8152600401610430906110d0565b6104a433610b04565b600054610100900460ff16610baf5760405162461bcd60e51b8152600401610430906110d0565b508054610c7790610ea9565b6000825580601f10610c87575050565b601f01602090049060005260206000209081019061094391905b80821115610cb55760008155600101610ca1565b5090565b634e487b7160e01b600052604160045260246000fd5b600082601f830112610ce057600080fd5b813567ffffffffffffffff80821115610cfb57610cfb610cb9565b604051601f8301601f19908116603f01168101908282118183101715610d2357610d23610cb9565b81604052838152866020858801011115610d3c57600080fd5b836020870160208301376000602085830101528094505050505092915050565b600060208284031215610d6e57600080fd5b813567ffffffffffffffff811115610d8557600080fd5b610d9184828501610ccf565b949350505050565b60005b83811015610db4578181015183820152602001610d9c565b50506000910152565b60008151808452610dd5816020860160208601610d99565b601f01601f19169290920160200192915050565b602081526000610dfc6020830184610dbd565b9392505050565b600060208284031215610e1557600080fd5b5035919050565b60008060408385031215610e2f57600080fd5b823567ffffffffffffffff80821115610e4757600080fd5b610e5386838701610ccf565b93506020850135915080821115610e6957600080fd5b50610e7685828601610ccf565b9150509250929050565b600060208284031215610e9257600080fd5b81356001600160a01b0381168114610dfc57600080fd5b600181811c90821680610ebd57607f821691505b602082108103610edd57634e487b7160e01b600052602260045260246000fd5b50919050565b60008251610ef5818460208701610d99565b9190910192915050565b604081526000610f126040830185610dbd565b60208382038185015260008554610f2881610ea9565b80855260018281168015610f435760018114610f5d57610f8b565b60ff1984168787015282151560051b870186019450610f8b565b896000528560002060005b84811015610f83578154898201890152908301908701610f68565b880187019550505b50929998505050505050505050565b601f821115610fe457600081815260208120601f850160051c81016020861015610fc15750805b601f850160051c820191505b81811015610fe057828155600101610fcd565b5050505b505050565b815167ffffffffffffffff81111561100357611003610cb9565b611017816110118454610ea9565b84610f9a565b602080601f83116001811461104c57600084156110345750858301515b600019600386901b1c1916600185901b178555610fe0565b600085815260208120601f198616915b8281101561107b5788860151825594840194600190910190840161105c565b50858210156110995787850151600019600388901b60f8161c191681555b5050505050600190811b01905550565b818103818111156110ca57634e487b7160e01b600052601160045260246000fd5b92915050565b6020808252602b908201527f496e697469616c697a61626c653a20636f6e7472616374206973206e6f74206960408201526a6e697469616c697a696e6760a81b60608201526080019056fea26469706673582212205bc29c9c3c64fc7ec5fcb831d05bc10534b5e2261dd5c4f9940ed82c9db99ae964736f6c63430008110033",
  "devdoc": {
    "kind": "dev",
    "methods": {
      "owner()": {
        "details": "Returns the address of the current owner."
      },
      "paused()": {
        "details": "Returns true if the contract is paused, and false otherwise."
      },
      "renounceOwnership()": {
        "details": "Leaves the contract without owner. It will not be possible to call `onlyOwner` functions anymore. Can only be called by the current owner. NOTE: Renouncing ownership will leave the contract without an owner, thereby removing any functionality that is only available to the owner."
      },
      "transferOwnership(address)": {
        "details": "Transfers ownership of the contract to a new account (`newOwner`). Can only be called by the current owner."
      }
    },
    "stateVariables": {
      "aliasOwners": {
        "details": "Alias Name -> Owner"
      },
      "aliasURLs": {
        "details": "Alias Name -> URL"
      },
      "urlUpdatePrice": {
        "details": "Price for the url update"
      }
    },
    "version": 1
  },
  "userdoc": {
    "kind": "user",
    "methods": {},
    "version": 1
  },
  "storageLayout": {
    "storage": [
      {
        "astId": 138,
        "contract": "contracts/VanityURL.sol:VanityURL",
        "label": "_initialized",
        "offset": 0,
        "slot": "0",
        "type": "t_uint8"
      },
      {
        "astId": 141,
        "contract": "contracts/VanityURL.sol:VanityURL",
        "label": "_initializing",
        "offset": 1,
        "slot": "0",
        "type": "t_bool"
      },
      {
        "astId": 825,
        "contract": "contracts/VanityURL.sol:VanityURL",
        "label": "__gap",
        "offset": 0,
        "slot": "1",
        "type": "t_array(t_uint256)50_storage"
      },
      {
        "astId": 10,
        "contract": "contracts/VanityURL.sol:VanityURL",
        "label": "_owner",
        "offset": 0,
        "slot": "51",
        "type": "t_address"
      },
      {
        "astId": 130,
        "contract": "contracts/VanityURL.sol:VanityURL",
        "label": "__gap",
        "offset": 0,
        "slot": "52",
        "type": "t_array(t_uint256)49_storage"
      },
      {
        "astId": 321,
        "contract": "contracts/VanityURL.sol:VanityURL",
        "label": "_paused",
        "offset": 0,
        "slot": "101",
        "type": "t_bool"
      },
      {
        "astId": 426,
        "contract": "contracts/VanityURL.sol:VanityURL",
        "label": "__gap",
        "offset": 0,
        "slot": "102",
        "type": "t_array(t_uint256)49_storage"
      },
      {
        "astId": 441,
        "contract": "contracts/VanityURL.sol:VanityURL",
        "label": "_status",
        "offset": 0,
        "slot": "151",
        "type": "t_uint256"
      },
      {
        "astId": 499,
        "contract": "contracts/VanityURL.sol:VanityURL",
        "label": "__gap",
        "offset": 0,
        "slot": "152",
        "type": "t_array(t_uint256)49_storage"
      },
      {
        "astId": 842,
        "contract": "contracts/VanityURL.sol:VanityURL",
        "label": "aliasOwners",
        "offset": 0,
        "slot": "201",
        "type": "t_mapping(t_string_memory_ptr,t_address)"
      },
      {
        "astId": 847,
        "contract": "contracts/VanityURL.sol:VanityURL",
        "label": "aliasURLs",
        "offset": 0,
        "slot": "202",
        "type": "t_mapping(t_string_memory_ptr,t_string_storage)"
      },
      {
        "astId": 850,
        "contract": "contracts/VanityURL.sol:VanityURL",
        "label": "urlUpdatePrice",
        "offset": 0,
        "slot": "203",
        "type": "t_uint256"
      }
    ],
    "types": {
      "t_address": {
        "encoding": "inplace",
        "label": "address",
        "numberOfBytes": "20"
      },
      "t_array(t_uint256)49_storage": {
        "base": "t_uint256",
        "encoding": "inplace",
        "label": "uint256[49]",
        "numberOfBytes": "1568"
      },
      "t_array(t_uint256)50_storage": {
        "base": "t_uint256",
        "encoding": "inplace",
        "label": "uint256[50]",
        "numberOfBytes": "1600"
      },
      "t_bool": {
        "encoding": "inplace",
        "label": "bool",
        "numberOfBytes": "1"
      },
      "t_mapping(t_string_memory_ptr,t_address)": {
        "encoding": "mapping",
        "key": "t_string_memory_ptr",
        "label": "mapping(string => address)",
        "numberOfBytes": "32",
        "value": "t_address"
      },
      "t_mapping(t_string_memory_ptr,t_string_storage)": {
        "encoding": "mapping",
        "key": "t_string_memory_ptr",
        "label": "mapping(string => string)",
        "numberOfBytes": "32",
        "value": "t_string_storage"
      },
      "t_string_memory_ptr": {
        "encoding": "bytes",
        "label": "string",
        "numberOfBytes": "32"
      },
      "t_string_storage": {
        "encoding": "bytes",
        "label": "string",
        "numberOfBytes": "32"
      },
      "t_uint256": {
        "encoding": "inplace",
        "label": "uint256",
        "numberOfBytes": "32"
      },
      "t_uint8": {
        "encoding": "inplace",
        "label": "uint8",
        "numberOfBytes": "1"
      }
    }
  }
}