{
  "address": "0xf8B46a482558aE0aBB07f81A69A6978c3ac8EC54",
  "abi": [
    {
      "anonymous": false,
      "inputs": [
        {
          "indexed": false,
          "internalType": "uint8",
          "name": "version",
          "type": "uint8"
        }
      ],
      "name": "Initialized",
      "type": "event"
    },
    {
      "anonymous": false,
      "inputs": [
        {
          "indexed": false,
          "internalType": "address",
          "name": "by",
          "type": "address"
        },
        {
          "indexed": true,
          "internalType": "string",
          "name": "name",
          "type": "string"
        },
        {
          "indexed": true,
          "internalType": "string",
          "name": "aliasName",
          "type": "string"
        },
        {
          "indexed": true,
          "internalType": "string",
          "name": "url",
          "type": "string"
        }
      ],
      "name": "NewURLSet",
      "type": "event"
    },
    {
      "anonymous": false,
      "inputs": [
        {
          "indexed": true,
          "internalType": "address",
          "name": "previousOwner",
          "type": "address"
        },
        {
          "indexed": true,
          "internalType": "address",
          "name": "newOwner",
          "type": "address"
        }
      ],
      "name": "OwnershipTransferred",
      "type": "event"
    },
    {
      "anonymous": false,
      "inputs": [
        {
          "indexed": false,
          "internalType": "address",
          "name": "account",
          "type": "address"
        }
      ],
      "name": "Paused",
      "type": "event"
    },
    {
      "anonymous": false,
      "inputs": [
        {
          "indexed": true,
          "internalType": "address",
          "name": "from",
          "type": "address"
        },
        {
          "indexed": true,
          "internalType": "address",
          "name": "to",
          "type": "address"
        }
      ],
      "name": "RevenueAccountChanged",
      "type": "event"
    },
    {
      "anonymous": false,
      "inputs": [
        {
          "indexed": false,
          "internalType": "address",
          "name": "by",
          "type": "address"
        },
        {
          "indexed": true,
          "internalType": "string",
          "name": "name",
          "type": "string"
        },
        {
          "indexed": true,
          "internalType": "string",
          "name": "aliasName",
          "type": "string"
        },
        {
          "indexed": true,
          "internalType": "string",
          "name": "url",
          "type": "string"
        }
      ],
      "name": "URLDeleted",
      "type": "event"
    },
    {
      "anonymous": false,
      "inputs": [
        {
          "indexed": false,
          "internalType": "address",
          "name": "by",
          "type": "address"
        },
        {
          "indexed": true,
          "internalType": "string",
          "name": "name",
          "type": "string"
        },
        {
          "indexed": true,
          "internalType": "string",
          "name": "aliasName",
          "type": "string"
        },
        {
          "indexed": false,
          "internalType": "string",
          "name": "oldURL",
          "type": "string"
        },
        {
          "indexed": true,
          "internalType": "string",
          "name": "newURL",
          "type": "string"
        }
      ],
      "name": "URLUpdated",
      "type": "event"
    },
    {
      "anonymous": false,
      "inputs": [
        {
          "indexed": false,
          "internalType": "address",
          "name": "account",
          "type": "address"
        }
      ],
      "name": "Unpaused",
      "type": "event"
    },
    {
      "inputs": [],
      "name": "addressRegistry",
      "outputs": [
        {
          "internalType": "contract IAddressRegistry",
          "name": "",
          "type": "address"
        }
      ],
      "stateMutability": "view",
      "type": "function"
    },
    {
      "inputs": [
        {
          "internalType": "string",
          "name": "_name",
          "type": "string"
        },
        {
          "internalType": "string",
          "name": "_aliasName",
          "type": "string"
        }
      ],
      "name": "checkURLValidity",
      "outputs": [
        {
          "internalType": "bool",
          "name": "",
          "type": "bool"
        }
      ],
      "stateMutability": "view",
      "type": "function"
    },
    {
      "inputs": [
        {
          "internalType": "string",
          "name": "_name",
          "type": "string"
        },
        {
          "internalType": "string",
          "name": "_aliasName",
          "type": "string"
        }
      ],
      "name": "deleteURL",
      "outputs": [],
      "stateMutability": "nonpayable",
      "type": "function"
    },
    {
      "inputs": [
        {
          "internalType": "string",
          "name": "_name",
          "type": "string"
        },
        {
          "internalType": "string",
          "name": "_aliasName",
          "type": "string"
        }
      ],
      "name": "getURL",
      "outputs": [
        {
          "internalType": "string",
          "name": "",
          "type": "string"
        }
      ],
      "stateMutability": "view",
      "type": "function"
    },
    {
      "inputs": [
        {
          "internalType": "address",
          "name": "_addressRegistry",
          "type": "address"
        },
        {
          "internalType": "uint256",
          "name": "_urlUpdatePrice",
          "type": "uint256"
        },
        {
          "internalType": "address",
          "name": "_revenueAccount",
          "type": "address"
        }
      ],
      "name": "initialize",
      "outputs": [],
      "stateMutability": "nonpayable",
      "type": "function"
    },
    {
      "inputs": [
        {
          "internalType": "bytes32",
          "name": "",
          "type": "bytes32"
        }
      ],
      "name": "nameOwnerUpdateAt",
      "outputs": [
        {
          "internalType": "uint256",
          "name": "",
          "type": "uint256"
        }
      ],
      "stateMutability": "view",
      "type": "function"
    },
    {
      "inputs": [],
      "name": "owner",
      "outputs": [
        {
          "internalType": "address",
          "name": "",
          "type": "address"
        }
      ],
      "stateMutability": "view",
      "type": "function"
    },
    {
      "inputs": [],
      "name": "paused",
      "outputs": [
        {
          "internalType": "bool",
          "name": "",
          "type": "bool"
        }
      ],
      "stateMutability": "view",
      "type": "function"
    },
    {
      "inputs": [],
      "name": "renounceOwnership",
      "outputs": [],
      "stateMutability": "nonpayable",
      "type": "function"
    },
    {
      "inputs": [],
      "name": "revenueAccount",
      "outputs": [
        {
          "internalType": "address",
          "name": "",
          "type": "address"
        }
      ],
      "stateMutability": "view",
      "type": "function"
    },
    {
      "inputs": [
        {
          "internalType": "bytes32",
          "name": "_d1dcV2TokenId",
          "type": "bytes32"
        }
      ],
      "name": "setNameOwnerUpdateAt",
      "outputs": [],
      "stateMutability": "nonpayable",
      "type": "function"
    },
    {
      "inputs": [
        {
          "internalType": "string",
          "name": "_name",
          "type": "string"
        },
        {
          "internalType": "string",
          "name": "_aliasName",
          "type": "string"
        },
        {
          "internalType": "string",
          "name": "_url",
          "type": "string"
        }
      ],
      "name": "setNewURL",
      "outputs": [],
      "stateMutability": "payable",
      "type": "function"
    },
    {
      "inputs": [
        {
          "internalType": "address",
          "name": "_revenueAccount",
          "type": "address"
        }
      ],
      "name": "setRevenueAccount",
      "outputs": [],
      "stateMutability": "nonpayable",
      "type": "function"
    },
    {
      "inputs": [
        {
          "internalType": "address",
          "name": "newOwner",
          "type": "address"
        }
      ],
      "name": "transferOwnership",
      "outputs": [],
      "stateMutability": "nonpayable",
      "type": "function"
    },
    {
      "inputs": [
        {
          "internalType": "string",
          "name": "_name",
          "type": "string"
        },
        {
          "internalType": "string",
          "name": "_aliasName",
          "type": "string"
        },
        {
          "internalType": "string",
          "name": "_url",
          "type": "string"
        }
      ],
      "name": "updateURL",
      "outputs": [],
      "stateMutability": "nonpayable",
      "type": "function"
    },
    {
      "inputs": [
        {
          "internalType": "uint256",
          "name": "_urlUpdatePrice",
          "type": "uint256"
        }
      ],
      "name": "updateURLUpdatePrice",
      "outputs": [],
      "stateMutability": "nonpayable",
      "type": "function"
    },
    {
      "inputs": [],
      "name": "urlUpdatePrice",
      "outputs": [
        {
          "internalType": "uint256",
          "name": "",
          "type": "uint256"
        }
      ],
      "stateMutability": "view",
      "type": "function"
    },
    {
      "inputs": [
        {
          "internalType": "bytes32",
          "name": "",
          "type": "bytes32"
        },
        {
          "internalType": "string",
          "name": "",
          "type": "string"
        },
        {
          "internalType": "string",
          "name": "",
          "type": "string"
        }
      ],
      "name": "vanityURLUpdatedAt",
      "outputs": [
        {
          "internalType": "uint256",
          "name": "",
          "type": "uint256"
        }
      ],
      "stateMutability": "view",
      "type": "function"
    },
    {
      "inputs": [
        {
          "internalType": "bytes32",
          "name": "",
          "type": "bytes32"
        },
        {
          "internalType": "string",
          "name": "",
          "type": "string"
        }
      ],
      "name": "vanityURLs",
      "outputs": [
        {
          "internalType": "string",
          "name": "",
          "type": "string"
        }
      ],
      "stateMutability": "view",
      "type": "function"
    },
    {
      "inputs": [],
      "name": "withdraw",
      "outputs": [],
      "stateMutability": "nonpayable",
      "type": "function"
    }
  ],
  "transactionHash": "0xe1314e920ca400b57fbaf2edbd8a03cbc162cbee362e7197d43c063a7856669b",
  "args": [],
  "numDeployments": 3,
  "solcInputHash": "967db2b953ba1402ae14580c2454da5c",
  "bytecode": "0x608060405234801561001057600080fd5b506121a2806100206000396000f3fe60806040526004361061011f5760003560e01c8063b2867247116100a0578063e3452cfb11610064578063e3452cfb14610351578063f1558de714610371578063f2fde38b1461039e578063f3ad65f4146103be578063f5dc7d56146103de57600080fd5b8063b2867247146102bb578063c350a1b5146102db578063d22da075146102fb578063d6c5b8c914610311578063dce02fdb1461033157600080fd5b80635c975abb116100e75780635c975abb146101c45780635de870c9146101e8578063715018a614610208578063874d037a1461021d5780638da5cb5b1461028957600080fd5b806305e66add1461012457806330027f3b1461015a5780633b5138941461017c5780633ccfd60b1461018f5780635b9299cd146101a4575b600080fd5b34801561013057600080fd5b5061014461013f366004611990565b6103fe565b60405161015191906119fb565b60405180910390f35b34801561016657600080fd5b5061017a610175366004611a43565b6104b4565b005b61017a61018a366004611ab0565b610518565b34801561019b57600080fd5b5061017a610982565b3480156101b057600080fd5b5061017a6101bf366004611b4a565b610aa6565b3480156101d057600080fd5b5060655460ff165b6040519015158152602001610151565b3480156101f457600080fd5b5061017a610203366004611b63565b610ab3565b34801561021457600080fd5b5061017a610ebc565b34801561022957600080fd5b5061027b610238366004611bcf565b60cc602090815260009384526040909320825180840185018051928152908501938501939093209252805180820184018051938152908401919093012091525481565b604051908152602001610151565b34801561029557600080fd5b506033546001600160a01b03165b6040516001600160a01b039091168152602001610151565b3480156102c757600080fd5b506101446102d6366004611b63565b610ed0565b3480156102e757600080fd5b5061017a6102f6366004611c3c565b610faf565b34801561030757600080fd5b5061027b60cd5481565b34801561031d57600080fd5b506101d861032c366004611c7e565b611100565b34801561033d57600080fd5b5061017a61034c366004611b4a565b61123e565b34801561035d57600080fd5b5061017a61036c366004611ab0565b6112ea565b34801561037d57600080fd5b5061027b61038c366004611b4a565b60ca6020526000908152604090205481565b3480156103aa57600080fd5b5061017a6103b9366004611a43565b61164e565b3480156103ca57600080fd5b5060c9546102a3906001600160a01b031681565b3480156103ea57600080fd5b5060ce546102a3906001600160a01b031681565b60cb60209081526000928352604090922081518083018401805192815290840192909301919091209152805461043390611cd8565b80601f016020809104026020016040519081016040528092919081815260200182805461045f90611cd8565b80156104ac5780601f10610481576101008083540402835291602001916104ac565b820191906000526020600020905b81548152906001019060200180831161048f57829003601f168201915b505050505081565b6104bc6116c4565b60ce546040516001600160a01b038084169216907fe03b0e59900b6347a6bdef98fe51689d53064c5235a2ca9fc10a27c497ec730790600090a360ce80546001600160a01b0319166001600160a01b0392909216919091179055565b61052061171e565b610528611777565b85858080601f0160208091040260200160405190810160405280939291908181526020018383808284376000920182905250845160208087019190912060c95460408051631177e3cf60e01b815290519297509395506001600160a01b03169350631177e3cf9260048082019392918290030181865afa1580156105b0573d6000803e3d6000fd5b505050506040513d601f19601f820116820180604052508101906105d49190611d12565b6040516375ba902160e11b8152600481018490529091506000906001600160a01b0383169063eb75204290602401600060405180830381865afa15801561061f573d6000803e3d6000fd5b505050506040513d6000823e601f3d908101601f191682016040526106479190810190611d7c565b50505050509050806001600160a01b0316336001600160a01b0316146106885760405162461bcd60e51b815260040161067f90611e3d565b60405180910390fd5b60008a8a60405161069a929190611e6d565b604051809103902090506107178b8b8080601f01602080910402602001604051908101604052809392919081815260200183838082843760009201919091525050604080516020601f8f018190048102820181019092528d815292508d91508c908190840183828082843760009201919091525061110092505050565b156107645760405162461bcd60e51b815260206004820152601d60248201527f56616e69747955524c3a2075726c20616c726561647920657869737473000000604482015260640161067f565b60cd54348111156107b75760405162461bcd60e51b815260206004820152601f60248201527f56616e69747955524c3a20696e73756666696369656e74207061796d656e7400604482015260640161067f565b878760cb60008581526020019081526020016000208c8c6040516107dc929190611e6d565b908152602001604051809103902091826107f7929190611ec8565b504260cc60008481526020019081526020016000208b8b60405161081c929190611e6d565b9081526020016040518091039020898960405161083a929190611e6d565b9081526040519081900360200190205560006108568234611f89565b905080156108ef57604051600090339083908381818185875af1925050503d80600081146108a0576040519150601f19603f3d011682016040523d82523d6000602084013e6108a5565b606091505b50509050806108ed5760405162461bcd60e51b815260206004820152601460248201527363616e6e6f7420726566756e642065786365737360601b604482015260640161067f565b505b88886040516108ff929190611e6d565b60405180910390208b8b604051610917929190611e6d565b60405180910390208e8e60405161092f929190611e6d565b604051908190038120338252907f13e9759ec5026e955e0e6d2ead4f13f2125d2d68a621346a3ed77c4aa5f28de19060200160405180910390a45050505050505061097a6001609755565b505050505050565b6033546001600160a01b03163314806109a5575060ce546001600160a01b031633145b610a005760405162461bcd60e51b815260206004820152602660248201527f443144433a206d757374206265206f776e6572206f7220726576656e7565206160448201526518d8dbdd5b9d60d21b606482015260840161067f565b60ce546040516000916001600160a01b03169047908381818185875af1925050503d8060008114610a4d576040519150601f19603f3d011682016040523d82523d6000602084013e610a52565b606091505b5050905080610aa35760405162461bcd60e51b815260206004820152601860248201527f443144433a206661696c656420746f2077697468647261770000000000000000604482015260640161067f565b50565b610aae6116c4565b60cd55565b610abb611777565b83838080601f0160208091040260200160405190810160405280939291908181526020018383808284376000920182905250845160208087019190912060c95460408051631177e3cf60e01b815290519297509395506001600160a01b03169350631177e3cf9260048082019392918290030181865afa158015610b43573d6000803e3d6000fd5b505050506040513d601f19601f82011682018060405250810190610b679190611d12565b6040516375ba902160e11b8152600481018490529091506000906001600160a01b0383169063eb75204290602401600060405180830381865afa158015610bb2573d6000803e3d6000fd5b505050506040513d6000823e601f3d908101601f19168201604052610bda9190810190611d7c565b50505050509050806001600160a01b0316336001600160a01b031614610c125760405162461bcd60e51b815260040161067f90611e3d565b60008888604051610c24929190611e6d565b60408051918290038220600081815260cb6020529182209093509091610c4d908a908a90611e6d565b90815260200160405180910390208054610c6690611cd8565b80601f0160208091040260200160405190810160405280929190818152602001828054610c9290611cd8565b8015610cdf5780601f10610cb457610100808354040283529160200191610cdf565b820191906000526020600020905b815481529060010190602001808311610cc257829003601f168201915b50505050509050610d598a8a8080601f01602080910402602001604051908101604052809392919081815260200183838082843760009201919091525050604080516020601f8e018190048102820181019092528c815292508c91508b908190840183828082843760009201919091525061110092505050565b610d9e5760405162461bcd60e51b815260206004820152601660248201527515985b9a5d1e5554930e881a5b9d985b1a590815549360521b604482015260640161067f565b80604051610dac9190611faa565b60405180910390208888604051610dc4929190611e6d565b60405180910390208b8b604051610ddc929190611e6d565b604051908190038120338252907f0ebb99856fe845dcc1e2291e7f2d8ac960cacfe58868974461990868583d62129060200160405180910390a46040805160208082018352600080835285815260cb909152829020915190918291610e44908c908c90611e6d565b90815260200160405180910390209081610e5e9190611fc6565b504260cc60008581526020019081526020016000208a8a604051610e83929190611e6d565b908152602001604051809103902082604051610e9f9190611faa565b908152604051908190036020019020555050505050505050505050565b610ec46116c4565b610ece60006117c4565b565b606060008585604051610ee4929190611e6d565b60408051918290038220600081815260cb6020529190912090925090610f0d9086908690611e6d565b90815260200160405180910390208054610f2690611cd8565b80601f0160208091040260200160405190810160405280929190818152602001828054610f5290611cd8565b8015610f9f5780601f10610f7457610100808354040283529160200191610f9f565b820191906000526020600020905b815481529060010190602001808311610f8257829003601f168201915b5050505050915050949350505050565b600054610100900460ff1615808015610fcf5750600054600160ff909116105b80610fe95750303b158015610fe9575060005460ff166001145b61104c5760405162461bcd60e51b815260206004820152602e60248201527f496e697469616c697a61626c653a20636f6e747261637420697320616c72656160448201526d191e481a5b9a5d1a585b1a5e995960921b606482015260840161067f565b6000805460ff19166001179055801561106f576000805461ff0019166101001790555b611077611816565b61107f611845565b60c980546001600160a01b038087166001600160a01b03199283161790925560cd85905560ce80549285169290911691909117905580156110fa576000805461ff0019169055604051600181527f7f26b83ff96e1f2b6a682f133852f6798a09c465da95921460cefb38474024989060200160405180910390a15b50505050565b8151602080840191909120600081815260cb9092526040808320905183919061112a908690611faa565b9081526020016040518091039020805461114390611cd8565b80601f016020809104026020016040519081016040528092919081815260200182805461116f90611cd8565b80156111bc5780601f10611191576101008083540402835291602001916111bc565b820191906000526020600020905b81548152906001019060200180831161119f57829003601f168201915b5050505050905060cc6000838152602001908152602001600020846040516111e49190611faa565b9081526020016040518091039020816040516112009190611faa565b90815260200160405180910390205460ca6000848152602001908152602001600020541115611230576000611233565b60015b925050505b92915050565b60c95460408051631177e3cf60e01b815290516000926001600160a01b031691631177e3cf9160048083019260209291908290030181865afa158015611288573d6000803e3d6000fd5b505050506040513d601f19601f820116820180604052508101906112ac9190611d12565b9050336001600160a01b038216146112d65760405162461bcd60e51b815260040161067f90611e3d565b50600090815260ca60205260409020429055565b6112f2611777565b85858080601f0160208091040260200160405190810160405280939291908181526020018383808284376000920182905250845160208087019190912060c95460408051631177e3cf60e01b815290519297509395506001600160a01b03169350631177e3cf9260048082019392918290030181865afa15801561137a573d6000803e3d6000fd5b505050506040513d601f19601f8201168201806040525081019061139e9190611d12565b6040516375ba902160e11b8152600481018490529091506000906001600160a01b0383169063eb75204290602401600060405180830381865afa1580156113e9573d6000803e3d6000fd5b505050506040513d6000823e601f3d908101601f191682016040526114119190810190611d7c565b50505050509050806001600160a01b0316336001600160a01b0316146114495760405162461bcd60e51b815260040161067f90611e3d565b60008a8a60405161145b929190611e6d565b604051809103902090506114d88b8b8080601f01602080910402602001604051908101604052809392919081815260200183838082843760009201919091525050604080516020601f8f018190048102820181019092528d815292508d91508c908190840183828082843760009201919091525061110092505050565b61151d5760405162461bcd60e51b815260206004820152601660248201527515985b9a5d1e5554930e881a5b9d985b1a590815549360521b604482015260640161067f565b868660405161152d929190611e6d565b60405180910390208989604051611545929190611e6d565b60405180910390208c8c60405161155d929190611e6d565b60405180910390207fb50e10d60f9b32ef3d334612dab67fef5b70a8634f47d76d0ed93a7729fec3353360cb60008781526020019081526020016000208e8e6040516115aa929190611e6d565b9081526040519081900360200181206115c39291612086565b60405180910390a4868660cb60008481526020019081526020016000208b8b6040516115f0929190611e6d565b9081526020016040518091039020918261160b929190611ec8565b504260cc60008381526020019081526020016000208a8a604051611630929190611e6d565b90815260200160405180910390208888604051610e9f929190611e6d565b6116566116c4565b6001600160a01b0381166116bb5760405162461bcd60e51b815260206004820152602660248201527f4f776e61626c653a206e6577206f776e657220697320746865207a65726f206160448201526564647265737360d01b606482015260840161067f565b610aa3816117c4565b6033546001600160a01b03163314610ece5760405162461bcd60e51b815260206004820181905260248201527f4f776e61626c653a2063616c6c6572206973206e6f7420746865206f776e6572604482015260640161067f565b6002609754036117705760405162461bcd60e51b815260206004820152601f60248201527f5265656e7472616e637947756172643a207265656e7472616e742063616c6c00604482015260640161067f565b6002609755565b60655460ff1615610ece5760405162461bcd60e51b815260206004820152601060248201526f14185d5cd8589b194e881c185d5cd95960821b604482015260640161067f565b6001609755565b603380546001600160a01b038381166001600160a01b0319831681179093556040519116919082907f8be0079c531659141344cd1fd0a4f28419497f9722a3daafe3b4186f6b6457e090600090a35050565b600054610100900460ff1661183d5760405162461bcd60e51b815260040161067f90612121565b610ece611874565b600054610100900460ff1661186c5760405162461bcd60e51b815260040161067f90612121565b610ece6118a4565b600054610100900460ff1661189b5760405162461bcd60e51b815260040161067f90612121565b610ece336117c4565b600054610100900460ff166117bd5760405162461bcd60e51b815260040161067f90612121565b634e487b7160e01b600052604160045260246000fd5b604051601f8201601f1916810167ffffffffffffffff8111828210171561190a5761190a6118cb565b604052919050565b600067ffffffffffffffff82111561192c5761192c6118cb565b50601f01601f191660200190565b600082601f83011261194b57600080fd5b813561195e61195982611912565b6118e1565b81815284602083860101111561197357600080fd5b816020850160208301376000918101602001919091529392505050565b600080604083850312156119a357600080fd5b82359150602083013567ffffffffffffffff8111156119c157600080fd5b6119cd8582860161193a565b9150509250929050565b60005b838110156119f25781810151838201526020016119da565b50506000910152565b6020815260008251806020840152611a1a8160408501602087016119d7565b601f01601f19169190910160400192915050565b6001600160a01b0381168114610aa357600080fd5b600060208284031215611a5557600080fd5b8135611a6081611a2e565b9392505050565b60008083601f840112611a7957600080fd5b50813567ffffffffffffffff811115611a9157600080fd5b602083019150836020828501011115611aa957600080fd5b9250929050565b60008060008060008060608789031215611ac957600080fd5b863567ffffffffffffffff80821115611ae157600080fd5b611aed8a838b01611a67565b90985096506020890135915080821115611b0657600080fd5b611b128a838b01611a67565b90965094506040890135915080821115611b2b57600080fd5b50611b3889828a01611a67565b979a9699509497509295939492505050565b600060208284031215611b5c57600080fd5b5035919050565b60008060008060408587031215611b7957600080fd5b843567ffffffffffffffff80821115611b9157600080fd5b611b9d88838901611a67565b90965094506020870135915080821115611bb657600080fd5b50611bc387828801611a67565b95989497509550505050565b600080600060608486031215611be457600080fd5b83359250602084013567ffffffffffffffff80821115611c0357600080fd5b611c0f8783880161193a565b93506040860135915080821115611c2557600080fd5b50611c328682870161193a565b9150509250925092565b600080600060608486031215611c5157600080fd5b8335611c5c81611a2e565b9250602084013591506040840135611c7381611a2e565b809150509250925092565b60008060408385031215611c9157600080fd5b823567ffffffffffffffff80821115611ca957600080fd5b611cb58683870161193a565b93506020850135915080821115611ccb57600080fd5b506119cd8582860161193a565b600181811c90821680611cec57607f821691505b602082108103611d0c57634e487b7160e01b600052602260045260246000fd5b50919050565b600060208284031215611d2457600080fd5b8151611a6081611a2e565b600082601f830112611d4057600080fd5b8151611d4e61195982611912565b818152846020838601011115611d6357600080fd5b611d748260208301602087016119d7565b949350505050565b60008060008060008060c08789031215611d9557600080fd5b8651611da081611a2e565b602088015190965063ffffffff81168114611dba57600080fd5b60408801516060890151919650945067ffffffffffffffff80821115611ddf57600080fd5b611deb8a838b01611d2f565b94506080890151915080821115611e0157600080fd5b611e0d8a838b01611d2f565b935060a0890151915080821115611e2357600080fd5b50611e3089828a01611d2f565b9150509295509295509295565b6020808252601690820152752b30b734ba3caaa9261d1037b7363c902218a221ab1960511b604082015260600190565b8183823760009101908152919050565b601f821115611ec357600081815260208120601f850160051c81016020861015611ea45750805b601f850160051c820191505b8181101561097a57828155600101611eb0565b505050565b67ffffffffffffffff831115611ee057611ee06118cb565b611ef483611eee8354611cd8565b83611e7d565b6000601f841160018114611f285760008515611f105750838201355b600019600387901b1c1916600186901b178355611f82565b600083815260209020601f19861690835b82811015611f595786850135825560209485019460019092019101611f39565b5086821015611f765760001960f88860031b161c19848701351681555b505060018560011b0183555b5050505050565b8181038181111561123857634e487b7160e01b600052601160045260246000fd5b60008251611fbc8184602087016119d7565b9190910192915050565b815167ffffffffffffffff811115611fe057611fe06118cb565b611ff481611fee8454611cd8565b84611e7d565b602080601f83116001811461202957600084156120115750858301515b600019600386901b1c1916600185901b17855561097a565b600085815260208120601f198616915b8281101561205857888601518255948401946001909101908401612039565b50858210156120765787850151600019600388901b60f8161c191681555b5050505050600190811b01905550565b60018060a01b038316815260006020604081840152600084546120a881611cd8565b80604087015260606001808416600081146120ca57600181146120e457612112565b60ff1985168984015283151560051b890183019550612112565b896000528660002060005b8581101561210a5781548b82018601529083019088016120ef565b8a0184019650505b50939998505050505050505050565b6020808252602b908201527f496e697469616c697a61626c653a20636f6e7472616374206973206e6f74206960408201526a6e697469616c697a696e6760a81b60608201526080019056fea264697066735822122023f7dc7c24bc89847451034d19e44c295363716339322c36047eeb5f6f1752f264736f6c63430008110033",
  "devdoc": {
    "kind": "dev",
    "methods": {
      "owner()": {
        "details": "Returns the address of the current owner."
      },
      "paused()": {
        "details": "Returns true if the contract is paused, and false otherwise."
      },
      "renounceOwnership()": {
        "details": "Leaves the contract without owner. It will not be possible to call `onlyOwner` functions anymore. Can only be called by the current owner. NOTE: Renouncing ownership will leave the contract without an owner, thereby removing any functionality that is only available to the owner."
      },
      "transferOwnership(address)": {
        "details": "Transfers ownership of the contract to a new account (`newOwner`). Can only be called by the current owner."
      }
    },
    "stateVariables": {
      "addressRegistry": {
        "details": "AddressRegistry contract"
      },
      "nameOwnerUpdateAt": {
        "details": "D1DCV2 TokenId -> Timestamp the name owner was updated"
      },
      "revenueAccount": {
        "details": "Fee withdrawal address"
      },
      "urlUpdatePrice": {
        "details": "Price for the url update"
      },
      "vanityURLUpdatedAt": {
        "details": "D1DCV2 Token Id -> Alias Name -> Vanity URL -> Timestamp the URL was updatedVanity URL is valid only if nameOwnerUpdateAt <= vanityURLUpdatedAt"
      },
      "vanityURLs": {
        "details": "D1DCV2 TokenId -> Alias Name -> URL"
      }
    },
    "version": 1
  },
  "userdoc": {
    "kind": "user",
    "methods": {},
    "version": 1
  },
  "storageLayout": {
    "storage": [
      {
        "astId": 138,
        "contract": "contracts/VanityURL.sol:VanityURL",
        "label": "_initialized",
        "offset": 0,
        "slot": "0",
        "type": "t_uint8"
      },
      {
        "astId": 141,
        "contract": "contracts/VanityURL.sol:VanityURL",
        "label": "_initializing",
        "offset": 1,
        "slot": "0",
        "type": "t_bool"
      },
      {
        "astId": 825,
        "contract": "contracts/VanityURL.sol:VanityURL",
        "label": "__gap",
        "offset": 0,
        "slot": "1",
        "type": "t_array(t_uint256)50_storage"
      },
      {
        "astId": 10,
        "contract": "contracts/VanityURL.sol:VanityURL",
        "label": "_owner",
        "offset": 0,
        "slot": "51",
        "type": "t_address"
      },
      {
        "astId": 130,
        "contract": "contracts/VanityURL.sol:VanityURL",
        "label": "__gap",
        "offset": 0,
        "slot": "52",
        "type": "t_array(t_uint256)49_storage"
      },
      {
        "astId": 321,
        "contract": "contracts/VanityURL.sol:VanityURL",
        "label": "_paused",
        "offset": 0,
        "slot": "101",
        "type": "t_bool"
      },
      {
        "astId": 426,
        "contract": "contracts/VanityURL.sol:VanityURL",
        "label": "__gap",
        "offset": 0,
        "slot": "102",
        "type": "t_array(t_uint256)49_storage"
      },
      {
        "astId": 441,
        "contract": "contracts/VanityURL.sol:VanityURL",
        "label": "_status",
        "offset": 0,
        "slot": "151",
        "type": "t_uint256"
      },
      {
        "astId": 499,
        "contract": "contracts/VanityURL.sol:VanityURL",
        "label": "__gap",
        "offset": 0,
        "slot": "152",
        "type": "t_array(t_uint256)49_storage"
      },
      {
        "astId": 843,
        "contract": "contracts/VanityURL.sol:VanityURL",
        "label": "addressRegistry",
        "offset": 0,
        "slot": "201",
        "type": "t_contract(IAddressRegistry)1386"
      },
      {
        "astId": 848,
        "contract": "contracts/VanityURL.sol:VanityURL",
        "label": "nameOwnerUpdateAt",
        "offset": 0,
        "slot": "202",
        "type": "t_mapping(t_bytes32,t_uint256)"
      },
      {
        "astId": 855,
        "contract": "contracts/VanityURL.sol:VanityURL",
        "label": "vanityURLs",
        "offset": 0,
        "slot": "203",
        "type": "t_mapping(t_bytes32,t_mapping(t_string_memory_ptr,t_string_storage))"
      },
      {
        "astId": 864,
        "contract": "contracts/VanityURL.sol:VanityURL",
        "label": "vanityURLUpdatedAt",
        "offset": 0,
        "slot": "204",
        "type": "t_mapping(t_bytes32,t_mapping(t_string_memory_ptr,t_mapping(t_string_memory_ptr,t_uint256)))"
      },
      {
        "astId": 867,
        "contract": "contracts/VanityURL.sol:VanityURL",
        "label": "urlUpdatePrice",
        "offset": 0,
        "slot": "205",
        "type": "t_uint256"
      },
      {
        "astId": 870,
        "contract": "contracts/VanityURL.sol:VanityURL",
        "label": "revenueAccount",
        "offset": 0,
        "slot": "206",
        "type": "t_address"
      }
    ],
    "types": {
      "t_address": {
        "encoding": "inplace",
        "label": "address",
        "numberOfBytes": "20"
      },
      "t_array(t_uint256)49_storage": {
        "base": "t_uint256",
        "encoding": "inplace",
        "label": "uint256[49]",
        "numberOfBytes": "1568"
      },
      "t_array(t_uint256)50_storage": {
        "base": "t_uint256",
        "encoding": "inplace",
        "label": "uint256[50]",
        "numberOfBytes": "1600"
      },
      "t_bool": {
        "encoding": "inplace",
        "label": "bool",
        "numberOfBytes": "1"
      },
      "t_bytes32": {
        "encoding": "inplace",
        "label": "bytes32",
        "numberOfBytes": "32"
      },
      "t_contract(IAddressRegistry)1386": {
        "encoding": "inplace",
        "label": "contract IAddressRegistry",
        "numberOfBytes": "20"
      },
      "t_mapping(t_bytes32,t_mapping(t_string_memory_ptr,t_mapping(t_string_memory_ptr,t_uint256)))": {
        "encoding": "mapping",
        "key": "t_bytes32",
        "label": "mapping(bytes32 => mapping(string => mapping(string => uint256)))",
        "numberOfBytes": "32",
        "value": "t_mapping(t_string_memory_ptr,t_mapping(t_string_memory_ptr,t_uint256))"
      },
      "t_mapping(t_bytes32,t_mapping(t_string_memory_ptr,t_string_storage))": {
        "encoding": "mapping",
        "key": "t_bytes32",
        "label": "mapping(bytes32 => mapping(string => string))",
        "numberOfBytes": "32",
        "value": "t_mapping(t_string_memory_ptr,t_string_storage)"
      },
      "t_mapping(t_bytes32,t_uint256)": {
        "encoding": "mapping",
        "key": "t_bytes32",
        "label": "mapping(bytes32 => uint256)",
        "numberOfBytes": "32",
        "value": "t_uint256"
      },
      "t_mapping(t_string_memory_ptr,t_mapping(t_string_memory_ptr,t_uint256))": {
        "encoding": "mapping",
        "key": "t_string_memory_ptr",
        "label": "mapping(string => mapping(string => uint256))",
        "numberOfBytes": "32",
        "value": "t_mapping(t_string_memory_ptr,t_uint256)"
      },
      "t_mapping(t_string_memory_ptr,t_string_storage)": {
        "encoding": "mapping",
        "key": "t_string_memory_ptr",
        "label": "mapping(string => string)",
        "numberOfBytes": "32",
        "value": "t_string_storage"
      },
      "t_mapping(t_string_memory_ptr,t_uint256)": {
        "encoding": "mapping",
        "key": "t_string_memory_ptr",
        "label": "mapping(string => uint256)",
        "numberOfBytes": "32",
        "value": "t_uint256"
      },
      "t_string_memory_ptr": {
        "encoding": "bytes",
        "label": "string",
        "numberOfBytes": "32"
      },
      "t_string_storage": {
        "encoding": "bytes",
        "label": "string",
        "numberOfBytes": "32"
      },
      "t_uint256": {
        "encoding": "inplace",
        "label": "uint256",
        "numberOfBytes": "32"
      },
      "t_uint8": {
        "encoding": "inplace",
        "label": "uint8",
        "numberOfBytes": "1"
      }
    }
  }
}