{
  "address": "0x4140A56e8A9EdDc70dA4D794b1254700c0C7dEF3",
  "abi": [
    {
      "anonymous": false,
      "inputs": [
        {
          "indexed": false,
          "internalType": "uint8",
          "name": "version",
          "type": "uint8"
        }
      ],
      "name": "Initialized",
      "type": "event"
    },
    {
      "anonymous": false,
      "inputs": [
        {
          "indexed": false,
          "internalType": "address",
          "name": "by",
          "type": "address"
        },
        {
          "indexed": true,
          "internalType": "string",
          "name": "name",
          "type": "string"
        },
        {
          "indexed": true,
          "internalType": "string",
          "name": "aliasName",
          "type": "string"
        },
        {
          "indexed": true,
          "internalType": "string",
          "name": "url",
          "type": "string"
        }
      ],
      "name": "NewURLSet",
      "type": "event"
    },
    {
      "anonymous": false,
      "inputs": [
        {
          "indexed": true,
          "internalType": "address",
          "name": "previousOwner",
          "type": "address"
        },
        {
          "indexed": true,
          "internalType": "address",
          "name": "newOwner",
          "type": "address"
        }
      ],
      "name": "OwnershipTransferred",
      "type": "event"
    },
    {
      "anonymous": false,
      "inputs": [
        {
          "indexed": false,
          "internalType": "address",
          "name": "account",
          "type": "address"
        }
      ],
      "name": "Paused",
      "type": "event"
    },
    {
      "anonymous": false,
      "inputs": [
        {
          "indexed": true,
          "internalType": "address",
          "name": "from",
          "type": "address"
        },
        {
          "indexed": true,
          "internalType": "address",
          "name": "to",
          "type": "address"
        }
      ],
      "name": "RevenueAccountChanged",
      "type": "event"
    },
    {
      "anonymous": false,
      "inputs": [
        {
          "indexed": false,
          "internalType": "address",
          "name": "by",
          "type": "address"
        },
        {
          "indexed": true,
          "internalType": "string",
          "name": "name",
          "type": "string"
        },
        {
          "indexed": true,
          "internalType": "string",
          "name": "aliasName",
          "type": "string"
        },
        {
          "indexed": true,
          "internalType": "string",
          "name": "url",
          "type": "string"
        }
      ],
      "name": "URLDeleted",
      "type": "event"
    },
    {
      "anonymous": false,
      "inputs": [
        {
          "indexed": false,
          "internalType": "address",
          "name": "by",
          "type": "address"
        },
        {
          "indexed": true,
          "internalType": "string",
          "name": "name",
          "type": "string"
        },
        {
          "indexed": true,
          "internalType": "string",
          "name": "aliasName",
          "type": "string"
        },
        {
          "indexed": false,
          "internalType": "string",
          "name": "oldURL",
          "type": "string"
        },
        {
          "indexed": true,
          "internalType": "string",
          "name": "newURL",
          "type": "string"
        }
      ],
      "name": "URLUpdated",
      "type": "event"
    },
    {
      "anonymous": false,
      "inputs": [
        {
          "indexed": false,
          "internalType": "address",
          "name": "account",
          "type": "address"
        }
      ],
      "name": "Unpaused",
      "type": "event"
    },
    {
      "inputs": [],
      "name": "addressRegistry",
      "outputs": [
        {
          "internalType": "contract IAddressRegistry",
          "name": "",
          "type": "address"
        }
      ],
      "stateMutability": "view",
      "type": "function"
    },
    {
      "inputs": [
        {
          "internalType": "string",
          "name": "_name",
          "type": "string"
        },
        {
          "internalType": "string",
          "name": "_aliasName",
          "type": "string"
        }
      ],
      "name": "deleteURL",
      "outputs": [],
      "stateMutability": "nonpayable",
      "type": "function"
    },
    {
      "inputs": [
        {
          "internalType": "string",
          "name": "_name",
          "type": "string"
        },
        {
          "internalType": "string",
          "name": "_aliasName",
          "type": "string"
        }
      ],
      "name": "getURL",
      "outputs": [
        {
          "internalType": "string",
          "name": "",
          "type": "string"
        }
      ],
      "stateMutability": "view",
      "type": "function"
    },
    {
      "inputs": [
        {
          "internalType": "address",
          "name": "_addressRegistry",
          "type": "address"
        },
        {
          "internalType": "uint256",
          "name": "_urlUpdatePrice",
          "type": "uint256"
        },
        {
          "internalType": "address",
          "name": "_revenueAccount",
          "type": "address"
        }
      ],
      "name": "initialize",
      "outputs": [],
      "stateMutability": "nonpayable",
      "type": "function"
    },
    {
      "inputs": [
        {
          "internalType": "bytes32",
          "name": "",
          "type": "bytes32"
        }
      ],
      "name": "nameOwnerUpdateAt",
      "outputs": [
        {
          "internalType": "uint256",
          "name": "",
          "type": "uint256"
        }
      ],
      "stateMutability": "view",
      "type": "function"
    },
    {
      "inputs": [],
      "name": "owner",
      "outputs": [
        {
          "internalType": "address",
          "name": "",
          "type": "address"
        }
      ],
      "stateMutability": "view",
      "type": "function"
    },
    {
      "inputs": [],
      "name": "paused",
      "outputs": [
        {
          "internalType": "bool",
          "name": "",
          "type": "bool"
        }
      ],
      "stateMutability": "view",
      "type": "function"
    },
    {
      "inputs": [],
      "name": "renounceOwnership",
      "outputs": [],
      "stateMutability": "nonpayable",
      "type": "function"
    },
    {
      "inputs": [],
      "name": "revenueAccount",
      "outputs": [
        {
          "internalType": "address",
          "name": "",
          "type": "address"
        }
      ],
      "stateMutability": "view",
      "type": "function"
    },
    {
      "inputs": [
        {
          "internalType": "bytes32",
          "name": "_d1dcV2TokenId",
          "type": "bytes32"
        }
      ],
      "name": "setNameOwnerUpdateAt",
      "outputs": [],
      "stateMutability": "nonpayable",
      "type": "function"
    },
    {
      "inputs": [
        {
          "internalType": "string",
          "name": "_name",
          "type": "string"
        },
        {
          "internalType": "string",
          "name": "_aliasName",
          "type": "string"
        },
        {
          "internalType": "string",
          "name": "_url",
          "type": "string"
        }
      ],
      "name": "setNewURL",
      "outputs": [],
      "stateMutability": "payable",
      "type": "function"
    },
    {
      "inputs": [
        {
          "internalType": "address",
          "name": "_revenueAccount",
          "type": "address"
        }
      ],
      "name": "setRevenueAccount",
      "outputs": [],
      "stateMutability": "nonpayable",
      "type": "function"
    },
    {
      "inputs": [
        {
          "internalType": "address",
          "name": "newOwner",
          "type": "address"
        }
      ],
      "name": "transferOwnership",
      "outputs": [],
      "stateMutability": "nonpayable",
      "type": "function"
    },
    {
      "inputs": [
        {
          "internalType": "string",
          "name": "_name",
          "type": "string"
        },
        {
          "internalType": "string",
          "name": "_aliasName",
          "type": "string"
        },
        {
          "internalType": "string",
          "name": "_url",
          "type": "string"
        }
      ],
      "name": "updateURL",
      "outputs": [],
      "stateMutability": "nonpayable",
      "type": "function"
    },
    {
      "inputs": [
        {
          "internalType": "uint256",
          "name": "_urlUpdatePrice",
          "type": "uint256"
        }
      ],
      "name": "updateURLUpdatePrice",
      "outputs": [],
      "stateMutability": "nonpayable",
      "type": "function"
    },
    {
      "inputs": [],
      "name": "urlUpdatePrice",
      "outputs": [
        {
          "internalType": "uint256",
          "name": "",
          "type": "uint256"
        }
      ],
      "stateMutability": "view",
      "type": "function"
    },
    {
      "inputs": [
        {
          "internalType": "bytes32",
          "name": "",
          "type": "bytes32"
        },
        {
          "internalType": "string",
          "name": "",
          "type": "string"
        },
        {
          "internalType": "string",
          "name": "",
          "type": "string"
        }
      ],
      "name": "vanityURLUpdatedAt",
      "outputs": [
        {
          "internalType": "uint256",
          "name": "",
          "type": "uint256"
        }
      ],
      "stateMutability": "view",
      "type": "function"
    },
    {
      "inputs": [
        {
          "internalType": "bytes32",
          "name": "",
          "type": "bytes32"
        },
        {
          "internalType": "string",
          "name": "",
          "type": "string"
        }
      ],
      "name": "vanityURLs",
      "outputs": [
        {
          "internalType": "string",
          "name": "",
          "type": "string"
        }
      ],
      "stateMutability": "view",
      "type": "function"
    },
    {
      "inputs": [],
      "name": "withdraw",
      "outputs": [],
      "stateMutability": "nonpayable",
      "type": "function"
    }
  ],
  "transactionHash": "0xf9933ce12f8243af8dd27739cd4d895487dfcab6fd6cdf0fb63ef76d0c29cca2",
  "args": [],
  "numDeployments": 1,
  "solcInputHash": "38264a18f6049c07416082209c8c85da",
  "bytecode": "0x608060405234801561001057600080fd5b50611d3c806100206000396000f3fe6080604052600436106101145760003560e01c80638da5cb5b116100a0578063e3452cfb11610064578063e3452cfb14610325578063f1558de714610345578063f2fde38b14610372578063f3ad65f414610392578063f5dc7d56146103b257600080fd5b80638da5cb5b1461027d578063b2867247146102af578063c350a1b5146102cf578063d22da075146102ef578063dce02fdb1461030557600080fd5b80635b9299cd116100e75780635b9299cd146101995780635c975abb146101b95780635de870c9146101dc578063715018a6146101fc578063874d037a1461021157600080fd5b806305e66add1461011957806330027f3b1461014f5780633b513894146101715780633ccfd60b14610184575b600080fd5b34801561012557600080fd5b506101396101343660046116f8565b6103d2565b6040516101469190611763565b60405180910390f35b34801561015b57600080fd5b5061016f61016a3660046117ab565b610488565b005b61016f61017f3660046117cf565b6104ec565b34801561019057600080fd5b5061016f6108df565b3480156101a557600080fd5b5061016f6101b4366004611857565b610a03565b3480156101c557600080fd5b5060655460ff166040519015158152602001610146565b3480156101e857600080fd5b5061016f6101f7366004611870565b610a10565b34801561020857600080fd5b5061016f610dbd565b34801561021d57600080fd5b5061026f61022c3660046118ca565b60cc602090815260009384526040909320825180840185018051928152908501938501939093209252805180820184018051938152908401919093012091525481565b604051908152602001610146565b34801561028957600080fd5b506033546001600160a01b03165b6040516001600160a01b039091168152602001610146565b3480156102bb57600080fd5b506101396102ca366004611870565b610dd1565b3480156102db57600080fd5b5061016f6102ea3660046118fe565b610ea1565b3480156102fb57600080fd5b5061026f60cd5481565b34801561031157600080fd5b5061016f610320366004611857565b610ff2565b34801561033157600080fd5b5061016f6103403660046117cf565b61109e565b34801561035157600080fd5b5061026f610360366004611857565b60ca6020526000908152604090205481565b34801561037e57600080fd5b5061016f61038d3660046117ab565b6113b6565b34801561039e57600080fd5b5060c954610297906001600160a01b031681565b3480156103be57600080fd5b5060ce54610297906001600160a01b031681565b60cb60209081526000928352604090922081518083018401805192815290840192909301919091209152805461040790611940565b80601f016020809104026020016040519081016040528092919081815260200182805461043390611940565b80156104805780601f1061045557610100808354040283529160200191610480565b820191906000526020600020905b81548152906001019060200180831161046357829003601f168201915b505050505081565b61049061142c565b60ce546040516001600160a01b038084169216907fe03b0e59900b6347a6bdef98fe51689d53064c5235a2ca9fc10a27c497ec730790600090a360ce80546001600160a01b0319166001600160a01b0392909216919091179055565b6104f4611486565b6104fc6114df565b825160208085019190912060c95460408051631177e3cf60e01b8152905187946000936001600160a01b031692631177e3cf92600480830193928290030181865afa15801561054f573d6000803e3d6000fd5b505050506040513d601f19601f82011682018060405250810190610573919061197a565b6040516375ba902160e11b8152600481018490529091506000906001600160a01b0383169063eb75204290602401600060405180830381865afa1580156105be573d6000803e3d6000fd5b505050506040513d6000823e601f3d908101601f191682016040526105e691908101906119e4565b50505050509050806001600160a01b0316336001600160a01b0316146106275760405162461bcd60e51b815260040161061e90611aa5565b60405180910390fd5b8651602080890191909120600081815260ca835260408082205460cc90945290819020905191929161065a908a90611ad5565b9081526020016040518091039020876040516106769190611ad5565b908152602001604051809103902054106106d25760405162461bcd60e51b815260206004820152601d60248201527f56616e69747955524c3a2075726c20616c726561647920657869737473000000604482015260640161061e565b60cd54348111156107255760405162461bcd60e51b815260206004820152601f60248201527f56616e69747955524c3a20696e73756666696369656e74207061796d656e7400604482015260640161061e565b8660cb6000848152602001908152602001600020896040516107479190611ad5565b908152602001604051809103902090816107619190611b3f565b504260cc6000848152602001908152602001600020896040516107849190611ad5565b9081526020016040518091039020886040516107a09190611ad5565b9081526040519081900360200190205560006107bc8234611bff565b9050801561085557604051600090339083908381818185875af1925050503d8060008114610806576040519150601f19603f3d011682016040523d82523d6000602084013e61080b565b606091505b50509050806108535760405162461bcd60e51b815260206004820152601460248201527363616e6e6f7420726566756e642065786365737360601b604482015260640161061e565b505b876040516108639190611ad5565b6040518091039020896040516108799190611ad5565b60405180910390208b60405161088f9190611ad5565b604051908190038120338252907f13e9759ec5026e955e0e6d2ead4f13f2125d2d68a621346a3ed77c4aa5f28de19060200160405180910390a4505050505050506108da6001609755565b505050565b6033546001600160a01b0316331480610902575060ce546001600160a01b031633145b61095d5760405162461bcd60e51b815260206004820152602660248201527f443144433a206d757374206265206f776e6572206f7220726576656e7565206160448201526518d8dbdd5b9d60d21b606482015260840161061e565b60ce546040516000916001600160a01b03169047908381818185875af1925050503d80600081146109aa576040519150601f19603f3d011682016040523d82523d6000602084013e6109af565b606091505b5050905080610a005760405162461bcd60e51b815260206004820152601860248201527f443144433a206661696c656420746f2077697468647261770000000000000000604482015260640161061e565b50565b610a0b61142c565b60cd55565b610a186114df565b815160208084019190912060c95460408051631177e3cf60e01b8152905186946000936001600160a01b031692631177e3cf92600480830193928290030181865afa158015610a6b573d6000803e3d6000fd5b505050506040513d601f19601f82011682018060405250810190610a8f919061197a565b6040516375ba902160e11b8152600481018490529091506000906001600160a01b0383169063eb75204290602401600060405180830381865afa158015610ada573d6000803e3d6000fd5b505050506040513d6000823e601f3d908101601f19168201604052610b0291908101906119e4565b50505050509050806001600160a01b0316336001600160a01b031614610b3a5760405162461bcd60e51b815260040161061e90611aa5565b600086805190602001209050600060cb600083815260200190815260200160002087604051610b699190611ad5565b90815260200160405180910390208054610b8290611940565b80601f0160208091040260200160405190810160405280929190818152602001828054610bae90611940565b8015610bfb5780601f10610bd057610100808354040283529160200191610bfb565b820191906000526020600020905b815481529060010190602001808311610bde57829003601f168201915b5050505050905060cc600083815260200190815260200160002087604051610c239190611ad5565b908152602001604051809103902081604051610c3f9190611ad5565b90815260200160405180910390205460ca6000848152602001908152602001600020541115610ca95760405162461bcd60e51b815260206004820152601660248201527515985b9a5d1e5554930e881a5b9d985b1a590815549360521b604482015260640161061e565b80604051610cb79190611ad5565b604051809103902087604051610ccd9190611ad5565b604051809103902089604051610ce39190611ad5565b604051908190038120338252907f0ebb99856fe845dcc1e2291e7f2d8ac960cacfe58868974461990868583d62129060200160405180910390a46040805160208082018352600080835285815260cb909152829020915190918291610d49908b90611ad5565b90815260200160405180910390209081610d639190611b3f565b504260cc600085815260200190815260200160002089604051610d869190611ad5565b908152602001604051809103902082604051610da29190611ad5565b90815260405190819003602001902055505050505050505050565b610dc561142c565b610dcf600061152c565b565b606060008380519060200120905060cb600082815260200190815260200160002083604051610e009190611ad5565b90815260200160405180910390208054610e1990611940565b80601f0160208091040260200160405190810160405280929190818152602001828054610e4590611940565b8015610e925780601f10610e6757610100808354040283529160200191610e92565b820191906000526020600020905b815481529060010190602001808311610e7557829003601f168201915b50505050509150505b92915050565b600054610100900460ff1615808015610ec15750600054600160ff909116105b80610edb5750303b158015610edb575060005460ff166001145b610f3e5760405162461bcd60e51b815260206004820152602e60248201527f496e697469616c697a61626c653a20636f6e747261637420697320616c72656160448201526d191e481a5b9a5d1a585b1a5e995960921b606482015260840161061e565b6000805460ff191660011790558015610f61576000805461ff0019166101001790555b610f6961157e565b610f716115ad565b60c980546001600160a01b038087166001600160a01b03199283161790925560cd85905560ce8054928516929091169190911790558015610fec576000805461ff0019169055604051600181527f7f26b83ff96e1f2b6a682f133852f6798a09c465da95921460cefb38474024989060200160405180910390a15b50505050565b60c95460408051631177e3cf60e01b815290516000926001600160a01b031691631177e3cf9160048083019260209291908290030181865afa15801561103c573d6000803e3d6000fd5b505050506040513d601f19601f82011682018060405250810190611060919061197a565b9050336001600160a01b0382161461108a5760405162461bcd60e51b815260040161061e90611aa5565b50600090815260ca60205260409020429055565b6110a66114df565b825160208085019190912060c95460408051631177e3cf60e01b8152905187946000936001600160a01b031692631177e3cf92600480830193928290030181865afa1580156110f9573d6000803e3d6000fd5b505050506040513d601f19601f8201168201806040525081019061111d919061197a565b6040516375ba902160e11b8152600481018490529091506000906001600160a01b0383169063eb75204290602401600060405180830381865afa158015611168573d6000803e3d6000fd5b505050506040513d6000823e601f3d908101601f1916820160405261119091908101906119e4565b50505050509050806001600160a01b0316336001600160a01b0316146111c85760405162461bcd60e51b815260040161061e90611aa5565b60008780519060200120905060cc6000828152602001908152602001600020876040516111f59190611ad5565b9081526020016040518091039020866040516112119190611ad5565b90815260200160405180910390205460ca600083815260200190815260200160002054111561127b5760405162461bcd60e51b815260206004820152601660248201527515985b9a5d1e5554930e881a5b9d985b1a590815549360521b604482015260640161061e565b856040516112899190611ad5565b60405180910390208760405161129f9190611ad5565b6040518091039020896040516112b59190611ad5565b60405180910390207fb50e10d60f9b32ef3d334612dab67fef5b70a8634f47d76d0ed93a7729fec3353360cb60008781526020019081526020016000208c6040516113009190611ad5565b9081526040519081900360200181206113199291611c20565b60405180910390a48560cb6000838152602001908152602001600020886040516113439190611ad5565b9081526020016040518091039020908161135d9190611b3f565b504260cc6000838152602001908152602001600020886040516113809190611ad5565b90815260200160405180910390208760405161139c9190611ad5565b908152604051908190036020019020555050505050505050565b6113be61142c565b6001600160a01b0381166114235760405162461bcd60e51b815260206004820152602660248201527f4f776e61626c653a206e6577206f776e657220697320746865207a65726f206160448201526564647265737360d01b606482015260840161061e565b610a008161152c565b6033546001600160a01b03163314610dcf5760405162461bcd60e51b815260206004820181905260248201527f4f776e61626c653a2063616c6c6572206973206e6f7420746865206f776e6572604482015260640161061e565b6002609754036114d85760405162461bcd60e51b815260206004820152601f60248201527f5265656e7472616e637947756172643a207265656e7472616e742063616c6c00604482015260640161061e565b6002609755565b60655460ff1615610dcf5760405162461bcd60e51b815260206004820152601060248201526f14185d5cd8589b194e881c185d5cd95960821b604482015260640161061e565b6001609755565b603380546001600160a01b038381166001600160a01b0319831681179093556040519116919082907f8be0079c531659141344cd1fd0a4f28419497f9722a3daafe3b4186f6b6457e090600090a35050565b600054610100900460ff166115a55760405162461bcd60e51b815260040161061e90611cbb565b610dcf6115dc565b600054610100900460ff166115d45760405162461bcd60e51b815260040161061e90611cbb565b610dcf61160c565b600054610100900460ff166116035760405162461bcd60e51b815260040161061e90611cbb565b610dcf3361152c565b600054610100900460ff166115255760405162461bcd60e51b815260040161061e90611cbb565b634e487b7160e01b600052604160045260246000fd5b604051601f8201601f1916810167ffffffffffffffff8111828210171561167257611672611633565b604052919050565b600067ffffffffffffffff82111561169457611694611633565b50601f01601f191660200190565b600082601f8301126116b357600080fd5b81356116c66116c18261167a565b611649565b8181528460208386010111156116db57600080fd5b816020850160208301376000918101602001919091529392505050565b6000806040838503121561170b57600080fd5b82359150602083013567ffffffffffffffff81111561172957600080fd5b611735858286016116a2565b9150509250929050565b60005b8381101561175a578181015183820152602001611742565b50506000910152565b602081526000825180602084015261178281604085016020870161173f565b601f01601f19169190910160400192915050565b6001600160a01b0381168114610a0057600080fd5b6000602082840312156117bd57600080fd5b81356117c881611796565b9392505050565b6000806000606084860312156117e457600080fd5b833567ffffffffffffffff808211156117fc57600080fd5b611808878388016116a2565b9450602086013591508082111561181e57600080fd5b61182a878388016116a2565b9350604086013591508082111561184057600080fd5b5061184d868287016116a2565b9150509250925092565b60006020828403121561186957600080fd5b5035919050565b6000806040838503121561188357600080fd5b823567ffffffffffffffff8082111561189b57600080fd5b6118a7868387016116a2565b935060208501359150808211156118bd57600080fd5b50611735858286016116a2565b6000806000606084860312156118df57600080fd5b83359250602084013567ffffffffffffffff8082111561181e57600080fd5b60008060006060848603121561191357600080fd5b833561191e81611796565b925060208401359150604084013561193581611796565b809150509250925092565b600181811c9082168061195457607f821691505b60208210810361197457634e487b7160e01b600052602260045260246000fd5b50919050565b60006020828403121561198c57600080fd5b81516117c881611796565b600082601f8301126119a857600080fd5b81516119b66116c18261167a565b8181528460208386010111156119cb57600080fd5b6119dc82602083016020870161173f565b949350505050565b60008060008060008060c087890312156119fd57600080fd5b8651611a0881611796565b602088015190965063ffffffff81168114611a2257600080fd5b60408801516060890151919650945067ffffffffffffffff80821115611a4757600080fd5b611a538a838b01611997565b94506080890151915080821115611a6957600080fd5b611a758a838b01611997565b935060a0890151915080821115611a8b57600080fd5b50611a9889828a01611997565b9150509295509295509295565b6020808252601690820152752b30b734ba3caaa9261d1037b7363c902218a221ab1960511b604082015260600190565b60008251611ae781846020870161173f565b9190910192915050565b601f8211156108da57600081815260208120601f850160051c81016020861015611b185750805b601f850160051c820191505b81811015611b3757828155600101611b24565b505050505050565b815167ffffffffffffffff811115611b5957611b59611633565b611b6d81611b678454611940565b84611af1565b602080601f831160018114611ba25760008415611b8a5750858301515b600019600386901b1c1916600185901b178555611b37565b600085815260208120601f198616915b82811015611bd157888601518255948401946001909101908401611bb2565b5085821015611bef5787850151600019600388901b60f8161c191681555b5050505050600190811b01905550565b81810381811115610e9b57634e487b7160e01b600052601160045260246000fd5b60018060a01b03831681526000602060408184015260008454611c4281611940565b8060408701526060600180841660008114611c645760018114611c7e57611cac565b60ff1985168984015283151560051b890183019550611cac565b896000528660002060005b85811015611ca45781548b8201860152908301908801611c89565b8a0184019650505b50939998505050505050505050565b6020808252602b908201527f496e697469616c697a61626c653a20636f6e7472616374206973206e6f74206960408201526a6e697469616c697a696e6760a81b60608201526080019056fea2646970667358221220fcb4275d166487a642d987ce7d59729cabb6c5b7104930b69edfa490f258072a64736f6c63430008110033",
  "devdoc": {
    "kind": "dev",
    "methods": {
      "owner()": {
        "details": "Returns the address of the current owner."
      },
      "paused()": {
        "details": "Returns true if the contract is paused, and false otherwise."
      },
      "renounceOwnership()": {
        "details": "Leaves the contract without owner. It will not be possible to call `onlyOwner` functions anymore. Can only be called by the current owner. NOTE: Renouncing ownership will leave the contract without an owner, thereby removing any functionality that is only available to the owner."
      },
      "transferOwnership(address)": {
        "details": "Transfers ownership of the contract to a new account (`newOwner`). Can only be called by the current owner."
      }
    },
    "stateVariables": {
      "addressRegistry": {
        "details": "AddressRegistry contract"
      },
      "nameOwnerUpdateAt": {
        "details": "D1DCV2 TokenId -> Timestamp the name owner was updated"
      },
      "revenueAccount": {
        "details": "Fee withdrawal address"
      },
      "urlUpdatePrice": {
        "details": "Price for the url update"
      },
      "vanityURLUpdatedAt": {
        "details": "D1DCV2 Token Id -> Alias Name -> Vanity URL -> Timestamp the URL was updatedVanity URL is valid only if nameOwnerUpdateAt <= vanityURLUpdatedAt"
      },
      "vanityURLs": {
        "details": "D1DCV2 TokenId -> Alias Name -> URL"
      }
    },
    "version": 1
  },
  "userdoc": {
    "kind": "user",
    "methods": {},
    "version": 1
  },
  "storageLayout": {
    "storage": [
      {
        "astId": 138,
        "contract": "contracts/VanityURL.sol:VanityURL",
        "label": "_initialized",
        "offset": 0,
        "slot": "0",
        "type": "t_uint8"
      },
      {
        "astId": 141,
        "contract": "contracts/VanityURL.sol:VanityURL",
        "label": "_initializing",
        "offset": 1,
        "slot": "0",
        "type": "t_bool"
      },
      {
        "astId": 825,
        "contract": "contracts/VanityURL.sol:VanityURL",
        "label": "__gap",
        "offset": 0,
        "slot": "1",
        "type": "t_array(t_uint256)50_storage"
      },
      {
        "astId": 10,
        "contract": "contracts/VanityURL.sol:VanityURL",
        "label": "_owner",
        "offset": 0,
        "slot": "51",
        "type": "t_address"
      },
      {
        "astId": 130,
        "contract": "contracts/VanityURL.sol:VanityURL",
        "label": "__gap",
        "offset": 0,
        "slot": "52",
        "type": "t_array(t_uint256)49_storage"
      },
      {
        "astId": 321,
        "contract": "contracts/VanityURL.sol:VanityURL",
        "label": "_paused",
        "offset": 0,
        "slot": "101",
        "type": "t_bool"
      },
      {
        "astId": 426,
        "contract": "contracts/VanityURL.sol:VanityURL",
        "label": "__gap",
        "offset": 0,
        "slot": "102",
        "type": "t_array(t_uint256)49_storage"
      },
      {
        "astId": 441,
        "contract": "contracts/VanityURL.sol:VanityURL",
        "label": "_status",
        "offset": 0,
        "slot": "151",
        "type": "t_uint256"
      },
      {
        "astId": 499,
        "contract": "contracts/VanityURL.sol:VanityURL",
        "label": "__gap",
        "offset": 0,
        "slot": "152",
        "type": "t_array(t_uint256)49_storage"
      },
      {
        "astId": 843,
        "contract": "contracts/VanityURL.sol:VanityURL",
        "label": "addressRegistry",
        "offset": 0,
        "slot": "201",
        "type": "t_contract(IAddressRegistry)1364"
      },
      {
        "astId": 848,
        "contract": "contracts/VanityURL.sol:VanityURL",
        "label": "nameOwnerUpdateAt",
        "offset": 0,
        "slot": "202",
        "type": "t_mapping(t_bytes32,t_uint256)"
      },
      {
        "astId": 855,
        "contract": "contracts/VanityURL.sol:VanityURL",
        "label": "vanityURLs",
        "offset": 0,
        "slot": "203",
        "type": "t_mapping(t_bytes32,t_mapping(t_string_memory_ptr,t_string_storage))"
      },
      {
        "astId": 864,
        "contract": "contracts/VanityURL.sol:VanityURL",
        "label": "vanityURLUpdatedAt",
        "offset": 0,
        "slot": "204",
        "type": "t_mapping(t_bytes32,t_mapping(t_string_memory_ptr,t_mapping(t_string_memory_ptr,t_uint256)))"
      },
      {
        "astId": 867,
        "contract": "contracts/VanityURL.sol:VanityURL",
        "label": "urlUpdatePrice",
        "offset": 0,
        "slot": "205",
        "type": "t_uint256"
      },
      {
        "astId": 870,
        "contract": "contracts/VanityURL.sol:VanityURL",
        "label": "revenueAccount",
        "offset": 0,
        "slot": "206",
        "type": "t_address"
      }
    ],
    "types": {
      "t_address": {
        "encoding": "inplace",
        "label": "address",
        "numberOfBytes": "20"
      },
      "t_array(t_uint256)49_storage": {
        "base": "t_uint256",
        "encoding": "inplace",
        "label": "uint256[49]",
        "numberOfBytes": "1568"
      },
      "t_array(t_uint256)50_storage": {
        "base": "t_uint256",
        "encoding": "inplace",
        "label": "uint256[50]",
        "numberOfBytes": "1600"
      },
      "t_bool": {
        "encoding": "inplace",
        "label": "bool",
        "numberOfBytes": "1"
      },
      "t_bytes32": {
        "encoding": "inplace",
        "label": "bytes32",
        "numberOfBytes": "32"
      },
      "t_contract(IAddressRegistry)1364": {
        "encoding": "inplace",
        "label": "contract IAddressRegistry",
        "numberOfBytes": "20"
      },
      "t_mapping(t_bytes32,t_mapping(t_string_memory_ptr,t_mapping(t_string_memory_ptr,t_uint256)))": {
        "encoding": "mapping",
        "key": "t_bytes32",
        "label": "mapping(bytes32 => mapping(string => mapping(string => uint256)))",
        "numberOfBytes": "32",
        "value": "t_mapping(t_string_memory_ptr,t_mapping(t_string_memory_ptr,t_uint256))"
      },
      "t_mapping(t_bytes32,t_mapping(t_string_memory_ptr,t_string_storage))": {
        "encoding": "mapping",
        "key": "t_bytes32",
        "label": "mapping(bytes32 => mapping(string => string))",
        "numberOfBytes": "32",
        "value": "t_mapping(t_string_memory_ptr,t_string_storage)"
      },
      "t_mapping(t_bytes32,t_uint256)": {
        "encoding": "mapping",
        "key": "t_bytes32",
        "label": "mapping(bytes32 => uint256)",
        "numberOfBytes": "32",
        "value": "t_uint256"
      },
      "t_mapping(t_string_memory_ptr,t_mapping(t_string_memory_ptr,t_uint256))": {
        "encoding": "mapping",
        "key": "t_string_memory_ptr",
        "label": "mapping(string => mapping(string => uint256))",
        "numberOfBytes": "32",
        "value": "t_mapping(t_string_memory_ptr,t_uint256)"
      },
      "t_mapping(t_string_memory_ptr,t_string_storage)": {
        "encoding": "mapping",
        "key": "t_string_memory_ptr",
        "label": "mapping(string => string)",
        "numberOfBytes": "32",
        "value": "t_string_storage"
      },
      "t_mapping(t_string_memory_ptr,t_uint256)": {
        "encoding": "mapping",
        "key": "t_string_memory_ptr",
        "label": "mapping(string => uint256)",
        "numberOfBytes": "32",
        "value": "t_uint256"
      },
      "t_string_memory_ptr": {
        "encoding": "bytes",
        "label": "string",
        "numberOfBytes": "32"
      },
      "t_string_storage": {
        "encoding": "bytes",
        "label": "string",
        "numberOfBytes": "32"
      },
      "t_uint256": {
        "encoding": "inplace",
        "label": "uint256",
        "numberOfBytes": "32"
      },
      "t_uint8": {
        "encoding": "inplace",
        "label": "uint8",
        "numberOfBytes": "1"
      }
    }
  }
}